:020000040001F9
:10D00000C03B002035D101004FD1010051D10100BA
:10D010000000000000000000000000000000000010
:10D0200000000000000000000000000053D10100DB
:10D03000000000000000000055D1010057D10100A0
:10D0400059D1010059D10100D1D4010059D10100B9
:10D0500059D101000000000075D201002DD201005D
:10D0600059D1010059D1010059D1010059D1010014
:10D0700059D1010059D1010059D1010059D1010004
:10D0800059D1010005D4010059D1010059D1010045
:10D090002DD4010035D4010061D4010059D1010023
:10D0A00059D1010059D1010000000000000000002A
:10D0B0000000000000000000000000000000000070
:10D0C0000348854600F0A0F8004800470DEA01003B
:10D0D000C03B0020401E00BF00BF00BF00BF00BF1C
:10D0E00000BF00BF00BF00BF00BF00BF00BFF1D145
:10D0F00070470000401E00BF00BF00BF00BF00BF60
:10D1000000BF00BF00BF00BF00BF00BF00BFF1D124
:10D1100070470000401E00BF00BF00BF00BF00BF3F
:10D1200000BF00BF00BF00BF00BF00BF00BFF1D104
:10D13000704700000321094802680A43026008485A
:10D1400002680A4302600748804707480047FEE735
:10D15000FEE7FEE7FEE7FEE7FEE7000024050040ED
:10D160005405004099D40100C1D0010030B50B46F0
:10D17000014600202022012409E00D46D5409D42B1
:10D1800005D31D469540491B254695404019154637
:10D19000521E002DF1DC30BD70B50024254600285C
:10D1A00001DA01244042002901DA01254942FFF752
:10D1B000DDFFAC4200D04042002C00D0494270BD9F
:10D1C00003460B439B0703D009E008C9121F08C0A0
:10D1D000042AFAD203E00B780370401C491C521E4B
:10D1E000F9D27047D2B201E00270401C491EFBD256
:10D1F00070470022F6E710B513460A460446194662
:10D20000FFF7F0FF204610BD064C0125064E05E055
:10D21000E36807CC2B430C3C98471034B442F7D357
:10D22000FFF752FF9C010200BC01020010B50D483F
:10D230000068002814D000200A4908600A48806865
:10D24000C4B20120094948604B21090161430846E5
:10D25000FF21FFF7A1FF410040180549088000BFEA
:10D2600010BD0000007100400075004000700040DB
:10D2700050280020F0B585B03048056900203049BD
:10D28000C863002654E0142070432E4909684418EE
:10D290000120B0402C4909680840002846D00020F1
:10D2A00002900190E068C043684021680840039004
:10D2B0002046039902F0B8FA2048006968402168C6
:10D2C000084004900498002818D004986840009002
:10D2D000E068C04300994840216808400746394645
:10D2E000204602F0A1FAA0680099884338400190D6
:10D2F0006068009908403840029000BFA068A843C9
:10D3000003990840019908430190606828400399F7
:10D3100008400299084302900199029808430028A6
:10D3200003D0226901990298904700BF701CC6B2D1
:10D33000064800788642A6DB05B0F0BD0005005027
:10D3400040610040B4280020AC280020B128002013
:10D35000C206D20E01219140014A116070470000BF
:10D3600080E200E0C206D20E01219140014A116024
:10D370007047000000E100E0C206D20E012191409A
:10D38000014A11607047000000E200E010B500287B
:10D3900019DA1A4A03071B0F083B9B089B00D25857
:10D3A0008307DC0EFF23A3409A438B071B0E8407E1
:10D3B000E40EA3401A43114B0407240F083CA408B1
:10D3C000A4001A5118E00E4A03231B02D218830846
:10D3D0009B00D2588307DC0EFF23A3409A438B07A0
:10D3E0001B0E8407E40EA3401A43054B03242402BA
:10D3F0001B198408A4001A5110BD00001CED00E0A8
:10D4000000E100E010B5002007490860002106484F
:10D4100041608160C1600020034940390860486074
:10D4200002F058FD10BD00004011014010B502F09F
:10D4300001FC10BD10B5084800780121484006499C
:10D44000087006480068002804D0084600780349A0
:10D450000968884710BD0000542800205828002083
:10D4600070B50C480068002810D00A480068804752
:10D47000044600BF2546002D06D000BF00221146FD
:10D48000284600F0D9F800BF00BF01E001F00CF918
:10D4900070BD0000B828002010B501F07FF9002809
:10D4A00005D0074807494860C8130749886101F05B
:10D4B00059F9002802D001200449886010BD0000FD
:10D4C000DFFF07C000050040006C00400006004080
:10D4D0001CB524488068002818D0234840680421DF
:10D4E0000840002812D000201E4988601F4880692B
:10D4F000C0B21F4908800421684601701C480178A9
:10D50000684601711B490968884700BF1548C06912
:10D5100000280BD01448406880210840002805D01E
:10D5200000201049C861032001F0ACFC0D48406A9E
:10D53000002816D00C484068012149020840002804
:10D540000FD000200749486208488038046804600A
:10D5500002206946087001946846064909688847B0
:10D5600000BF1CBD002100400023004000250040FA
:10D570006E2800207828002030B47446641E257878
:10D58000641CAB4204D3635D5B00E31830BC1847F6
:10D590001D46F8E702E008C8121F08C1002AFAD1A8
:10D5A00070477047002001E001C1121F002AFBD123
:10D5B000704710B500F01AF810BD00000748007859
:10D5C000022802D0012006498860064800780649F2
:10D5D000C861022001490870704700007C280020C3
:10D5E000002000406C280020002500401CB50120D0
:10D5F0000549C860054908700320694608706846F7
:10D600000349096888471CBD002000407C28002091
:10D610007828002000200549087001200449C860CE
:10D620004860002003490860704700007C28002003
:10D63000002000400025004000BFBFF34F8F04488A
:10D640000449C860BFF34F8F00BF00BFFEE7000072
:10D650000400FA0500ED00E0F8B505460C46277811
:10D66000A068000105490E58608800902A46394696
:10D67000204608302369B047F8BD00007C2D00200B
:10D6800070B503460C4619480068002801D10820EF
:10D6900070BD002A01D10720FAE7002B01D1072035
:10D6A000F6E700211CE024204843104D2D68285C3B
:10D6B000002814D10125242048430C4E36683554E7
:10D6C00024204843094D2D684019447024204843C4
:10D6D000064D2D684019826119600020D8E7491C69
:10D6E000034800788142DEDB0420D1E78428002053
:10D6F00080280020FFB581B00E4617461C46204604
:10D700008107890F002901D1012100E000210029B2
:10D7100002D1072005B0F0BD002C01D10720F9E7A8
:10D7200001F074FF26490A980860264806702648CA
:10D73000046000250CE0002124206843224A12687E
:10D74000115424206843204A1268801801756D1C0A
:10D75000B542F0DB24207043041903201B490870F4
:10D760001B480460183400250CE0E900184A1268D0
:10D770008818002101704170877044601821794336
:10D780000C196D1C032DF0DB0020C043114908600B
:10D79000002011490870114908701420FFF7D8FDC6
:10D7A00003211420FFF7F2FD1420FFF7DBFD0198A1
:10D7B00001F002FF01F0FAFE094908600020A9E724
:10D7C000A428002080280020842800208828002009
:10D7D0008C28002090280020A0280020A1280020CC
:10D7E00094280020FEB504460D46164616480068EB
:10D7F000002801D10820FEBD14480078844201D2DF
:10D80000052D01D20720F6E7242060430E49096860
:10D81000085C012801D00820EDE7242060430A4974
:10D82000096840184078012801D1284600E000200E
:10D83000074602F0E7FB3B462A4621460096019048
:10D8400002F0FEFAD7E7000084280020802800209C
:10D8500070B504460D480068002801D1082070BD4D
:10D860000B480078844201D30720F8E72420604366
:10D8700006490968085C012801D00820EFE702F09A
:10D88000C1FB0546214602F005FBE8E7842800209D
:10D890008028002038B5054600BF01201D4948609A
:10D8A0002802082108431C49486000201B490860E1
:10D8B0000120194908600020009049DF01E0684616
:10D8C0004BDF00980028FAD000201449086001209E
:10D8D00013490860002401E0601CC4B20F480068CE
:10D8E000002801D1FF2CF7DB0B4989684B2212017C
:10D8F00051430846FF21FFF739FC41004018094910
:10D9000008800120064948600020034908604ADF7A
:10D9100038BD0000007300400075004000710040F9
:10D92000007000405028002070B50446261D208855
:10D9300019287DD01B287CD1607C81287AD1A07CDD
:10D940005828FBD1A07BC007C00F00287ED0B07A3A
:10D95000C00803287ADD002041494870062008E00D
:10D96000421EF11C895C0822121A3D4B9954411E3B
:10D97000C8B20028F4DC042007E021460F310A5C1D
:10D98000374B011D5A54411CC8B21C28F5DB607B83
:10D99000334908700846806832490968081A3049D6
:10D9A00008613048006888602F4A30480188304854
:10D9B00001F08EFA054600BF2B46002B05D000BFB4
:10D9C000002211461846FFF737FE00BF0023202231
:10D9D0002349254801F09EFC054600BF2B46002B3D
:10D9E00005D000BF002211461846FFF725FE00BFF4
:10D9F0001E480088401C1D4908801E480068FFF72B
:10DA000027FF0022012109041A480068FFF7EAFEF7
:10DA1000164800881921C901884213DA164800689F
:10DA2000E121C900884211D310480088192102E081
:10DA30000DE011E005E08901884207DD01200F4972
:10DA4000087003E087DF00200D49087005E0A07929
:10DA5000022800D101E000BF00BF00BF70BD000080
:10DA6000E028002008280020482800203A2800202C
:10DA70002C280020042800200C2800203D2800200D
:10DA8000442800200007000F0A2803DA014630313D
:10DA9000C8B202E001463731C8B27047F0B587B06E
:10DAA0000F2755480078142148435349091D44184D
:10DAB000E5682078022804D0042823D005287CD1EA
:10DAC0006AE0206905904D48008886026088801BC6
:10DAD0000690059880190590A088801945190121A4
:10DAE00089020698884206D2069882082846059937
:10DAF00029DF074605E0FF2201322846059929DF84
:10DB000007466FE0A06800013D4940180089069073
:10DB1000A0680001401840890590A06800014018E5
:10DB2000406804900498A84205D105990698484396
:10DB30006188884202D0A06865280DD101F07CFA86
:10DB4000014603902846FFF711FB2C490988461827
:10DB5000304628DF07461EE001F06EFA01460190CC
:10DB60002846FFF703FB064601F066FA7043281AC1
:10DB70008008039001F060FA711C484361884919DC
:10DB8000401A8008029031462046029B039A01F019
:10DB90004BFF074600BF25E001F04EFA0146049016
:10DBA0002846FFF7E3FA064601F046FA7043A188DB
:10DBB0004919081A8008069000E012E001F03CFACA
:10DBC000711C4843A188491962888918401A800845
:10DBD000059031462046059B069A01F025FF074631
:10DBE00000E000BF00BF002F02D101200249887071
:10DBF000384607B0F0BD0000B02C00206828002097
:10DC00007C2D002010B500240848407800280BDD4A
:10DC100006488078002807D1FFF740FF0446002C13
:10DC200002D0112C00D10024204610BDB02C0020C1
:10DC30000023142141430C4A5354142141438918B1
:10DC40004B8064231421414389188B6000231421E5
:10DC500041438918CB601421414389180B61142179
:10DC6000414389188B807047B42C0020FFB581B0E8
:10DC7000064617460024224840780A283CD020480F
:10DC800000781F4949784018C4B20A2C02DB2046AC
:10DC90000A38C4B2142060431949091D0E540022E9
:10DCA00014206043401842701420604340180761FC
:10DCB000142060434118029805C8CA608860142186
:10DCC00061430F4A121D891804984880142161434A
:10DCD00089180A9888800025101F8078002805D1AF
:10DCE000FFF7DCFE0546112D00D1002504484078E1
:10DCF000401C0349487000E00425284605B0F0BDEB
:10DD0000B02C002010B50020084908800849087090
:10DD10000849087048708870002403E02046FFF727
:10DD200087FF641C0A2CF9D310BD0000682800206E
:10DD30006B280020B02C0020FEB51E480068401C57
:10DD4000002834D01B480068242148431A49096838
:10DD50004018456801F02AFC0190184804682146E3
:10DD6000019801F041FFC61C15480078002801D138
:10DD700001F02EFCAE4201D2284600E030460419E4
:10DD80002402240A20460F49086000BF01F00EFC5F
:10DD900000900199009801F027FFC71C20460199C7
:10DDA00001F022FF874201D902F0E2F801E001F020
:10DDB0002DFCFEBD902800208428002094280020FF
:10DDC000A82800204015014010B514484068C1053E
:10DDD000C90D002920D00A46103A50B200280DDAA9
:10DDE0000E4B1C330407240F083CA408A4001B5945
:10DDF0008407E40EE3401B069B0F0BE0084B032453
:10DE000024021B198408A4001B598407E40EE34074
:10DE10001B069B0FD8B210BD0420FCE700ED00E00C
:10DE200000E100E0014614480078144A127890425C
:10DE30001DD011480078401C0F4A10701046007821
:10DE4000022801D1002010700B48007880000C4A95
:10DE5000105808600B4A086812688018094A106058
:10DE6000104600680002000A106001207047002080
:10DE7000086000BFFAE70000A0280020A1280020C9
:10DE8000982800209428002070B5049C044E456812
:10DE90003668B54202D10025024E357070BD0000D3
:10DEA0003428002038280020F0B50346002426E05E
:10DEB000164E366824277E43154F3F68F019466892
:10DEC0009E4203D94668F61A46601DE046689B1BD1
:10DED000466834190026466006750C4E35680B4FAF
:10DEE000066A3E600669002E08D00E193602360A10
:10DEF00086600669C66016680662156000BF034842
:10DF00000068401C0028D3D100BFF0BD902800203D
:10DF100084280020F0B599B05022FE4905A8FFF7EB
:10DF20004FF90424FC4800F02FFF03A871DF002202
:10DF300015E003A90131895C0811FFF7A3FD214613
:10DF4000631CDCB205AB5854D91F885CFFF79AFDFF
:10DF50002146631CDCB205AB5854501CC2B2062AE1
:10DF6000E7DB40222046611CCCB205A90A54EBA194
:10DF7000EBA001F0D3FBE9A1E9A001F0CFFBE7A101
:10DF8000E7A001F0CBFBE5A1E7A001F0C7FBE8A10A
:10DF9000E9A001F0C3FB002809D1E0A1E9A001F04C
:10DFA000BDFBDEA1EAA001F0B9FB19B0F0BDEAA10A
:10DFB000EBA001F0B3FB002800D1F6E7D7A1EBA05E
:10DFC00001F0ACFBECA1EFA001F0A8FB002803D10D
:10DFD000E9A1ECA001F0A2FB202008E0EC490B5CD9
:10DFE0002146621CD4B205AA5354411CC8B224284D
:10DFF000F4DB272008E0E6490B5C2146621CD4B222
:10E0000005AA5354411CC8B22B28F4DBC3A1E1A0DC
:10E0100001F084FBC1A1E2A001F080FB0B2008E02D
:10E02000DB490B5C2146621CD4B205AA5354411C47
:10E03000C8B21528F4DB2C222046611CCCB205A9FD
:10E040000A54B6A1D9A001F069FB162008E0D04916
:10E050000B5C2146621CD4B205AA5354411CC8B2C1
:10E060001A28F4DB2C222046611CCCB205A90A54E4
:10E07000D14909880813FFF705FD2146621CD4B277
:10E0800005AA5054CC4909880812FFF7FBFC214629
:10E09000621CD4B205AA5054C74909880905080E64
:10E0A000FFF7F0FC2146621CD4B205AA5054C249C5
:10E0B0000878FFF7E7FC2146621CD4B205AA505449
:10E0C0002C222046611CCCB205A90A54BB49098800
:10E0D0000813FFF7D7FC2146621CD4B205AA50549E
:10E0E000B64909880812FFF7CDFC2146621CD4B25C
:10E0F00005AA5054B14909880905080EFFF7C2FC6A
:10E100002146621CD4B205AA5054AC490878FFF7E6
:10E11000B9FC2146621CD4B205AA50547FA1A8A024
:10E1200001F0FCFA002870D09948407D31286CD16C
:10E130009748807D352868DB142008E094490B5C03
:10E140002146621CD4B205AA5354411CC8B22A28E5
:10E15000F4DB8F48007E30380A2148438C49497EE1
:10E16000303940188A4908760846C07E30380A217E
:10E1700048438749097F303940188549C8760846A1
:10E18000807F30380A2148438149C97F303940189F
:10E190007F49887708462030407830380A21484344
:10E1A0007B492031897830394018C1B27848203015
:10E1B0004170007930380A21484375492031497946
:10E1C00030394018C1B27248203001712038007EC9
:10E1D000401E40007D49085A6D49C97E4018401EC6
:10E1E000182148436A49897F40183C2148436849BF
:10E1F0002031497840183C2148436549203109794C
:10E2000040187349086001E0FFE7CEE643A171A022
:10E2100001F084FA71A174A001F080FA002803D102
:10E220003EA174A001F07AFA3CA176A001F076FA42
:10E230003AA179A001F072FA7AA17BA001F06EFAFE
:10E240007CA17FA001F06AFA002806D179A135A04F
:10E2500001F064FA002800D1A7E630A182A001F005
:10E260005DFA85A185A001F059FA88A18AA001F084
:10E2700055FA81A181A001F051FA8BA18BA001F088
:10E280004DFA7DA17DA001F049FA87A18BA001F094
:10E2900045FA79A179A001F041FA8BA18BA001F098
:10E2A0003DFA002800D180E673A174A001F036FA8F
:10E2B0008BA18CA001F032FA6FA170A001F02EFAB0
:10E2C00087A190A001F02AFA6BA16CA001F026FAB8
:10E2D00093A194A001F022FA002800D165E666A17E
:10E2E00066A001F01BFA91A001F08AFA002505E072
:10E2F00005A9485D01F032FB681CC5B2482DF7DB6B
:10E3000006A18DA001F00AFA5BA15CA001F006FA5B
:10E310008AE100004C010200204E00004F4B00003B
:10E3200041540D0A00000000415445310D0A00001F
:10E33000434C54533A20310061742B434C54533FA7
:10E340000D0A000061742B434C54533D310D0A00FB
:10E35000415426570D0A000052454144590000001F
:10E3600041542B4350494E3F0D0A000041542B436A
:10E370005245473D320D0A002B435245473A203261
:10E380002C31000041542B435245473F0D0A0000F9
:10E390000029002041542B435245473D300D0A00CF
:10E3A00061742B6373710D0A0000000061742B63AC
:10E3B00062630D0A00000000462800203A28002071
:10E3C00041542B43434C4B3F0D0A000012280020C0
:10E3D00008280020415445300D0A000043474154AD
:10E3E000543A20310000000061742B63676174743B
:10E3F0003F0D0A0061742B63676174743D310D0A2F
:10E400000000000061742B435354543D22434D4E91
:10E410004554220D0A00000041542B434949435200
:10E420000D0A00002E00000041542B434946535270
:10E430000D0A0000434F4E4E454354204F4B000001
:10E4400041542B43495053544152543D225443505C
:10E45000222C223135392E3232362E3235312E31C0
:10E4600031222C32350D0A0041542B434950535070
:10E4700052543D310D0A00003E00000041542B4330
:10E48000495053454E440D0A00000000636F726509
:10E490006D61696C0000000065686C6F2068656CD8
:10E4A0006F0D0A1A00000000333334006175746880
:10E4B000206C6F67696E0D0A1A00000059324E6BAE
:10E4C00059773D3D0D0A1A003233350059324E6BF3
:10E4D00059324E7A6447356C64413D3D0D0A1A004D
:10E4E000323530004D41494C2046524F4D3A3C6C3C
:10E4F0007965406373746E65742E636E3E0D0A1AFF
:10E50000000000005243505420746F3A3C6C79650F
:10E51000406373746E65742E636E3E0D0A1A0000BC
:10E5200033353400444154410D0A1A005375626A70
:10E530006563743A200000000D0A0D0A1A000000FD
:10E540004C480088401E81B201AA4B4800F0C0FC34
:10E55000002500BF4949012001F0DCF90028F9D16C
:10E560000023202201A9464800F0BCFD85B200BF6F
:10E570002B46002B05D000BF002211461846FFF79E
:10E580005BF800BF002610E03D49895D0811FFF7E8
:10E5900079FA074601F0E2F93949885DFFF772FA26
:10E5A000074601F0DBF9701CC6B2202EECDB3149C6
:10E5B0000988481EC117090F091809110901411AD4
:10E5C0002DD12C490988481EC117C90E09184911B7
:10E5D0004901411A10D10121890201A800F0C0FCB3
:10E5E00085B200BF2B46002B05D000BF002211468C
:10E5F0001846FFF721F800BF22A1234801F08EF84A
:10E6000022A12148483801F089F8002807D11FA12C
:10E610001D48483801F082F8002800D1C5E41548AB
:10E620000088401E1349088012480088002887DCB3
:10E6300014A1154801F072F814A11348483801F0EC
:10E640006DF8002807D111A10F48483801F066F88D
:10E65000002800D1A9E40C491C310DA001F05EF89E
:10E66000002804D007A10CA001F058F800E09CE4B9
:10E6700000BF9AE43A2800202C280020002900201E
:10E68000E02800204F4B0000C4E401003E000000E1
:10E690000D0A2E0D0A1A000041542B434950434CD9
:10E6A0004F53453D310D0A00F8B529480078002840
:10E6B00000D1F8BD27480068002801D1012000E002
:10E6C0000020054624480068002801D1012000E010
:10E6D0000020064600BF002D14D1684651DF0446D5
:10E6E000052C01D101250CE0002C06D000BF002232
:10E6F00011462046FEF7A0FF03E01649009809687E
:10E70000884700BF002E1AD114480088009069463F
:10E710001348006861DF0446052C01D101260DE095
:10E72000002C06D000BF002211462046FEF784FFD1
:10E7300004E00B48006808490968884700BF002DBD
:10E7400002D0002E00D000E0C5E700BF00BFB0E758
:10E75000BC280020CC280020C8280020C428002085
:10E76000C02800200C48008CC0B2012812D10A48F1
:10E77000808C0007000F00280CD10748806AF02128
:10E780000840402806D10448C06A0840002801D14A
:10E79000012070470020FCE7C00F00F01948008CF2
:10E7A000C0B201282CD11748808C0007000F002828
:10E7B00026D11448806AF0210840002806D111486B
:10E7C000C06A0840002801D1012070470D48806AC6
:10E7D000F0210840102806D10A48C06A08400028E5
:10E7E00001D10120F1E70748806AF0210840302874
:10E7F00006D10448C06A0840002801D10120E4E79E
:10E800000020E2E7C00F00F001468807800F0028D3
:10E8100001D1012070470020FCE70000FEB52B4825
:10E82000006801902A480078009040E00098C000FD
:10E83000284909684418257835E01820684361683C
:10E840000F18681CC5B2A078A84200D100253878FE
:10E85000022802D0032823D10EE0242178684843FF
:10E860001D4909684618307D002804D0786801F0F9
:10E8700081FA0020307514E00CE014490968242264
:10E880005143154A12688818002101750F4A016A20
:10E89000116000BF0D480068401C0028EDD100E069
:10E8A00000BF00BF00BF6078A842C6D100BF00987B
:10E8B000411EC9B200910028B8D1044801680198EE
:10E8C000814201D00120FEBD0020FCE790280020FD
:10E8D000882800208C28002084280020FEB50746C8
:10E8E00043480068029043480078019071E0019825
:10E8F000C00041490968451863E0781C002807D02A
:10E900003E46242070433D4909684418276A29E09F
:10E910002978182359436A6850182978491C2970A6
:10E920002978AA78914201D10021297046682421D2
:10E930007143324A12688C180178012902D1217D75
:10E94000002900D03DE08168A160C168E1600169F3
:10E9500021614169E1612A490978002901D000213A
:10E96000A16000BF2749A0680968401A0002000A98
:10E970002549884208D22349A068096801F034F982
:10E98000E1684018606011E01E48A168006801F06D
:10E990002BF90090E1680098814204D9E168009861
:10E9A000081A606001E00020606000BF0020A060E5
:10E9B000E06001202075801E2062304601F06CF975
:10E9C00000BF781C002898D128786978884294D1B3
:10E9D00000BF0198411EC9B20191002887D10448A7
:10E9E00001680298814201D00120FEBD0020FCE7B1
:10E9F00090280020882800208C28002084280020CF
:10EA0000A928002094280020FFFF7F0088B0022062
:10EA100000F028FE06A871DF58206946487681215B
:10EA200006A8817006A9002070DF044600BF2346B7
:10EA3000002B05D000BF002211461846FEF7FCFD52
:10EA400000BF01F09BFA00F0FDFA202168468182A8
:10EA50001921C901C182A3480490A34904A800F068
:10EA6000B7FB044600BF2346002B05D000BF0022A1
:10EA700011461846FEF7E0FD00BF00209B490880C4
:10EA800032E002AA99480188974800F021FA04462A
:10EA900000BF2346002B05D000BF002211461846B8
:10EAA000FEF7CAFD00BF0023202202A9904800F013
:10EAB00019FB044600BF2346002B05D000BF0022EF
:10EAC00011461846FEF7B8FD00BF89480168406846
:10EAD0000023DB4359405840014300D10AE08348FA
:10EAE0000088401C814908806846C08A7F4909889F
:10EAF0008842C6DC00BF0320052109070722120255
:10EB00008918886400220121C9037A480068FEF749
:10EB100069FE044600BF2346002B05D000BF00223B
:10EB200011461846FEF788FD00BF012072490870A3
:10EB30003BE0122000F04AF9704800F025F912205D
:10EB400000F04CF901206E49C8632020FEF7A2FEB8
:10EB50006C4989684B22120151430846FF21FEF798
:10EB600005FB41004018684908800846008867494D
:10EB7000884214DD0020082302461021009000F096
:10EB800093FEFFF7C7F962A162A000F0C7FD60A184
:10EB900064A000F0C3FD67A168A000F0BFFD1220D3
:10EBA00000F014F900205649C8636848006809213C
:10EBB00049058842BDD34D4800880028B9D14E4947
:10EBC0000870494903C90391029000251AE0012108
:10EBD000890202A800F0C4F9044600BF2346002BB6
:10EBE00005D000BF002211461846FEF725FD00BFE4
:10EBF000142000F0C9F801218902039840180390FD
:10EC0000681CC5B2642DE2DB00BF3B4800780028D9
:10EC10005AD000204E490860122000F0D7F8642036
:10EC200000F0B2F8122000F0D9F801203449C8638E
:10EC30002020FEF72FFE334989684B2212015143F1
:10EC40000846FF21FEF792FA410040182E4908803D
:10EC5000084600882D4988422EDD00200823024600
:10EC60001021009000F020FEFFF754F91F480088A3
:10EC7000002815D026A137A000F050FD00280FD0A5
:10EC800035A136A000F04AFD002809D037A138A0F0
:10EC900000F044FD002803D01DA137A000F03EFD88
:10ECA0001BA11CA000F03AFD19A11EA000F036FD2A
:10ECB00020A122A000F032FD122000F087F80020F1
:10ECC0000F49C8630C49087048DF044600BF23465B
:10ECD000002B05D000BF002211461846FEF7ACFC01
:10ECE00093E7000089DE01002C2800203A2800204C
:10ECF000E0280020002800203D28002010270000E8
:10ED0000C02F00400075004046280020AC0D0000D8
:10ED10004F4B000041542B434950534855540D0A62
:10ED20000000000041542B43474154543D300D0A2C
:10ED300000000000504F57455200000041542B4343
:10ED4000504F57443D310D0A0000000008280020B4
:10ED50000C2800200D0A1A003E00000041542B43ED
:10ED6000495053454E440D0A000000003235300032
:10ED70000D0A2E0D0A1A000041542B434950434CF2
:10ED80004F53453D310D0A0001B505E00098401E86
:10ED900000900348FEF7AEF900980028F6D108BDB0
:10EDA000E703000010B58A0005231B07072424028F
:10EDB0001B1984001A5110BD0321052212070723D5
:10EDC0001B02D2188300D1507047000001218140FE
:10EDD000014AD160704700000005005001218140C8
:10EDE000014A9160704700000005005010B50848C6
:10EDF0000078012802D0022807D102E0FEF70AFCC1
:10EE000004E003200249087000E000BF00BF10BD0D
:10EE10007C2800200B480078002802D003280DD160
:10EE200008E00420084908600120084908600549F5
:10EE3000087004E002200349087000E000BF00BF32
:10EE4000704700007C280020002500400020004082
:10EE500010B509480078012807D0022804D00328FB
:10EE600006D1FEF7D7FB04E000BFFEF7A2FB00E0EF
:10EE700000BF00BF10BD00007C28002010B5FEF7C9
:10EE8000C9FB10BD10B504462300FEF775FB050451
:10EE9000070D0A101300FFF7A9FF0CE0FFF7BAFFF8
:10EEA00009E0FFF7D5FF06E000F008F803E0FFF700
:10EEB000E5FF00E000BF00BF10BD000010B5034833
:10EEC0000078012801D1FEF779FB10BD7C280020D5
:10EED0003CB5034600BF20480078002801D1082037
:10EEE0003CBD00BF002B01D10E20F9E7002A01D163
:10EEF0000E20F5E71868642805D218680001174C41
:10EF00002058002801D10720EAE75C6818680194BE
:10EF10000090019C18680001104D40190089484379
:10EF200020180190009800012C4600194089009C8F
:10EF30002401641924896043009C240164196468D5
:10EF40000019019CA04201D80720C9E7019C009844
:10EF5000546010600020C3E76A2800207C2D002048
:10EF6000F8B504460D4600BF27480078002801D1B7
:10EF70000820F8BD00BF002C01D10E20F9E7206861
:10EF8000642805D22068000120490858002801D1D2
:10EF90000720EEE7206800011C49401840892168DD
:10EFA00009011A4A89180989484321680901891801
:10EFB000496840186168884201D80720D9E760682D
:10EFC000FFF722FC002801D11020D2E723681B01A3
:10EFD0000E4FDB1962685B68D01A226812013B464B
:10EFE000D2181189FEF7C2F8002901D00720C0E726
:10EFF00000202B460246214600900420FEF736FEF4
:10F0000006463046B5E700006A2800207C2D002027
:10F0100070B508484469601C002807D000F00CF85F
:10F02000054629462046FEF7A1F870BD01200007DD
:10F030004069FAE70010001001200007006980B263
:10F0400070470000F8B5FEF75DFE00201E490880FD
:10F05000FFF7DEFF0546653DFFF7EEFF45431B4822
:10F06000056000201A49088000BF0DE00021020160
:10F07000184B99500201D21811810201D2189181C6
:10F080000201D2185181401C6428EFD30820124994
:10F090000870FFF7D1FF0090FFF7BAFF471EFFF798
:10F0A000CBFF47433E4630460099FEF75FF80546E2
:10F0B00028DF0446002C04D1012008498870084943
:10F0C00008702046F8BD0000602800206428002059
:10F0D000682800207C2D00206B280020B02C002008
:10F0E0006A280020FFB581B00C4615461E4600BFB9
:10F0F00035480078002802D1082005B0F0BD00BFD7
:10F10000002C01D10E20F8E70198002801D10E2033
:10F11000F3E72068642805D2206800012B490858CD
:10F12000002801D10720E8E720680001274940189E
:10F13000408921680901254A8918098948432168BD
:10F1400009018918496840186168884201D8072078
:10F15000D3E7002D06D0206800011C494018008923
:10F16000A84201DA0720C8E7A81921680901174A4F
:10F1700089180989884201DD0720BEE70198FFF759
:10F1800043FB002804D03046FFF73EFB002801D1A6
:10F190001020B2E76068FFF737FB002801D110208C
:10F1A000ABE7606881192A460198FEF709F80095D7
:10F1B0002068000105490F58002203212046019BC9
:10F1C000B847002099E700006A2800207C2D002025
:10F1D000F8B504460D4600BF4A480078002801D122
:10F1E0000820F8BD00BF002C01D10E20F9E7002D4A
:10F1F00001D10E20F5E72068002801D10E20F0E7AC
:10F20000FFF71AFFA188884202DBA088102801DAE4
:10F210000720E6E7E08800281CD0FFF7F9FE471E2C
:10F22000FFF70AFF4743E088A18848433649096849
:10F23000401887420ED3FFF7FFFEE188A2885143B2
:10F24000884209DAFFF7F8FE0746A188FDF7A4FF18
:10F25000002901D00720C4E720798007800F00280B
:10F2600001D00720BDE729480088642801D1042087
:10F27000B7E726480088286023480068686023496B
:10F2800009880901224A8918686848601F49098865
:10F29000090120685050A0881C4909880901891873
:10F2A0000881E088194909880901891848810020E6
:10F2B0000090A688E1884E4300BF0098401C80B2B1
:10F2C0000090FFF7B9FEB04203D2FFF7B5FE361A41
:10F2D00000E00026FFF7B0FE0B49096840180A4914
:10F2E0000860002EE9D1094909880901084A8918EE
:10F2F0000098888105480088401C04490880002047
:10F300006FE700006A2800206428002060280020A1
:10F310007C2D0020F8B504460E4615461F4600BF5A
:10F320002F480078002801D10820F8BD00BF002E2A
:10F3300001D10E20F9E7002C01D10E20F5E720685D
:10F34000642805D22068000126490858002801D108
:10F350000720EAE720680001224940184089216817
:10F360000901204A89180989484321680901891837
:10F37000496840186168884201D80720D5E7002D08
:10F3800006D020680001174940180089A84201DA18
:10F390000720CAE7E81921680901124A8918098972
:10F3A000884201DD0720C0E73046FFF72DFA00282C
:10F3B00004D03846FFF728FA002801D11020B4E71E
:10F3C0006068FFF721FA002801D11020ADE72B4635
:10F3D0003246214602200097FEF748FCA5E70000D0
:10F3E0006A2800207C2D0020F0B585B00646002557
:10F3F0006A48807801287DD1002068498870684873
:10F400000078082819D1022E03D100206449087021
:10F4100002E0002063490870FEF7F4FB0546002D6A
:10F4200009D05E480078142250435C4A121D8118AE
:10F430002846FEF711F905B0F0BD022E02D0032ECA
:10F440007ED183E055480078142148435349091D73
:10F45000441855480088401C5349088020780228E9
:10F4600007D10846008880026188884201DB0120BC
:10F4700000E0002003902078052805D14848007856
:10F48000072801D1012000E0002002902078042804
:10F4900005D143480078072801D1012000E0002071
:10F4A0000190207804280BD13F48008880026188B1
:10F4B000884205DB3A480078002801D1012000E0AD
:10F4C000002000900298002808D10198002805D15A
:10F4D0000098002802D10398002825D02F480778EB
:10F4E00000202F490870304908802C484078401E81
:10F4F0002A4900E050E0487008460078401C087037
:10F50000084600780A2803DB084600780A380870A5
:10F5100014207843214A121D81182846FEF79CF8D2
:10F520003846FEF785FB00BFFEF76CFB0546002D55
:10F530000BD01A48007814225043184A121D00E0DC
:10F5400027E081182846FEF787F823E01348007863
:10F55000142148431149091D44186078401CC0B269
:10F560006070032809D1081F0078142250430A460E
:10F5700081180D20FEF770F80AE0FEF78FFA0546B5
:10F58000002D05D0112D03D021462846FEF764F842
:10F5900000E000BF00BF00BF00BF4CE7B02C002060
:10F5A0006B2800206A280020682800200148406855
:10F5B000704700000015014010B504460348846000
:10F5C00003211120FDF7E2FE10BD000000150140EF
:10F5D00010B5012000040A494860094940394860D3
:10F5E0001120FDF7B5FE1120FDF7BCFE01200549F5
:10F5F00008602F20FDF78EFD01200349087010BD23
:10F600004013014000100140A828002010B511202F
:10F61000012181400E4A116000BF012000040D4904
:10F6200088600C494039886001200B4948602F20D0
:10F63000FDF770FD01200849886000200749086037
:10F640002F20FDF767FD00200549087010BD000060
:10F6500080E100E0401301400010014094280020A8
:10F66000A8280020F8B5054611DF044600BF234650
:10F67000002B05D000BF002211461846FDF7DCFF25
:10F6800000BF00BF002348222149082000F08CF968
:10F69000064600BF3346002B05D000BF00221146AE
:10F6A0001846FDF7C9FF00BF00BF002000900021F1
:10F6B00068464170057060DF044600BF2346002B9A
:10F6C00005D000BF002211461846FDF7B5FF00BF68
:10F6D000104800F05DF9044600BF2346002B05D01A
:10F6E00000BF002211461846FDF7A6FF00BF0A48DA
:10F6F00000F08EF9044600BF2346002B05D000BF62
:10F70000002211461846FDF797FF00BFF8BD000024
:10F71000002A002029D90100DDFB0100F3B581B0EA
:10F72000074600200090002501E0681CC5B2029841
:10F73000405D0028F9D100262C4600BF2E49052047
:10F7400000F0E8F80028F9D1FF2101312A48FDF73F
:10F7500050FD03E038787F1C00F000F9387800286D
:10F76000F8D12CE0032C15DD201F2349085C452827
:10F7700010D1E01E085C52280CD1A01E085C522853
:10F7800008D1601E085C4F2804D10846005D52284D
:10F7900000D11BE000260AE00298805D611B8919F8
:10F7A000154A515C884200D003E0701CC6B2AE42DC
:10F7B000F2DB00BFAE4200D108E0601CC4B20E48CC
:10F7C00001190E4800F0A6F80028CBD100BFAE42C8
:10F7D0000DD10120009000BF2046621CD4B2064A21
:10F7E0008118012000F096F80028F5D101E00020F2
:10F7F00000900098FEBD00000029002010270000A6
:10F8000010B504460AE000BF0649052000F082F862
:10F810000028F9D12078641C00F0A0F82078002896
:10F82000F1D110BD00290020F0B502460C460020A1
:10F8300037E001238340194623460B40002B2FD08D
:10F84000D5680D40002D05D101235B04D5680D431B
:10F85000D56004E003231B04D5688D43D5600525DE
:10F860002D0707263602AD198600AD59032636044A
:10F87000B5430526360707273F02F6198700F551DD
:10F8800005252D0707263602AD198600AD591D4303
:10F890000526360707273F02F6198700F55100BFF6
:10F8A000401C2028C5D3F0BDF8B507460C461546C8
:10F8B0001E462046FFF780FA00213046FFF772FA15
:10F8C0001048C4604661069800280DD03846FFF7FE
:10F8D00073FA00212846FFF765FA0A480561876038
:10F8E000012008494031C86207480649486204209F
:10F8F000086001200549886008600020044988608C
:10F90000F8BD00000025004000509D000020004090
:10F910000021004070B504460D4601260AE020464D
:10F92000641E002804DB7D20C000FDF7D3FB01E04E
:10F93000002603E0074880680128F0D100BF002CB2
:10F9400005DB002003498860034880692870304641
:10F9500070BD000000210040002500400549C8613D
:10F9600000BF0549C9690129FBD10021024AD161C3
:10F9700070470000002500400021004070B5064699
:10F980000C46154629462046C046C04670BD0000BC
:10F990000146002901D10E20704702480160002075
:10F9A000FAE70000C8280020FFB581B00C461646D3
:10F9B0001F46002C02D1072005B0F0BD204681076C
:10F9C000890F002901D1012100E00021002901D186
:10F9D0000720F1E7094804600948068009480760E4
:10F9E0000949019810DF0546002D01D02846E3E7BC
:10F9F00001200649087016202EDFDDE7C028002010
:10FA0000C4280020B82800207DF90100BC2800206F
:10FA10000146002901D10E207047024801600020F4
:10FA2000FAE70000CC280020FFB583B00446154655
:10FA300003266948007800280BD1002D06D10698CE
:10FA4000002803D102206449087002E001206249C5
:10FA50000870614800780300FDF78EFD07B80520A7
:10FA60003D6186A1B800FFF7E7FA80080290FFF732
:10FA7000E3FA049948430190FFF7CAFA471EFFF7DB
:10FA8000DBFA474300973846029A019929DF064678
:10FA9000002E02D102205049087098E0049828DF17
:10FAA0000646002E16D1002D11D1069800280AD145
:10FAB0002078042803D10720474908700AE0052070
:10FAC0004549087006E004204349087002E003201D
:10FAD000414908707BE0FFF79BFA471EFFF7ACFA3D
:10FAE00047430297FFF7A8FA049948432A46019032
:10FAF000029929DF0646002E10D1069800280AD167
:10FB00002078042803D106203349087006E0052038
:10FB10003149087002E004202F49087057E0FFF7D0
:10FB200077FA471EFFF788FA4743A800381861881C
:10FB300040180290FFF780FA04994843A900401842
:10FB4000618840180190069A029929DF0646002E26
:10FB500009D12078042803D106201F49087002E04B
:10FB600005201D49087032E0FFF766FA0499484302
:10FB7000A9004718608882083846216929DF0646AF
:10FB8000002E0BD1002D06D10698002803D10720A6
:10FB90001149087002E006200F49087017E0FFF7CE
:10FBA0004BFA0190FFF734FA471EFFF745FA474337
:10FBB000009738460199FDF7D9FA029028DF0646EA
:10FBC000002E02D107200449087000E000BF00BFEA
:10FBD000304607B0F0BD00006B28002010B5044689
:10FBE0002046FFF701FC10BD0246501A0002000A31
:10FBF0007047000070B504460D480068002812D018
:10FC00000B4AE169A06912689047054600BF2E467D
:10FC1000002E06D000BF002211463046FDF70CFD35
:10FC200000BF00BF02E0A169E069884770BD000025
:10FC3000A4280020FEB50020C043019010480468AD
:10FC4000104807686846FEF7EDF80546FEF7E6FD42
:10FC50000646002D05D001AA21460098FEF724F99A
:10FC600001260198FEF73AFE002800D00126002E5A
:10FC700002D03846FEF760F8002003490870FEBD48
:10FC80009428002090280020A928002010B51420D6
:10FC9000FDF772FB10BD0000F0B502462420504372
:10FCA000324B1B68C11832480068401C002802D142
:10FCB0002F48026059E02E484B68006824246043B6
:10FCC0002A4C246800194068834217D828480068E5
:10FCD00024235843254B1B68C01840684B68C31A3F
:10FCE0002348006824246043204C246800194360A2
:10FCF0001F48006808621E48026036E04B681C4DD1
:10FD00002C6828680DE024254543184E3668AD1947
:10FD10006D685B1B044624254543144E3668AD19B7
:10FD2000286A451C002D07D0242545430F4E366810
:10FD3000AD196D689D42E6D3451C002D0CD02425DD
:10FD400045430A4E3668AD196D68EE1A24254543C1
:10FD5000064F3F68ED196E604B60086224256543CD
:10FD6000024E3668AD192A6200BFF0BD842800201B
:10FD70009028002070B502462C4C2168084609E006
:10FD8000904200D109E0014624244443284D2D68C7
:10FD90006419206A441C002CF2D100BF441C002CC2
:10FDA00000D170BD814217D1204C246824256C43BA
:10FDB0001F4D2D686419246A1C4D2C602C46246844
:10FDC000641C002C08D101241A4DAC6000241A4D8B
:10FDD0002C600124194D2C7024244443144D2D68AB
:10FDE0006419636824244443114D2D686419256AFD
:10FDF00024244C430E4E3668A419256224244C4317
:10FE00000B4D2D686419206A441C002C0CD024244E
:10FE10004443074D2D6864196468E518242444435D
:10FE2000034E3668A419656000BFBAE79028002029
:10FE3000842800200010014094280020A9280020D8
:10FE4000FFB581B005460E461746E900104A126814
:10FE50008818694600F0E7F80446002C02D1042017
:10FE600005B0F0BD012020706660FFF79FFBA06029
:10FE7000E760049820610A986061E900044A12680A
:10FE80008818009900F0E5F8FFF700FF0020E7E789
:10FE90008C280020F8B504460E46E1000C4A126892
:10FEA0008818694600F0BFF80546002D01D10420EE
:10FEB000F8BD022028706E60E100054A12688818BB
:10FEC000009900F0C6F8FFF7E1FE0020F0E700001F
:10FED0008C280020F8B520480068401C00283AD043
:10FEE0000027FFF763FB04461C4801682046FFF724
:10FEF0007BFE06461848056811E02420684318492F
:10FF0000096844186068B04200D90BE06068361A8E
:10FF10006068C719256A2046FFF76CFE00BF681CA1
:10FF20000028EAD100BF0F4800780F4909788842BD
:10FF300009D10D480078401CC0B20B490870022856
:10FF400001D10020087008480078800007490F5050
:10FF5000FFF79CFE00BFF8BD9028002094280020E9
:10FF600084280020A0280020A12800209828002014
:10FF700010B51120FDF700FA10BD000038B500BF24
:10FF800000201B4B052204210090FDF7B3FB054622
:10FF900000BF2B46002B05D000BF0022114618469B
:10FFA000FDF74AFB00BF00BF124A01211248FDF7CE
:10FFB00067FB044600BF2346002B05D000BF00228C
:10FFC00011461846FDF738FB00BF0C4A00210C48CB
:10FFD000FDF756FB044600BF2346002B05D000BFAB
:10FFE000002211461846FDF727FB00BF38BD000070
:10FFF000482A002069000200002800205900020061
:020000040002F8
:100000000428002010B5FDF7DFFE012802D00328E8
:1000100004D101E0002403E0012401E0022400BF38
:1000200000BF204610BD70B502460B465078411CFB
:100030009078884200D100211078884201D10020B8
:1000400070BD196050781826704355682C182046EA
:10005000F6E741707047000087DF00200149087013
:10006000704700004428002070B505462F480068FE
:10007000401C2E4908602E480068401C2C4908602E
:100080002C480078002800D070BD2B48008819212A
:10009000C90188423CDA0F2124480068FDF766F860
:1000A000002941D12548007800283DD187DF04464A
:1000B0002348007840084000401C21490870084649
:1000C0000078022188431E49087006200881052017
:1000D0004881002048608881084686DF044600BFCA
:1000E0002346002B05D000BF002211461846FDF71D
:1000F000A3FA00BF01201149087012480068FDF7FB
:10010000A7FB002210490F480068FDF76BFB0BE0CE
:10011000074800684B21C900884205D901200549DC
:10012000087000200249086000BFADE708280020E1
:100130000C2800203D2800203A28002044280020D8
:10014000D028002004280020CD8C00004454553ACB
:10015000000000000000000000000000000000009F
:10016000000000000000000000000000000000008F
:10017000000000000000000000000000000000007F
:10018000000000000000000000000000000000006F
:10019000000000000000000000000000BC010200A0
:1001A00000280020D000000094D501008C0202003D
:1001B000D0280020F0120000A4D5010000000000AB
:1001C00000000000000000000000000000006D01C1
:1001D0008C01A901C801E60105022302D400F30045
:1001E000110130014E01000000000000000000007D
:1001F00000000000000000000000000000000000FF
:1002000000000000000000000000000000000000EE
:1002100000000000000000000024F40000000000C6
:1002200000000000000000000000FFFF01000000CF
:1002300000000000000000000000000000000000BE
:1002400000000000000000000000000000000000AE
:10025000000000000000000000000000000000009E
:10026000000000000000000000000000000000008E
:10027000000000000000000000000000000000007E
:0C02800000000000000000000000000072
:040000050001D0C165
:00000001FF
