:020000040001F9
:10D00000903F002035D101004FD1010051D10100E6
:10D010000000000000000000000000000000000010
:10D0200000000000000000000000000053D10100DB
:10D03000000000000000000055D1010057D10100A0
:10D0400059D1010059D10100C1D4010059D10100C9
:10D0500059D101000000000075D201002DD201005D
:10D0600059D1010059D1010059D1010059D1010014
:10D0700059D1010059D1010059D1010059D1010004
:10D0800059D1010021D4010059D1010059D1010029
:10D0900049D4010059D1010051D4010059D10100F6
:10D0A00059D1010059D1010000000000000000002A
:10D0B0000000000000000000000000000000000070
:10D0C0000348854600F0A0F80048004791E80100B9
:10D0D000903F0020401E00BF00BF00BF00BF00BF48
:10D0E00000BF00BF00BF00BF00BF00BF00BFF1D145
:10D0F00070470000401E00BF00BF00BF00BF00BF60
:10D1000000BF00BF00BF00BF00BF00BF00BFF1D124
:10D1100070470000401E00BF00BF00BF00BF00BF3F
:10D1200000BF00BF00BF00BF00BF00BF00BFF1D104
:10D13000704700000321094802680A43026008485A
:10D1400002680A4302600748804707480047FEE735
:10D15000FEE7FEE7FEE7FEE7FEE7000024050040ED
:10D160005405004089D40100C1D0010030B50B4600
:10D17000014600202022012409E00D46D5409D42B1
:10D1800005D31D469540491B254695404019154637
:10D19000521E002DF1DC30BD70B50024254600285C
:10D1A00001DA01244042002901DA01254942FFF752
:10D1B000DDFFAC4200D04042002C00D0494270BD9F
:10D1C00003460B439B0703D009E008C9121F08C0A0
:10D1D000042AFAD203E00B780370401C491C521E4B
:10D1E000F9D27047D2B201E00270401C491EFBD256
:10D1F00070470022F6E710B513460A460446194662
:10D20000FFF7F0FF204610BD064C0125064E05E055
:10D21000E36807CC2B430C3C98471034B442F7D357
:10D22000FFF752FF08FF010028FF010010B50D486D
:10D230000068002814D000200A4908600A48806865
:10D24000C4B20120094948604B21090161430846E5
:10D25000FF21FFF7A1FF410040180549088000BFEA
:10D2600010BD0000007100400075004000700040DB
:10D270004A280020F0B585B03048056900203049C3
:10D28000C863002654E0142070432E4909684418EE
:10D290000120B0402C4909680840002846D00020F1
:10D2A00002900190E068C043684021680840039004
:10D2B0002046039902F08EF92048006968402168F1
:10D2C000084004900498002818D004986840009002
:10D2D000E068C04300994840216808400746394645
:10D2E000204602F077F9A068009988433840019001
:10D2F0006068009908403840029000BFA068A843C9
:10D3000003990840019908430190606828400399F7
:10D3100008400299084302900199029808430028A6
:10D3200003D0226901990298904700BF701CC6B2D1
:10D33000064800788642A6DB05B0F0BD0005005027
:10D3400040610040A42800209C280020A128002043
:10D35000C206D20E01219140014A116070470000BF
:10D3600080E200E0C206D20E01219140014A116024
:10D370007047000000E100E0C206D20E012191409A
:10D38000014A11607047000000E200E010B500287B
:10D3900019DA1A4A03071B0F083B9B089B00D25857
:10D3A0008307DC0EFF23A3409A438B071B0E8407E1
:10D3B000E40EA3401A43114B0407240F083CA408B1
:10D3C000A4001A5118E00E4A03231B02D218830846
:10D3D0009B00D2588307DC0EFF23A3409A438B07A0
:10D3E0001B0E8407E40EA3401A43054B03242402BA
:10D3F0001B198408A4001A5110BD00001CED00E0A8
:10D4000000E100E0BFF34F8F03480449C860BFF359
:10D410004F8F00BFFEE700000400FA0500ED00E0BA
:10D4200010B500200749086000210648416081606E
:10D43000C1600020034940390860486002F020FCC8
:10D4400010BD00004011014010B502F0C9FA10BD36
:10D4500070B50C480068002810D00A480068804762
:10D46000044600BF2546002D06D000BF002211460D
:10D47000284600F0D9F800BF00BF01E001F056F8DF
:10D4800070BD0000A828002010B501F0C9F80028E0
:10D4900005D0074807494860C8130749886101F06B
:10D4A000A3F8002802D001200449886010BD0000C4
:10D4B000DFFF07C000050040006C00400006004090
:10D4C0001CB524488068002818D0234840680421EF
:10D4D0000840002812D000201E4988601F4880693B
:10D4E000C0B21F4908800421684601701C480178B9
:10D4F000684601711B490968884700BF1548C06923
:10D5000000280BD01448406880210840002805D02E
:10D5100000201049C861032001F08AFB0D48406AD1
:10D52000002816D00C484068012149020840002814
:10D530000FD000200749486208488038046804601A
:10D5400002206946087001946846064909688847C0
:10D5500000BF1CBD0021004000230040002500400A
:10D560005E2800206828002030B47446641E2578A8
:10D57000641CAB4204D3635D5B00E31830BC184706
:10D580001D46F8E702E008C8121F08C1002AFAD1B8
:10D5900070477047002001E001C1121F002AFBD133
:10D5A000704710B500F01AF810BD00000748007869
:10D5B000022802D001200649886006480078064902
:10D5C000C861022001490870704700006C280020E3
:10D5D000002000405C280020002500401CB50120F0
:10D5E0000549C86005490870032069460870684607
:10D5F0000349096888471CBD002000406C280020B2
:10D600006828002000200549087001200449C860EE
:10D610004860002003490860704700006C28002023
:10D620000020004000250040FFF7ECFEF8B505465D
:10D630000C462778A068000105490E5860880090C4
:10D640002A463946204608302369B047F8BD000015
:10D650004C31002070B503460C461948006800287C
:10D6600001D1082070BD002A01D10720FAE7002B64
:10D6700001D10720F6E700211CE024204843104D8B
:10D680002D68285C002814D10125242048430C4E25
:10D690003668355424204843094D2D68401944709C
:10D6A00024204843064D2D684019826119600020EE
:10D6B000D8E7491C034800788142DEDB0420D1E72B
:10D6C0007428002070280020FFB581B00E46174650
:10D6D0001C4620468107890F002901D1012100E065
:10D6E0000021002902D1072005B0F0BD002C01D196
:10D6F0000720F9E701F060FE26490A9808602648ED
:10D7000006702648046000250CE0002124206843B0
:10D71000224A1268115424206843204A1268801853
:10D7200001756D1CB542F0DB242070430419032001
:10D730001B4908701B480460183400250CE0E90000
:10D74000184A12688818002101704170877044607F
:10D75000182179430C196D1C032DF0DB0020C04308
:10D7600011490860002011490870114908701420FF
:10D77000FFF7EEFD03211420FFF708FE1420FFF74A
:10D78000F1FD019801F0EEFD01F0E6FD09490860A8
:10D790000020A9E794280020702800207428002089
:10D7A000782800207C280020802800209028002055
:10D7B0009128002084280020FEB504460D46164618
:10D7C00016480068002801D10820FEBD14480078E2
:10D7D000844201D2052D01D20720F6E724206043C0
:10D7E0000E490968085C012801D00820EDE72420D3
:10D7F00060430A49096840184078012801D1284649
:10D8000000E00020074602F0D3FA3B462A462146B4
:10D810000096019002F0EAF9D7E700007428002092
:10D820007028002070B504460D480068002801D11A
:10D83000082070BD0B480078844201D30720F8E728
:10D840002420604306490968085C012801D00820AB
:10D85000EFE702F0ADFA0546214602F0F1F9E8E7FC
:10D860007428002070280020FEB50446261D20885C
:10D8700019287DD01B287CD1607C81287AD1A07C9E
:10D880005828FBD12520005DFF2873D02620005D9D
:10D89000FF28FAD0A07BC007C00F0028F5D0B07ACF
:10D8A000C008032866DD06200CE0421EF11C895CDE
:10D8B0000822121A524B1B785B01D218514B995413
:10D8C000411EC8B20028F0DC04200BE021460F31D5
:10D8D0000A5C4B4909784B01011D5918494B5A54B0
:10D8E000411CC8B2B17AC9088142EFDC617B44486F
:10D8F00000784001434A1154434801684048007889
:10D9000042014048083081503D480078401C3C4965
:10D910000870084600781F285FDD87DF002038493F
:10D9200008703A4801880088401C384B18806A46C5
:10D93000374801F0A3F9054600BF2F46002F05D058
:10D9400000BF002211463846FFF76EFE00BF0023DD
:10D95000012292022B49684601F0B2FB054600BF46
:10D960002F46002F09D000BF00221146384602E0A2
:10D970003EE042E03BE0FFF757FE00BF234800884F
:10D98000642819DA0121890201984018019000BF2A
:10D990008804006980B207463946684601F0B6F946
:10D9A000054600BF2F46002F05D000BF00221146BC
:10D9B0003846FFF739FE00BF16480068E121C9006C
:10D9C000884209D311480088322805DD0120124918
:10D9D000087000200F49086009E010480068FFF750
:10D9E00021FF00220E490D480068FFF7E5FE05E023
:10D9F000A079022800D101E000BF00BF00BFFEBD3A
:10DA000048280020D02800200C2800203E28002094
:10DA10003028002010280020412800200428002061
:10DA2000488100000007000F0A2803DA0146303160
:10DA3000C8B202E001463731C8B27047F0B587B0CE
:10DA40000F2755480078142148435349091D4418AD
:10DA5000E5682078022804D0042823D005287CD14A
:10DA60006AE0206905904D48008886026088801B26
:10DA70000690059880190590A08880194519012104
:10DA800089020698884206D2069882082846059997
:10DA900029DF074605E0FF2201322846059929DFE4
:10DAA00007466FE0A06800013D49401800890690D4
:10DAB000A0680001401840890590A0680001401846
:10DAC000406804900498A84205D1059906984843F7
:10DAD0006188884202D0A06865280DD101F082F9E2
:10DAE000014603902846FFF741FB2C490988461858
:10DAF000304628DF07461EE001F074F90146019028
:10DB00002846FFF733FB064601F06CF97043281AEC
:10DB10008008039001F066F9711C48436188491937
:10DB2000401A8008029031462046029B039A01F079
:10DB300051FE074600BF25E001F054F9014604906C
:10DB40002846FFF713FB064601F04CF97043A18805
:10DB50004919081A8008069000E012E001F042F925
:10DB6000711C4843A188491962888918401A8008A5
:10DB7000059031462046059B069A01F02BFE07468C
:10DB800000E000BF00BF002F02D1012002498870D1
:10DB9000384607B0F0BD0000803000205828002033
:10DBA0004C31002010B500240848407800280BDDD7
:10DBB00006488078002807D1FFF740FF0446002C74
:10DBC00002D0112C00D10024204610BD803000204E
:10DBD0000023142141430C4A535414214143891812
:10DBE0004B8064231421414389188B600023142146
:10DBF00041438918CB601421414389180B611421DA
:10DC0000414389188B80704784300020FFB581B074
:10DC1000064617460024224840780A283CD020486F
:10DC200000781F4949784018C4B20A2C02DB20460C
:10DC30000A38C4B2142060431949091D0E54002249
:10DC4000142060434018427014206043401807615C
:10DC5000142060434118029805C8CA6088601421E6
:10DC600061430F4A121D89180498488014216143AA
:10DC700089180A9888800025101F8078002805D10F
:10DC8000FFF7DCFE0546112D00D100250448407841
:10DC9000401C0349487000E00425284605B0F0BD4B
:10DCA0008030002010B5002008490880084908701D
:10DCB0000849087048708870002403E02046FFF788
:10DCC00087FF641C0A2CF9D310BD000058280020DF
:10DCD0005B28002080300020FEB51E480068401CF4
:10DCE000002834D01B480068242148431A49096899
:10DCF0004018456801F030FB01901848046821463F
:10DD0000019801F047FEC61C15480078002801D193
:10DD100001F034FBAE4201D2284600E0304604193F
:10DD20002402240A20460F49086000BF01F014FBBA
:10DD300000900199009801F02DFEC71C2046019922
:10DD400001F028FE874201D901F0E8FF01E001F06F
:10DD500033FBFEBD8028002074280020842800208A
:10DD6000982800204015014010B514484068C105AE
:10DD7000C90D002920D00A46103A50B200280DDA09
:10DD80000E4B1C330407240F083CA408A4001B59A5
:10DD90008407E40EE3401B069B0F0BE0084B0324B3
:10DDA00024021B198408A4001B598407E40EE340D5
:10DDB0001B069B0FD8B210BD0420FCE700ED00E06D
:10DDC00000E100E0014614480078144A12789042BD
:10DDD0001DD011480078401C0F4A10701046007882
:10DDE000022801D1002010700B48007880000C4AF6
:10DDF000105808600B4A086812688018094A1060B9
:10DE0000104600680002000A1060012070470020E0
:10DE1000086000BFFAE70000902800209128002049
:10DE2000882800208428002070B5049C044E456892
:10DE30003668B54202D10025024E357070BD000033
:10DE4000382800203C280020F0B50346002426E0B6
:10DE5000164E366824277E43154F3F68F0194668F2
:10DE60009E4203D94668F61A46601DE046689B1B31
:10DE7000466834190026466006750C4E35680B4F0F
:10DE8000066A3E600669002E08D00E193602360A70
:10DE900086600669C66016680662156000BF0348A2
:10DEA0000068401C0028D3D100BFF0BD80280020AE
:10DEB00074280020F0B597B0F74800F03BFE5022E0
:10DEC000F64903A8FFF77CF90424F5A1F5A001F0B9
:10DED000FBFAF3A1F3A001F0F7FAF1A1F1A001F030
:10DEE000F3FAEFA1F1A001F0EFFAF2A1F3A001F033
:10DEF000EBFA002809D1EAA1F3A001F0E5FAE8A1C4
:10DF0000F4A001F0E1FA17B0F0BDF4A1F5A001F022
:10DF1000DBFA002800D1F6E7E1A1F5A001F0D4FA80
:10DF2000F6A1F9A001F0D0FA002803D1F3A1F6A0E0
:10DF300001F0CAFA202008E0F6490B5C2146621C79
:10DF4000D4B203AA5354411CC8B22428F4DB2720BE
:10DF500008E0F0490B5C2146621CD4B203AA53547A
:10DF6000411CC8B22B28F4DBCDA1EBA001F0ACFA28
:10DF7000CBA1ECA001F0A8FA0B2008E0E5490B5C6E
:10DF80002146621CD4B203AA5354411CC8B21528BE
:10DF9000F4DBC3A1E6A001F097FA0B2008E0DD490D
:10DFA0000B5C2146621CD4B203AA5354411CC8B274
:10DFB0001A28F4DBBAA1E1A001F086FA00286DD09E
:10DFC000D448407D312869D1D248807D352865DB31
:10DFD000142008E0CF490B5C2146621CD4B203AA8E
:10DFE0005354411CC8B22A28F4DBCA48007E30389A
:10DFF0000A214843C749497E30394018C549087647
:10E000000846C07E30380A214843C249097F30396A
:10E010004018C049C8760846807F30380A214843F6
:10E02000BC49C97F30394018BA4988770846203042
:10E03000407830380A214843B64920318978303950
:10E040004018C1B2B34820304170007930380A21FD
:10E050004843B0492031497930394018C1B2AD4800
:10E06000203001712038007E401E4000B649085A19
:10E07000A849C97E401818214843A649897F4018FD
:10E080003C214843A3492031497840183C2148436A
:10E09000A049203109794018AC49086080A1ACA0A2
:10E0A00001F012FAACA1AFA001F00EFA002803D1E2
:10E0B0007BA1AFA001F008FA79A1B1A001F004FAA8
:10E0C00077A1B4A001F000FAB5A1B6A001F0FCF967
:10E0D000B7A1BAA001F0F8F9002806D1B4A172A046
:10E0E00001F0F2F9002800D10DE76DA1BDA001F00B
:10E0F000EBF9C0A1C0A001F0E7F9C3A1C5A001F0F0
:10E10000E3F9BCA1BCA001F0DFF9C6A1C6A001F0F3
:10E11000DBF9B8A1B8A001F0D7F9C2A1C6A001F0FF
:10E12000D3F9B4A1B4A001F0CFF9C6A1C6A001F003
:10E13000CBF9002800D1E6E6AEA1AFA001F0C4F90A
:10E14000C6A1C7A001F0C0F9AAA1ABA001F0BCF91B
:10E15000C2A1CBA001F0B8F9A6A1A7A001F0B4F923
:10E16000CEA1CFA001F0B0F9002800D1CBE6A1A14B
:10E17000A1A001F0A9F9CCA001F018FA002505E052
:10E1800003A9485D01F0C0FA681CC5B23B2DF7DB5E
:10E1900043A1C8A001F098F996A197A001F094F9C5
:10E1A000002698E101AA3146C44800F067FD002727
:10E1B00000230122920201A9C14800F069FE87B242
:10E1C00000BF3D46002D05D000BF00221146284665
:10E1D000FFF72AFA00BF00BF4E49012001F070FA94
:10E1E0000028F9D1002510E0B549495D0811FFF775
:10E1F00019FC009001F088FAB149485DFFF712FC64
:10E20000009001F081FA681C85B20120400285422D
:10E21000EADB23A18AA001F057F976A176A001F0EC
:10E2200053F9002806D173A173A001F04DF900281D
:10E2300000D168E600BF3749012001F041FA00280B
:10E24000F9D101256D0210E09D49495D0811FFF7E4
:10E25000E9FB009001F058FA9949485DFFF7E2FBAD
:10E26000009001F051FA681C85B2012080028542BD
:10E27000EADB0BA172A001F027F95EA15EA001F01C
:10E2800023F9002806D15BA15BA001F01DF900284D
:10E2900000D138E616E10000204E0000B8FE010073
:10E2A0004F4B000041540D0A00000000415445311D
:10E2B0000D0A0000434C54533A20310061742B4343
:10E2C0004C54533F0D0A000061742B434C54533D92
:10E2D000310D0A00415426570D0A000052454144B1
:10E2E0005900000041542B4350494E3F0D0A000095
:10E2F00041542B435245473D320D0A002B435245B2
:10E30000473A20322C31000041542B435245473FBD
:10E310000D0A0000D02C002041542B435245473DAC
:10E32000300D0A0061742B6373710D0A0000000048
:10E3300061742B6362630D0A0000000041542B439B
:10E34000434C4B3F0D0A0000162800200C280020EB
:10E35000415445300D0A000043474154543A20319E
:10E360000000000061742B63676174743F0D0A0044
:10E3700061742B63676174743D310D0A0000000005
:10E3800061742B435354543D22434D4E4554220D4A
:10E390000A00000041542B43494943520D0A000032
:10E3A0002E00000041542B43494653520D0A0000F1
:10E3B000434F4E4E454354204F4B000041542B4396
:10E3C000495053544152543D22544350222C22313F
:10E3D00035392E3232362E3235312E3131222C3231
:10E3E000350D0A0041542B434950535052543D318E
:10E3F0000D0A00003E00000041542B434950534594
:10E400004E440D0A00000000636F72656D61696C17
:10E410000000000065686C6F2068656C6F0D0A1A5B
:10E42000000000003333340061757468206C6F673E
:10E43000696E0D0A1A00000059324E6B59773D3D46
:10E440000D0A1A003233350059324E6B59324E7A6A
:10E450006447356C64413D3D0D0A1A003235300089
:10E460004D41494C2046524F4D3A3C6C79654063D2
:10E4700073746E65742E636E3E0D0A1A0000000000
:10E480005243505420746F3A3C6C79654063737406
:10E490006E65742E636E3E0D0A1A0000333534002B
:10E4A000444154410D0A1A005375626A6563743A17
:10E4B000200000000D0A0D0A1A000000302800207C
:10E4C000D028002000BF0F49012001F0F9F80028F2
:10E4D000F9D1701C86B20C480088864200DA61E6E9
:10E4E0000A490BA000F0F0FF002807D000200649E1
:10E4F000088009A109A000F0E7FF00E003E500BFE4
:10E5000001E50000D02C00203E2800205CE4010042
:10E510000D0A2E0D0A1A00004F4B000041542B43E8
:10E520004950434C4F53453D310D0A00F8B5294839
:10E530000078002800D1F8BD27480068002801D1E4
:10E54000012000E00020054624480068002801D191
:10E55000012000E00020064600BF002D14D16846CF
:10E5600051DF0446052C01D101250CE0002C06D01A
:10E5700000BF002211462046FFF756F803E0164977
:10E5800000980968884700BF002E1AD114480088F7
:10E59000009069461348006861DF0446052C01D1EC
:10E5A00001260DE0002C06D000BF002211462046B7
:10E5B000FFF73AF804E00B48006808490968884703
:10E5C00000BF002D02D0002E00D000E0C5E700BF44
:10E5D00000BFB0E7AC280020BC280020B8280020ED
:10E5E000B4280020B02800200C48008CC0B20128BC
:10E5F00012D10A48808C0007000F00280CD1074870
:10E60000806AF0210840402806D10448C06A0840CA
:10E61000002801D1012070470020FCE7C00F00F066
:10E620001948008CC0B201282CD11748808C0007F3
:10E63000000F002826D11448806AF02108400028E5
:10E6400006D11148C06A0840002801D10120704756
:10E650000D48806AF0210840102806D10A48C06A97
:10E660000840002801D10120F1E70748806AF02125
:10E670000840302806D10448C06A0840002801D16B
:10E680000120E4E70020E2E7C00F00F00146880720
:10E69000800F002801D1012070470020FCE7000016
:10E6A000FEB52B48006801902A480078009040E0B1
:10E6B0000098C000284909684418257835E01820DA
:10E6C000684361680F18681CC5B2A078A84200D1E1
:10E6D00000253878022802D0032823D10EE0242117
:10E6E000786848431D4909684618307D002804D0E1
:10E6F000786801F015FA0020307514E00CE0144938
:10E70000096824225143154A1268881800210175AE
:10E710000F4A016A116000BF0D480068401C0028C4
:10E72000EDD100E000BF00BF00BF6078A842C6D1B5
:10E7300000BF0098411EC9B200910028B8D104481A
:10E7400001680198814201D00120FEBD0020FCE754
:10E7500080280020782800207C28002074280020B1
:10E76000FEB5074643480068029043480078019090
:10E7700071E00198C00041490968451863E0781CC0
:10E78000002807D03E46242070433D4909684418BC
:10E79000276A29E02978182359436A68501829788C
:10E7A000491C29702978AA78914201D10021297049
:10E7B000466824217143324A12688C180178012975
:10E7C00002D1217D002900D03DE08168A160C168AF
:10E7D000E160016921614169E1612A490978002903
:10E7E00001D00021A16000BF2749A0680968401A34
:10E7F0000002000A2549884208D22349A068096816
:10E8000001F0C8F8E1684018606011E01E48A16896
:10E81000006801F0BFF80090E1680098814204D9D7
:10E82000E1680098081A606001E00020606000BFA5
:10E830000020A060E06001202075801E206230462C
:10E8400001F000F900BF781C002898D12878697879
:10E85000884294D100BF0198411EC9B2019100289D
:10E8600087D1044801680298814201D00120FEBD91
:10E870000020FCE780280020782800207C28002049
:10E88000742800209928002084280020FFFF7F00A2
:10E8900086B0022000F0BCFD04A871DF5820694654
:10E8A0004874812104A8817004A9002070DF044607
:10E8B00000BF2546002D05D000BF00221146284686
:10E8C000FEF7B2FE00BF01F02FFA00F091FA01212D
:10E8D0008902684681816421C18170480290704933
:10E8E00002A800F04BFB044600BF2546002D05D0D2
:10E8F00000BF002211462846FEF796FE00BF032007
:10E9000005210907072212028918886405210907D1
:10E9100089188865162000F02FF9122000F02CF9D4
:10E92000604800F007F9122000F02EF900200823BB
:10E9300002461021009000F08DFE02205A49088006
:10E94000FFF7B8FA59A15AA000F0BEFD57A15CA08C
:10E9500000F0BAFD5EA160A000F0B6FD122000F04C
:10E960000BF900206049C86360480068002804D1A2
:10E970005F4800F0DFF8FEF745FD00BF012000070B
:10E98000006980B205462946454800F0BFF90446B3
:10E9900000BF2546002D05D000BF002211462846A5
:10E9A000FEF742FE00BF00203F49088000220121FF
:10E9B000C90350480068FEF7FFFE044600BF254625
:10E9C000002D05D000BF002211462846FEF72CFE80
:10E9D00000BF00BF48480078002852D000204749B7
:10E9E0000860122000F0C8F8642000F0A3F812209C
:10E9F00000F0CAF801203C49C86300200823024601
:10EA00001021009000F026FEFFF754FA26480088F7
:10EA1000002815D025A13AA000F056FD00280FD0FF
:10EA200038A139A000F050FD002809D03AA13BA040
:10EA300000F04AFD002803D01CA13AA000F044FDDC
:10EA40001AA11BA000F040FD18A11DA000F03CFD84
:10EA50001FA121A000F038FD122000F08DF8002049
:10EA60002149C863244908700F49088000BF01206C
:10EA70000007006980B205462946094800F046F9BA
:10EA8000044648DF044600BF2546002D05D000BFE0
:10EA9000002211462846FEF7C7FD9BE729DE01004C
:10EAA00030280020881300003E2800204F4B000033
:10EAB00041542B434950534855540D0A000000005F
:10EAC00041542B43474154543D300D0A000000008F
:10EAD000504F57455200000041542B43504F57446C
:10EAE0003D310D0A00000000C02F00400C2800201E
:10EAF00010270000002800204128002010280020B6
:10EB00000D0A1A003E00000041542B434950534562
:10EB10004E440D0A00000000323530000D0A2E0D63
:10EB20000A1A000041542B434950434C4F53453D72
:10EB3000310D0A0001B505E00098401E0090034821
:10EB4000FEF7D8FA00980028F6D108BDE7030000C8
:10EB500010B58A0005231B07072424021B19840013
:10EB60001A5110BD03210522120707231B02D218D8
:10EB70008300D1507047000001218140014AD160DB
:10EB8000704700000005005001218140014A91605A
:10EB9000704700000005005010B5084800780128B3
:10EBA00002D0022807D102E0FEF72CFD04E003208A
:10EBB0000249087000E000BF00BF10BD6C280020B3
:10EBC0000B480078002802D003280DD108E004206B
:10EBD000084908600120084908600549087004E0F8
:10EBE00002200349087000E000BF00BF704700002A
:10EBF0006C280020002500400020004010B5094886
:10EC00000078012807D0022804D0032806D1FEF797
:10EC1000F9FC04E000BFFEF7C4FC00E000BF00BF49
:10EC200010BD00006C28002010B5FEF7EBFC10BDF5
:10EC300010B504462300FEF797FC0504070D0A10E3
:10EC40001300FFF7A9FF0CE0FFF7BAFF09E0FFF799
:10EC5000D5FF06E000F008F803E0FFF7E5FF00E06D
:10EC600000BF00BF10BD000010B5034800780128A8
:10EC700001D1FEF79BFC10BD6C2800203CB503467B
:10EC800000BF20480078002801D108203CBD00BF0B
:10EC9000002B01D10E20F9E7002A01D10E20F5E763
:10ECA0001868642805D218680001174C20580028FD
:10ECB00001D10720EAE75C68186801940090019C84
:10ECC00018680001104D4019008948432018019030
:10ECD000009800012C4600194089009C2401641909
:10ECE00024896043009C2401641964680019019C14
:10ECF000A04201D80720C9E7019C00985460106029
:10ED00000020C3E75A2800204C310020F8B5044603
:10ED10000D4600BF27480078002801D10820F8BD23
:10ED200000BF002C01D10E20F9E72068642805D22D
:10ED30002068000120490858002801D10720EEE78B
:10ED4000206800011C4940184089216809011A4ABD
:10ED500089180989484321680901891849684018B8
:10ED60006168884201D80720D9E76068FFF78EFC08
:10ED7000002801D11020D2E723681B010E4FDB19B8
:10ED800062685B68D01A226812013B46D21811896A
:10ED9000FEF7ECF9002901D00720C0E700202B4640
:10EDA0000246214600900420FEF730FF064630461A
:10EDB000B5E700005A2800204C31002070B5084803
:10EDC0004469601C002807D000F00CF8054629466D
:10EDD0002046FEF7CBF970BD012000074069FAE735
:10EDE0000010001001200007006980B27047000089
:10EDF000F8B5FEF757FF00201E490880FFF7DEFF39
:10EE00000546653DFFF7EEFF45431B4805600020C2
:10EE10001A49088000BF0DE000210201184B9950EB
:10EE20000201D21811810201D21891810201D21877
:10EE30005181401C6428EFD3082012490870FFF765
:10EE4000D1FF0090FFF7BAFF471EFFF7CBFF474304
:10EE50003E4630460099FEF789F9054628DF04460C
:10EE6000002C04D101200849887008490870204608
:10EE7000F8BD000050280020542800205828002009
:10EE80004C3100205B280020803000205A280020D0
:10EE9000FFB581B00C4615461E4600BF35480078C8
:10EEA000002802D1082005B0F0BD00BF002C01D120
:10EEB0000E20F8E70198002801D10E20F3E7206822
:10EEC000642805D2206800012B490858002801D188
:10EED0000720E8E720680001274940184089216899
:10EEE0000901254A891809894843216809018918B7
:10EEF000496840186168884201D80720D3E7002D8F
:10EF000006D0206800011C4940180089A84201DA97
:10EF10000720C8E7A81921680901174A8918098933
:10EF2000884201DD0720BEE70198FFF7AFFB00280C
:10EF300004D03046FFF7AAFB002801D11020B2E729
:10EF40006068FFF7A3FB002801D11020ABE76068E1
:10EF500081192A460198FEF733F9009520680001CF
:10EF600005490F58002203212046019BB847002085
:10EF700099E700005A2800204C310020F8B50446DB
:10EF80000D4600BF4A480078002801D10820F8BD8E
:10EF900000BF002C01D10E20F9E7002D01D10E2079
:10EFA000F5E72068002801D10E20F0E7FFF71AFFEF
:10EFB000A188884202DBA088102801DA0720E6E752
:10EFC000E08800281CD0FFF7F9FE471EFFF70AFF74
:10EFD0004743E088A188484336490968401887427A
:10EFE0000ED3FFF7FFFEE188A2885143884209DA79
:10EFF000FFF7F8FE0746A188FEF7CEF8002901D0FA
:10F000000720C4E720798007800F002801D007205F
:10F01000BDE729480088642801D10420B7E72648C5
:10F02000008828602348006868602349098809012E
:10F03000224A8918686848601F49098809012068C0
:10F040005050A0881C490988090189180881E08866
:10F050001949098809018918488100200090A6886B
:10F06000E1884E4300BF0098401C80B20090FFF73B
:10F07000B9FEB04203D2FFF7B5FE361A00E0002613
:10F08000FFF7B0FE0B49096840180A490860002ED6
:10F09000E9D1094909880901084A89180098888135
:10F0A00005480088401C0449088000206FE70000E4
:10F0B0005A28002054280020502800204C310020DD
:10F0C000F8B504460E4615461F4600BF2F48007887
:10F0D000002801D10820F8BD00BF002E01D10E206C
:10F0E000F9E7002C01D10E20F5E72068642805D24D
:10F0F0002068000126490858002801D10720EAE7C6
:10F100002068000122494018408921680901204AED
:10F1100089180989484321680901891849684018F4
:10F120006168884201D80720D5E7002D06D0206805
:10F130000001174940180089A84201DA0720CAE7F0
:10F14000E81921680901124A89180989884201DDF4
:10F150000720C0E73046FFF799FA002804D0384668
:10F16000FFF794FA002801D11020B4E76068FFF798
:10F170008DFA002801D11020ADE72B4632462146FA
:10F1800002200097FEF742FDA5E700005A28002064
:10F190004C310020F0B585B0064600256A488078DD
:10F1A00001287DD1002068498870684800780828C7
:10F1B00019D1022E03D100206449087002E000201A
:10F1C00063490870FEF7EEFC0546002D09D05E4845
:10F1D0000078142250435C4A121D81182846FEF71D
:10F1E00025FA05B0F0BD022E02D0032E7ED183E0B9
:10F1F00055480078142148435349091D441855487F
:10F200000088401C534908802078022807D108460E
:10F21000008880026188884201DB012000E0002034
:10F2200003902078052805D148480078072801D1A7
:10F23000012000E0002002902078042805D14348F6
:10F240000078072801D1012000E0002001902078FB
:10F2500004280BD13F48008880026188884205DB82
:10F260003A480078002801D1012000E000200090F9
:10F270000298002808D10198002805D1009800289C
:10F2800002D10398002825D02F48077800202F4965
:10F290000870304908802C484078401E2A4900E018
:10F2A00050E0487008460078401C08700846007816
:10F2B0000A2803DB084600780A38087014207843CF
:10F2C000214A121D81182846FEF7B0F93846FEF78C
:10F2D0007FFC00BFFEF766FC0546002D0BD01A48E8
:10F2E000007814225043184A121D00E027E08118CC
:10F2F0002846FEF79BF923E0134800781421484381
:10F300001149091D44186078401CC0B26070032880
:10F3100009D1081F0078142250430A4681180D2095
:10F32000FEF784F90AE0FEF789FB0546002D05D0BB
:10F33000112D03D021462846FEF778F900E000BFE2
:10F3400000BF00BF00BF4CE7803000205B280020DA
:10F350005A280020582800200148406870470000C3
:10F360000015014010B504460348846003211120B4
:10F37000FEF70CF810BD00000015014010B501208B
:10F3800000040A4948600949403948601120FDF7E6
:10F39000DFFF1120FDF7E6FF0120054908602F205F
:10F3A000FDF7B8FE01200349087010BD401301406D
:10F3B000001001409828002010B511200121814043
:10F3C0000E4A116000BF012000040D4988600C49FD
:10F3D0004039886001200B4948602F20FDF79AFED4
:10F3E0000120084988600020074908602F20FDF7A8
:10F3F00091FE00200549087010BD000080E100E08A
:10F40000401301400010014084280020982800206B
:10F41000F8B5054611DF044600BF2646002E05D08C
:10F4200000BF002211463046FEF7FEF800BF00BFC5
:10F43000002348222149082000F08CF9064600BF2D
:10F440003746002F05D000BF002211463846FEF790
:10F45000EBF800BF00BF002000900021684641701B
:10F46000057060DF044600BF2646002E05D000BFB1
:10F47000002211463046FEF7D7F800BF104800F0D2
:10F480005DF9044600BF2646002E05D000BF0022CD
:10F4900011463046FEF7C8F800BF0A4800F08EF962
:10F4A000044600BF2646002E05D000BF00221146AC
:10F4B0003046FEF7B9F800BFF8BD0000D02D00209F
:10F4C00069D8010089F90100F3B581B00746002031
:10F4D0000090002501E0681CC5B20298405D00283C
:10F4E000F9D100262C4600BF2E49052000F0E8F88F
:10F4F0000028F9D1FF2101312A48FDF77AFE03E007
:10F5000038787F1C00F000F938780028F8D12CE01A
:10F51000032C15DD201F2349085C452810D1E01E6F
:10F52000085C52280CD1A01E085C522808D1601E2D
:10F53000085C4F2804D10846005D522800D11BE02A
:10F5400000260AE00298805D611B8919154A515C0A
:10F55000884200D003E0701CC6B2AE42F2DB00BFAE
:10F56000AE4200D108E0601CC4B20E4801190E483A
:10F5700000F0A6F80028CBD100BFAE420DD101208B
:10F58000009000BF2046621CD4B2064A81180120B8
:10F5900000F096F80028F5D101E0002000900098D6
:10F5A000FEBD0000D02C00201027000010B504463E
:10F5B0000AE000BF0649052000F082F80028F9D1D2
:10F5C0002078641C00F0A0F820780028F1D110BD4C
:10F5D000D02C0020F0B502460C46002037E0012375
:10F5E0008340194623460B40002B2FD0D5680D4091
:10F5F000002D05D101235B04D5680D43D56004E0DF
:10F6000003231B04D5688D43D56005252D070726E8
:10F610003602AD198600AD5903263604B5430526DA
:10F62000360707273F02F6198700F55105252D07F4
:10F6300007263602AD198600AD591D43052636074B
:10F6400007273F02F6198700F55100BF401C20280C
:10F65000C5D3F0BDF8B507460C4615461E462046F4
:10F66000FFF780FA00213046FFF772FA1048C460B5
:10F670004661069800280DD03846FFF773FA00213E
:10F680002846FFF765FA0A480561876001200849A6
:10F690004031C862074806494862042008600120DA
:10F6A000054988600860002004498860F8BD0000B2
:10F6B0000025004000509D00002000400021004037
:10F6C00070B504460D4601260AE02046641E002857
:10F6D00004DB7D20C000FDF7FDFC01E0002603E017
:10F6E000074880680128F0D100BF002C05DB00200E
:10F6F00003498860034880692870304670BD000067
:10F7000000210040002500400549C86100BF0549AF
:10F71000C9690129FBD10021024AD161704700006B
:10F72000002500400021004070B506460C461546F5
:10F7300029462046C046C04670BD0000014600294B
:10F7400001D10E207047024801600020FAE7000056
:10F75000B8280020FFB581B00C4616461F46002C85
:10F7600002D1072005B0F0BD20468107890F00298E
:10F7700001D1012100E00021002901D10720F1E79A
:10F78000094804600948068009480760094901984A
:10F7900010DF0546002D01D02846E3E70120064989
:10F7A000087016202EDFDDE7B0280020B4280020E6
:10F7B000A828002029F70100AC28002001460029D4
:10F7C00001D10E207047024801600020FAE70000D6
:10F7D000BC280020FFB583B00446154603266948BF
:10F7E000007800280BD1002D06D10698002803D1FF
:10F7F00002206449087002E00120624908706148F3
:10F8000000780300FDF7B0FE07B805203D6186A132
:10F81000B800FFF7E7FA80080290FFF7E3FA0499CF
:10F8200048430190FFF7CAFA471EFFF7DBFA474348
:10F8300000973846029A019929DF0646002E02D128
:10F8400002205049087098E0049828DF0646002EF0
:10F8500016D1002D11D1069800280AD1207804284D
:10F8600003D10720474908700AE005204549087080
:10F8700006E004204349087002E003204149087073
:10F880007BE0FFF79BFA471EFFF7ACFA474302976E
:10F89000FFF7A8FA049948432A460190029929DF04
:10F8A0000646002E10D1069800280AD12078042898
:10F8B00003D106203349087006E00520314908705D
:10F8C00002E004202F49087057E0FFF777FA471E3F
:10F8D000FFF788FA4743A80038186188401802905B
:10F8E000FFF780FA04994843A9004018618840183E
:10F8F0000190069A029929DF0646002E09D1207848
:10F90000042803D106201F49087002E005201D4984
:10F91000087032E0FFF766FA04994843A9004718D7
:10F92000608882083846216929DF0646002E0BD1FF
:10F93000002D06D10698002803D107201149087030
:10F9400002E006200F49087017E0FFF74BFA01901C
:10F95000FFF734FA471EFFF745FA4743009738464A
:10F960000199FDF703FC029028DF0646002E02D124
:10F9700007200449087000E000BF00BF304607B010
:10F98000F0BD00005B28002010B504462046FFF7BC
:10F9900001FC10BD0246501A0002000A7047000028
:10F9A00070B504460D480068002812D00B4AE16982
:10F9B000A06912689047054600BF2E46002E06D06B
:10F9C00000BF002211463046FDF72EFE00BF00BFEB
:10F9D00002E0A169E069884770BD0000942800201A
:10F9E000FEB50020C0430190104804681048076825
:10F9F0006846FEF7E7F90546FEF752FE0646002D7B
:10FA000005D001AA21460098FEF71EFA01260198AA
:10FA1000FEF7A6FE002800D00126002E02D03846B0
:10FA2000FEF75AF9002003490870FEBD8428002023
:10FA3000802800209928002010B51420FDF79CFC98
:10FA400010BD0000F0B5024624205043324B1B6825
:10FA5000C11832480068401C002802D12F480260BB
:10FA600059E02E484B680068242460432A4C2468DF
:10FA700000194068834217D8284800682423584357
:10FA8000254B1B68C01840684B68C31A23480068A0
:10FA900024246043204C2468001943601F480068F8
:10FAA00008621E48026036E04B681C4D2C682868CE
:10FAB0000DE024254543184E3668AD196D685B1B73
:10FAC000044624254543144E3668AD19286A451C62
:10FAD000002D07D0242545430F4E3668AD196D68BB
:10FAE0009D42E6D3451C002D0CD0242545430A4EEB
:10FAF0003668AD196D68EE1A24254543064F3F68F8
:10FB0000ED196E604B60086224256543024E36682D
:10FB1000AD192A6200BFF0BD7428002080280020A3
:10FB200070B502462C4C2168084609E0904200D18D
:10FB300009E0014624244443284D2D686419206AB5
:10FB4000441C002CF2D100BF441C002C00D170BD1D
:10FB5000814217D1204C246824256C431F4D2D6809
:10FB60006419246A1C4D2C602C462468641C002CEB
:10FB700008D101241A4DAC6000241A4D2C600124D8
:10FB8000194D2C7024244443144D2D686419636866
:10FB900024244443114D2D686419256A24244C43C0
:10FBA0000E4E3668A419256224244C430B4D2D6853
:10FBB0006419206A441C002C0CD024244443074DB3
:10FBC0002D6864196468E51824244443034E36689C
:10FBD000A419656000BFBAE78028002074280020BF
:10FBE000001001408428002099280020FFB581B032
:10FBF00005460E461746E900104A126888186946FD
:10FC000000F0E7F80446002C02D1042005B0F0BD56
:10FC1000012020706660FFF79FFBA060E7600498FA
:10FC200020610A986061E900044A12688818009906
:10FC300000F0E5F8FFF700FF0020E7E77C28002050
:10FC4000F8B504460E46E1000C4A12688818694669
:10FC500000F0BFF80546002D01D10420F8BD0220B8
:10FC600028706E60E100054A12688818009900F05B
:10FC7000C6F8FFF7E1FE0020F0E700007C28002036
:10FC8000F8B520480068401C00283AD00027FFF74C
:10FC900063FB04461C4801682046FFF77BFE0646CE
:10FCA0001848056811E02420684318490968441879
:10FCB0006068B04200D90BE06068361A6068C71906
:10FCC000256A2046FFF76CFE00BF681C0028EAD1B9
:10FCD00000BF0F4800780F490978884209D10D48C4
:10FCE0000078401CC0B20B490870022801D10020E6
:10FCF000087008480078800007490F50FFF79CFE05
:10FD000000BFF8BD8028002084280020742800202F
:10FD100090280020912800208828002010B511206C
:10FD2000FDF72AFB10BD0000F8B500BF00201B4BFB
:10FD3000052204210090FDF7C7FC054600BF2E46B2
:10FD4000002E05D000BF002211463046FDF76CFCA6
:10FD500000BF00BF124A01211248FDF77BFC044698
:10FD600000BF2546002D05D000BF002211462846C1
:10FD7000FDF75AFC00BF0C4A00210C48FDF76AFC55
:10FD8000044600BF2546002D05D000BF00221146C5
:10FD90002846FDF749FC00BFF8BD0000182E0020E2
:10FDA00009FE01000028002003FE010004280020B5
:10FDB00010B5FDF7D9FF012802D0032804D101E0D6
:10FDC000002403E0012401E0022400BF00BF20461C
:10FDD00010BD70B502460B465078411C90788842A1
:10FDE00000D100211078884201D1002070BD196037
:10FDF00050781826704355682C182046F6E7417055
:10FE0000704787DF7047000070B5064625480068D8
:10FE1000401C2449086024480068401C22490860AE
:10FE200022480078002800D070BD2148008864284E
:10FE30002ADA1C4800780007000F002830D187DF3D
:10FE400004461C48007840084000401C19490870CE
:10FE50000846007802218843164908700120800373
:10FE60000881C01E4881002048608881084686DFDE
:10FE7000044600BF2546002D05D000BF00221146D4
:10FE80002846FDF7D1FB0BE0074800684B21C9006D
:10FE9000884205D901200549087000200249086000
:10FEA00000BFC1E70C2800201028002041280020B6
:10FEB0003E280020C0280020445455400000000087
:10FEC0000000000000000000000000000000000032
:10FED0000000000000000000000000000000000022
:10FEE0000000000000000000000000000000000012
:10FEF0000000000000000000000000000000000002
:10FF0000000000000000000028FF01000028002081
:10FF1000C000000084D50100E8FF0100C0280020D7
:10FF2000D016000094D50100000000000000000081
:10FF300000000000000000000000000000006D0153
:10FF40008C01A901C801E60105022302D400F300D7
:10FF5000110130014E01000000000000000000000F
:10FF60000000000000000000000000000000000091
:10FF7000000000000024F400000000000000000069
:10FF8000000000000000FFFF010000000000000072
:10FF90000000000000000000000000000000000061
:10FFA0000000000000000000000000000000000051
:10FFB0000000000000000000000000000000000041
:10FFC0000000000000000000000000000000000031
:10FFD0000000000000000000000000000000000021
:08FFE000000000000000000019
:040000050001D0C165
:00000001FF
