:020000040001F9
:10D00000003C002035D101004FD1010051D1010079
:10D010000000000000000000000000000000000010
:10D0200000000000000000000000000053D10100DB
:10D03000000000000000000055D1010057D10100A0
:10D0400059D1010059D101004DDA010059D1010037
:10D0500059D1010000000000F1D70100A9D701005B
:10D0600059D1010059D1010059D1010059D1010014
:10D0700059D1010059D1010059D1010059D1010004
:10D0800059D1010081D9010059D1010059D10100C4
:10D09000A9D90100B1D90100DDD9010059D10100A0
:10D0A00059D1010059D1010000000000000000002A
:10D0B0000000000000000000000000000000000070
:10D0C0000348854600F0AAF9004800470DF001002A
:10D0D000003C0020401E00BF00BF00BF00BF00BFDB
:10D0E00000BF00BF00BF00BF00BF00BF00BFF1D145
:10D0F00070470000401E00BF00BF00BF00BF00BF60
:10D1000000BF00BF00BF00BF00BF00BF00BFF1D124
:10D1100070470000401E00BF00BF00BF00BF00BF3F
:10D1200000BF00BF00BF00BF00BF00BF00BFF1D104
:10D13000704700000321094802680A43026008485A
:10D1400002680A4302600748804707480047FEE735
:10D15000FEE7FEE7FEE7FEE7FEE7000024050040ED
:10D160005405004015DA0100C1D0010030B50B466E
:10D17000014600202022012409E00D46D5409D42B1
:10D1800005D31D469540491B254695404019154637
:10D19000521E002DF1DC30BD70B50024254600285C
:10D1A00001DA01244042002901DA01254942FFF752
:10D1B000DDFFAC4200D04042002C00D0494270BD9F
:10D1C00003460B439B0703D009E008C9121F08C0A0
:10D1D000042AFAD203E00B780370401C491C521E4B
:10D1E000F9D27047D2B201E00270401C491EFBD256
:10D1F00070470022F6E710B513460A460446194662
:10D20000FFF7F0FF204610BD0FB400B58DB00990B8
:10D210000B9010A900200091C0430A9000200C90B0
:10D2200006480690064807906A4609A80F9900F03C
:10D23000C3F80DB008BC04B018470000D9D30100F2
:10D24000F9D30100FFB50027FF4383B000205C68DD
:10D2500001909E681D46A9697F1C0498884700902C
:10D26000296A88470028F6D10098401C0CD003207A
:10D2700040028443002E19DD600614D500982B2847
:10D2800009D02D280FD103E00020C04307B0F0BD26
:10D29000012080020443A9697F1C04988847761EF8
:10D2A0000090002E02DD0098302803D00598002859
:10D2B00025D035E0012040020443A969761E7F1C79
:10D2C000049888470090002E03DD782805D0582860
:10D2D00003D00598002810D022E00598002801D03E
:10D2E00010281DD1012040028443A969761E7F1CAD
:10D2F000049888470090102002E0082000E00A20EF
:10D3000005900DE0012149020C43059A0199761E12
:10D31000514308180190A9697F1C04988847009020
:10D32000002E05DD0599009800F031F80028E9DAB3
:10D33000E96904988847A00502D40120C043A5E705
:10D34000E00722D1600611D56005019800D5404262
:10D3500029680A1D2A600968220501D5087014E0B1
:10D36000220701D5088010E008600EE02868011D42
:10D3700029600068210502D50199017005E02107A7
:10D38000019901D5018000E0016038467EE73A2826
:10D3900000D23038202302469A43412A01D3104656
:10D3A0003738884201D30020C043704702681378A1
:10D3B000511801601846704710B5D1600449516199
:10D3C0000449116200211161114600F041F810BDBD
:10D3D000ADD3010041D401004268002A08D00168A1
:10D3E0000B78491C002B03D0521E06C0184670470C
:10D3F0000121C160881E70474268002A0BD0C368B3
:10D400000168002B07D183688B4204D0491E521C4F
:10D4100006C0002070470020C0437047064C01251D
:10D42000064E05E0E36807CC2B430C3C98471034CC
:10D43000B442F7D3FFF748FE4C0702006C07020026
:10D4400010B50F21C0B2490200F09CF910BD0000D8
:10D45000F3B58DB000200A9001200B9000260846FD
:10D460000C300C460990626901210998904705002B
:10D470002ED0252D2DD0216A8847002818D062692A
:10D48000012109989047216A88470028F7D1411E59
:10D4900062690998904700E0761CA1690D98884759
:10D4A000216A88470028F7D1E1690D988847DAE7B3
:10D4B000A1690D9888470746A84201D1761CD2E79A
:10D4C000E1690D9888477F1C02D10A98002877D01F
:10D4D00046E1002762693D463946099890472A2867
:10D4E0000CD16269012109989047012506E00A21C3
:10D4F0004F433F18303FEBD41020054362690121B0
:10D5000009989047014630390A2903D29A498F4237
:10D51000DEDCECE7E90600D4984F6C280AD04C28F2
:10D5200010D0682824D06A282ED074280CD07A28ED
:10D530000AD00DE062690121099890476C2823D038
:10D5400004211CE0202005436269012109989047CD
:10D55000A760656065284FD026DC582839D01ADCD2
:10D56000452849D012DC252834D04128B0D143E0E9
:10D570006269012109989047682802D008210D436B
:10D58000E6E70120C002DEE70220DCE7462833D0D0
:10D5900047282CD130E05B287BD061282CD0632831
:10D5A00077D0642823D15EE06F284CD009DC662850
:10D5B00022D0672820D0692826D06E2817D12EE0E7
:10D5C000CAE070284AD073286CD075284BD07828D0
:10D5D0000DD150E0A1690D9888470546252800D156
:10D5E0006CE7E1690D9888476D1C00D16DE7B7E0E5
:10D5F0000A2248E00A224FE0012023466A46C0433F
:10D600000D99C046C046A0E028464021084360600E
:10D61000A807234601D5002235E000223CE020681F
:10D62000011D21600068290501D506701BE7290747
:10D6300001D5068017E7A90703D5F11706604160F9
:10D6400011E706600FE72846402108436060A807FD
:10D65000234601D5082216E008221DE04849284645
:10D660000840606016E02846402108436060A80733
:10D670002346BFD5BCE72846402108436060A80781
:10D6800008D5234610220120C0430D99C046C0464C
:10D690005BE007E0234610220120C0430D99FFF70D
:10D6A000D1FD52E000210C910B460091632802D07D
:10D6B0005B2807D043E0E80601D40120A0600120E8
:10D6C00000903CE062690121099890475E2805D1ED
:10D6D00001200C9001466269099890472169002950
:10D6E00006D10B4601AA8F00491CD3510829FADB49
:10D6F000002835D0216900290ED1C117C90E09189B
:10D700004A11930001AA9A1849094901411A0120B6
:10D7100013688840034313606269012109989047A8
:10D720005D28E5D10C98002808D0002001AB8100CD
:10D730005A58401CD2435A500828F8DB01AB01204C
:10D740002246C0430D99C046C04600280ADA401C54
:10D7500006D10B98002803D00020C0430FB0F0BDC5
:10D760000A98FBE7E90702D10A99491C0A91361881
:10D7700000200B9077E60000CCCCCC0CFFFFFF7FA5
:10D78000F1F7FFFF7F2801D9002207E0054B42088F
:10D790009A5CC00700D112091207120F01209040B5
:10D7A000084070470C07020010B50D4800680028BB
:10D7B00014D000200A4908600A488068C4B20120D9
:10D7C000094948604B21090161430846FF21FFF7E1
:10D7D000E3FC410040180549088000BF10BD00006F
:10D7E000007100400075004000700040902800204B
:10D7F000F0B585B03048056900203049C86300267F
:10D8000054E0142070432E49096844180120B040A8
:10D810002C4909680840002846D000200290019059
:10D82000E068C0436840216808400390204603999F
:10D8300002F0E8FA20480069684021680840049036
:10D840000498002818D0049868400090E068C0430D
:10D85000009948402168084007463946204602F0B2
:10D86000D1FAA06800998843384001906068009917
:10D8700008403840029000BFA068A84303990840C0
:10D880000199084301906068284003990840029973
:10D8900008430290019902980843002803D02269A6
:10D8A00001990298904700BF701CC6B206480078E4
:10D8B0008642A6DB05B0F0BD000500504061004087
:10D8C000F4280020EC280020F1280020C206D20E07
:10D8D00001219140014A11607047000080E200E0A0
:10D8E000C206D20E01219140014A1160704700002A
:10D8F00000E100E0C206D20E01219140014A116010
:10D900007047000000E200E010B5002819DA1A4A5A
:10D9100003071B0F083B9B089B00D2588307DC0EB4
:10D92000FF23A3409A438B071B0E8407E40EA340FA
:10D930001A43114B0407240F083CA408A4001A51F1
:10D9400018E00E4A03231B02D21883089B00D2580A
:10D950008307DC0EFF23A3409A438B071B0E84072B
:10D96000E40EA3401A43054B032424021B19840828
:10D97000A4001A5110BD00001CED00E000E100E021
:10D9800010B5002007490860002106484160816009
:10D99000C1600020034940390860486002F088FDFA
:10D9A00010BD00004011014010B502F031FC10BD67
:10D9B00010B508480078012148400649087006481B
:10D9C0000068002804D008460078034909688847A1
:10D9D00010BD0000942800209828002070B50C4845
:10D9E0000068002810D00A4800688047044600BF3D
:10D9F0002546002D06D000BF00221146284600F023
:10DA0000D9F800BF00BF01E001F04EF970BD000081
:10DA1000F828002010B501F0C1F9002805D007480A
:10DA200007494860C8130749886101F09BF900283D
:10DA300002D001200449886010BD0000DFFF07C04C
:10DA400000050040006C0040000600401CB5244862
:10DA50008068002818D02348406804210840002826
:10DA600012D000201E4988601F488069C0B21F493B
:10DA700008800421684601701C48017868460171DD
:10DA80001B490968884700BF1548C06900280BD0AA
:10DA90001448406880210840002805D00020104923
:10DAA000C861032001F0ACFC0D48406A002816D084
:10DAB0000C48406801214902084000280FD000208E
:10DAC00007494862084880380468046002206946B3
:10DAD00008700194684606490968884700BF1CBD64
:10DAE000002100400023004000250040AE28002017
:10DAF000B828002030B47446641E2578641CAB42FC
:10DB000004D3635D5B00E31830BC18471D46F8E79B
:10DB100002E008C8121F08C1002AFAD170477047F6
:10DB2000002001E001C1121F002AFBD1704710B58F
:10DB300000F01AF810BD000007480078022802D053
:10DB4000012006498860064800780649C86102201D
:10DB50000149087070470000BC28002000200040E8
:10DB6000AC280020002500401CB501200549C860F4
:10DB7000054908700320694608706846034909682A
:10DB800088471CBD00200040BC280020B828002089
:10DB900000200549087001200449C8604860002041
:10DBA0000349086070470000BC28002000200040A6
:10DBB0000025004000BFBFF34F8F04480449C860F0
:10DBC000BFF34F8F00BF00BFFEE700000400FA055F
:10DBD00000ED00E0F8B505460C462778A068000186
:10DBE00005490E58608800902A463946204608307C
:10DBF0002369B047F8BD0000BC2D002070B5034676
:10DC00000C4619480068002801D1082070BD002A80
:10DC100001D10720FAE7002B01D10720F6E7002108
:10DC20001CE024204843104D2D68285C002814D1A6
:10DC30000125242048430C4E36683554242048439F
:10DC4000094D2D684019447024204843064D2D6825
:10DC50004019826119600020D8E7491C0348007808
:10DC60008142DEDB0420D1E7C4280020C028002048
:10DC7000FFB581B00E4617461C4620468107890F26
:10DC8000002901D1012100E00021002902D1072053
:10DC900005B0F0BD002C01D10720F9E701F074FFB9
:10DCA00026490A9808602648067026480460002520
:10DCB0000CE0002124206843224A126811542420D9
:10DCC0006843204A1268801801756D1CB542F0DB6C
:10DCD00024207043041903201B4908701B4804606A
:10DCE000183400250CE0E900184A12688818002151
:10DCF0000170417087704460182179430C196D1CC4
:10DD0000032DF0DB0020C0431149086000201149B9
:10DD10000870114908701420FFF7D8FD0321142062
:10DD2000FFF7F2FD1420FFF7DBFD019801F002FF81
:10DD300001F0FAFE094908600020A9E7E428002064
:10DD4000C0280020C4280020C8280020CC2800209B
:10DD5000D0280020E0280020E1280020D42800203E
:10DD6000FEB504460D46164616480068002801D147
:10DD70000820FEBD14480078844201D2052D01D24E
:10DD80000720F6E7242060430E490968085C012853
:10DD900001D00820EDE7242060430A4909684018B3
:10DDA0004078012801D1284600E00020074602F013
:10DDB00017FC3B462A4621460096019002F02EFBB6
:10DDC000D7E70000C4280020C028002070B5044612
:10DDD0000D480068002801D1082070BD0B4800786C
:10DDE000844201D30720F8E72420604306490968EC
:10DDF000085C012801D00820EFE702F0F1FB05469E
:10DE0000214602F035FBE8E7C4280020C0280020A6
:10DE100070B50446261D208819287DD01B287AD18C
:10DE2000607C822875D1A07C582872D1A07BC00765
:10DE3000C00F00286DD0B07AC008032869DD00202B
:10DE400039494870062008E0421EF11C895C08220E
:10DE5000121A354B9954411EC8B20028F4DC042034
:10DE600007E021460F310A5C2F4B011D5A54411C1B
:10DE7000C8B21C28F5DB607B2B4908700846806817
:10DE80002A490968081A2849C9684018264988603B
:10DE9000274A28480188284801F0D8FA054600BFDB
:10DEA0002B46002B05D000BF002211461846FFF775
:10DEB00081FE00BF002320221B491D4801F0E8FC21
:10DEC000054600BF2B46002B05D000BF002211469F
:10DED0001846FFF76FFE00BF16480088401C154922
:10DEE000088016480068FFF771FF00220521090429
:10DEF00012480068FFF734FF0E4800881921C90155
:10DF0000884206DB87DF00200D49087001200D499B
:10DF1000087007E000E004E0A079022800D101E0E9
:10DF200000BF00BF00BF70BD2029002008280020CE
:10DF3000882800203A2800202C28002004280020CF
:10DF4000442800203D2800200007000F0A2803DA9B
:10DF500001463031C8B202E001463731C8B27047DD
:10DF6000F0B587B00F27554800781421484353492E
:10DF7000091D4418E5682078022804D0042823D01D
:10DF800005287CD16AE0206905904D48008886020A
:10DF90006088801B0690059880190590A0888019DC
:10DFA0004519012189020698884206D206988208FE
:10DFB0002846059929DF074605E0FF220132284659
:10DFC000059929DF07466FE0A06800013D49401828
:10DFD00000890690A0680001401840890590A0685B
:10DFE00000014018406804900498A84205D10599A2
:10DFF000069848436188884202D0A06865280DD100
:10E0000001F0D8FA014603902846FFF7AFF82C49F3
:10E0100009884618304628DF07461EE001F0CAFA94
:10E02000014601902846FFF7A1F8064601F0C2FA22
:10E030007043281A8008039001F0BCFA711C484311
:10E0400061884919401A8008029031462046029B97
:10E05000039A01F0D7FF074600BF25E001F0AAFAB6
:10E06000014604902846FFF781F8064601F0A2FA1F
:10E070007043A1884919081A8008069000E012E050
:10E0800001F098FA711C4843A188491962888918DF
:10E09000401A8008059031462046059B069A01F0FB
:10E0A000B1FF074600E000BF00BF002F02D10120F2
:10E0B00002498870384607B0F0BD0000F02C0020FF
:10E0C000A8280020BC2D002010B500240848407866
:10E0D00000280BDD06488078002807D1FFF740FFB5
:10E0E0000446002C02D0112C00D10024204610BD83
:10E0F000F02C00200023142141430C4A53541421D6
:10E10000414389184B8064231421414389188B6053
:10E110000023142141438918CB60142141438918FD
:10E120000B611421414389188B807047F42C002027
:10E13000FFB581B0064617460024224840780A28D9
:10E140003CD0204800781F4949784018C4B20A2CB6
:10E1500002DB20460A38C4B2142060431949091D65
:10E160000E54002214206043401842701420604373
:10E1700040180761142060434118029805C8CA601E
:10E180008860142161430F4A121D89180498488041
:10E190001421614389180A9888800025101F80780F
:10E1A000002805D1FFF7DCFE0546112D00D1002522
:10E1B00004484078401C0349487000E00425284684
:10E1C00005B0F0BDF02C002010B5002008490880F3
:10E1D000084908700849087048708870002403E0F6
:10E1E0002046FFF787FF641C0A2CF9D310BD0000FE
:10E1F000A8280020AB280020F02C0020FEB51E48E7
:10E200000068401C002834D01B4800682421484383
:10E210001A4909684018456801F086FC01901848C1
:10E2200004682146019801F0CDFFC61C154800780E
:10E23000002801D101F08AFCAE4201D2284600E05C
:10E24000304604192402240A20460F49086000BF02
:10E2500001F06AFC00900199009801F0B3FFC71C1F
:10E260002046019901F0AEFF874201D902F06EF914
:10E2700001E001F089FCFEBDD0280020C428002068
:10E28000D4280020E82800204015014010B514488B
:10E290004068C105C90D002920D00A46103A50B285
:10E2A00000280DDA0E4B1C330407240F083CA40889
:10E2B000A4001B598407E40EE3401B069B0F0BE0F0
:10E2C000084B032424021B198408A4001B5984074B
:10E2D000E40EE3401B069B0FD8B210BD0420FCE700
:10E2E00000ED00E000E100E0014614480078144A27
:10E2F000127890421DD011480078401C0F4A1070CF
:10E3000010460078022801D1002010700B480078D8
:10E3100080000C4A105808600B4A08681268801880
:10E32000094A1060104600680002000A10600120CF
:10E3300070470020086000BFFAE70000E0280020D6
:10E34000E1280020D8280020D428002070B5049CA3
:10E35000044E45683668B54202D10025024E35703C
:10E3600070BD00003428002038280020F0B5034696
:10E37000002426E0164E366824277E43154F3F685A
:10E38000F01946689E4203D94668F61A46601DE0B9
:10E3900046689B1B466834190026466006750C4E7D
:10E3A00035680B4F066A3E600669002E08D00E19CC
:10E3B0003602360A86600669C6601668066215600F
:10E3C00000BF03480068401C0028D3D100BFF0BD47
:10E3D000D0280020C4280020F0B587B004240020F5
:10E3E0000690FA4800F096FF02A871DF002216E0BE
:10E3F00002A90131895C0811FFF7A6FD2146631CC3
:10E40000DCB2F34B585402A90131885CFFF79CFD44
:10E410002146631CDCB2EE4B5854501CC2B2062A93
:10E42000E6DB56222046611CCCB2E9490A54E9A138
:10E43000E9A001F031FC00280DD1E6A1E6A001F031
:10E440002BFC002807D1E3A1E3A001F025FC002864
:10E4500001D107B0F0BDDFA1E1A001F01DFCDDA1FD
:10E46000E1A001F019FC002800D1F2E7E14AE2A1A5
:10E47000E748FEF7C9FEE74800881921C90188422C
:10E480004FDA2021E448FEF7B4FE04AAE1480188EF
:10E49000E24800F0DBFF054600BF2B46002B05D00D
:10E4A00000BF002211461846FFF784FB00BF002082
:10E4B00007E002A901310A5CD74B811C5A54411C68
:10E4C000C8B20628F5DBD6480068D349C860D448EE
:10E4D00000688860C7480088C882442008775420B4
:10E4E0004877552088773A20C87701A852DFCA4973
:10E4F000019888610023202204A801F0C9F905468B
:10E5000000BF2B46002B05D000BF00221146184645
:10E51000FFF750FB00BFBF480088401CBD49088082
:10E5200000BFB44909880813FFF70EFD2146621C9D
:10E53000D4B2A74A5054AF4909880812FFF704FD26
:10E540002146621CD4B2A24A5054AA49098809053E
:10E55000080EFFF7F9FC2146621CD4B29C4A5054C5
:10E56000A4490878FFF7F0FC2146621CD4B2984A0F
:10E57000505440222046611CCCB295490A54A9A1AE
:10E58000AAA001F089FB002808D192A1AAA001F05D
:10E5900083FB90A1ABA001F07FFB5AE7ABA1ADA03C
:10E5A00001F07AFB002800D153E78AA1ACA001F06A
:10E5B00073FBAEA1B0A001F06FFB002803D1ABA1AB
:10E5C000ADA001F069FB202009E091490B390B5CFB
:10E5D0002146621CD4B27E4A5354411CC8B224283E
:10E5E000F3DB272009E08A490B390B5C2146621CCA
:10E5F000D4B2774A5354411CC8B22B28F3DB75A11F
:10E60000A0A001F049FB73A1A1A001F045FB51229C
:10E610002046611CCCB26E490A54112009E07C49A5
:10E620000B390B5C2146621CD4B2694A5354411C1D
:10E63000C8B21528F3DB2C222046611CCCB26449F9
:10E640000A5442222146601CC4B2614842547149B6
:10E6500009880813FFF778FC2146621CD4B25C4A93
:10E6600050546C4909880812FFF76EFC2146621C61
:10E67000D4B2574A5054674909880905080EFFF774
:10E6800063FC2146621CD4B2514A50546149087857
:10E69000FFF75AFC2146621CD4B24D4A50544DA19A
:10E6A0007EA001F0F9FA00287BD059480B38407D54
:10E6B000312876D156480B38807D352871DB1420FF
:10E6C00009E053490B390B5C2146621CD4B2404A25
:10E6D0005354411CC8B22A28F3DB4D480B38007E46
:10E6E00030380A2148434A490B39497E30394018AD
:10E6F00047490B3908760846C07E30380A2148431E
:10E7000043490B39097F3039401841490B39C876E4
:10E710000846807F30380A2148433D490B39C97F7C
:10E72000303940183A490B3988770846203040780C
:10E7300030380A2148433649153189783039401834
:10E74000C1B2334815304170007930380A2148434E
:10E750002F491531497930394018C1B22C4815304C
:10E7600001712038007E401E40004F49085A284958
:10E770000B39C97E4018401E1821484324490B39E3
:10E78000897F40183C214843214915314978401878
:10E790003C2148431E49153109794018069001E093
:10E7A000FFE756E6134800884049884200DA50E601
:10E7B00008A13FA001F070FA3FA142A001F06CFA5D
:10E7C000002801D103A183E085E00000204E000075
:10E7D000482800204F4B000041540D0A0000000063
:10E7E000415445310D0A000061742B6362630D0AC8
:10E7F00000000000462800202B4342433A20252AEF
:10E8000068642C252A68642C2568640A00000000CE
:10E810004B2900203A280020202900202C28002005
:10E8200008280020434C54533A20310061742B4394
:10E830004C54533F0D0A000061742B434C54533D1C
:10E84000310D0A00415426570D0A0000524541443B
:10E850005900000041542B4350494E3F0D0A00001F
:10E8600041542B435245473D320D0A002B4352453C
:10E87000473A20322C31000041542B435245473F48
:10E880000D0A000041542B435245473D300D0A000C
:10E8900061742B6373710D0A0000000041542B4317
:10E8A000434C4B3F0D0A000012280020D80E0000F8
:10E8B000415445300D0A000043474154543A203139
:10E8C0000000000061742B63676174743F0D0A00DF
:10E8D00095A001F0E1F998A198A001F0DDF996A1C9
:10E8E0009BA001F0D9F99DA19DA001F0D5F99FA1B0
:10E8F000A1A001F0D1F9002806D19CA18DA001F0C2
:10E90000CBF9002800D1A4E58BA1A5A001F0C4F9A2
:10E91000A7A1A8A001F0C0F9AAA1ADA001F0BCF97F
:10E92000A3A1A4A001F0B8F9ADA1AEA001F0B4F983
:10E930009FA1A0A001F0B0F9A9A1AEA001F0ACF98F
:10E940009BA19CA001F0A8F9ADA1AEA001F0A4F993
:10E95000002800D17DE596A196A001F09DF9AEA119
:10E96000AEA001F099F992A192A001F095F9AAA1A7
:10E97000B2A001F091F98EA18EA001F08DF9B6A19F
:10E98000B6A001F089F9002800D162E588A189A02C
:10E9900001F082F9B3A001F021FA002605E0B449A4
:10E9A000885D01F0C9FA701CC6B2402EF7DB62A187
:10E9B000B0A001F071F97EA17EA001F06DF98FE0A9
:10E9C000AE480088401E81B204AAAD4800F03EFD6A
:10E9D000002600BFAB49012001F08AFA0028F9D1D6
:10E9E0000023202204A9A84800F03AFE86B200BF06
:10E9F0003346002B05D000BF002211461846FFF712
:10EA0000D9F800BFA0488168A04A06981268801A09
:10EA100008189D4988600846007F442807D10846A9
:10EA2000407F542803D10846807F552808D0964857
:10EA3000C168964A06981268801A08189249C860F8
:10EA4000002710E09049C95D0811FFF77DFA019099
:10EA500001F072FA8C49C85DFFF776FA019001F077
:10EA60006BFA781CC7B2202FECDB84490988481E5A
:10EA7000C117090F091809110901411A2BD17F4942
:10EA80000988481EC117C90E091849114901411AC0
:10EA900010D10121890204A800F020FD86B200BF38
:10EAA0003346002B05D000BF002211461846FFF761
:10EAB00081F800BF20A151A001F0EEF83CA13DA0DB
:10EAC00001F0EAF8002806D139A13AA001F0E4F8F3
:10EAD000002800D1BDE469480088401E67490880CD
:10EAE00066480088002800DD6AE713A143A001F012
:10EAF000D3F82FA12FA001F0CFF8002806D12CA128
:10EB00002CA001F0C9F8002800D1A2E442A160A025
:10EB100001F0C2F8002804D007A15FA001F0BCF802
:10EB200000E096E400BF94E461742B636761747441
:10EB30003D310D0A000000004F4B000061742B4373
:10EB40005354543D22434D4E4554220D0A000000BB
:10EB500041542B43494943520D0A00002E00000046
:10EB600041542B43494653520D0A0000434F4E4E29
:10EB7000454354204F4B000041542B4349505354BC
:10EB80004152543D22544350222C223135392E32E9
:10EB900032362E3235312E3131222C32350D0A00EB
:10EBA00041542B434950535052543D310D0A0000FB
:10EBB0003E00000041542B43495053454E440D0A3A
:10EBC00000000000636F72656D61696C00000000F9
:10EBD00065686C6F2068656C6F0D0A1A0000000094
:10EBE0003333340061757468206C6F67696E0D0A89
:10EBF0001A00000059324E6B59773D3D0D0A1A003C
:10EC00003233350059324E6B59324E7A6447356C87
:10EC100064413D3D0D0A1A00323530004D41494CEA
:10EC20002046524F4D3A3C6C7965406373746E6573
:10EC3000742E636E3E0D0A1A0000000052435054B9
:10EC400020746F3A3C6C7965406373746E65742E02
:10EC5000636E3E0D0A1A00003335340044415441BE
:10EC60000D0A1A005375626A6563743A2000000049
:10EC7000482800200D0A0D0A1A0000003A2800203A
:10EC80002C280020402900202029002008280020CE
:10EC90000D0A2E0D0A1A000041542B434950434CD3
:10ECA0004F53453D310D0A00F8B52948007800283A
:10ECB00000D1F8BD27480068002801D1012000E0FC
:10ECC0000020054624480068002801D1012000E00A
:10ECD0000020064600BF002D14D1684651DF0446CF
:10ECE000052C01D101250CE0002C06D000BF00222C
:10ECF00011462046FEF75EFF03E0164900980968BA
:10ED0000884700BF002E1AD1144800880090694639
:10ED10001348006861DF0446052C01D101260DE08F
:10ED2000002C06D000BF002211462046FEF742FF0D
:10ED300004E00B48006808490968884700BF002DB7
:10ED400002D0002E00D000E0C5E700BF00BFB0E752
:10ED5000FC2800200C29002008290020042900207C
:10ED6000002900200C48008CC0B2012812D10A48AA
:10ED7000808C0007000F00280CD10748806AF02122
:10ED80000840402806D10448C06A0840002801D144
:10ED9000012070470020FCE7C00F00F01948008CEC
:10EDA000C0B201282CD11748808C0007000F002822
:10EDB00026D11448806AF0210840002806D1114865
:10EDC000C06A0840002801D1012070470D48806AC0
:10EDD000F0210840102806D10A48C06A08400028DF
:10EDE00001D10120F1E70748806AF021084030286E
:10EDF00006D10448C06A0840002801D10120E4E798
:10EE00000020E2E7C00F00F001468807800F0028CD
:10EE100001D1012070470020FCE70000FEB52B481F
:10EE2000006801902A480078009040E00098C000F7
:10EE3000284909684418257835E018206843616836
:10EE40000F18681CC5B2A078A84200D100253878F8
:10EE5000022802D0032823D10EE0242178684843F9
:10EE60001D4909684618307D002804D0786801F0F3
:10EE70006FFA0020307514E00CE014490968242270
:10EE80005143154A12688818002101750F4A016A1A
:10EE9000116000BF0D480068401C0028EDD100E063
:10EEA00000BF00BF00BF6078A842C6D100BF009875
:10EEB000411EC9B200910028B8D1044801680198E8
:10EEC000814201D00120FEBD0020FCE7D0280020B7
:10EED000C8280020CC280020C4280020FEB5074602
:10EEE00043480068029043480078019071E001981F
:10EEF000C00041490968451863E0781C002807D024
:10EF00003E46242070433D4909684418276A29E099
:10EF10002978182359436A6850182978491C2970A0
:10EF20002978AA78914201D10021297046682421CC
:10EF30007143324A12688C180178012902D1217D6F
:10EF4000002900D03DE08168A160C168E1600169ED
:10EF500021614169E1612A490978002901D0002134
:10EF6000A16000BF2749A0680968401A0002000A92
:10EF70002549884208D22349A068096801F022F98E
:10EF8000E1684018606011E01E48A168006801F067
:10EF900019F90090E1680098814204D9E16800986D
:10EFA000081A606001E00020606000BF0020A060DF
:10EFB000E06001202075801E2062304601F05AF981
:10EFC00000BF781C002898D128786978884294D1AD
:10EFD00000BF0198411EC9B20191002887D10448A1
:10EFE00001680298814201D00120FEBD0020FCE7AB
:10EFF000D0280020C8280020CC280020C4280020C9
:10F00000E9280020D4280020FFFF7F0088B00220DC
:10F0100000F0E6FD06A871DF582069464876812198
:10F0200006A8817006A9002070DF044600BF2346B1
:10F03000002B05D000BF002211461846FEF7BAFD8E
:10F0400000BF01F089FA00F0BBFA202168468182F6
:10F050001921C901C18289480490894904A800F096
:10F0600075FB044600BF2346002B05D000BF0022DD
:10F0700011461846FEF79EFD00BF6846C08A8149CA
:10F08000088033E07F480088401E81B202AA7C4895
:10F0900000F0DCF9044600BF2346002B05D000BF7A
:10F0A000002211461846FEF785FD00BF00232022EE
:10F0B00002A9754800F0D4FA044600BF2346002B8D
:10F0C00005D000BF002211461846FEF773FD00BFB1
:10F0D0006D4903C90023DB4358405940084300D021
:10F0E00008E068480088401E664908806548008836
:10F0F0000028C7DC00BF03200521090707221202F0
:10F100008918886400224B21490460480068FEF792
:10F1100027FE044600BF2346002B05D000BF002277
:10F1200011461846FEF746FD00BF012058490870F9
:10F1300000BF5748007800287ED056480078002845
:10F1400003D087DF0020534908700020524908602F
:10F15000122000F001F9642000F0DCF812200121F7
:10F1600081404E4A916000BF01204D49C863002094
:10F17000082302461021009000F084FEFFF72CF9CE
:10F1800040480088002856D046A147A000F084FDE2
:10F19000002812D045A146A000F07EFD00280CD02A
:10F1A00047A148A000F078FD002806D03DA147A067
:10F1B00000F072FD002800D000BF324800881921FD
:10F1C000C901884237DA02AA2E4801882C4800F08B
:10F1D0003DF9044600BF2346002B05D000BF0022A6
:10F1E00011461846FEF7E6FC00BF0023202202A9C4
:10F1F000254800F035FA044600BF2346002B05D011
:10F2000000BF002211461846FEF7D4FC00BF1E487E
:10F21000016840680023DB435940584001430AD04D
:10F2200018490888C117C90E09184911491C490510
:10F23000090C144A118000E013E01AA127A000F085
:10F240002BFD18A129A000F027FD2CA12DA000F076
:10F2500023FD122000F080F800201149C8630C49FA
:10F26000087048DF044600BF2346002B05D000BFCE
:10F27000002211461846FEF79DFC5AE74DE30100B7
:10F280002C2800203A2800202029002000280020D7
:10F290003D280020442800200C28002000050050B4
:10F2A000C02F00404F4B00000D0A1A003E00000026
:10F2B00041542B43495053454E440D0A0000000071
:10F2C000323530000D0A2E0D0A1A000041542B432E
:10F2D0004950434C4F53453D310D0A0041542B4397
:10F2E0004950534855540D0A0000000041542B4327
:10F2F000474154543D300D0A00000000504F57451F
:10F300005200000041542B43504F57443D310D0AE9
:10F310000000000001B505E00098401E0090034881
:10F32000FDF7E8FE00980028F6D108BDE7030000CD
:10F3300010B58A0005231B07072424021B1984002B
:10F340001A5110BD03210522120707231B02D218F0
:10F350008300D1507047000001218140014AD160F3
:10F36000704700000005005010B5084800780128DB
:10F3700002D0022807D102E0FEF70AFC04E00320D5
:10F380000249087000E000BF00BF10BDBC2800208B
:10F390000B480078002802D003280DD108E0042093
:10F3A000084908600120084908600549087004E020
:10F3B00002200349087000E000BF00BF7047000052
:10F3C000BC280020002500400020004010B509485E
:10F3D0000078012807D0022804D0032806D1FEF7C0
:10F3E000D7FB04E000BFFEF7A2FB00E000BF00BFB8
:10F3F00010BD0000BC28002010B5FEF7C9FB10BDF1
:10F4000010B504462300FEF775FB0504070D0A102E
:10F410001300FFF7A9FF0CE0FFF7BAFF09E0FFF7C1
:10F42000D5FF06E000F008F803E0FFF7E5FF00E095
:10F4300000BF00BF10BD000010B5034800780128D0
:10F4400001D1FEF779FB10BDBC2800203CB5034676
:10F4500000BF20480078002801D108203CBD00BF33
:10F46000002B01D10E20F9E7002A01D10E20F5E78B
:10F470001868642805D218680001174C2058002825
:10F4800001D10720EAE75C68186801940090019CAC
:10F4900018680001104D4019008948432018019058
:10F4A000009800012C4600194089009C2401641931
:10F4B00024896043009C2401641964680019019C3C
:10F4C000A04201D80720C9E7019C00985460106051
:10F4D0000020C3E7AA280020BC2D0020F8B5044670
:10F4E0000D4600BF27480078002801D10820F8BD4C
:10F4F00000BF002C01D10E20F9E72068642805D256
:10F500002068000120490858002801D10720EEE7B3
:10F51000206800011C4940184089216809011A4AE5
:10F5200089180989484321680901891849684018E0
:10F530006168884201D80720D9E76068FFF764FC5A
:10F54000002801D11020D2E723681B010E4FDB19E0
:10F5500062685B68D01A226812013B46D218118992
:10F56000FDF704FE002901D00720C0E700202B464C
:10F570000246214600900420FEF7DAFD064630469A
:10F58000B5E70000AA280020BC2D002070B508486F
:10F590004469601C002807D000F00CF80546294695
:10F5A0002046FDF7E3FD70BD012000074069FAE742
:10F5B0000010001001200007006980B270470000B1
:10F5C000F8B5FEF701FE00201E490880FFF7DEFFB8
:10F5D0000546653DFFF7EEFF45431B4805600020EB
:10F5E0001A49088000BF0DE000210201184B995014
:10F5F0000201D21811810201D21891810201D218A0
:10F600005181401C6428EFD3082012490870FFF78D
:10F61000D1FF0090FFF7BAFF471EFFF7CBFF47432C
:10F620003E4630460099FDF7A1FD054628DF044619
:10F63000002C04D101200849887008490870204630
:10F64000F8BD0000A0280020A4280020A828002041
:10F65000BC2D0020AB280020F02C0020AA28002080
:10F66000FFB581B00C4615461E4600BF35480078F0
:10F67000002802D1082005B0F0BD00BF002C01D148
:10F680000E20F8E70198002801D10E20F3E720684A
:10F69000642805D2206800012B490858002801D1B0
:10F6A0000720E8E7206800012749401840892168C1
:10F6B0000901254A891809894843216809018918DF
:10F6C000496840186168884201D80720D3E7002DB7
:10F6D00006D0206800011C4940180089A84201DAC0
:10F6E0000720C8E7A81921680901174A891809895C
:10F6F000884201DD0720BEE70198FFF785FB00285F
:10F7000004D03046FFF780FB002801D11020B2E77B
:10F710006068FFF779FB002801D11020ABE7606833
:10F7200081192A460198FDF74BFD009520680001DC
:10F7300005490F58002203212046019BB8470020AD
:10F7400099E70000AA280020BC2D0020F8B5044647
:10F750000D4600BF4A480078002801D10820F8BDB6
:10F7600000BF002C01D10E20F9E7002D01D10E20A1
:10F77000F5E72068002801D10E20F0E7FFF71AFF17
:10F78000A188884202DBA088102801DA0720E6E77A
:10F79000E08800281CD0FFF7F9FE471EFFF70AFF9C
:10F7A0004743E088A18848433649096840188742A2
:10F7B0000ED3FFF7FFFEE188A2885143884209DAA1
:10F7C000FFF7F8FE0746A188FDF7E6FC002901D007
:10F7D0000720C4E720798007800F002801D0072088
:10F7E000BDE729480088642801D10420B7E72648EE
:10F7F0000088286023480068686023490988090157
:10F80000224A8918686848601F49098809012068E8
:10F810005050A0881C490988090189180881E0888E
:10F820001949098809018918488100200090A68893
:10F83000E1884E4300BF0098401C80B20090FFF763
:10F84000B9FEB04203D2FFF7B5FE361A00E000263B
:10F85000FFF7B0FE0B49096840180A490860002EFE
:10F86000E9D1094909880901084A8918009888815D
:10F8700005480088401C0449088000206FE700000C
:10F88000AA280020A4280020A0280020BC2D0020A9
:10F89000F8B504460E4615461F4600BF2F480078AF
:10F8A000002801D10820F8BD00BF002E01D10E2094
:10F8B000F9E7002C01D10E20F5E72068642805D275
:10F8C0002068000126490858002801D10720EAE7EE
:10F8D0002068000122494018408921680901204A16
:10F8E000891809894843216809018918496840181D
:10F8F0006168884201D80720D5E7002D06D020682E
:10F900000001174940180089A84201DA0720CAE718
:10F91000E81921680901124A89180989884201DD1C
:10F920000720C0E73046FFF76FFA002804D03846BA
:10F93000FFF76AFA002801D11020B4E76068FFF7EA
:10F9400063FA002801D11020ADE72B46324621464C
:10F9500002200097FEF7ECFBA5E70000AA28002094
:10F96000BC2D0020F0B585B0064600256A48807899
:10F9700001287DD1002068498870684800780828EF
:10F9800019D1022E03D100206449087002E0002042
:10F9900063490870FEF798FB0546002D09D05E48C4
:10F9A0000078142250435C4A121D81182846FEF745
:10F9B00011F905B0F0BD022E02D0032E7ED183E0F6
:10F9C00055480078142148435349091D44185548A7
:10F9D0000088401C534908802078022807D1084637
:10F9E000008880026188884201DB012000E000205D
:10F9F00003902078052805D148480078072801D1D0
:10FA0000012000E0002002902078042805D143481E
:10FA10000078072801D1012000E000200190207823
:10FA200004280BD13F48008880026188884205DBAA
:10FA30003A480078002801D1012000E00020009021
:10FA40000298002808D10198002805D100980028C4
:10FA500002D10398002825D02F48077800202F498D
:10FA60000870304908802C484078401E2A4900E040
:10FA700050E0487008460078401C0870084600783E
:10FA80000A2803DB084600780A38087014207843F7
:10FA9000214A121D81182846FEF79CF83846FEF7C9
:10FAA00029FB00BFFEF710FB0546002D0BD01A48BE
:10FAB000007814225043184A121D00E027E08118F4
:10FAC0002846FEF787F823E01348007814214843BE
:10FAD0001149091D44186078401CC0B260700328A9
:10FAE00009D1081F0078142250430A4681180D20BE
:10FAF000FEF770F80AE0FEF733FA0546002D05D050
:10FB0000112D03D021462846FEF764F800E000BF1F
:10FB100000BF00BF00BF4CE7F02C0020AB28002046
:10FB2000AA280020A828002001484068704700004B
:10FB30000015014010B504460348846003211120DC
:10FB4000FDF7E2FE10BD00000015014010B50120D8
:10FB500000040A4948600949403948601120FDF70E
:10FB6000B5FE1120FDF7BCFE0120054908602F20DD
:10FB7000FDF7D0FA01200349087010BD4013014081
:10FB800000100140E828002010B51120012181401B
:10FB90000E4A116000BF012000040D4988600C4925
:10FBA0004039886001200B4948602F20FDF7B2FAE8
:10FBB0000120084988600020074908602F20FDF7D0
:10FBC000A9FA00200549087010BD000080E100E09E
:10FBD0004013014000100140D4280020E8280020F4
:10FBE000F8B5054611DF044600BF2346002B05D0BB
:10FBF00000BF002211461846FDF7DCFF00BF00BF22
:10FC0000002348222149082000F0BCF9064600BF25
:10FC10003346002B05D000BF002211461846FDF7E1
:10FC2000C9FF00BF00BF002000900021684641705E
:10FC3000057060DF044600BF2346002B05D000BFDF
:10FC4000002211461846FDF7B5FF00BF104800F02E
:10FC50008DF9044600BF2346002B05D000BF0022CB
:10FC600011461846FDF7A6FF00BF0A4800F0BEF98E
:10FC7000044600BF2346002B05D000BF00221146DA
:10FC80001846FDF797FF00BFF8BD0000402A00208E
:10FC900011DE0100B9010200F3B581B00746002072
:10FCA0000090002501E0681CC5B20298405D002864
:10FCB000F9D100262C4600BF4649052000F018F96E
:10FCC0000028F9D1FF2101314248FDF792FA03E003
:10FCD00038787F1C00F030F938780028F8D15CE0E3
:10FCE000032C15DD201F3B49085C452810D1E01E80
:10FCF000085C52280CD1A01E085C522808D1601E56
:10FD0000085C4F2804D10846005D522800D14BE022
:10FD1000032C15DD201F2F49085C432810D1E01E5D
:10FD2000085C61280CD1A01E085C6C2808D1601EFC
:10FD3000085C6C2804D10846005D202800D133E01F
:10FD4000032C15DD201F2349085C532810D1E01E29
:10FD5000085C4D280CD1A01E085C532808D1601EF9
:10FD6000085C202804D10846005D522800D11BE021
:10FD700000260AE00298805D611B8919154A515CD2
:10FD8000884200D003E0701CC6B2AE42F2DB00BF76
:10FD9000AE4200D108E0601CC4B20E4801190E4802
:10FDA00000F0A6F800289BD100BFAE420DD1012083
:10FDB000009000BF2046621CD4B2064A8118012080
:10FDC00000F096F80028F5D101E00020009000989E
:10FDD000FEBD0000402900201027000010B5044699
:10FDE0000AE000BF0649052000F082F80028F9D19A
:10FDF0002078641C00F0A0F820780028F1D110BD14
:10FE000040290020F0B502460C46002037E00123CF
:10FE10008340194623460B40002B2FD0D5680D4058
:10FE2000002D05D101235B04D5680D43D56004E0A6
:10FE300003231B04D5688D43D56005252D070726B0
:10FE40003602AD198600AD5903263604B5430526A2
:10FE5000360707273F02F6198700F55105252D07BC
:10FE600007263602AD198600AD591D430526360713
:10FE700007273F02F6198700F55100BF401C2028D4
:10FE8000C5D3F0BDF8B507460C4615461E462046BC
:10FE9000FFF758FA00213046FFF74AFA1048C460CD
:10FEA0004661069800280DD03846FFF74BFA00212E
:10FEB0002846FFF73DFA0A48056187600120084996
:10FEC0004031C862074806494862042008600120A2
:10FED000054988600860002004498860F8BD00007A
:10FEE0000025004000509D000020004000210040FF
:10FEF00070B504460D4601260AE02046641E00281F
:10FF000004DB7D20C000FDF7E5F801E0002603E0FA
:10FF1000074880680128F0D100BF002C05DB0020D5
:10FF200003498860034880692870304670BD00002E
:10FF300000210040002500400549C86100BF054977
:10FF4000C9690129FBD10021024AD1617047000033
:10FF5000002500400021004070B506460C461546BD
:10FF600029462046C046C04670BD00000146002913
:10FF700001D10E207047024801600020FAE700001E
:10FF800008290020FFB581B00C4616461F46002CFC
:10FF900002D1072005B0F0BD20468107890F002956
:10FFA00001D1012100E00021002901D10720F1E762
:10FFB0000948046009480680094807600949019812
:10FFC00010DF0546002D01D02846E3E70120064951
:10FFD000087016202EDFDDE700290020042900200C
:10FFE000F828002059FF0100FC28002001460029C4
:10FFF00001D10E207047024801600020FAE700009E
:020000040002F8
:100000000C290020FFB583B0044615460326694835
:10001000007800280BD1002D06D10698002803D1C6
:1000200002206449087002E00120624908706148BA
:1000300000780300FDF75EFD07B805203D6186A14D
:10004000B800FFF7B7FA80080290FFF7B3FA0499F7
:1000500048430190FFF79AFA471EFFF7ABFA474370
:1000600000973846029A019929DF0646002E02D1F0
:1000700002205049087098E0049828DF0646002EB8
:1000800016D1002D11D1069800280AD12078042815
:1000900003D10720474908700AE005204549087048
:1000A00006E004204349087002E00320414908703B
:1000B0007BE0FFF76BFA471EFFF77CFA4743029796
:1000C000FFF778FA049948432A460190029929DFFC
:1000D0000646002E10D1069800280AD12078042860
:1000E00003D106203349087006E005203149087025
:1000F00002E004202F49087057E0FFF747FA471E37
:10010000FFF758FA4743A800381861884018029052
:10011000FFF750FA04994843A90040186188401835
:100120000190069A029929DF0646002E09D120780F
:10013000042803D106201F49087002E005201D494C
:10014000087032E0FFF736FA04994843A9004718CF
:10015000608882083846216929DF0646002E0BD1C7
:10016000002D06D10698002803D1072011490870F8
:1001700002E006200F49087017E0FFF71BFA019014
:10018000FFF704FA471EFFF715FA47430097384672
:100190000199FCF7EBFF029028DF0646002E02D102
:1001A00007200449087000E000BF00BF304607B0D8
:1001B000F0BD0000AB28002010B504462046FFF734
:1001C000D1FB10BD0246501A0002000A7047000021
:1001D00070B504460D480068002812D00B4AE1694A
:1001E000A06912689047054600BF2E46002E06D033
:1001F00000BF002211463046FDF7DCFC00BF00BF07
:1002000002E0A169E069884770BD0000E428002091
:10021000FEB50020C04301901048046810480768EC
:100220006846FEF761F80546FEF7F8FD0646002D24
:1002300005D001AA21460098FEF798F801260198FA
:10024000FEF74CFE002800D00126002E02D03846D2
:10025000FDF7D4FF002003490870FEBDD42800201C
:10026000D0280020E928002010B51420FDF742FB1B
:1002700010BD0000F0B5024624205043324B1B68ED
:10028000C11832480068401C002802D12F48026083
:1002900059E02E484B680068242460432A4C2468A7
:1002A00000194068834217D828480068242358431F
:1002B000254B1B68C01840684B68C31A2348006868
:1002C00024246043204C2468001943601F480068C0
:1002D00008621E48026036E04B681C4D2C68286896
:1002E0000DE024254543184E3668AD196D685B1B3B
:1002F000044624254543144E3668AD19286A451C2A
:10030000002D07D0242545430F4E3668AD196D6882
:100310009D42E6D3451C002D0CD0242545430A4EB2
:100320003668AD196D68EE1A24254543064F3F68BF
:10033000ED196E604B60086224256543024E3668F5
:10034000AD192A6200BFF0BDC4280020D0280020CB
:1003500070B502462C4C2168084609E0904200D155
:1003600009E0014624244443284D2D686419206A7D
:10037000441C002CF2D100BF441C002C00D170BDE5
:10038000814217D1204C246824256C431F4D2D68D1
:100390006419246A1C4D2C602C462468641C002CB3
:1003A00008D101241A4DAC6000241A4D2C600124A0
:1003B000194D2C7024244443144D2D68641963682E
:1003C00024244443114D2D686419256A24244C4388
:1003D0000E4E3668A419256224244C430B4D2D681B
:1003E0006419206A441C002C0CD024244443074D7B
:1003F0002D6864196468E51824244443034E366864
:10040000A419656000BFBAE7D0280020C4280020E6
:1004100000100140D4280020E9280020FFB581B059
:1004200005460E461746E900104A126888186946C4
:1004300000F0E7F80446002C02D1042005B0F0BD1E
:10044000012020706660FFF76FFBA060E7600498F2
:1004500020610A986061E900044A126888180099CE
:1004600000F0E5F8FFF700FF0020E7E7CC280020C8
:10047000F8B504460E46E1000C4A12688818694631
:1004800000F0BFF80546002D01D10420F8BD022080
:1004900028706E60E100054A12688818009900F023
:1004A000C6F8FFF7E1FE0020F0E70000CC280020AE
:1004B000F8B520480068401C00283AD00027FFF714
:1004C00033FB04461C4801682046FFF77BFE0646C6
:1004D0001848056811E02420684318490968441841
:1004E0006068B04200D90BE06068361A6068C719CE
:1004F000256A2046FFF76CFE00BF681C0028EAD181
:1005000000BF0F4800780F490978884209D10D488B
:100510000078401CC0B20B490870022801D10020AD
:10052000087008480078800007490F50FFF79CFECC
:1005300000BFF8BDD0280020D4280020C428002007
:10054000E0280020E1280020D828002010B5112044
:10055000FDF7D0F910BD000038B500BF00201B4BDF
:10056000052204210090FDF783FB054600BF2B46C2
:10057000002B05D000BF002211461846FDF71AFBDC
:1005800000BF00BF124A01211248FDF737FB0446A5
:1005900000BF2346002B05D000BF0022114618469D
:1005A000FDF708FB00BF0C4A00210C48FDF726FBB5
:1005B000044600BF2346002B05D000BF0022114691
:1005C0001846FDF7F7FA00BF38BD0000882A002062
:1005D00045060200002800203506020004280020FD
:1005E00010B5FDF753FE012802D0032804D101E025
:1005F000002403E0012401E0022400BF00BF2046E4
:1006000010BD70B502460B465078411C9078884268
:1006100000D100211078884201D1002070BD1960FE
:1006200050781826704355682C182046F6E741701C
:100630007047000087DF0020014908707047000004
:100640004428002070B5054629480068FF302D3049
:100650002749086027480068FF302D302549086089
:1006600008460068E1210901884202D3012022499D
:10067000087021480078002800D070BD1F4800880D
:100680001921C901884231DA87DF04461C48007805
:1006900040084000401C1A490870084600780221B2
:1006A00088431749087006200881052048810020EA
:1006B00048608881084686DF044600BF2346002B39
:1006C00005D000BF002211461846FDF773FA00BF9F
:1006D00001200C4908700C480068FDF777FB0022E8
:1006E0000521090408480068FDF73AFB00BFC4E78C
:1006F000082800200C2800203D2800203A2800204F
:10070000102900204428002004280020DDDDDDDD44
:10071000DCBBBBDDDDDDDDDDDDDDDDDD9888888892
:100720008888888877777777778888888555555639
:100730006666666666666666666888888333333290
:1007400022222222222222222228888D6C070200C5
:10075000002800201001000010DB01007C080200CE
:1007600010290020F012000020DB01000000000032
:1007700000000000000000000000000000006D010B
:100780008C01A901C801E601050223024102F30020
:10079000110130014E0100000000000000000000C7
:1007A0000000000000000000000000000000000049
:1007B000000000004454553A000000000000000012
:1007C0000000000000000000000000000000000029
:1007D0000000000000000000000000000000000019
:1007E0000000000000000000000000000000000009
:1007F00000000000000000000000000000000000F9
:1008000000000000000000000024F40000000000D0
:1008100000000000000000000000FFFF01000000D9
:1008200000000000000000000000000000000000C8
:1008300000000000000000000000000000000000B8
:1008400000000000000000000000000000000000A8
:100850000000000000000000000000000000000098
:100860000000000000000000000000000000000088
:0C0870000000000000000000000000007C
:040000050001D0C165
:00000001FF
