:020000040001F9
:10D00000203C002035D101004FD1010051D1010059
:10D010000000000000000000000000000000000010
:10D0200000000000000000000000000053D10100DB
:10D03000000000000000000055D1010057D10100A0
:10D0400059D1010059D1010031DB010059D1010052
:10D0500059D1010000000000D5D801008DD8010091
:10D0600059D1010059D1010059D1010059D1010014
:10D0700059D1010059D1010059D1010059D1010004
:10D0800059D1010065DA010059D1010059D10100DF
:10D090008DDA010095DA0100C1DA010059D10100F1
:10D0A00059D1010059D1010000000000000000002A
:10D0B0000000000000000000000000000000000070
:10D0C0000348854600F01CFA0048004731F1010092
:10D0D000203C0020401E00BF00BF00BF00BF00BFBB
:10D0E00000BF00BF00BF00BF00BF00BF00BFF1D145
:10D0F00070470000401E00BF00BF00BF00BF00BF60
:10D1000000BF00BF00BF00BF00BF00BF00BFF1D124
:10D1100070470000401E00BF00BF00BF00BF00BF3F
:10D1200000BF00BF00BF00BF00BF00BF00BFF1D104
:10D13000704700000321094802680A43026008485A
:10D1400002680A4302600748804707480047FEE735
:10D15000FEE7FEE7FEE7FEE7FEE7000024050040ED
:10D1600054050040F9DA0100C1D0010030B50B468A
:10D17000014600202022012409E00D46D5409D42B1
:10D1800005D31D469540491B254695404019154637
:10D19000521E002DF1DC30BD70B50024254600285C
:10D1A00001DA01244042002901DA01254942FFF752
:10D1B000DDFFAC4200D04042002C00D0494270BD9F
:10D1C00003460B439B0703D009E008C9121F08C0A0
:10D1D000042AFAD203E00B780370401C491C521E4B
:10D1E000F9D27047D2B201E00270401C491EFBD256
:10D1F00070470022F6E710B513460A460446194662
:10D20000FFF7F0FF204610BD0FB400B58DB00990B8
:10D210000B9010A900200091C0430A9000200C90B0
:10D2200006480690064807906A4609A80F9900F03C
:10D2300035F90DB008BC04B018470000BDD401009A
:10D24000DDD40100FFB50027FF4383B000205C68F8
:10D2500001909E681D46A9697F1C0498884700902C
:10D26000296A88470028F6D10098401C0CD003207A
:10D2700040028443002E19DD600614D500982B2847
:10D2800009D02D280FD103E00020C04307B0F0BD26
:10D29000012080020443A9697F1C04988847761EF8
:10D2A0000090002E02DD0098302803D00598002859
:10D2B00025D035E0012040020443A969761E7F1C79
:10D2C000049888470090002E03DD782805D0582860
:10D2D00003D00598002810D022E00598002801D03E
:10D2E00010281DD1012040028443A969761E7F1CAD
:10D2F000049888470090102002E0082000E00A20EF
:10D3000005900DE0012149020C43059A0199761E12
:10D31000514308180190A9697F1C04988847009020
:10D32000002E05DD0599009800F0A3F80028E9DA41
:10D33000E96904988847A00502D40120C043A5E705
:10D34000E00722D1600611D56005019800D5404262
:10D3500029680A1D2A600968220501D5087014E0B1
:10D36000220701D5088010E008600EE02868011D42
:10D3700029600068210502D50199017005E02107A7
:10D38000019901D5018000E0016038467EE7FFB5D4
:10D39000002083B0009050680190916914460026E7
:10D3A00097680498884705460C990698084305D065
:10D3B00009E0A169761C049888470546216A284639
:10D3C00088470028F5D1681C03D00198C00704D015
:10D3D00017E00020C04307B0F0BD2068011D2160A8
:10D3E000006800900DE00198C00704D10098057016
:10D3F0000098401C0090A169761C7F1E0498884705
:10D400000546002F1CDD681C1AD0069800280FD096
:10D41000E817C00E401941118A00069940095118B9
:10D4200040012A1A0968012090400142DBD107E03F
:10D430000C980028D7D1216A284688470028D2D0E6
:10D44000E1690498884701980C99C007C00F084308
:10D4500002D1009800210170A068B84204DD0C9848
:10D46000002804D0002F02D00120C043B3E730468B
:10D47000B1E73A2800D23038202302469A43412AA5
:10D4800001D310463738884201D30020C04370478B
:10D4900002681378511801601846704710B5D160C2
:10D4A000044951610449116200211161114600F0E3
:10D4B00041F810BD91D4010025D501004268002A31
:10D4C00008D001680B78491C002B03D0521E06C0FF
:10D4D000184670470121C160881E70474268002AC3
:10D4E0000BD0C3680168002B07D183688B4204D03E
:10D4F000491E521C06C0002070470020C0437047E0
:10D50000064C0125064E05E0E36807CC2B430C3C96
:10D5100098471034B442F7D3FFF7D6FDF409020060
:10D52000140A020010B50F21C0B2490200F09CF9A4
:10D5300010BD0000F3B58DB000200A9001200B90C3
:10D54000002608460C300C460990626901210998B2
:10D55000904705002ED0252D2DD0216A8847002820
:10D5600018D06269012109989047216A88470028EC
:10D57000F7D1411E62690998904700E0761CA169C5
:10D580000D988847216A88470028F7D1E1690D98EE
:10D590008847DAE7A1690D9888470746A84201D174
:10D5A000761CD2E7E1690D9888477F1C02D10A9862
:10D5B000002877D046E1002762693D463946099840
:10D5C00090472A280CD162690121099890470125CA
:10D5D00006E00A214F433F18303FEBD410200543AB
:10D5E0006269012109989047014630390A2903D21E
:10D5F0009A498F42DEDCECE7E90600D4984F6C28AC
:10D600000AD04C2810D0682824D06A282ED074283C
:10D610000CD07A280AD00DE0626901210998904760
:10D620006C2823D004211CE02020054362690121DD
:10D6300009989047A760656065284FD026DC582878
:10D6400039D01ADC452849D012DC252834D04128AD
:10D65000B0D143E06269012109989047682802D05F
:10D6600008210D43E6E70120C002DEE70220DCE7E7
:10D67000462833D047282CD130E05B287BD0612866
:10D680002CD0632877D0642823D15EE06F284CD05B
:10D6900009DC662822D0672820D0692826D06E2889
:10D6A00017D12EE0CAE070284AD073286CD07528B4
:10D6B0004BD078280DD150E0A1690D9888470546D8
:10D6C000252800D16CE7E1690D9888476D1C00D1D1
:10D6D0006DE7B7E00A2248E00A224FE00120234626
:10D6E0006A46C0430D99C046C046A0E02846402186
:10D6F00008436060A807234601D5002235E00022D8
:10D700003CE02068011D21600068290501D50670F4
:10D710001BE7290701D5068017E7A90703D5F117ED
:10D720000660416011E706600FE728464021084384
:10D730006060A807234601D5082216E008221DE0F4
:10D74000484928460840606016E0284640210843C2
:10D750006060A8072346BFD5BCE7284640210843A0
:10D760006060A80708D5234610220120C0430D9908
:10D77000C046C0465BE007E0234610220120C043BC
:10D780000D99FFF75FFD52E000210C910B460091CF
:10D79000632802D05B2807D043E0E80601D40120CB
:10D7A000A060012000903CE0626901210998904747
:10D7B0005E2805D101200C900146626909989047C6
:10D7C0002169002906D10B4601AA8F00491CD351BB
:10D7D0000829FADB002835D0216900290ED1C117AC
:10D7E000C90E09184A11930001AA9A18490949015A
:10D7F000411A0120136888400343136062690121C4
:10D80000099890475D28E5D10C98002808D00020A1
:10D8100001AB81005A58401CD2435A500828F8DB0B
:10D8200001AB01202246C0430D99FFF7B0FD00284F
:10D830000ADA401C06D10B98002803D00020C04310
:10D840000FB0F0BD0A98FBE7E90702D10A99491C1D
:10D850000A91361800200B9077E60000CCCCCC0C57
:10D86000FFFFFF7FF1F7FFFF7F2801D9002207E0CC
:10D87000054B42089A5CC00700D112091207120F2B
:10D8800001209040084070476409020010B50D481F
:10D890000068002814D000200A4908600A488068FF
:10D8A000C4B20120094948604B210901614308467F
:10D8B000FF21FFF771FC410040180549088000BFB7
:10D8C00010BD000000710040007500400070004075
:10D8D00094280020F0B585B0304805690020304913
:10D8E000C863002654E0142070432E490968441888
:10D8F0000120B0402C4909680840002846D000208B
:10D9000002900190E068C04368402168084003909D
:10D910002046039902F09EFB204800696840216878
:10D92000084004900498002818D00498684000909B
:10D93000E068C043009948402168084007463946DE
:10D94000204602F087FBA068009988433840019088
:10D950006068009908403840029000BFA068A84362
:10D960000399084001990843019060682840039991
:10D970000840029908430290019902980843002840
:10D9800003D0226901990298904700BF701CC6B26B
:10D99000064800788642A6DB05B0F0BD00050050C1
:10D9A00040610040F8280020F0280020F5280020E1
:10D9B000C206D20E01219140014A11607047000059
:10D9C00080E200E0C206D20E01219140014A1160BE
:10D9D0007047000000E100E0C206D20E0121914034
:10D9E000014A11607047000000E200E010B5002815
:10D9F00019DA1A4A03071B0F083B9B089B00D258F1
:10DA00008307DC0EFF23A3409A438B071B0E84077A
:10DA1000E40EA3401A43114B0407240F083CA4084A
:10DA2000A4001A5118E00E4A03231B02D2188308DF
:10DA30009B00D2588307DC0EFF23A3409A438B0739
:10DA40001B0E8407E40EA3401A43054B0324240253
:10DA50001B198408A4001A5110BD00001CED00E041
:10DA600000E100E010B500200749086000210648E9
:10DA700041608160C160002003494039086048600E
:10DA800002F03EFE10BD00004011014010B502F052
:10DA9000E7FC10BD10B50848007801214840064950
:10DAA000087006480068002804D00846007803493A
:10DAB0000968884710BD0000982800209C28002095
:10DAC00070B50C480068002810D00A4800688047EC
:10DAD000044600BF2546002D06D000BF0022114697
:10DAE000284600F0D9F800BF00BF01E001F06EF950
:10DAF00070BD0000FC28002010B501F0E1F90028FD
:10DB000005D0074807494860C8130749886101F0F4
:10DB1000BBF9002802D001200449886010BD000034
:10DB2000DFFF07C000050040006C00400006004019
:10DB30001CB524488068002818D023484068042178
:10DB40000840002812D000201E4988601F488069C4
:10DB5000C0B21F4908800421684601701C48017842
:10DB6000684601711B490968884700BF1548C069AC
:10DB700000280BD01448406880210840002805D0B8
:10DB800000201049C861032001F062FD0D48406A81
:10DB9000002816D00C48406801214902084000289E
:10DBA0000FD00020074948620848803804680460A4
:10DBB000022069460870019468460649096888474A
:10DBC00000BF1CBD00210040002300400025004094
:10DBD000B2280020BC28002030B47446641E25788A
:10DBE000641CAB4204D3635D5B00E31830BC184790
:10DBF0001D46F8E702E008C8121F08C1002AFAD142
:10DC000070477047002001E001C1121F002AFBD1BC
:10DC1000704710B500F01AF810BD000007480078F2
:10DC2000022802D00120064988600648007806498B
:10DC3000C86102200149087070470000C028002018
:10DC400000200040B0280020002500401CB5012025
:10DC50000549C86005490870032069460870684690
:10DC60000349096888471CBD00200040C0280020E7
:10DC7000BC28002000200549087001200449C86024
:10DC8000486000200349086070470000C028002059
:10DC9000002000400025004000BFBFF34F8F044824
:10DCA0000449C860BFF34F8F00BF00BFFEE700000C
:10DCB0000400FA0500ED00E0F8B505460C462778AB
:10DCC000A068000105490E58608800902A46394630
:10DCD000204608302369B047F8BD0000E02D002041
:10DCE00070B503460C4619480068002801D1082089
:10DCF00070BD002A01D10720FAE7002B01D10720CF
:10DD0000F6E700211CE024204843104D2D68285CD4
:10DD1000002814D10125242048430C4E3668355480
:10DD200024204843094D2D6840194470242048435D
:10DD3000064D2D684019826119600020D8E7491C02
:10DD4000034800788142DEDB0420D1E7C8280020A8
:10DD5000C4280020FFB581B00E4617461C46204659
:10DD60008107890F002901D1012100E0002100294C
:10DD700002D1072005B0F0BD002C01D10720F9E742
:10DD800002F02AF826490A980860264806702648B4
:10DD9000046000250CE0002124206843224A126818
:10DDA000115424206843204A1268801801756D1CA4
:10DDB000B542F0DB24207043041903201B4908708E
:10DDC0001B480460183400250CE0E900184A12686A
:10DDD00088180021017041708770446018217943D0
:10DDE0000C196D1C032DF0DB0020C04311490860A5
:10DDF000002011490870114908701420FFF7D8FD60
:10DE000003211420FFF7F2FD1420FFF7DBFD01983A
:10DE100001F0B8FF01F0B0FF094908600020A9E750
:10DE2000E8280020C4280020C8280020CC28002092
:10DE3000D0280020D4280020E4280020E528002055
:10DE4000D8280020FEB504460D4616461648006840
:10DE5000002801D10820FEBD14480078844201D278
:10DE6000052D01D20720F6E7242060430E490968FA
:10DE7000085C012801D00820EDE7242060430A490E
:10DE8000096840184078012801D1284600E00020A8
:10DE9000074602F0CDFC3B462A46214600960190FB
:10DEA00002F0E4FBD7E70000C8280020C4280020C7
:10DEB00070B504460D480068002801D1082070BDE7
:10DEC0000B480078844201D30720F8E72420604300
:10DED00006490968085C012801D00820EFE702F034
:10DEE000A7FC0546214602F0EBFBE8E7C828002026
:10DEF000C428002038B5054600BF01201D494860F0
:10DF00002802082108431C49486000201B4908607A
:10DF10000120194908600020009049DF01E06846AF
:10DF20004BDF00980028FAD0002014490860012037
:10DF300013490860002401E0601CC4B20F48006867
:10DF4000002801D1FF2CF7DB0B4989684B22120115
:10DF500051430846FF21FFF709F9410040180949DC
:10DF600008800120064948600020034908604ADF14
:10DF700038BD000000730040007500400071004093
:10DF8000007000409428002070B50446261D2088AB
:10DF9000192879D01B287CD1607C822871D1A07C83
:10DFA00058286ED1A07BC007C00F002869D0B07A76
:10DFB000C008032865DD002037494870062008E0C6
:10DFC000421EF11C895C0822121A334B9954411EDF
:10DFD000C8B20028F4DC042007E021460F310A5CB7
:10DFE0002D4B011D5A54411CC8B21C28F5DB607B27
:10DFF000294908700846806828490968081A26498E
:10E00000C968401826490968401823498860254A8C
:10E0100025480188254801F041FB054600BF2B46F5
:10E02000002B05D000BF002211461846FFF734FE32
:10E0300000BF0023202218491A4801F051FD05466F
:10E0400000BF2B46002B05D000BF0022114618460A
:10E05000FFF722FE00BF14480088401C12490880C8
:10E06000084600881921C90188420ADB87DF0020A1
:10E070000F4908700F480068FFF71AFF01200E498A
:10E08000087007E000E004E0A079022800D101E078
:10E0900000BF00BF00BF70BD242900200828002059
:10E0A000102800208C2800203E2800203028002046
:10E0B0004828002004280020412800200007000FE5
:10E0C0000A2803DA01463031C8B202E0014637318E
:10E0D000C8B27047F0B587B00F27554800781421B3
:10E0E00048435349091D4418E5682078022804D0A4
:10E0F000042823D005287CD16AE0206905904D488A
:10E10000008886026088801B06900598801905901B
:10E11000A08880194519012189020698884206D2F3
:10E12000069882082846059929DF074605E0FF2260
:10E1300001322846059929DF07466FE0A0680001F3
:10E140003D49401800890690A068000140184089A8
:10E150000590A06800014018406804900498A84207
:10E1600005D10599069848436188884202D0A06885
:10E1700065280DD101F046FB014603902846FEF7C5
:10E18000F5FF2C4909884618304628DF07461EE06F
:10E1900001F038FB014601902846FEF7E7FF0646EE
:10E1A00001F030FB7043281A8008039001F02AFB2D
:10E1B000711C484361884919401A80080290314611
:10E1C0002046029B039A02F045F8074600BF25E06F
:10E1D00001F018FB014604902846FEF7C7FF0646EB
:10E1E00001F010FB7043A1884919081A80080690B5
:10E1F00000E012E001F006FB711C4843A1884919B8
:10E2000062888918401A8008059031462046059B8F
:10E21000069A02F01FF8074600E000BF00BF002F7B
:10E2200002D1012002498870384607B0F0BD0000D5
:10E23000142D0020AC280020E02D002010B5002473
:10E240000848407800280BDD06488078002807D170
:10E25000FFF740FF0446002C02D0112C00D100240F
:10E26000204610BD142D00200023142141430C4AE8
:10E2700053541421414389184B8064231421414392
:10E2800089188B600023142141438918CB60142125
:10E29000414389180B611421414389188B807047D1
:10E2A000182D0020FFB581B00646174600242248ED
:10E2B00040780A283CD0204800781F494978401807
:10E2C000C4B20A2C02DB20460A38C4B214206043D0
:10E2D0001949091D0E540022142060434018427051
:10E2E00014206043401807611420604341180298CD
:10E2F00005C8CA608860142161430F4A121D89183D
:10E30000049848801421614389180A988880002560
:10E31000101F8078002805D1FFF7DCFE0546112D7F
:10E3200000D1002504484078401C0349487000E0B3
:10E330000425284605B0F0BD142D002010B500209E
:10E3400008490880084908700849087048708870B2
:10E35000002403E02046FFF787FF641C0A2CF9D352
:10E3600010BD0000AC280020AF280020142D002094
:10E37000FEB51E480068401C002834D01B480068C9
:10E38000242148431A4909684018456801F0F4FC03
:10E390000190184804682146019802F03BF8C61C19
:10E3A00015480078002801D101F0F8FCAE4201D2F6
:10E3B000284600E0304604192402240A20460F496A
:10E3C000086000BF01F0D8FC00900199009802F0AD
:10E3D00021F8C71C2046019902F01CF8874201D998
:10E3E00002F0DCF901E001F0F7FCFEBDD4280020CA
:10E3F000C8280020D8280020EC2800204015014023
:10E4000010B514484068C105C90D002920D00A463E
:10E41000103A50B200280DDA0E4B1C330407240FBB
:10E42000083CA408A4001B598407E40EE3401B0623
:10E430009B0F0BE0084B032424021B198408A40043
:10E440001B598407E40EE3401B069B0FD8B210BD96
:10E450000420FCE700ED00E000E100E00146144884
:10E460000078144A127890421DD011480078401C60
:10E470000F4A107010460078022801D10020107059
:10E480000B48007880000C4A105808600B4A086856
:10E4900012688018094A1060104600680002000ADD
:10E4A0001060012070470020086000BFFAE70000FC
:10E4B000E4280020E5280020DC280020D8280020BF
:10E4C00070B5049C044E45683668B54202D10025FB
:10E4D000024E357070BD0000382800203C28002016
:10E4E000F0B50346002426E0164E366824277E4306
:10E4F000154F3F68F01946689E4203D94668F61AE0
:10E5000046601DE046689B1B46683419002646603D
:10E5100006750C4E35680B4F066A3E600669002E84
:10E5200008D00E193602360A86600669C66016687B
:10E530000662156000BF03480068401C0028D3D164
:10E5400000BFF0BDD4280020C8280020F0B595B049
:10E55000042400201490F74800F0FCFF10A871DF9D
:10E56000002216E010A90131895C0811FFF7A6FD11
:10E570002146631CDCB2F04B585410A90131885C71
:10E58000FFF79CFD2146631CDCB2EB4B5854501C3A
:10E59000C2B2062AE6DB56222046611CCCB2E6490E
:10E5A0000A54E6A1E6A001F09FFC00280DD1E3A1EA
:10E5B000E3A001F099FC002807D1E0A1E0A001F060
:10E5C00093FC002801D115B0F0BDDCA1DEA001F064
:10E5D0008BFCDAA1DEA001F087FC002800D1F2E775
:10E5E000DE4ADFA1E448FEF70FFEDC480088E3497D
:10E5F000C882DA4909880813FFF760FD2146621CCA
:10E60000D4B2CD4A5054D54909880812FFF756FDB7
:10E610002146621CD4B2C84A5054D0490988090521
:10E62000080EFFF74BFD2146621CD4B2C24A50547B
:10E63000CA490878FFF742FD2146621CD4B2BE4A9F
:10E64000505440222046611CCCB2BB490A54CCA194
:10E65000CDA001F049FC002808D1B8A1CDA001F05F
:10E6600043FCB6A1CEA001F03FFCACE7CEA1D0A008
:10E6700001F03AFC002800D1A5E7B0A1CFA001F03D
:10E6800033FCD1A1D3A001F02FFC002803D1CEA1EF
:10E69000D0A001F029FC202009E0B7490B390B5C20
:10E6A0002146621CD4B2A44A5354411CC8B2242847
:10E6B000F3DBB24B14331A1FC9A1AF480A30FEF77F
:10E6C000A3FD272009E0AC490B390B5C2146621CF5
:10E6D000D4B2994A5354411CC8B22B28F3DB97A1FA
:10E6E000C6A001F001FC95A1C7A001F0FDFB5122DD
:10E6F0002046611CCCB290490A54112009E09E4981
:10E700000B390B5C2146621CD4B28B4A5354411C1A
:10E71000C8B21528F3DB994ABEA19748FEF774FDED
:10E720002C222046611CCCB283490A544222204646
:10E73000611CCCB280490A54B94909880813FFF713
:10E74000BDFC2146621CD4B27B4A5054B4490988AE
:10E750000812FFF7B3FC2146621CD4B2764A50542B
:10E76000AF4909880905080EFFF7A8FC2146621C7D
:10E77000D4B2714A5054AA490878FFF79FFC214649
:10E78000621CD4B26C4A50546CA1A6A001F0ACFB40
:10E790000FA80FA90FAA0FAB069307920891099033
:10E7A000049105900293039200910190A049724850
:10E7B0000A30FEF729FD0C2842D1142009E06E49E9
:10E7C0000B390B5C2146621CD4B25B4A5354411C8A
:10E7D000C8B22A28F3DB0AA80BA90CAA0DAB009338
:10E7E0000192029103900EAB0FAA92A162480A30E7
:10E7F000FEF70AFD054608A8007E401E4000944929
:10E80000095A08A8007D0818401E1821414308A88D
:10E81000007C09183C20414308A8007B08183C21D3
:10E82000484308A9097A40188A490968401A8A4960
:10E83000086088480068096840185049886000E00E
:10E84000C1E6464800888549884200DABBE63BA11C
:10E8500083A001F049FB84A186A001F045FB0028BC
:10E8600003D136A186A001F03FFB34A188A001F0BE
:10E870003BFB32A18BA001F037FB8DA18DA001F0F5
:10E8800033FB8FA191A001F02FFB002806D18CA1B2
:10E890002CA001F029FB002800D194E627A195A027
:10E8A00001F022FB97A198A001F01EFB9AA19DA068
:10E8B00001F01AFB93A194A001F016FB9DA19EA06C
:10E8C00001F012FB8FA190A001F00EFB99A19EA078
:10E8D00001F00AFB8BA18CA001F006FB9DA19EA07C
:10E8E00001F002FB002800D16DE686A186A001F0B0
:10E8F000FBFA9EA19EA001F0F7FA82A182A001F08E
:10E90000F3FA9AA1A2A001F0EFFA7EA17EA001F095
:10E91000EBFAA6A1A6A001F0E7FA002800D152E682
:10E9200078A179A001F0E0FAA3A001F07FFB002616
:10E930004EE10000204E00004C2800204F4B00000C
:10E9400041540D0A00000000415445310D0A0000F9
:10E9500061742B6362630D0A000000004A280020E6
:10E960002B4342433A20252A68642C252A68642CCC
:10E970002568640A000000006F2900204429002057
:10E98000434C54533A20310061742B434C54533F51
:10E990000D0A000061742B434C54533D310D0A00A5
:10E9A000415426570D0A00005245414459000000C9
:10E9B00041542B4350494E3F0D0A000041542B4314
:10E9C0005245473D320D0A002B435245473A20320B
:10E9D0002C31000041542B435245473F0D0A0000A3
:10E9E0002B435245473A20322C3120222568782289
:10E9F0002C22256878222F6E0000000041542B4302
:10EA00005245473D300D0A0061742B6373710D0A46
:10EA1000000000002B4353513A202568642F6E00FC
:10EA20003E28002041542B43434C4B3F0D0A00002D
:10EA3000A40902002532752F2532752F2532752C39
:10EA40002532753A2532753A2532752B00000000C3
:10EA5000162800200828002010280020D80E0000CA
:10EA6000415445300D0A000043474154543A203187
:10EA70000000000061742B63676174743F0D0A002D
:10EA800061742B63676174743D310D0A00000000EE
:10EA900061742B435354543D22434D4E4554220D33
:10EAA0000A00000041542B43494943520D0A00001B
:10EAB0002E00000041542B43494653520D0A0000DA
:10EAC000434F4E4E454354204F4B000041542B437F
:10EAD000495053544152543D22544350222C223128
:10EAE00035392E3232362E3235312E3131222C321A
:10EAF000350D0A0041542B434950535052543D3177
:10EB00000D0A00003E00000041542B43495053457C
:10EB10004E440D0A00000000636F72656D61696C00
:10EB20000000000065686C6F2068656C6F0D0A1A44
:10EB3000000000003333340061757468206C6F6727
:10EB4000696E0D0A1A00000059324E6B59773D3D2F
:10EB50000D0A1A003233350059324E6B59324E7A53
:10EB60006447356C64413D3D0D0A1A003235300072
:10EB70004D41494C2046524F4D3A3C6C79654063BB
:10EB800073746E65742E636E3E0D0A1A00000000E9
:10EB90005243505420746F3A3C6C796540637374EF
:10EBA0006E65742E636E3E0D0A1A00003335340014
:10EBB000444154410D0A1A005375626A6563743A00
:10EBC000200000006F49885D01F0DEFA701CC6B2BB
:10EBD000402EF7DB6CA16DA001F086F96DA16E48A7
:10EBE00001F082F987DF00206C4908706C480088CA
:10EBF0001921C90188422BDA12AA6948018869489B
:10EC000000F04CFD054600BF2B46002B05D000BF91
:10EC1000002211461846FFF73FF800BF6048008801
:10EC2000614948830023202212A800F059FF0546BD
:10EC300000BF2B46002B05D000BF0022114618460E
:10EC4000FFF72AF800BF56480088401C5449088046
:10EC500072E053480088401E81B212AA514800F069
:10EC60001DFD002600BF5149012001F069FA00286E
:10EC7000F9D10023202212A94D4800F019FE86B2D6
:10EC800000BF3346002B05D000BF002211461846B6
:10EC9000FFF702F800BF002710E04549C95D0811E1
:10ECA000FFF70CFA099001F06FFA4149C85DFFF7D0
:10ECB00005FA099001F068FA781CC7B2202FECDB46
:10ECC00037490988481EC117090F09180911090198
:10ECD000411A2CD132490988481EC117C90E09189A
:10ECE00049114901411A10D10121890212A800F0ED
:10ECF0001DFD86B200BF3346002B05D000BF0022A9
:10ED000011461846FEF7C8FF00BF1FA12248483031
:10ED100001F0EAF81FA1204801F0E6F8002806D12A
:10ED20001CA11D4801F0E0F8002800D14BE41C486C
:10ED30000088401E1A49088019480088002888DC8D
:10ED400011A11548483001F0CFF812A1124801F086
:10ED5000CBF8002806D10FA10F4801F0C5F8002814
:10ED600000D130E40C49643112A001F0BDF8002854
:10ED700004D005A111A001F0B7F800E023E400BF22
:10ED800021E400004C2800204F4B00000D0A0D0A22
:10ED90001A0000003E00000008EB01004828002097
:10EDA0003E2800203028002044290020642900202B
:10EDB000242900200D0A2E0D0A1A000041542B436D
:10EDC0004950434C4F53453D310D0A00F8B5294891
:10EDD0000078002800D1F8BD27480068002801D13C
:10EDE000012000E00020054624480068002801D1E9
:10EDF000012000E00020064600BF002D14D1684627
:10EE000051DF0446052C01D101250CE0002C06D071
:10EE100000BF002211462046FEF73EFF03E01649E0
:10EE200000980968884700BF002E1AD1144800884E
:10EE3000009069461348006861DF0446052C01D143
:10EE400001260DE0002C06D000BF0022114620460E
:10EE5000FEF722FF04E00B4800680849096888476C
:10EE600000BF002D02D0002E00D000E0C5E700BF9B
:10EE700000BFB0E700290020102900200C29002045
:10EE800008290020042900200C48008CC0B2012869
:10EE900012D10A48808C0007000F00280CD10748C7
:10EEA000806AF0210840402806D10448C06A084022
:10EEB000002801D1012070470020FCE7C00F00F0BE
:10EEC0001948008CC0B201282CD11748808C00074B
:10EED000000F002826D11448806AF021084000283D
:10EEE00006D11148C06A0840002801D101207047AE
:10EEF0000D48806AF0210840102806D10A48C06AEF
:10EF00000840002801D10120F1E70748806AF0217C
:10EF10000840302806D10448C06A0840002801D1C2
:10EF20000120E4E70020E2E7C00F00F00146880777
:10EF3000800F002801D1012070470020FCE700006D
:10EF4000FEB52B48006801902A480078009040E008
:10EF50000098C000284909684418257835E0182031
:10EF6000684361680F18681CC5B2A078A84200D138
:10EF700000253878022802D0032823D10EE024216E
:10EF8000786848431D4909684618307D002804D038
:10EF9000786801F005FB0020307514E00CE014499E
:10EFA000096824225143154A126888180021017506
:10EFB0000F4A016A116000BF0D480068401C00281C
:10EFC000EDD100E000BF00BF00BF6078A842C6D10D
:10EFD00000BF0098411EC9B200910028B8D1044872
:10EFE00001680198814201D00120FEBD0020FCE7AC
:10EFF000D4280020CC280020D0280020C8280020B9
:10F00000FEB50746434800680290434800780190E7
:10F0100071E00198C00041490968451863E0781C17
:10F02000002807D03E46242070433D490968441813
:10F03000276A29E02978182359436A6850182978E3
:10F04000491C29702978AA78914201D100212970A0
:10F05000466824217143324A12688C1801780129CC
:10F0600002D1217D002900D03DE08168A160C16806
:10F07000E160016921614169E1612A49097800295A
:10F0800001D00021A16000BF2749A0680968401A8B
:10F090000002000A2549884208D22349A06809686D
:10F0A00001F0B8F9E1684018606011E01E48A168FD
:10F0B000006801F0AFF90090E1680098814204D93E
:10F0C000E1680098081A606001E00020606000BFFD
:10F0D0000020A060E06001202075801E2062304684
:10F0E00001F0F0F900BF781C002898D128786978E1
:10F0F000884294D100BF0198411EC9B201910028F5
:10F1000087D1044801680298814201D00120FEBDE8
:10F110000020FCE7D4280020CC280020D0280020A4
:10F12000C8280020ED280020D8280020FFFF7F00FD
:10F1300088B0022000F07CFE06A871DF58206946E6
:10F140004876812106A8817006A9002070DF044658
:10F1500000BF2346002B05D000BF002211461846F1
:10F16000FEF79AFD00BF01F01FFB00F051FB2021CC
:10F17000684681821921C901C182CB480490CB49DC
:10F1800004A800F00BFC044600BF2346002B05D06A
:10F1900000BF002211461846FEF77EFD00BF6846FC
:10F1A000C08AC349088034E0C1480088401E81B24B
:10F1B00002AABE4800F072FA044600BF2346002BA4
:10F1C00005D000BF002211461846FEF765FD00BFBE
:10F1D0000023202202A9B74800F06AFB044600BFC2
:10F1E0002346002B05D000BF002211461846FEF72B
:10F1F00053FD00BFAF48016840680023DB4359401E
:10F200005840014300D008E0A9480088401EA849A2
:10F210000880A74800880028C6DC00BF032005211D
:10F22000090707221202891888640521090789182D
:10F230008865162000F0B0F900220121C9039E481C
:10F240000068FEF7FFFD044600BF2346002B05D0F3
:10F2500000BF002211461846FEF71EFD00BF012028
:10F260009649087096489749086000BF934800780F
:10F2700000287DD0002094490860122000F08CF90D
:10F28000642000F067F9122000F08EF901208F4908
:10F29000C863162000F088F90420FEF72BFE8C4985
:10F2A00089684B22120151430846FF21FDF75EFF9A
:10F2B000410040184004000C86490880162000F0E8
:10F2C0006BF920218448FDF794FF002007E006A990
:10F2D00001310A5C804B811C5A54411CC8B206287B
:10F2E000F5DB784800687C49C860764800687B494F
:10F2F0000968401878498860764800884882442028
:10F30000087754204877552088773A20C87701A895
:10F3100052DF7149019888616E4800887D2149015A
:10F32000884271DD0020082302461021009000F081
:10F33000D1FEFFF70BF95E480088002858D068A17D
:10F3400068A000F0D1FD002814D067A167A000F0EC
:10F35000CBFD00280ED069A169A000F0C5FD0028F2
:10F3600008D05FA168A000F0BFFD002802D000E037
:10F370008DE000BF4E4800881921C901884237DA64
:10F3800002AA4B480188494800F088F9044600BFAA
:10F390002346002B05D000BF002211461846FEF779
:10F3A0007BFC00BF0023202202A9424800F080FA23
:10F3B000044600BF2346002B05D000BF00221146A3
:10F3C0001846FEF769FC00BF3A4801684068002310
:10F3D000DB435940584001430AD035490888C117DA
:10F3E000C90E09184911491C4905090C304A1180F8
:10F3F0003BA149A000F078FD39A14BA000F074FDBD
:10F400004DA14FA000F070FD122000F0C5F80020C3
:10F410002E49C86326480088002831D02448008837
:10F420001921C90188422BDA02AA214801881F4804
:10F4300000F034F9044600BF2346002B05D000BF7E
:10F44000002211461846FEF727FC00BF1848008826
:10F45000214948830023202202A800F041FB0446F2
:10F4600000BF2346002B05D000BF002211461846DE
:10F47000FEF712FC00BF0E480088401C0C490880B3
:10F4800087DF0020324908700C49087000BF48DF50
:10F49000044600BF2346002B05D000BF00221146C2
:10F4A0001846FEF7F9FBE1E6C1E401003028002030
:10F4B0003E28002024290020002800204128002088
:10F4C000A81B0000082800200C280020C02F0040A6
:10F4D000007500404A280020442900201028002000
:10F4E0004F4B00000D0A1A003E00000041542B4310
:10F4F000495053454E440D0A00000000323530009B
:10F500000D0A2E0D0A1A000041542B434950434C5A
:10F510004F53453D310D0A0041542B434950534848
:10F5200055540D0A0000000041542B4347415454E8
:10F530003D300D0A00000000504F574552000000BA
:10F5400041542B43504F57443D310D0A00000000F9
:10F550004828002001B505E00098401E00900348AF
:10F56000FDF7C8FD00980028F6D108BDE7030000AC
:10F5700010B58A0005231B07072424021B198400E9
:10F580001A5110BD03210522120707231B02D218AE
:10F590008300D1507047000001218140014AD160B1
:10F5A000704700000005005001218140014A916030
:10F5B000704700000005005010B508480078012889
:10F5C00002D0022807D102E0FEF754FB04E003203A
:10F5D0000249087000E000BF00BF10BDC028002035
:10F5E0000B480078002802D003280DD108E0042041
:10F5F000084908600120084908600549087004E0CE
:10F6000002200349087000E000BF00BF70470000FF
:10F61000C0280020002500400020004010B5094807
:10F620000078012807D0022804D0032806D1FEF76D
:10F6300021FB04E000BFFEF7ECFA00E000BF00BFD2
:10F6400010BD0000C028002010B5FEF713FB10BD50
:10F6500010B504462300FEF7BFFA0504070D0A1093
:10F660001300FFF7A9FF0CE0FFF7BAFF09E0FFF76F
:10F67000D5FF06E000F008F803E0FFF7E5FF00E043
:10F6800000BF00BF10BD000010B50348007801287E
:10F6900001D1FEF7C3FA10BDC02800203CB50346D7
:10F6A00000BF20480078002801D108203CBD00BFE1
:10F6B000002B01D10E20F9E7002A01D10E20F5E739
:10F6C0001868642805D218680001174C20580028D3
:10F6D00001D10720EAE75C68186801940090019C5A
:10F6E00018680001104D4019008948432018019006
:10F6F000009800012C4600194089009C24016419DF
:10F7000024896043009C2401641964680019019CE9
:10F71000A04201D80720C9E7019C009854601060FE
:10F720000020C3E7AE280020E02D0020F8B50446F5
:10F730000D4600BF27480078002801D10820F8BDF9
:10F7400000BF002C01D10E20F9E72068642805D203
:10F750002068000120490858002801D10720EEE761
:10F76000206800011C4940184089216809011A4A93
:10F77000891809894843216809018918496840188E
:10F780006168884201D80720D9E76068FFF7CEFB9F
:10F79000002801D11020D2E723681B010E4FDB198E
:10F7A00062685B68D01A226812013B46D218118940
:10F7B000FDF7DCFC002901D00720C0E700202B4624
:10F7C0000246214600900420FEF76CFD06463046B6
:10F7D000B5E70000AE280020E02D002070B50848F5
:10F7E0004469601C002807D000F00CF80546294643
:10F7F0002046FDF7BBFC70BD012000074069FAE719
:10F800000010001001200007006980B2704700005E
:10F81000F8B5FEF793FD00201E490880FFF7DEFFD4
:10F820000546653DFFF7EEFF45431B480560002098
:10F830001A49088000BF0DE000210201184B9950C1
:10F840000201D21811810201D21891810201D2184D
:10F850005181401C6428EFD3082012490870FFF73B
:10F86000D1FF0090FFF7BAFF471EFFF7CBFF4743DA
:10F870003E4630460099FDF779FC054628DF0446F0
:10F88000002C04D1012008498870084908702046DE
:10F89000F8BD0000A4280020A8280020AC280020E3
:10F8A000E02D0020AF280020142D0020AE280020DD
:10F8B000FFB581B00C4615461E4600BF354800789E
:10F8C000002802D1082005B0F0BD00BF002C01D1F6
:10F8D0000E20F8E70198002801D10E20F3E72068F8
:10F8E000642805D2206800012B490858002801D15E
:10F8F0000720E8E72068000127494018408921686F
:10F900000901254A8918098948432168090189188C
:10F91000496840186168884201D80720D3E7002D64
:10F9200006D0206800011C4940180089A84201DA6D
:10F930000720C8E7A81921680901174A8918098909
:10F94000884201DD0720BEE70198FFF7EFFA0028A3
:10F9500004D03046FFF7EAFA002801D11020B2E7C0
:10F960006068FFF7E3FA002801D11020ABE7606878
:10F9700081192A460198FDF723FC009520680001B3
:10F9800005490F58002203212046019BB84700205B
:10F9900099E70000AE280020E02D0020F8B50446CD
:10F9A0000D4600BF4A480078002801D10820F8BD64
:10F9B00000BF002C01D10E20F9E7002D01D10E204F
:10F9C000F5E72068002801D10E20F0E7FFF71AFFC5
:10F9D000A188884202DBA088102801DA0720E6E728
:10F9E000E08800281CD0FFF7F9FE471EFFF70AFF4A
:10F9F0004743E088A1884843364909684018874250
:10FA00000ED3FFF7FFFEE188A2885143884209DA4E
:10FA1000FFF7F8FE0746A188FDF7BEFB002901D0DD
:10FA20000720C4E720798007800F002801D0072035
:10FA3000BDE729480088642801D10420B7E726489B
:10FA40000088286023480068686023490988090104
:10FA5000224A8918686848601F4909880901206896
:10FA60005050A0881C490988090189180881E0883C
:10FA70001949098809018918488100200090A68841
:10FA8000E1884E4300BF0098401C80B20090FFF711
:10FA9000B9FEB04203D2FFF7B5FE361A00E00026E9
:10FAA000FFF7B0FE0B49096840180A490860002EAC
:10FAB000E9D1094909880901084A8918009888810B
:10FAC00005480088401C0449088000206FE70000BA
:10FAD000AE280020A8280020A4280020E02D002027
:10FAE000F8B504460E4615461F4600BF2F4800785D
:10FAF000002801D10820F8BD00BF002E01D10E2042
:10FB0000F9E7002C01D10E20F5E72068642805D222
:10FB10002068000126490858002801D10720EAE79B
:10FB20002068000122494018408921680901204AC3
:10FB300089180989484321680901891849684018CA
:10FB40006168884201D80720D5E7002D06D02068DB
:10FB50000001174940180089A84201DA0720CAE7C6
:10FB6000E81921680901124A89180989884201DDCA
:10FB70000720C0E73046FFF7D9F9002804D03846FF
:10FB8000FFF7D4F9002801D11020B4E76068FFF72F
:10FB9000CDF9002801D11020ADE72B463246214691
:10FBA00002200097FEF77EFBA5E70000AE280020AC
:10FBB000E02D0020F0B585B0064600256A48807823
:10FBC00001287DD10020684988706848007808289D
:10FBD00019D1022E03D100206449087002E00020F0
:10FBE00063490870FEF72AFB0546002D09D05E48E0
:10FBF0000078142250435C4A121D81182846FEF7F3
:10FC00005BF805B0F0BD022E02D0032E7ED183E05A
:10FC100055480078142148435349091D4418554854
:10FC20000088401C534908802078022807D10846E4
:10FC3000008880026188884201DB012000E000200A
:10FC400003902078052805D148480078072801D17D
:10FC5000012000E0002002902078042805D14348CC
:10FC60000078072801D1012000E0002001902078D1
:10FC700004280BD13F48008880026188884205DB58
:10FC80003A480078002801D1012000E000200090CF
:10FC90000298002808D10198002805D10098002872
:10FCA00002D10398002825D02F48077800202F493B
:10FCB0000870304908802C484078401E2A4900E0EE
:10FCC00050E0487008460078401C087008460078EC
:10FCD0000A2803DB084600780A38087014207843A5
:10FCE000214A121D81182846FDF7E6FF3846FEF727
:10FCF000BBFA00BFFEF7A2FA0546002D0BD01A484A
:10FD0000007814225043184A121D00E027E08118A1
:10FD10002846FDF7D1FF23E013480078142148431B
:10FD20001149091D44186078401CC0B26070032856
:10FD300009D1081F0078142250430A4681180D206B
:10FD4000FDF7BAFF0AE0FEF7C5F90546002D05D01C
:10FD5000112D03D021462846FDF7AEFF00E000BF7D
:10FD600000BF00BF00BF4CE7142D0020AF280020CB
:10FD7000AE280020AC2800200148406870470000F1
:10FD80000015014010B5044603488460032111208A
:10FD9000FDF72CFE10BD00000015014010B501203C
:10FDA00000040A4948600949403948601120FDF7BC
:10FDB000FFFD1120FDF706FE0120054908602F20F8
:10FDC000FDF7A8F901200349087010BD4013014058
:10FDD00000100140EC28002010B5112001218140C5
:10FDE0000E4A116000BF012000040D4988600C49D3
:10FDF0004039886001200B4948602F20FDF78AF9BF
:10FE00000120084988600020074908602F20FDF77D
:10FE100081F900200549087010BD000080E100E074
:10FE20004013014000100140D8280020EC28002099
:10FE3000F8B5054611DF044600BF2346002B05D068
:10FE400000BF002211461846FDF726FF00BF00BF85
:10FE5000002348222149082000F0BCF9064600BFD3
:10FE60003346002B05D000BF002211461846FDF78F
:10FE700013FF00BF00BF00200090002168464170C2
:10FE8000057060DF044600BF2346002B05D000BF8D
:10FE9000002211461846FDF7FFFE00BF104800F093
:10FEA0008DF9044600BF2346002B05D000BF002279
:10FEB00011461846FDF7F0FE00BF0A4800F0BEF9F3
:10FEC000044600BF2346002B05D000BF0022114688
:10FED0001846FDF7E1FE00BFF8BD0000642A0020CF
:10FEE00089DF010009040200F3B581B00746002054
:10FEF0000090002501E0681CC5B20298405D002812
:10FF0000F9D100262C4600BF4649052000F018F91B
:10FF10000028F9D1FF2101314248FDF76AF903E0D9
:10FF200038787F1C00F030F938780028F8D15CE090
:10FF3000032C15DD201F3B49085C452810D1E01E2D
:10FF4000085C52280CD1A01E085C522808D1601E03
:10FF5000085C4F2804D10846005D522800D14BE0D0
:10FF6000032C15DD201F2F49085C432810D1E01E0B
:10FF7000085C61280CD1A01E085C6C2808D1601EAA
:10FF8000085C6C2804D10846005D202800D133E0CD
:10FF9000032C15DD201F2349085C532810D1E01ED7
:10FFA000085C4D280CD1A01E085C532808D1601EA7
:10FFB000085C202804D10846005D522800D11BE0CF
:10FFC00000260AE00298805D611B8919154A515C80
:10FFD000884200D003E0701CC6B2AE42F2DB00BF24
:10FFE000AE4200D108E0601CC4B20E4801190E48B0
:10FFF00000F0A6F800289BD100BFAE420DD1012031
:020000040002F8
:10000000009000BF2046621CD4B2064A811801202D
:1000100000F096F80028F5D101E00020009000984B
:10002000FEBD0000642900201027000010B5044622
:100030000AE000BF0649052000F082F80028F9D147
:100040002078641C00F0A0F820780028F1D110BDC1
:1000500064290020F0B502460C46002037E0012359
:100060008340194623460B40002B2FD0D5680D4006
:10007000002D05D101235B04D5680D43D56004E054
:1000800003231B04D5688D43D56005252D0707265E
:100090003602AD198600AD5903263604B543052650
:1000A000360707273F02F6198700F55105252D076A
:1000B00007263602AD198600AD591D4305263607C1
:1000C00007273F02F6198700F55100BF401C202882
:1000D000C5D3F0BDF8B507460C4615461E4620466A
:1000E000FFF750FA00213046FFF742FA1048C4608B
:1000F0004661069800280DD03846FFF743FA0021E4
:100100002846FFF735FA0A4805618760012008494B
:100110004031C8620748064948620420086001204F
:10012000054988600860002004498860F8BD000027
:100130000025004000509D000020004000210040AC
:1001400070B504460D4601260AE02046641E0028CC
:1001500004DB7D20C000FCF7BDFF01E0002603E0CA
:10016000074880680128F0D100BF002C05DB002083
:1001700003498860034880692870304670BD0000DC
:1001800000210040002500400549C86100BF054925
:10019000C9690129FBD10021024AD16170470000E1
:1001A000002500400021004070B506460C4615466B
:1001B00029462046C046C04670BD000001460029C1
:1001C00001D10E207047024801600020FAE70000CC
:1001D0000C290020FFB581B00C4616461F46002CA6
:1001E00002D1072005B0F0BD20468107890F002904
:1001F00001D1012100E00021002901D10720F1E710
:1002000009480460094806800948076009490198BF
:1002100010DF0546002D01D02846E3E701200649FE
:10022000087016202EDFDDE70429002008290020B1
:10023000FC280020A9010200002900200146002915
:1002400001D10E207047024801600020FAE700004B
:1002500010290020FFB583B00446154603266948DF
:10026000007800280BD1002D06D10698002803D174
:1002700002206449087002E0012062490870614868
:1002800000780300FDF7A8FC07B805203D6186A1B2
:10029000B800FFF7B7FA80080290FFF7B3FA0499A5
:1002A00048430190FFF79AFA471EFFF7ABFA47431E
:1002B00000973846029A019929DF0646002E02D19E
:1002C00002205049087098E0049828DF0646002E66
:1002D00016D1002D11D1069800280AD120780428C3
:1002E00003D10720474908700AE0052045490870F6
:1002F00006E004204349087002E0032041490870E9
:100300007BE0FFF76BFA471EFFF77CFA4743029743
:10031000FFF778FA049948432A460190029929DFA9
:100320000646002E10D1069800280AD1207804280D
:1003300003D106203349087006E0052031490870D2
:1003400002E004202F49087057E0FFF747FA471EE4
:10035000FFF758FA4743A800381861884018029000
:10036000FFF750FA04994843A900401861884018E3
:100370000190069A029929DF0646002E09D12078BD
:10038000042803D106201F49087002E005201D49FA
:10039000087032E0FFF736FA04994843A90047187D
:1003A000608882083846216929DF0646002E0BD175
:1003B000002D06D10698002803D1072011490870A6
:1003C00002E006200F49087017E0FFF71BFA0190C2
:1003D000FFF704FA471EFFF715FA47430097384620
:1003E0000199FCF7C3FE029028DF0646002E02D1D9
:1003F00007200449087000E000BF00BF304607B086
:10040000F0BD0000AF28002010B504462046FFF7DD
:10041000D1FB10BD0246501A0002000A70470000CE
:1004200070B504460D480068002812D00B4AE169F7
:10043000A06912689047054600BF2E46002E06D0E0
:1004400000BF002211463046FDF726FC00BF00BF6A
:1004500002E0A169E069884770BD0000E82800203B
:10046000FEB50020C043019010480468104807689A
:100470006846FDF7F3FF0546FEF762FD0646002DD0
:1004800005D001AA21460098FEF72AF80126019816
:10049000FEF7B6FD002800D00126002E02D0384617
:1004A000FDF766FF002003490870FEBDD828002034
:1004B000D4280020ED28002010B51420FDF78CFA78
:1004C00010BD0000F0B5024624205043324B1B689B
:1004D000C11832480068401C002802D12F48026031
:1004E00059E02E484B680068242460432A4C246855
:1004F00000194068834217D82848006824235843CD
:10050000254B1B68C01840684B68C31A2348006815
:1005100024246043204C2468001943601F4800686D
:1005200008621E48026036E04B681C4D2C68286843
:100530000DE024254543184E3668AD196D685B1BE8
:10054000044624254543144E3668AD19286A451CD7
:10055000002D07D0242545430F4E3668AD196D6830
:100560009D42E6D3451C002D0CD0242545430A4E60
:100570003668AD196D68EE1A24254543064F3F686D
:10058000ED196E604B60086224256543024E3668A3
:10059000AD192A6200BFF0BDC8280020D428002071
:1005A00070B502462C4C2168084609E0904200D103
:1005B00009E0014624244443284D2D686419206A2B
:1005C000441C002CF2D100BF441C002C00D170BD93
:1005D000814217D1204C246824256C431F4D2D687F
:1005E0006419246A1C4D2C602C462468641C002C61
:1005F00008D101241A4DAC6000241A4D2C6001244E
:10060000194D2C7024244443144D2D6864196368DB
:1006100024244443114D2D686419256A24244C4335
:100620000E4E3668A419256224244C430B4D2D68C8
:100630006419206A441C002C0CD024244443074D28
:100640002D6864196468E51824244443034E366811
:10065000A419656000BFBAE7D4280020C82800208C
:1006600000100140D8280020ED280020FFB581B0FF
:1006700005460E461746E900104A12688818694672
:1006800000F0E7F80446002C02D1042005B0F0BDCC
:10069000012020706660FFF76FFBA060E7600498A0
:1006A00020610A986061E900044A1268881800997C
:1006B00000F0E5F8FFF700FF0020E7E7D028002072
:1006C000F8B504460E46E1000C4A126888186946DF
:1006D00000F0BFF80546002D01D10420F8BD02202E
:1006E00028706E60E100054A12688818009900F0D1
:1006F000C6F8FFF7E1FE0020F0E70000D028002058
:10070000F8B520480068401C00283AD00027FFF7C1
:1007100033FB04461C4801682046FFF77BFE064673
:100720001848056811E024206843184909684418EE
:100730006068B04200D90BE06068361A6068C7197B
:10074000256A2046FFF76CFE00BF681C0028EAD12E
:1007500000BF0F4800780F490978884209D10D4839
:100760000078401CC0B20B490870022801D100205B
:10077000087008480078800007490F50FFF79CFE7A
:1007800000BFF8BDD4280020D8280020C8280020A9
:10079000E4280020E5280020DC28002010B51120E6
:1007A000FDF71AF910BD000038B500BF00201B4B43
:1007B000052204210090FDF7CDFA054600BF2B4627
:1007C000002B05D000BF002211461846FDF764FA41
:1007D00000BF00BF124A01211248FDF781FA04460A
:1007E00000BF2346002B05D000BF0022114618464B
:1007F000FDF752FA00BF0C4A00210C48FDF770FAD1
:10080000044600BF2346002B05D000BF002211463E
:100810001846FDF741FA00BF38BD0000AC2A0020A1
:10082000910802000028002085080200042800200A
:1008300010B5FDF7E5FD012802D0032804D101E041
:10084000002403E0012401E0022400BF00BF204691
:1008500010BD70B502460B465078411C9078884216
:1008600000D100211078884201D1002070BD1960AC
:1008700050781826704355682C182046F6E74170CA
:10088000704700000121014A117070474128002083
:1008900070B505462A480068401C29490860294867
:1008A0000068401C27490860E1214901244800688C
:1008B000FCF75CFC002940D12348006801210906AF
:1008C000884206D201202149087021481C4908604D
:1008D00070BD204800881921C90188422DDA87DFC0
:1008E00004461D48007840084000401C1A49087022
:1008F00008460078022188431749087006200881BD
:1009000005204881002048608881084686DF04462B
:1009100000BF2346002B05D000BF00221146184619
:10092000FDF7BAF900BF01200C49087000220F2121
:1009300049040B480068FDF785FA00BFC8E70000CE
:10094000082800200C280020102800204128002022
:10095000A81B00003E280020142900204828002061
:1009600004280020DDDDDDDDDCBBBBDDDDDDDDDD24
:10097000DDDDDDDD988888888888888877777777D7
:1009800077888888855555566666666666666666A3
:10099000666888888333333222222222222222224E
:1009A0002228888D25315B315D25315B353637381E
:1009B000395D2F25315B30315D2531642F25315B69
:1009C000303132335D2531642C25315B3031325D7D
:1009D0002531643A25315B303132333435365D258B
:1009E00031753A25315B303132333435365D25315E
:1009F000752B0000140A02000028002014010000DA
:100A0000F4DB0100280B0200142900200C13000065
:100A100004DC0100000000000000000000000000F5
:100A2000000000000000000000006D018C01A90121
:100A3000C801E601050223024202610211013001F0
:100A40004E01000000000000000000000000000057
:100A50000000000000000000000000000000000096
:100A60004454553A0000000000000000000000005F
:100A70000000000000000000000000000000000076
:100A80000000000000000000000000000000000066
:100A90000000000000000000000000000000000056
:100AA0000000000000000000000000000000000046
:100AB000000000000024F40000000000000000001E
:100AC000000000000000FFFF010000000000000027
:100AD0000000000000000000000000000000000016
:100AE0000000000000000000000000000000000006
:100AF00000000000000000000000000000000000F6
:100B000000000000000000000000000000000000E5
:100B100000000000000000000000000000000000D5
:080B20000000000000000000CD
:040000050001D0C165
:00000001FF
