:020000040001F9
:10D00000903F002035D101004FD1010051D10100E6
:10D010000000000000000000000000000000000010
:10D0200000000000000000000000000053D10100DB
:10D03000000000000000000055D1010057D10100A0
:10D0400059D1010059D10100C1D4010059D10100C9
:10D0500059D101000000000075D201002DD201005D
:10D0600059D1010059D1010059D1010059D1010014
:10D0700059D1010059D1010059D1010059D1010004
:10D0800059D1010021D4010059D1010059D1010029
:10D0900049D4010059D1010051D4010059D10100F6
:10D0A00059D1010059D1010000000000000000002A
:10D0B0000000000000000000000000000000000070
:10D0C0000348854600F0A0F800480047DDE701006E
:10D0D000903F0020401E00BF00BF00BF00BF00BF48
:10D0E00000BF00BF00BF00BF00BF00BF00BFF1D145
:10D0F00070470000401E00BF00BF00BF00BF00BF60
:10D1000000BF00BF00BF00BF00BF00BF00BFF1D124
:10D1100070470000401E00BF00BF00BF00BF00BF3F
:10D1200000BF00BF00BF00BF00BF00BF00BFF1D104
:10D13000704700000321094802680A43026008485A
:10D1400002680A4302600748804707480047FEE735
:10D15000FEE7FEE7FEE7FEE7FEE7000024050040ED
:10D160005405004089D40100C1D0010030B50B4600
:10D17000014600202022012409E00D46D5409D42B1
:10D1800005D31D469540491B254695404019154637
:10D19000521E002DF1DC30BD70B50024254600285C
:10D1A00001DA01244042002901DA01254942FFF752
:10D1B000DDFFAC4200D04042002C00D0494270BD9F
:10D1C00003460B439B0703D009E008C9121F08C0A0
:10D1D000042AFAD203E00B780370401C491C521E4B
:10D1E000F9D27047D2B201E00270401C491EFBD256
:10D1F00070470022F6E710B513460A460446194662
:10D20000FFF7F0FF204610BD064C0125064E05E055
:10D21000E36807CC2B430C3C98471034B442F7D357
:10D22000FFF752FF40FE010060FE010010B50D48FF
:10D230000068002814D000200A4908600A48806865
:10D24000C4B20120094948604B21090161430846E5
:10D25000FF21FFF7A1FF410040180549088000BFEA
:10D2600010BD0000007100400075004000700040DB
:10D2700048280020F0B585B03048056900203049C5
:10D28000C863002654E0142070432E4909684418EE
:10D290000120B0402C4909680840002846D00020F1
:10D2A00002900190E068C043684021680840039004
:10D2B0002046039902F0EAF8204800696840216896
:10D2C000084004900498002818D004986840009002
:10D2D000E068C04300994840216808400746394645
:10D2E000204602F0D3F8A0680099884338400190A6
:10D2F0006068009908403840029000BFA068A843C9
:10D3000003990840019908430190606828400399F7
:10D3100008400299084302900199029808430028A6
:10D3200003D0226901990298904700BF701CC6B2D1
:10D33000064800788642A6DB05B0F0BD0005005027
:10D3400040610040A42800209C280020A128002043
:10D35000C206D20E01219140014A116070470000BF
:10D3600080E200E0C206D20E01219140014A116024
:10D370007047000000E100E0C206D20E012191409A
:10D38000014A11607047000000E200E010B500287B
:10D3900019DA1A4A03071B0F083B9B089B00D25857
:10D3A0008307DC0EFF23A3409A438B071B0E8407E1
:10D3B000E40EA3401A43114B0407240F083CA408B1
:10D3C000A4001A5118E00E4A03231B02D218830846
:10D3D0009B00D2588307DC0EFF23A3409A438B07A0
:10D3E0001B0E8407E40EA3401A43054B03242402BA
:10D3F0001B198408A4001A5110BD00001CED00E0A8
:10D4000000E100E0BFF34F8F03480449C860BFF359
:10D410004F8F00BFFEE700000400FA0500ED00E0BA
:10D4200010B500200749086000210648416081606E
:10D43000C1600020034940390860486002F05CFB8D
:10D4400010BD00004011014010B502F025FA10BDDA
:10D4500070B50C480068002810D00A480068804762
:10D46000044600BF2546002D06D000BF002211460D
:10D47000284600F0D9F800BF00BF01E000F0FCFF33
:10D4800070BD0000A828002010B501F06FF800283A
:10D4900005D0074807494860C8130749886101F06B
:10D4A00049F8002802D001200449886010BD00001E
:10D4B000DFFF07C000050040006C00400006004090
:10D4C0001CB524488068002818D0234840680421EF
:10D4D0000840002812D000201E4988601F4880693B
:10D4E000C0B21F4908800421684601701C480178B9
:10D4F000684601711B490968884700BF1548C06923
:10D5000000280BD01448406880210840002805D02E
:10D5100000201049C861032001F0E4FA0D48406A78
:10D52000002816D00C484068012149020840002814
:10D530000FD000200749486208488038046804601A
:10D5400002206946087001946846064909688847C0
:10D5500000BF1CBD0021004000230040002500400A
:10D560005E2800206828002030B47446641E2578A8
:10D57000641CAB4204D3635D5B00E31830BC184706
:10D580001D46F8E702E008C8121F08C1002AFAD1B8
:10D5900070477047002001E001C1121F002AFBD133
:10D5A000704710B500F01AF810BD00000748007869
:10D5B000022802D001200649886006480078064902
:10D5C000C861022001490870704700006C280020E3
:10D5D000002000405C280020002500401CB50120F0
:10D5E0000549C86005490870032069460870684607
:10D5F0000349096888471CBD002000406C280020B2
:10D600006828002000200549087001200449C860EE
:10D610004860002003490860704700006C28002023
:10D620000020004000250040FFF7ECFEF8B505465D
:10D630000C462778A068000105490E5860880090C4
:10D640002A463946204608302369B047F8BD000015
:10D650004C31002070B503460C461948006800287C
:10D6600001D1082070BD002A01D10720FAE7002B64
:10D6700001D10720F6E700211CE024204843104D8B
:10D680002D68285C002814D10125242048430C4E25
:10D690003668355424204843094D2D68401944709C
:10D6A00024204843064D2D684019826119600020EE
:10D6B000D8E7491C034800788142DEDB0420D1E72B
:10D6C0007428002070280020FFB581B00E46174650
:10D6D0001C4620468107890F002901D1012100E065
:10D6E0000021002902D1072005B0F0BD002C01D196
:10D6F0000720F9E701F0BAFD26490A980860264894
:10D7000006702648046000250CE0002124206843B0
:10D71000224A1268115424206843204A1268801853
:10D7200001756D1CB542F0DB242070430419032001
:10D730001B4908701B480460183400250CE0E90000
:10D74000184A12688818002101704170877044607F
:10D75000182179430C196D1C032DF0DB0020C04308
:10D7600011490860002011490870114908701420FF
:10D77000FFF7EEFD03211420FFF708FE1420FFF74A
:10D78000F1FD019801F048FD01F040FD09490860F4
:10D790000020A9E794280020702800207428002089
:10D7A000782800207C280020802800209028002055
:10D7B0009128002084280020FEB504460D46164618
:10D7C00016480068002801D10820FEBD14480078E2
:10D7D000844201D2052D01D20720F6E724206043C0
:10D7E0000E490968085C012801D00820EDE72420D3
:10D7F00060430A49096840184078012801D1284649
:10D8000000E00020074602F00FFA3B462A46214678
:10D810000096019002F046F9D7E700007428002036
:10D820007028002070B5044600BF012018494860E8
:10D830002002182108431749486000201649086053
:10D840000120144908600020134908600120134991
:10D850000860002501E0681CC5B20F480068002878
:10D8600001D1FF2DF7DB0B4989684B22120151438F
:10D870000846FF21FFF77AFC41004018084908805C
:10D8800001200649486000200249086070BD000080
:10D8900000730040007500400071004000700040BF
:10D8A0004828002070B5021D01881B2940D1017D48
:10D8B00081293CD1917AC908032938DD1E4909889C
:10D8C000203101239B02994231DA06210CE04C1EE3
:10D8D000D31C1C5D184B1D881B885B1C164E3380A7
:10D8E000164B5C554B1ED9B20029F0DC05210AE02D
:10D8F00003460F335C5C104B1B885B185B1F0F4D9E
:10D90000EC544B1CD9B2937ADB088B42F0DC0A4909
:10D9100009881631084B198009490968074B064CDC
:10D920002488195104490988091D034B198000E016
:10D9300000BF00BF70BD000014280020D0280020C8
:10D940000C2800200007000F0A2803DA01463031B6
:10D95000C8B202E001463731C8B27047F0B587B0AF
:10D960000F2755480078142148435349091D44188E
:10D97000E5682078022804D0042823D005287CD12B
:10D980006AE0206905904D48008886026088801B07
:10D990000690059880190590A088801945190121E5
:10D9A00089020698884206D2069882082846059978
:10D9B00029DF074605E0FF2201322846059929DFC5
:10D9C00007466FE0A06800013D49401800890690B5
:10D9D000A0680001401840890590A0680001401827
:10D9E000406804900498A84205D1059906984843D8
:10D9F0006188884202D0A06865280DD101F04CF9F9
:10DA0000014603902846FFF7B1FB2C4909884618C8
:10DA1000304628DF07461EE001F03EF9014601903E
:10DA20002846FFF7A3FB064601F036F97043281A93
:10DA30008008039001F030F9711C4843618849194E
:10DA4000401A8008029031462046029B039A01F05A
:10DA50001DFE074600BF25E001F01EF901460490B7
:10DA60002846FFF783FB064601F016F97043A188AC
:10DA70004919081A8008069000E012E001F00CF93C
:10DA8000711C4843A188491962888918401A800886
:10DA9000059031462046059B069A01F0F7FD0746A2
:10DAA00000E000BF00BF002F02D1012002498870B2
:10DAB000384607B0F0BD0000803000205828002014
:10DAC0004C31002010B500240848407800280BDDB8
:10DAD00006488078002807D1FFF740FF0446002C55
:10DAE00002D0112C00D10024204610BD803000202F
:10DAF0000023142141430C4A5354142141438918F3
:10DB00004B8064231421414389188B600023142126
:10DB100041438918CB601421414389180B611421BA
:10DB2000414389188B80704784300020FFB581B055
:10DB3000064617460024224840780A283CD0204850
:10DB400000781F4949784018C4B20A2C02DB2046ED
:10DB50000A38C4B2142060431949091D0E5400222A
:10DB6000142060434018427014206043401807613D
:10DB7000142060434118029805C8CA6088601421C7
:10DB800061430F4A121D891804984880142161438B
:10DB900089180A9888800025101F8078002805D1F0
:10DBA000FFF7DCFE0546112D00D100250448407822
:10DBB000401C0349487000E00425284605B0F0BD2C
:10DBC0008030002010B500200849088008490870FE
:10DBD0000849087048708870002403E02046FFF769
:10DBE00087FF641C0A2CF9D310BD000058280020C0
:10DBF0005B28002080300020FEB51E480068401CD5
:10DC0000002834D01B480068242148431A49096879
:10DC10004018456801F0FAFA019018480468214656
:10DC2000019801F013FEC61C15480078002801D1A8
:10DC300001F0FEFAAE4201D2284600E03046041957
:10DC40002402240A20460F49086000BF01F0DEFAD2
:10DC500000900199009801F0F9FDC71C2046019938
:10DC600001F0F4FD874201D901F094FF01E001F0D9
:10DC7000FDFAFEBD802800207428002084280020A2
:10DC8000982800204015014010B514484068C1058F
:10DC9000C90D002920D00A46103A50B200280DDAEA
:10DCA0000E4B1C330407240F083CA408A4001B5986
:10DCB0008407E40EE3401B069B0F0BE0084B032494
:10DCC00024021B198408A4001B598407E40EE340B6
:10DCD0001B069B0FD8B210BD0420FCE700ED00E04E
:10DCE00000E100E0014614480078144A127890429E
:10DCF0001DD011480078401C0F4A10701046007863
:10DD0000022801D1002010700B48007880000C4AD6
:10DD1000105808600B4A086812688018094A106099
:10DD2000104600680002000A1060012070470020C1
:10DD3000086000BFFAE7000090280020912800202A
:10DD4000882800208428002070B5049C044E456873
:10DD50003668B54202D10025024E357070BD000014
:10DD6000382800203C280020F0B50346002426E097
:10DD7000164E366824277E43154F3F68F0194668D3
:10DD80009E4203D94668F61A46601DE046689B1B12
:10DD9000466834190026466006750C4E35680B4FF0
:10DDA000066A3E600669002E08D00E193602360A51
:10DDB00086600669C66016680662156000BF034883
:10DDC0000068401C0028D3D100BFF0BD802800208F
:10DDD00074280020F0B58FB0F7A1F8A001F0CEFABA
:10DDE000F5A1F6A001F0CAFAF3A1F6A001F0C6FA77
:10DDF000F6A1F8A001F0C2FA002801D10FB0F0BDE1
:10DE0000EDA1F7A001F0BAFAF8A1EDA001F0B6FA81
:10DE1000002805D1F5A1EAA001F0B0FA002866D0EB
:10DE2000E5A1F4A001F0AAFA002860D0F448407DF2
:10DE300031285CD1F248807D352858DBF048007EDF
:10DE400030380A214843EE49497E30394018EC49C0
:10DE500008760846C07E30380A214843E849097FE1
:10DE600030394018E649C8760846807F30380A21A4
:10DE70004843E349C97F30394018E149887708466B
:10DE80002030407830380A214843DD4920318978F4
:10DE900030394018C1B2DA4820304170007930384A
:10DEA0000A214843D6492031497930394018C1B256
:10DEB000D348203001712038007E401E4000D149F7
:10DEC000085ACF49C97E401818214843CC49897F58
:10DED00040183C214843CA492031497840183C2128
:10DEE0004843C749203109794018C7490860B2A1A1
:10DEF000C6A001F043FAB0A1C7A001F03FFAAEA15D
:10DF0000C7A001F03BFAACA1C8A001F037FA002885
:10DF100000D173E7A8A1C9A001F030FAA6A1D1A051
:10DF200001F02CFAA4A1D2A001F028FAD3A1D4A028
:10DF300001F024FAA0A1D5A001F020FAD7A1D8A021
:10DF400001F01CFA002806D1D4A19DA001F016FA18
:10DF5000002800D152E798A1DBA001F00FFADEA162
:10DF6000DEA001F00BFAE1A1E3A001F007FADAA1CB
:10DF7000DAA001F003FAE4A1E4A001F0FFF9D6A1D0
:10DF8000D6A001F0FBF9E0A1E4A001F0F7F9D2A1DD
:10DF9000D2A001F0F3F9E4A1E4A001F0EFF9002828
:10DFA00000D12BE7CCA1CDA001F0E8F9E4A1E5A0D8
:10DFB00001F0E4F9C8A1C9A001F0E0F9E0A1E9A0ED
:10DFC00001F0DCF9C4A1C5A001F0D8F9ECA1EDA0E5
:10DFD00001F0D4F9002800D110E777A1EBA001F0FF
:10DFE000CDF975A1ECA001F0C9F9032505E084483D
:10DFF000405D05A94855681CC5B21B2DF7DB3B21C8
:10E0000008A8C173E74909880813FFF79BFC01467C
:10E0100008A80174E34909880812FFF793FC014638
:10E0200008A84174DF4909880905080EFFF78AFC32
:10E03000014608A88174DB490878FFF783FC014694
:10E0400008A8C1742020FFF7EDFBD74989684B224F
:10E05000120151430846FF21FFF788F8410040189C
:10E0600019218901401886B23B2108A80175301397
:10E07000FFF768FC014608A841753012FFF762FC03
:10E08000014608A881753105080EFFF75BFC0146C3
:10E0900008A8C175F0B2FFF755FC08A908768EA153
:10E0A0008EA001F06BF9C1A001F0DCF9032405E0BA
:10E0B00005A9085D01F084FA601CC4B2252CF7DBC9
:10E0C0003DA1BDA001F05AF93BA1BDA001F056F958
:10E0D00081A182A001F052F90027A6E103AA3946E6
:10E0E000BA4800F025FD0020029000230122920290
:10E0F00003A9B74800F026FE80B2029000BF029C40
:10E10000002C05D000BF002211462046FFF78CFAF4
:10E1100000BF00BF3A49012001F02EFA0028F9D1D2
:10E12000012460E1611EAA4A515C0811FFF70AFC54
:10E13000019001F045FA611EA54A505CFFF702FC10
:10E14000019001F03DFA2046E117C90E0918491166
:10E150004901611A2DD1601E9D49085CA11E9C4A8F
:10E16000515C0843E11E515C0843211F515C084388
:10E17000002800D13CE10D2001F022FA0A2001F034
:10E180001FFA01204002844202D04000844210D194
:10E1900009A161A001F0F2F84FA150A001F0EEF842
:10E1A000002807D14CA14DA001F0E8F8002801D1CA
:10E1B00024E616E10EE100004F4B000041540D0A29
:10E1C00000000000415445310D0A00005245414411
:10E1D0005900000041542B4350494E3F0D0A0000A6
:10E1E00041542B434C54533D310D0A004453543A8F
:10E1F0000000000041542B43434C4B3F0D0A0000EC
:10E20000D02C0020162800200C28002041542B433D
:10E210004C54533D300D0A00415445300D0A000066
:10E2200061742B6373710D0A0000000061742B632D
:10E23000676174743D310D0A0000000041542B43A6
:10E240004950435347503D312C22636D6E65742213
:10E250002C226775657374222C226775657374228E
:10E260000D0A000061742B435354540D0A00000042
:10E2700041542B43494943520D0A00002E0000002F
:10E2800041542B43494653520D0A000041542B433D
:10E290004950434C4F53453D310D0A003232300056
:10E2A00041542B43495053544152543D22544350FE
:10E2B000222C223135392E3232362E3235312E3162
:10E2C00031222C32350D0A0041542B434950535012
:10E2D00052543D310D0A00003E00000041542B43D2
:10E2E000495053454E440D0A00000000636F7265AB
:10E2F0006D61696C0000000065686C6F2068656C7A
:10E300006F0D0A1A00000000333334006175746821
:10E31000206C6F67696E0D0A1A00000059324E6B4F
:10E3200059773D3D0D0A1A003233350059324E6B94
:10E3300059324E7A6447356C64413D3D0D0A1A00EE
:10E34000323530004D41494C2046524F4D3A3C6CDD
:10E350007965406373746E65742E636E3E0D0A1AA0
:10E36000000000005243505420746F3A3C636364D1
:10E3700063406373746E65742E636E3E0D0A1A00FB
:10E3800033353400444154410D0A1A0041542B43A3
:10E390005245473D320D0A0041542B435245473FF9
:10E3A0000D0A00003E280020007500405375626A87
:10E3B0006563743A200000000D0A0D0A1A0000007F
:10E3C00041542B435245473D300D0A003028002070
:10E3D000D028002000BF2149012001F0CDF80028FD
:10E3E000F9D1601C84B201208002844200DC99E6ED
:10E3F00000BF1BA11B4800F0C1FF1BA119484838F2
:10E4000000F0BCFF002807D117A11648483800F0DB
:10E41000B5FF002800D1F1E400BF1049012001F050
:10E42000ABF80028F9D1781C87B210480088401E4C
:10E43000B84200DB52E60B491C310DA000F09EFFF4
:10E44000002808D000200949088005A1054898380F
:10E4500000F094FF00E0D1E400BFCFE4D02C002016
:10E460004F4B000024E301003E0000003E28002046
:10E470000D0A2E0D0A1A0000F8B529480078002868
:10E4800000D1F8BD27480068002801D1012000E034
:10E490000020054624480068002801D1012000E042
:10E4A0000020064600BF002D14D1684651DF044607
:10E4B000052C01D101250CE0002C06D000BF002264
:10E4C00011462046FFF7B0F803E0164900980968A6
:10E4D000884700BF002E1AD1144800880090694672
:10E4E0001348006861DF0446052C01D101260DE0C8
:10E4F000002C06D000BF002211462046FFF794F8FA
:10E5000004E00B48006808490968884700BF002DEF
:10E5100002D0002E00D000E0C5E700BF00BFB0E78A
:10E52000AC280020BC280020B8280020B4280020F7
:10E53000B02800200C48008CC0B2012812D10A4833
:10E54000808C0007000F00280CD10748806AF0215A
:10E550000840402806D10448C06A0840002801D17C
:10E56000012070470020FCE7C00F00F01948008C24
:10E57000C0B201282CD11748808C0007000F00285A
:10E5800026D11448806AF0210840002806D111489D
:10E59000C06A0840002801D1012070470D48806AF8
:10E5A000F0210840102806D10A48C06A0840002817
:10E5B00001D10120F1E70748806AF02108403028A6
:10E5C00006D10448C06A0840002801D10120E4E7D0
:10E5D0000020E2E7C00F00F001468807800F002806
:10E5E00001D1012070470020FCE70000FEB52B4858
:10E5F000006801902A480078009040E00098C00030
:10E60000284909684418257835E01820684361686E
:10E610000F18681CC5B2A078A84200D10025387830
:10E62000022802D0032823D10EE024217868484331
:10E630001D4909684618307D002804D0786801F02B
:10E64000CBF90020307514E00CE01449096824224D
:10E650005143154A12688818002101750F4A016A52
:10E66000116000BF0D480068401C0028EDD100E09B
:10E6700000BF00BF00BF6078A842C6D100BF0098AD
:10E68000411EC9B200910028B8D104480168019820
:10E69000814201D00120FEBD0020FCE7802800203F
:10E6A000782800207C28002074280020FEB507462A
:10E6B00043480068029043480078019071E0019857
:10E6C000C00041490968451863E0781C002807D05C
:10E6D0003E46242070433D4909684418276A29E0D2
:10E6E0002978182359436A6850182978491C2970D9
:10E6F0002978AA78914201D1002129704668242105
:10E700007143324A12688C180178012902D1217DA7
:10E71000002900D03DE08168A160C168E160016925
:10E7200021614169E1612A490978002901D000216C
:10E73000A16000BF2749A0680968401A0002000ACA
:10E740002549884208D22349A068096801F07EF86B
:10E75000E1684018606011E01E48A168006801F09F
:10E7600075F80090E1680098814204D9E16800984A
:10E77000081A606001E00020606000BF0020A06017
:10E78000E06001202075801E2062304601F0B6F85E
:10E7900000BF781C002898D128786978884294D1E5
:10E7A00000BF0198411EC9B20191002887D10448D9
:10E7B00001680298814201D00120FEBD0020FCE7E3
:10E7C00080280020782800207C2800207428002041
:10E7D0009928002084280020FFFF7F000EB502202A
:10E7E00000F070FD01F0DCF900F05CFA0121890213
:10E7F000684601816421418156480190564901A82B
:10E8000000F016FB04460320052109070722120227
:10E81000891888640521090789180862082000F012
:10E8200005F9122000F00AF90020172302461821EA
:10E83000009000F06BFE022048490880FFF7CAFAFA
:10E8400047A148A000F09AFD45A14AA000F096FD1E
:10E850004CA14EA000F092FD122000F0E7F800203D
:10E860004E49C8634E480068002804D14D4800F066
:10E87000BBF8FEF7C7FD00203849088000224B2175
:10E88000490449480068FEF797FF044600BF254643
:10E89000002D05D000BF002211462846FEF7C4FE19
:10E8A00000BF00BF41480078002845D00020404903
:10E8B0000860122000F0BAF8642000F095F81220E9
:10E8C00000F0BCF801203549C86300201723024638
:10E8D0001821009000F01AFEFFF77CFA1F4800880C
:10E8E000002815D01EA133A000F048FD00280FD04D
:10E8F00031A132A000F042FD002809D033A134A09C
:10E9000000F03CFD002803D015A133A000F036FD37
:10E9100013A114A000F032FD11A116A000F02EFDED
:10E9200018A11AA000F02AFD122000F07FF80020A4
:10E930001A49C8631D49087048DF044600BF2546D0
:10E94000002D05D000BF002211462846FEF76CFEC0
:10E95000A8E7000049DD0100302800203E28002003
:10E960004F4B000041542B434950534855540D0A16
:10E970000000000041542B43474154543D300D0AE0
:10E9800000000000504F57455200000041542B43F7
:10E99000504F57443D310D0A00000000C02F004089
:10E9A0000C2800201027000000280020412800200B
:10E9B000102800200D0A1A003E00000041542B438D
:10E9C000495053454E440D0A0000000032353000D6
:10E9D0000D0A2E0D0A1A000041542B434950434C96
:10E9E0004F53453D310D0A0001B505E00098401E2A
:10E9F00000900348FEF76EFB00980028F6D108BD92
:10EA0000E703000010B58A0005231B070724240232
:10EA10001B1984001A5110BD032105221207072378
:10EA20001B02D2188300D1507047000001218140A1
:10EA3000014AD1607047000000050050012181406B
:10EA4000014A9160704700000005005010B5084869
:10EA50000078012802D0022807D102E0FEF7D2FD9B
:10EA600004E003200249087000E000BF00BF10BDB1
:10EA70006C2800200B480078002802D003280DD114
:10EA800008E0042008490860012008490860054999
:10EA9000087004E002200349087000E000BF00BFD6
:10EAA000704700006C280020002500400020004036
:10EAB00010B509480078012807D0022804D003289F
:10EAC00006D1FEF79FFD04E000BFFEF76AFD00E0FF
:10EAD00000BF00BF10BD00006C28002010B5FEF77D
:10EAE00091FD10BD10B504462300FEF73DFD050461
:10EAF000070D0A101300FFF7A9FF0CE0FFF7BAFF9C
:10EB000009E0FFF7D5FF06E000F008F803E0FFF7A3
:10EB1000E5FF00E000BF00BF10BD000010B50348D6
:10EB20000078012801D1FEF741FD10BD6C280020BE
:10EB30003CB5034600BF20480078002801D10820DA
:10EB40003CBD00BF002B01D10E20F9E7002A01D106
:10EB50000E20F5E71868642805D218680001174CE4
:10EB60002058002801D10720EAE75C681868019462
:10EB70000090019C18680001104D4019008948431D
:10EB800020180190009800012C4600194089009C33
:10EB90002401641924896043009C24016419646879
:10EBA0000019019CA04201D80720C9E7019C0098E8
:10EBB000546010600020C3E75A2800204C31002028
:10EBC000F8B504460D4600BF27480078002801D15B
:10EBD0000820F8BD00BF002C01D10E20F9E7206805
:10EBE000642805D22068000120490858002801D176
:10EBF0000720EEE7206800011C4940184089216881
:10EC000009011A4A891809894843216809018918A4
:10EC1000496840186168884201D80720D9E76068D0
:10EC2000FFF7DAFC002801D11020D2E723681B018E
:10EC30000E4FDB1962685B68D01A226812013B46EE
:10EC4000D2181189FEF792FA002901D00720C0E7F7
:10EC500000202B460246214600900420FEF766FF66
:10EC600006463046B5E700005A2800204C31002007
:10EC700070B508484469601C002807D000F00CF803
:10EC8000054629462046FEF771FA70BD01200007AF
:10EC90004069FAE70010001001200007006980B207
:10ECA00070470000F8B5FEF78DFF00201E49088070
:10ECB000FFF7DEFF0546653DFFF7EEFF45431B48C6
:10ECC000056000201A49088000BF0DE00021020104
:10ECD000184B99500201D21811810201D21891816A
:10ECE0000201D2185181401C6428EFD30820124938
:10ECF0000870FFF7D1FF0090FFF7BAFF471EFFF73C
:10ED0000CBFF47433E4630460099FEF72FFA0546B3
:10ED100028DF0446002C04D10120084988700849E6
:10ED200008702046F8BD000050280020542800201C
:10ED3000582800204C3100205B2800208030002023
:10ED40005A280020FFB581B00C4615461E4600BF6C
:10ED500035480078002802D1082005B0F0BD00BF7A
:10ED6000002C01D10E20F8E70198002801D10E20D7
:10ED7000F3E72068642805D2206800012B49085871
:10ED8000002801D10720E8E7206800012749401842
:10ED9000408921680901254A891809894843216861
:10EDA00009018918496840186168884201D807201C
:10EDB000D3E7002D06D0206800011C4940180089C7
:10EDC000A84201DA0720C8E7A81921680901174AF3
:10EDD00089180989884201DD0720BEE70198FFF7FD
:10EDE000FBFB002804D03046FFF7F6FB002801D1DA
:10EDF0001020B2E76068FFF7EFFB002801D1102078
:10EE0000ABE7606881192A460198FEF7D9F90095A9
:10EE10002068000105490F58002203212046019B6C
:10EE2000B847002099E700005A2800204C31002004
:10EE3000F8B504460D4600BF4A480078002801D1C5
:10EE40000820F8BD00BF002C01D10E20F9E7002DED
:10EE500001D10E20F5E72068002801D10E20F0E74F
:10EE6000FFF71AFFA188884202DBA088102801DA88
:10EE70000720E6E7E08800281CD0FFF7F9FE471ED0
:10EE8000FFF70AFF4743E088A188484336490968ED
:10EE9000401887420ED3FFF7FFFEE188A288514356
:10EEA000884209DAFFF7F8FE0746A188FEF774F9F1
:10EEB000002901D00720C4E720798007800F0028AF
:10EEC00001D00720BDE729480088642801D104202B
:10EED000B7E726480088286023480068686023490F
:10EEE00009880901224A8918686848601F49098809
:10EEF000090120685050A0881C4909880901891817
:10EF00000881E08819490988090189184881002089
:10EF10000090A688E1884E4300BF0098401C80B254
:10EF20000090FFF7B9FEB04203D2FFF7B5FE361AE4
:10EF300000E00026FFF7B0FE0B49096840180A49B7
:10EF40000860002EE9D1094909880901084A891891
:10EF50000098888105480088401C044908800020EA
:10EF60006FE700005A280020542800205028002075
:10EF70004C310020F8B504460E4615461F4600BF2A
:10EF80002F480078002801D10820F8BD00BF002ECE
:10EF900001D10E20F9E7002C01D10E20F5E7206801
:10EFA000642805D22068000126490858002801D1AC
:10EFB0000720EAE7206800012249401840892168BB
:10EFC0000901204A891809894843216809018918DB
:10EFD000496840186168884201D80720D5E7002DAC
:10EFE00006D020680001174940180089A84201DABC
:10EFF0000720CAE7E81921680901124A8918098916
:10F00000884201DD0720C0E73046FFF7E5FA002817
:10F0100004D03846FFF7E0FA002801D11020B4E709
:10F020006068FFF7D9FA002801D11020ADE72B4620
:10F030003246214602200097FEF778FDA5E7000042
:10F040005A2800204C310020F0B585B00646002536
:10F050006A48807801287DD1002068498870684816
:10F060000078082819D1022E03D1002064490870C5
:10F0700002E0002063490870FEF724FD0546002DDC
:10F0800009D05E480078142250435C4A121D811852
:10F090002846FEF7CBFA05B0F0BD022E02D0032EB3
:10F0A0007ED183E055480078142148435349091D17
:10F0B000441855480088401C53490880207802288D
:10F0C00007D10846008880026188884201DB012060
:10F0D00000E0002003902078052805D148480078FA
:10F0E000072801D1012000E00020029020780428A8
:10F0F00005D143480078072801D1012000E0002015
:10F100000190207804280BD13F4800888002618854
:10F11000884205DB3A480078002801D1012000E050
:10F12000002000900298002808D10198002805D1FD
:10F130000098002802D10398002825D02F4807788E
:10F1400000202F490870304908802C484078401E24
:10F150002A4900E050E0487008460078401C0870DA
:10F16000084600780A2803DB084600780A38087049
:10F1700014207843214A121D81182846FEF756FABA
:10F180003846FEF7B5FC00BFFEF79CFC0546002D97
:10F190000BD01A48007814225043184A121D00E080
:10F1A00027E081182846FEF741FA23E0134800784B
:10F1B000142148431149091D44186078401CC0B20D
:10F1C0006070032809D1081F0078142250430A46B2
:10F1D00081180D20FEF72AFA0AE0FEF7BFFB05466C
:10F1E000002D05D0112D03D021462846FEF71EFA2A
:10F1F00000E000BF00BF00BF00BF4CE78030002030
:10F200005B2800205A280020582800200148406828
:10F21000704700000015014010B5044603488460A3
:10F2200003211120FEF7B2F810BD000000150140C7
:10F2300010B5012000040A49486009494039486076
:10F240001120FEF785F81120FEF78CF80120054902
:10F2500008602F20FDF75EFF01200349087010BDF4
:10F2600040130140001001409828002010B51120E3
:10F27000012181400E4A116000BF012000040D49A8
:10F2800088600C494039886001200B4948602F2074
:10F29000FDF740FF01200849886000200749086009
:10F2A0002F20FDF737FF00200549087010BD000032
:10F2B00080E100E04013014000100140842800205C
:10F2C00098280020F8B5054611DF044600BF264601
:10F2D000002E05D000BF002211463046FEF7A4F9EB
:10F2E00000BF00BF002348222149082000F08EF90A
:10F2F000064600BF3746002F05D000BF002211464A
:10F300003846FEF791F900BF00BF002000900021B1
:10F3100068464170057060DF044600BF2646002E37
:10F3200005D000BF002211463046FEF77DF900BF30
:10F33000104800F05FF9044600BF2646002E05D0B5
:10F3400000BF002211463046FEF76EF900BF0A48A2
:10F3500000F090F9044600BF2646002E05D000BFFD
:10F36000002211463046FEF75FF900BFF8BD0000ED
:10F37000D02D0020A5D8010041F80100F3B581B0DF
:10F38000074600200090002501E0681CC5B20298E5
:10F39000405D0028F9D1681EC5B200262C4600BF8A
:10F3A0002E49052000F0E8F80028F9D1FF210131AD
:10F3B0002A48FDF71EFF03E038787F1C00F000F9B3
:10F3C00038780028F8D12CE0032C15DD201F2349C4
:10F3D000085C452810D1E01E085C52280CD1A01E04
:10F3E000085C522808D1601E085C4F2804D10846EA
:10F3F000005D522800D11BE000260AE00298805DE3
:10F40000611B8919154A515C884200D003E0701CC9
:10F41000C6B2AE42F2DB00BFAE4200D108E0601CD3
:10F42000C4B20E4801190E4800F0A6F80028CBD14E
:10F4300000BFAE420DD10120009000BF2046621CEB
:10F44000D4B2064A8118012000F096F80028F5D1C0
:10F4500001E0002000900098FEBD0000D02C0020AC
:10F460001027000010B504460AE000BF0649052039
:10F4700000F082F80028F9D12078641C00F0A0F890
:10F4800020780028F1D110BDD02C0020F0B5024624
:10F490000C46002037E001238340194623460B40E9
:10F4A000002B2FD0D5680D40002D05D101235B0422
:10F4B000D5680D43D56004E003231B04D5688D4354
:10F4C000D56005252D0707263602AD198600AD59F2
:10F4D00003263604B5430526360707273F02F619EB
:10F4E0008700F55105252D0707263602AD19860040
:10F4F000AD591D430526360707273F02F619870039
:10F50000F55100BF401C2028C5D3F0BDF8B5074613
:10F510000C4615461E462046FFF77EFA002130466F
:10F52000FFF770FA1048C4604661069800280DD0B5
:10F530003846FFF771FA00212846FFF763FA0A48B8
:10F5400005618760012008494031C86207480649C3
:10F550004862042008600120054988600860002096
:10F5600004498860F8BD00000025004000509D005F
:10F57000002000400021004070B504460D460126E1
:10F580000AE02046641E002804DB7D20C000FDF751
:10F59000B1FD01E0002603E0074880680128F0D1B2
:10F5A00000BF002C05DB0020034988600348806908
:10F5B0002870304670BD000000210040002500404A
:10F5C0000549C86100BF0549C9690129FBD100216E
:10F5D000024AD16170470000002500400021004030
:10F5E00070B506460C46154629462046C046C0461C
:10F5F00070BD00000146002901D10E20704702486D
:10F6000001600020FAE70000B8280020FFB581B0B3
:10F610000C4616461F46002C02D1072005B0F0BD4F
:10F6200020468107890F002901D1012100E0002136
:10F63000002901D10720F1E7094804600948068044
:10F64000094807600949019810DF0546002D01D0DF
:10F650002846E3E701200649087016202EDFDDE783
:10F66000B0280020B4280020A8280020E1F50100DF
:10F67000AC2800200146002901D10E207047024825
:10F6800001600020FAE70000BC280020FFB583B02D
:10F690000446154603266948007800280BD1002D42
:10F6A00006D10698002803D102206449087002E0C0
:10F6B000012062490870614800780300FDF754FF9B
:10F6C00007B805203D6186A1B800FFF7E5FA80087C
:10F6D0000290FFF7E1FA049948430190FFF7C8FA56
:10F6E000471EFFF7D9FA474300973846029A019917
:10F6F00029DF0646002E02D102205049087098E00A
:10F70000049828DF0646002E16D1002D11D1069848
:10F7100000280AD12078042803D10720474908701F
:10F720000AE005204549087006E0042043490870B6
:10F7300002E00320414908707BE0FFF799FA471E79
:10F74000FFF7AAFA47430297FFF7A6FA049948433E
:10F750002A460190029929DF0646002E10D106980C
:10F7600000280AD12078042803D1062033490870E4
:10F7700006E005203149087002E004202F49087096
:10F7800057E0FFF775FA471EFFF786FA4743A800D0
:10F790003818618840180290FFF77EFA04994843B0
:10F7A000A9004018618840180190069A029929DF43
:10F7B0000646002E09D12078042803D106201F49CF
:10F7C000087002E005201D49087032E0FFF764FA76
:10F7D00004994843A900471860888208384621697F
:10F7E00029DF0646002E0BD1002D06D106980028F1
:10F7F00003D107201149087002E006200F49087064
:10F8000017E0FFF749FA0190FFF732FA471EFFF7BA
:10F8100043FA4743009738460199FDF7A7FC029049
:10F8200028DF0646002E02D107200449087000E0B8
:10F8300000BF00BF304607B0F0BD00005B280020CD
:10F8400010B504462046FFF7FFFB10BD0246501AD4
:10F850000002000A7047000070B504460D480068B9
:10F86000002812D00B4AE169A0691268904705464A
:10F8700000BF2E46002E06D000BF002211463046A3
:10F88000FDF7D2FE00BF00BF02E0A169E069884732
:10F8900070BD000094280020FEB50020C0430190F8
:10F8A00010480468104807686846FEF71BFA0546CA
:10F8B000FEF79CFE0646002D05D001AA21460098C1
:10F8C000FEF752FA01260198FEF7F0FE002800D05C
:10F8D0000126002E02D03846FEF78EF9002003499B
:10F8E0000870FEBD84280020802800209928002070
:10F8F00010B51420FDF740FD10BD0000F0B5024624
:10F9000024205043324B1B68C11832480068401C09
:10F91000002802D12F48026059E02E484B68006849
:10F92000242460432A4C246800194068834217D875
:10F930002848006824235843254B1B68C01840689A
:10F940004B68C31A2348006824246043204C246871
:10F95000001943601F48006808621E48026036E0D4
:10F960004B681C4D2C6828680DE024254543184E33
:10F970003668AD196D685B1B044624254543144E5B
:10F980003668AD19286A451C002D07D0242545434B
:10F990000F4E3668AD196D689D42E6D3451C002DAB
:10F9A0000CD0242545430A4E3668AD196D68EE1A11
:10F9B00024254543064F3F68ED196E604B60086291
:10F9C00024256543024E3668AD192A6200BFF0BD9A
:10F9D000742800208028002070B502462C4C216835
:10F9E000084609E0904200D109E00146242444433E
:10F9F000284D2D686419206A441C002CF2D100BFE8
:10FA0000441C002C00D170BD814217D1204C2468C9
:10FA100024256C431F4D2D686419246A1C4D2C60ED
:10FA20002C462468641C002C08D101241A4DAC60BB
:10FA300000241A4D2C600124194D2C7024244443B9
:10FA4000144D2D686419636824244443114D2D68B6
:10FA50006419256A24244C430E4E3668A419256285
:10FA600024244C430B4D2D686419206A441C002C3F
:10FA70000CD024244443074D2D6864196468E518AC
:10FA800024244443034E3668A419656000BFBAE7D6
:10FA900080280020742800200010014084280020C5
:10FAA00099280020FFB581B005460E461746E900AB
:10FAB000104A12688818694600F0C7F80446002CFE
:10FAC00002D1042005B0F0BD012020706660FFF770
:10FAD0009DFBA060E760049820610A986061E900DE
:10FAE000044A12688818009900F0C5F8FFF700FF73
:10FAF0000020E7E77C280020F8B520480068401C7B
:10FB000000283AD00027FFF781FB04461C48016813
:10FB10002046FFF79BFE06461848056811E02420A2
:10FB200068431849096844186068B04200D90BE07E
:10FB30006068361A6068C719256A2046FFF78CFE90
:10FB400000BF681C0028EAD100BF0F4800780F49A9
:10FB50000978884209D10D480078401CC0B20B4991
:10FB60000870022801D10020087008480078800041
:10FB700007490F50FFF7BCFE00BFF8BD80280020EA
:10FB8000842800207428002090280020912800203C
:10FB90008828002010B51120FDF7EEFB10BD0000F5
:10FBA000F8B500BF00201B4B052204210090FDF793
:10FBB0008BFD054600BF2E46002E05D000BF00225B
:10FBC00011463046FDF730FD00BF00BF124A01214B
:10FBD0001248FDF73FFD044600BF2546002D05D025
:10FBE00000BF002211462846FDF71EFD00BF0C4A4B
:10FBF00000210C48FDF72EFD044600BF2546002DD0
:10FC000005D000BF002211462846FDF70DFD00BFBC
:10FC1000F8BD0000182E00203DFD01000028002046
:10FC20007DFC01000428002010B5FEF72DF8012806
:10FC300002D0032804D101E0002403E0012401E004
:10FC4000022400BF00BF204610BD70B502460B461F
:10FC50005078411C9078884200D100211078884269
:10FC600001D1002070BD1960507818267043556886
:10FC70002C182046F6E74170704700007CB5064618
:10FC800087DF04462848007800280FD126484078AE
:10FC900000280BD124488078002807D12248C0785A
:10FCA000002803D12048007900282FD06A461F4839
:10FCB00001881F48FEF73CFF012189026846FEF7D4
:10FCC0007FFF044600BF2546002D05D000BF00225F
:10FCD00011462846FDF7A8FC00BF0023012292022E
:10FCE00011496846FFF746F9044600BF2546002D36
:10FCF00005D000BF002211462846FDF795FC00BF45
:10FD00000A480088401C0949088000BF094800686B
:10FD1000E1214901884206D904480088322802DDE1
:10FD20000120054908707CBDD02800203E28002015
:10FD3000302800201028002041280020F8B5074670
:10FD400034480068FF302D3032490860324800687E
:10FD5000FF302D303049086030480078002800D04E
:10FD6000F8BD012189022E48FDF743FA00202D49F4
:10FD700008802020FDF756FD2B4989684B2212018F
:10FD800051430846FF21FDF7F1F94100401885B2C3
:10FD90001920800128182549884200DAE0E7244824
:10FDA000008863282ADA2348007840084000214967
:10FDB000087008460078022188431E490870852093
:10FDC00040010881801E488100204860888187DFCB
:10FDD0000446184886DF044600BF2646002E05D09C
:10FDE00000BF002211463046FDF71EFC00BF002276
:10FDF000114912480068FDF7DFFC08E0064800687A
:10FE0000E1210901884202D901200449087000BF9C
:10FE1000A6E700000C280020102800204128002020
:10FE2000D02800201428002000750040740E000027
:10FE30003E280020C028002048810000042800201F
:10FE400060FE010000280020C000000084D50100F1
:10FE500020FF0100C0280020D016000094D501002A
:10FE60000000000000000000000000000000000092
:10FE700000000000000000001F003B005A00780056
:10FE80009700B500D400F300110130014E010000CD
:10FE90000000000000000000000000000000000062
:10FEA0000000000000000000000000000024F4003A
:10FEB0000000000000000000000000000000FFFF44
:10FEC0000100000000000000000000000000000031
:10FED0000000000000000000000000000000000022
:10FEE0000000000000000000000000000000000012
:10FEF0000000000000000000000000000000000002
:10FF000000000000000000000000000000000000F1
:10FF100000000000000000000000000000000000E1
:040000050001D0C165
:00000001FF
