:020000040001F9
:10D00000683F002035D101004FD1010051D101000E
:10D010000000000000000000000000000000000010
:10D0200000000000000000000000000053D10100DB
:10D03000000000000000000055D1010057D10100A0
:10D0400059D1010059D10100A5D4010059D10100E5
:10D0500059D101000000000075D201002DD201005D
:10D0600059D1010059D1010059D1010059D1010014
:10D0700059D1010059D1010059D1010059D1010004
:10D0800059D1010005D4010059D1010059D1010045
:10D090002DD4010059D1010035D4010059D101002E
:10D0A00059D1010059D1010000000000000000002A
:10D0B0000000000000000000000000000000000070
:10D0C0000348854600F0A0F8004800479DE60100AF
:10D0D000683F0020401E00BF00BF00BF00BF00BF70
:10D0E00000BF00BF00BF00BF00BF00BF00BFF1D145
:10D0F00070470000401E00BF00BF00BF00BF00BF60
:10D1000000BF00BF00BF00BF00BF00BF00BFF1D124
:10D1100070470000401E00BF00BF00BF00BF00BF3F
:10D1200000BF00BF00BF00BF00BF00BF00BFF1D104
:10D13000704700000321094802680A43026008485A
:10D1400002680A4302600748804707480047FEE735
:10D15000FEE7FEE7FEE7FEE7FEE7000024050040ED
:10D16000540500406DD40100C1D0010030B50B461C
:10D17000014600202022012409E00D46D5409D42B1
:10D1800005D31D469540491B254695404019154637
:10D19000521E002DF1DC30BD70B50024254600285C
:10D1A00001DA01244042002901DA01254942FFF752
:10D1B000DDFFAC4200D04042002C00D0494270BD9F
:10D1C00003460B439B0703D009E008C9121F08C0A0
:10D1D000042AFAD203E00B780370401C491C521E4B
:10D1E000F9D27047D2B201E00270401C491EFBD256
:10D1F00070470022F6E710B513460A460446194662
:10D20000FFF7F0FF204610BD064C0125064E05E055
:10D21000E36807CC2B430C3C98471034B442F7D357
:10D22000FFF752FF74FD010094FD010010B50D4899
:10D230000068002814D000200A4908600A48806865
:10D24000C4B20120094948604B21090161430846E5
:10D25000FF21FFF7A1FF410040180549088000BFEA
:10D2600010BD0000007100400075004000700040DB
:10D270004A280020F0B585B03048056900203049C3
:10D28000C863002654E0142070432E4909684418EE
:10D290000120B0402C4909680840002846D00020F1
:10D2A00002900190E068C043684021680840039004
:10D2B0002046039901F0E5FF204800696840216895
:10D2C000084004900498002818D004986840009002
:10D2D000E068C04300994840216808400746394645
:10D2E000204601F0CEFFA0680099884338400190A5
:10D2F0006068009908403840029000BFA068A843C9
:10D3000003990840019908430190606828400399F7
:10D3100008400299084302900199029808430028A6
:10D3200003D0226901990298904700BF701CC6B2D1
:10D33000064800788642A6DB05B0F0BD0005005027
:10D3400040610040A42800209C280020A128002043
:10D35000C206D20E01219140014A116070470000BF
:10D3600080E200E0C206D20E01219140014A116024
:10D370007047000000E100E0C206D20E012191409A
:10D38000014A11607047000000E200E010B500287B
:10D3900019DA1A4A03071B0F083B9B089B00D25857
:10D3A0008307DC0EFF23A3409A438B071B0E8407E1
:10D3B000E40EA3401A43114B0407240F083CA408B1
:10D3C000A4001A5118E00E4A03231B02D218830846
:10D3D0009B00D2588307DC0EFF23A3409A438B07A0
:10D3E0001B0E8407E40EA3401A43054B03242402BA
:10D3F0001B198408A4001A5110BD00001CED00E0A8
:10D4000000E100E010B5002007490860002106484F
:10D4100041608160C1600020034940390860486074
:10D4200002F0A2FB10BD00004011014010B502F057
:10D430004BFA10BD70B50C480068002810D00A489F
:10D4400000688047044600BF2546002D06D000BF77
:10D4500000221146284600F0D9F800BF00BF01E0C5
:10D4600000F06AFF70BD0000A828002010B500F091
:10D47000DDFF002805D0074807494860C813074961
:10D48000886100F0B7FF002802D0012004498860BD
:10D4900010BD0000DFFF07C000050040006C004029
:10D4A000000600401CB524488068002818D0234896
:10D4B000406804210840002812D000201E498860DE
:10D4C0001F488069C0B21F49088004216846017066
:10D4D0001C480178684601711B490968884700BFEC
:10D4E0001548C06900280BD01448406880210840C6
:10D4F000002805D000201049C861032001F05AFA25
:10D500000D48406A002816D00C48406801214902A5
:10D51000084000280FD0002007494862084880389A
:10D520000468046002206946087001946846064950
:10D530000968884700BF1CBD00210040002300404F
:10D54000002500405E2800206828002030B4744682
:10D55000641E2578641CAB4204D3635D5B00E31852
:10D5600030BC18471D46F8E702E008C8121F08C182
:10D57000002AFAD170477047002001E001C1121F54
:10D58000002AFBD1704710B500F01AF810BD00005A
:10D5900007480078022802D0012006498860064822
:10D5A00000780649C86102200149087070470000F0
:10D5B0006C280020002000405C280020002500404E
:10D5C0001CB501200549C86005490870032069465B
:10D5D000087068460349096888471CBD0020004060
:10D5E0006C280020682800200020054908700120D0
:10D5F0000449C86048600020034908607047000083
:10D600006C280020002000400025004000BFBFF330
:10D610004F8F04480449C860BFF34F8F00BF00BF5D
:10D62000FEE700000400FA0500ED00E0F8B505464D
:10D630000C462778A068000105490E5860880090C4
:10D640002A463946204608302369B047F8BD000015
:10D650002431002070B503460C46194800680028A4
:10D6600001D1082070BD002A01D10720FAE7002B64
:10D6700001D10720F6E700211CE024204843104D8B
:10D680002D68285C002814D10125242048430C4E25
:10D690003668355424204843094D2D68401944709C
:10D6A00024204843064D2D684019826119600020EE
:10D6B000D8E7491C034800788142DEDB0420D1E72B
:10D6C0007428002070280020FFB581B00E46174650
:10D6D0001C4620468107890F002901D1012100E065
:10D6E0000021002902D1072005B0F0BD002C01D196
:10D6F0000720F9E701F022FD26490A98086026482C
:10D7000006702648046000250CE0002124206843B0
:10D71000224A1268115424206843204A1268801853
:10D7200001756D1CB542F0DB242070430419032001
:10D730001B4908701B480460183400250CE0E90000
:10D74000184A12688818002101704170877044607F
:10D75000182179430C196D1C032DF0DB0020C04308
:10D7600011490860002011490870114908701420FF
:10D77000FFF7EEFD03211420FFF708FE1420FFF74A
:10D78000F1FD019801F0B0FC01F0A8FC0949086026
:10D790000020A9E794280020702800207428002089
:10D7A000782800207C280020802800209028002055
:10D7B0009128002084280020FEB504460D46164618
:10D7C00016480068002801D10820FEBD14480078E2
:10D7D000844201D2052D01D20720F6E724206043C0
:10D7E0000E490968085C012801D00820EDE72420D3
:10D7F00060430A49096840184078012801D1284649
:10D8000000E00020074602F002FA3B462A46214685
:10D810000096019002F05EF9D7E70000742800201E
:10D820007028002070B504460D480068002801D11A
:10D83000082070BD0B480078844201D30720F8E728
:10D840002420604306490968085C012801D00820AB
:10D85000EFE702F0DCF90546214602F065F9E8E75A
:10D86000742800207028002070B5044600BF042CE6
:10D8700001D1102400E04024012018494860200212
:10D880000821084316494860002016490860012015
:10D8900013490860002013490860012012490860FC
:10D8A000002501E0681CC5B20E480068002801D1BF
:10D8B000FF2DF7DB0A4989684B22120151430846C4
:10D8C000FF21FFF753FC4100401808490880012060
:10D8D0000549486000200249086070BD007300409F
:10D8E0000075004000710040007000404A28002090
:10D8F000FEB50446261D20881B2861D1207D812885
:10D900005DD131480088203001218902884256DAF1
:10D9100006200CE0421EF11C8A5C2B490B8809880A
:10D92000491C294F39802949CA54411EC8B20028D0
:10D93000F0DC05200CE021460F310A5C22490B88FF
:10D940000988491C204F39802049CA54411CC8B25B
:10D950001B28F0DB1E4800681C491B4A12888850AF
:10D9600019480088001D184908801A48008881B2AB
:10D970006A46194801F044F801988005800D002896
:10D9800002D1012015490870002320220F49684662
:10D9900001F058FA054600BF2B46002B05D000BF0A
:10D9A000002211461846FFF731FE00BF0948006803
:10D9B000401C0849086000200349088000BF00E0BF
:10D9C00000BF00BFFEBD000018280020D0280020A6
:10D9D0001428002044280020342800204828002053
:10D9E0000007000F0A2803DA01463031C8B202E00E
:10D9F00001463731C8B27047F0B587B00F27554898
:10DA00000078142148435349091D4418E5682078DB
:10DA1000022804D0042823D005287CD16AE020699C
:10DA200005904D48008886026088801B0690059806
:10DA300080190590A088801945190121890206984E
:10DA4000884206D2069882082846059929DF0746AB
:10DA500005E0FF2201322846059929DF07466FE0DD
:10DA6000A06800013D49401800890690A0680001A7
:10DA7000401840890590A068000140184068049053
:10DA80000498A84205D105990698484361888842C0
:10DA900002D0A06865280DD101F066F80146039018
:10DAA0002846FFF763FB2C4909884618304628DFD3
:10DAB00007461EE001F058F8014601902846FFF79E
:10DAC00055FB064601F050F87043281A8008039071
:10DAD00001F04AF8711C484361884919401A8008CE
:10DAE000029031462046029B039A01F0E7FD07466B
:10DAF00000BF25E001F038F8014604902846FFF702
:10DB000035FB064601F030F87043A1884919081A20
:10DB10008008069000E012E001F026F8711C4843EE
:10DB2000A188491962888918401A800805903146F1
:10DB30002046059B069A01F0C1FD074600E000BFA4
:10DB400000BF002F02D1012002498870384607B07B
:10DB5000F0BD00005830002058280020243100205B
:10DB600010B500240848407800280BDD064880786E
:10DB7000002807D1FFF740FF0446002C02D0112CEB
:10DB800000D10024204610BD58300020002314216D
:10DB900041430C4A53541421414389184B80642358
:10DBA0001421414389188B600023142141438918B3
:10DBB000CB601421414389180B611421414389181A
:10DBC0008B8070475C300020FFB581B00646174659
:10DBD0000024224840780A283CD0204800781F4979
:10DBE00049784018C4B20A2C02DB20460A38C4B275
:10DBF000142060431949091D0E540022142060436B
:10DC0000401842701420604340180761142060439C
:10DC10004118029805C8CA608860142161430F4A00
:10DC2000121D8918049848801421614389180A98A4
:10DC300088800025101F8078002805D1FFF7DCFEC2
:10DC40000546112D00D1002504484078401C0349A9
:10DC5000487000E00425284605B0F0BD583000208B
:10DC600010B5002008490880084908700849087064
:10DC700048708870002403E02046FFF787FF641C8B
:10DC80000A2CF9D310BD0000582800205B28002082
:10DC900058300020FEB51E480068401C002834D0D3
:10DCA0001B480068242148431A4909684018456800
:10DCB00001F014FA0190184804682146019801F017
:10DCC000DDFDC61C15480078002801D101F018FAC6
:10DCD000AE4201D2284600E0304604192402240A4C
:10DCE00020460F49086000BF01F0F8F90090019943
:10DCF000009801F0C3FDC71C2046019901F0BEFD4C
:10DD0000874201D901F07EFF01E001F017FAFEBD64
:10DD100080280020742800208428002098280020D3
:10DD20004015014010B514484068C105C90D0029CF
:10DD300020D00A46103A50B200280DDA0E4B1C33A0
:10DD40000407240F083CA408A4001B598407E40E10
:10DD5000E3401B069B0F0BE0084B032424021B1916
:10DD60008408A4001B598407E40EE3401B069B0FA4
:10DD7000D8B210BD0420FCE700ED00E000E100E0B7
:10DD8000014614480078144A127890421DD0114878
:10DD90000078401C0F4A107010460078022801D10C
:10DDA000002010700B48007880000C4A1058086062
:10DDB0000B4A086812688018094A1060104600680B
:10DDC0000002000A1060012070470020086000BFB8
:10DDD000FAE70000902800209128002088280020E1
:10DDE0008428002070B5049C044E45683668B5420E
:10DDF00002D10025024E357070BD00003C28002085
:10DE000040280020F0B50346002426E0164E366870
:10DE100024277E43154F3F68F01946689E4203D978
:10DE20004668F61A46601DE046689B1B4668341932
:10DE30000026466006750C4E35680B4F066A3E603C
:10DE40000669002E08D00E193602360A8660066969
:10DE5000C66016680662156000BF03480068401C73
:10DE60000028D3D100BFF0BD8028002074280020F6
:10DE7000F0B58FB0B4A1B5A001F08CF9B2A1B3A0F8
:10DE800001F088F9B0A1B3A001F084F9B3A1B5A065
:10DE900001F080F9002801D10FB0F0BDAAA1B4A013
:10DEA00001F078F9A8A1B5A001F074F9A6A1B7A076
:10DEB00001F070F9A4A1BFA001F06CF9A2A1C0A06B
:10DEC00001F068F9C1A1C2A001F064F99EA1C3A04C
:10DED00001F060F9C5A1C7A001F05CF9002806D1E6
:10DEE000C2A19BA001F056F9002800D1D4E796A169
:10DEF000CAA001F04FF9CDA1CDA001F04BF9D0A1FE
:10DF0000D2A001F047F9C9A1C9A001F043F9D3A1FA
:10DF1000D4A001F03FF9C5A1C5A001F03BF9CFA104
:10DF2000D4A001F037F9C1A1C1A001F033F9D4A107
:10DF3000D6A001F02FF9002800D1ADE7BBA1BCA00D
:10DF400001F028F9C5A1D6A001F024F9B7A1B8A025
:10DF500001F020F9C1A1DAA001F01CF9B3A1B4A02D
:10DF600001F018F9BDA1DDA001F014F9002800D1DD
:10DF700092E775A1DBA001F00DF973A1DCA001F01F
:10DF800009F9032605E0DD48805D05A98855701C68
:10DF9000C6B21B2EF7DB0420FFF766FCD849896860
:10DFA0004B22120151430846FF21FFF7DFF84100E1
:10DFB000401884B23B2108A8C1732013FFF710FD5D
:10DFC000014608A801742012FFF70AFD014608A8BF
:10DFD00041742105080EFFF703FD014608A881746E
:10DFE000E0B2FFF7FDFC014608A8C1740620FFF768
:10DFF0003BFCC34989684B22120151430846FF216B
:10E00000FFF7B4F84100401884B23B2108A801751D
:10E010002013FFF7E5FC014608A841752012FFF721
:10E02000DFFC014608A881752105080EFFF7D8FC22
:10E03000014608A8C175E0B2FFF7D2FC08A908762E
:10E040007AA17BA001F0A6F8AEA001F00FF903259C
:10E0500005E005A9485D01F001FA681CC5B2252D4F
:10E06000F7DB39A1AAA001F095F837A1AAA001F029
:10E0700091F86EA16EA001F08DF8012541E0A9484C
:10E080000088401B81B203AAA74800F0B9FC002019
:10E0900002900023202203A9A44800F0BBFD80B217
:10E0A0000290002710E0A149C95D0811FFF798FC14
:10E0B000019001F0D3F99D49C85DFFF791FC0190F3
:10E0C00001F0CCF9781C87B2202FECDB0D2001F099
:10E0D000C5F90A2001F0C2F92846E917090F091805
:10E0E00009110901691A0AD117A161A001F052F8BA
:10E0F000002800D109E04DA14DA001F04BF8681CAB
:10E1000085B2884800688542B9D300BF0EA15BA0E4
:10E1100001F040F8002813D044A145A001F03AF8DE
:10E1200000280DD008A182A001F034F8002807D003
:10E1300000207C49086004A128A001F02BF800E031
:10E14000AAE600BFA8E600004F4B000041540D0AAC
:10E1500000000000415445300D0A00005245414482
:10E160005900000041542B4350494E3F0D0A000016
:10E1700061742B6373710D0A0000000061742B63DE
:10E18000676174743D310D0A0000000041542B4357
:10E190004950435347503D312C22636D6E657422C4
:10E1A0002C226775657374222C226775657374223F
:10E1B0000D0A000061742B435354540D0A000000F3
:10E1C00041542B43494943520D0A00002E000000E0
:10E1D00041542B43494653520D0A000041542B43EE
:10E1E0004950434C4F53453D310D0A006373746EE3
:10E1F0006574000041542B43495053544152543DDF
:10E2000022544350222C223135392E3232362E32CE
:10E2100035312E3131222C32350D0A0041542B4339
:10E220004950535052543D310D0A00003E00000049
:10E2300041542B43495053454E440D0A0000000001
:10E24000636F72656D61696C0000000065686C6FDA
:10E250002068656C6F0D0A1A0000000053454E449B
:10E260000000000061757468206C6F67696E0D0AAC
:10E270001A00000059324E6B59773D3D0D0A1A00C5
:10E280007375636365737366756C000059324E6B0A
:10E2900059324E7A6447356C64413D3D0D0A1A008F
:10E2A0004D41494C2046524F4D3A3C6C7965406394
:10E2B00073746E65742E636E3E0D0A1A00000000C2
:10E2C0005243505420746F3A3C63636463406373F9
:10E2D000746E65742E636E3E0D0A1A0044415441FB
:10E2E0000D0A1A0041542B435245473D320D0A0096
:10E2F00041542B435245473F0D0A0000D02C0020CB
:10E30000007500405375626A6563743A200000002E
:10E310000D0A0D0A1A00000041542B435245473D97
:10E32000300D0A004428002034280020D028002086
:10E330000D0A2E0D0A1A0000F8B5294800780028A9
:10E3400000D1F8BD27480068002801D1012000E075
:10E350000020054624480068002801D1012000E083
:10E360000020064600BF002D14D1684651DF044648
:10E37000052C01D101250CE0002C06D000BF0022A5
:10E3800011462046FFF742F903E016490098096854
:10E39000884700BF002E1AD11448008800906946B3
:10E3A0001348006861DF0446052C01D101260DE009
:10E3B000002C06D000BF002211462046FFF726F9A8
:10E3C00004E00B48006808490968884700BF002D31
:10E3D00002D0002E00D000E0C5E700BF00BFB0E7CC
:10E3E000AC280020BC280020B8280020B428002039
:10E3F000B02800200C48008CC0B2012812D10A4875
:10E40000808C0007000F00280CD10748806AF0219B
:10E410000840402806D10448C06A0840002801D1BD
:10E42000012070470020FCE7C00F00F01948008C65
:10E43000C0B201282CD11748808C0007000F00289B
:10E4400026D11448806AF0210840002806D11148DE
:10E45000C06A0840002801D1012070470D48806A39
:10E46000F0210840102806D10A48C06A0840002858
:10E4700001D10120F1E70748806AF02108403028E7
:10E4800006D10448C06A0840002801D10120E4E711
:10E490000020E2E7C00F00F001468807800F002847
:10E4A00001D1012070470020FCE70000FEB52B4899
:10E4B000006801902A480078009040E00098C00071
:10E4C000284909684418257835E0182068436168B0
:10E4D0000F18681CC5B2A078A84200D10025387872
:10E4E000022802D0032823D10EE024217868484373
:10E4F0001D4909684618307D002804D0786801F06D
:10E5000083FA0020307514E00CE0144909682422D5
:10E510005143154A12688818002101750F4A016A93
:10E52000116000BF0D480068401C0028EDD100E0DC
:10E5300000BF00BF00BF6078A842C6D100BF0098EE
:10E54000411EC9B200910028B8D104480168019861
:10E55000814201D00120FEBD0020FCE78028002080
:10E56000782800207C28002074280020FEB507466B
:10E5700043480068029043480078019071E0019898
:10E58000C00041490968451863E0781C002807D09D
:10E590003E46242070433D4909684418276A29E013
:10E5A0002978182359436A6850182978491C29701A
:10E5B0002978AA78914201D1002129704668242146
:10E5C0007143324A12688C180178012902D1217DE9
:10E5D000002900D03DE08168A160C168E160016967
:10E5E00021614169E1612A490978002901D00021AE
:10E5F000A16000BF2749A0680968401A0002000A0C
:10E600002549884208D22349A068096801F036F9F3
:10E61000E1684018606011E01E48A168006801F0E0
:10E620002DF90090E1680098814204D9E1680098D2
:10E63000081A606001E00020606000BF0020A06058
:10E64000E06001202075801E2062304601F06EF9E6
:10E6500000BF781C002898D128786978884294D126
:10E6600000BF0198411EC9B20191002887D104481A
:10E6700001680298814201D00120FEBD0020FCE724
:10E6800080280020782800207C2800207428002082
:10E690009928002084280020FFFF7F0086B00120F9
:10E6A00047DF0320052109070722120289180861A4
:10E6B000042000F023F9142000F0E4F800221146B1
:10E6C000104600F031FF6049086060A000680590C6
:10E6D00005AB05AA01215C48006800F0A7FF0420F3
:10E6E00000F004F900205A49C86300BF0023482203
:10E6F0005849082000F0D8FE054600BF2B46002BE5
:10E7000005D000BF002211461846FEF77FFF00BF6C
:10E7100000BF00200490002168464174022101746A
:10E7200004A860DF044600BF2346002B05D000BFCD
:10E73000002211461846FEF769FF00BF464800F068
:10E74000A7FE044600BF2346002B05D000BF0022D1
:10E7500011461846FEF75AFF00BF404800F0D8FEA9
:10E76000044600BF2346002B05D000BF00221146FF
:10E770001846FEF74BFF00BF00F0FCF92021684669
:10E7800081811921C901C18135480290354902A80A
:10E7900000F0B6FA044601218902324800F078F907
:10E7A000044600BF2346002B05D000BF00221146BF
:10E7B0001846FEF72BFF00BF00BF00202A4B0522A2
:10E7C00003210090FEF780FF054600BF2B46002B7B
:10E7D00005D000BF002211461846FEF717FF00BF04
:10E7E00000BF224A01212248FEF734FF0446214A95
:10E7F00000212148FEF72EFF0446204A012120482F
:10E80000FEF728FF04460022052149041848006845
:10E81000FEF7D2FF044600BF2346002B05D000BF01
:10E82000002211461846FEF7F1FE00BF00BF48DF88
:10E83000044600BF2346002B05D000BF002211462E
:10E840001846FEF7E3FEF2E70C280020B9000000AE
:10E85000C02F0040D02D0020F1D8010071F8010038
:10E86000E5DD010034280020182E002001FD010004
:10E870000028002061FC01000428002005F30100AD
:10E880000828002001B505E00098401E00900348CC
:10E89000FEF720FC00980028F6D108BDE703000031
:10E8A00010B58A0005231B07072424021B198400C6
:10E8B0001A5110BD10B58A0005231B070724240236
:10E8C0001B1984001A5110BD0321052212070723CA
:10E8D0001B02D2188300D150704703210522120772
:10E8E00007231B02D2188300D150704701218140B9
:10E8F000014AD160704700000005005001218140AD
:10E90000014A9160704700000005005001218140DC
:10E91000014A9160704700000005005010B508489A
:10E920000078012802D0022807D102E0FEF75CFE41
:10E9300004E003200249087000E000BF00BF10BDE2
:10E940006C2800200B480078002802D003280DD145
:10E9500008E00420084908600120084908600549CA
:10E96000087004E002200349087000E000BF00BF07
:10E97000704700006C280020002500400020004067
:10E9800010B509480078012807D0022804D00328D0
:10E9900006D1FEF729FE04E000BFFEF7F4FD00E01B
:10E9A00000BF00BF10BD00006C28002010B5FEF7AE
:10E9B0001BFE10BD10B504462300FEF7C7FD05047D
:10E9C000070D0A101300FFF7A9FF0CE0FFF7BAFFCD
:10E9D00009E0FFF7D5FF06E000F008F803E0FFF7D5
:10E9E000E5FF00E000BF00BF10BD000010B5034808
:10E9F0000078012801D1FEF7CBFD10BD6C28002066
:10EA00003CB5034600BF20480078002801D108200B
:10EA10003CBD00BF002B01D10E20F9E7002A01D137
:10EA20000E20F5E71868642805D218680001174C15
:10EA30002058002801D10720EAE75C681868019493
:10EA40000090019C18680001104D4019008948434E
:10EA500020180190009800012C4600194089009C64
:10EA60002401641924896043009C240164196468AA
:10EA70000019019CA04201D80720C9E7019C009819
:10EA8000546010600020C3E75A2800202431002081
:10EA9000F8B504460D4600BF27480078002801D18C
:10EAA0000820F8BD00BF002C01D10E20F9E7206836
:10EAB000642805D22068000120490858002801D1A7
:10EAC0000720EEE7206800011C49401840892168B2
:10EAD00009011A4A891809894843216809018918D6
:10EAE000496840186168884201D80720D9E7606802
:10EAF000FFF7D2FC002801D11020D2E723681B01C8
:10EB00000E4FDB1962685B68D01A226812013B461F
:10EB1000D2181189FEF72AFB002901D00720C0E78F
:10EB200000202B460246214600900420FFF74CF8B7
:10EB300006463046B5E700005A2800202431002060
:10EB400070B508484469601C002807D000F00CF834
:10EB5000054629462046FEF709FB70BD0120000747
:10EB60004069FAE70010001001200007006980B238
:10EB700070470000F8B5FFF773F800201E490880C1
:10EB8000FFF7DEFF0546653DFFF7EEFF45431B48F7
:10EB9000056000201A49088000BF0DE00021020135
:10EBA000184B99500201D21811810201D21891819B
:10EBB0000201D2185181401C6428EFD30820124969
:10EBC0000870FFF7D1FF0090FFF7BAFF471EFFF76D
:10EBD000CBFF47433E4630460099FEF7C7FA05464D
:10EBE00028DF0446002C04D1012008498870084918
:10EBF00008702046F8BD000050280020542800204E
:10EC000058280020243100205B28002058300020A4
:10EC10005A280020FFB581B00C4615461E4600BF9D
:10EC200035480078002802D1082005B0F0BD00BFAB
:10EC3000002C01D10E20F8E70198002801D10E2008
:10EC4000F3E72068642805D2206800012B490858A2
:10EC5000002801D10720E8E7206800012749401873
:10EC6000408921680901254A891809894843216892
:10EC700009018918496840186168884201D807204D
:10EC8000D3E7002D06D0206800011C4940180089F8
:10EC9000A84201DA0720C8E7A81921680901174A24
:10ECA00089180989884201DD0720BEE70198FFF72E
:10ECB000F3FB002804D03046FFF7EEFB002801D11B
:10ECC0001020B2E76068FFF7E7FB002801D11020B1
:10ECD000ABE7606881192A460198FEF771FA009542
:10ECE0002068000105490F58002203212046019B9E
:10ECF000B847002099E700005A280020243100205E
:10ED0000F8B504460D4600BF4A480078002801D1F6
:10ED10000820F8BD00BF002C01D10E20F9E7002D1E
:10ED200001D10E20F5E72068002801D10E20F0E780
:10ED3000FFF71AFFA188884202DBA088102801DAB9
:10ED40000720E6E7E08800281CD0FFF7F9FE471E01
:10ED5000FFF70AFF4743E088A1884843364909681E
:10ED6000401887420ED3FFF7FFFEE188A288514387
:10ED7000884209DAFFF7F8FE0746A188FEF70CFA89
:10ED8000002901D00720C4E720798007800F0028E0
:10ED900001D00720BDE729480088642801D104205C
:10EDA000B7E7264800882860234800686860234940
:10EDB00009880901224A8918686848601F4909883A
:10EDC000090120685050A0881C4909880901891848
:10EDD0000881E088194909880901891848810020BB
:10EDE0000090A688E1884E4300BF0098401C80B286
:10EDF0000090FFF7B9FEB04203D2FFF7B5FE361A16
:10EE000000E00026FFF7B0FE0B49096840180A49E8
:10EE10000860002EE9D1094909880901084A8918C2
:10EE20000098888105480088401C0449088000201B
:10EE30006FE700005A2800205428002050280020A6
:10EE400024310020F8B504460E4615461F4600BF83
:10EE50002F480078002801D10820F8BD00BF002EFF
:10EE600001D10E20F9E7002C01D10E20F5E7206832
:10EE7000642805D22068000126490858002801D1DD
:10EE80000720EAE7206800012249401840892168EC
:10EE90000901204A8918098948432168090189180C
:10EEA000496840186168884201D80720D5E7002DDD
:10EEB00006D020680001174940180089A84201DAED
:10EEC0000720CAE7E81921680901124A8918098947
:10EED000884201DD0720C0E73046FFF7DDFA002851
:10EEE00004D03846FFF7D8FA002801D11020B4E743
:10EEF0006068FFF7D1FA002801D11020ADE72B465A
:10EF00003246214602200097FEF75EFEA5E700008C
:10EF10005A28002024310020F0B585B0064600258F
:10EF20006A48807801287DD1002068498870684847
:10EF30000078082819D1022E03D1002064490870F6
:10EF400002E0002063490870FEF70AFE0546002D26
:10EF500009D05E480078142250435C4A121D811883
:10EF60002846FEF763FB05B0F0BD022E02D0032E4B
:10EF70007ED183E055480078142148435349091D48
:10EF8000441855480088401C5349088020780228BE
:10EF900007D10846008880026188884201DB012091
:10EFA00000E0002003902078052805D1484800782B
:10EFB000072801D1012000E00020029020780428D9
:10EFC00005D143480078072801D1012000E0002046
:10EFD0000190207804280BD13F4800888002618886
:10EFE000884205DB3A480078002801D1012000E082
:10EFF000002000900298002808D10198002805D12F
:10F000000098002802D10398002825D02F480778BF
:10F0100000202F490870304908802C484078401E55
:10F020002A4900E050E0487008460078401C08700B
:10F03000084600780A2803DB084600780A3808707A
:10F0400014207843214A121D81182846FEF7EEFA53
:10F050003846FEF79BFD00BFFEF782FD0546002DFA
:10F060000BD01A48007814225043184A121D00E0B1
:10F0700027E081182846FEF7D9FA23E013480078E4
:10F08000142148431149091D44186078401CC0B23E
:10F090006070032809D1081F0078142250430A46E3
:10F0A00081180D20FEF7C2FA0AE0FEF7A5FC05461E
:10F0B000002D05D0112D03D021462846FEF7B6FAC3
:10F0C00000E000BF00BF00BF00BF4CE75830002089
:10F0D0005B2800205A28002058280020014840685A
:10F0E000704700000015014010B5044603488460D5
:10F0F00003211120FEF74AF910BD00000015014060
:10F1000010B5012000040A494860094940394860A7
:10F110001120FEF71DF91120FEF724F90120054901
:10F1200008602F20FDF7F6FF01200349087010BD8D
:10F1300040130140001001409828002010B5112014
:10F14000012181400E4A116000BF012000040D49D9
:10F1500088600C494039886001200B4948602F20A5
:10F16000FDF7D8FF012008498860002007490860A2
:10F170002F20FDF7CFFF00200549087010BD0000CB
:10F1800080E100E04013014000100140842800208D
:10F1900098280020F3B581B0074600200090002594
:10F1A00001E0681CC5B20298405D0028F9D1681ED4
:10F1B000C5B200262C46FF2101312A48FEF719F876
:10F1C00003E038787F1C00F049F938780028F8D13E
:10F1D0002CE0032C15DD201F2249085C452810D1A6
:10F1E000E01E085C52280CD1A01E085C522808D1F1
:10F1F000601E085C4F2804D10846005D522800D1EB
:10F200001BE000260AE00298805D611B8919154AFF
:10F21000515C884200D003E0701CC6B2AE42F2DB03
:10F2200000BFAE4200D108E0601CC4B20D48011915
:10F230000D4800F0EFF80028CBD100BFAE420DD151
:10F240000120009000BF2046621CD4B2054A8118FC
:10F25000012000F0DFF80028F5D101E00020009047
:10F260000098FEBDD02C00201027000010B50446E9
:10F2700003E02078641C00F0F1F820780028F8D131
:10F2800010BDF0B502460C46002037E00123834054
:10F29000194623460B40002B2FD0D5680D40002D7A
:10F2A00005D101235B04D5680D43D56004E0032339
:10F2B0001B04D5688D43D56005252D07072636022A
:10F2C000AD198600AD5903263604B5430526360729
:10F2D00007273F02F6198700F55105252D07072658
:10F2E0003602AD198600AD591D430526360707279E
:10F2F0003F02F6198700F55100BF401C2028C5D3F6
:10F30000F0BD000038B504460420FFF7EFFA642092
:10F31000FFF7B8FA0420FFF7F1FA01201149C8639A
:10F320000020092302460821009000F03DF8FEF776
:10F330009FFD0DA10DA0FFF72DFF0BA10FA0FFF763
:10F3400029FF12A113A0FFF725FF0420FFF7CEFA33
:10F35000012189021348FDF74CFF00200149C863D1
:10F3600038BD0000C02F00404F4B000041542B43DC
:10F370004950534855540D0A0000000041542B4396
:10F38000474154543D300D0A00000000504F57458E
:10F390005200000041542B43504F57443D310D0A59
:10F3A00000000000D0280020F8B507460C4615469E
:10F3B0001E462046FFF791FA00213046FFF77AFA01
:10F3C0001048C4604661069800280DD03846FFF703
:10F3D00084FA00212846FFF76DFA0A480561876024
:10F3E000012008494031C8620748064948620420A4
:10F3F0000860012005498860086000200449886091
:10F40000F8BD00000025004000509D000020004095
:10F410000021004070B504460D4601260AE0204652
:10F42000641E002804DB7D20C000FDF763FE01E0C0
:10F43000002603E0074880680128F0D100BF002CB7
:10F4400005DB002003498860034880692870304646
:10F4500070BD000000210040002500400549C86142
:10F4600000BF0549C9690129FBD10021024AD161C8
:10F4700070470000002500400021004070B506469E
:10F480000C46154629462046C046C04670BD0000C1
:10F490000146002901D10E2070470248016000207A
:10F4A000FAE70000B8280020FFB581B00C461646E8
:10F4B0001F46002C02D1072005B0F0BD2046810771
:10F4C000890F002901D1012100E00021002901D18B
:10F4D0000720F1E7094804600948068009480760E9
:10F4E0000949019810DF0546002D01D02846E3E7C1
:10F4F00001200649087016202EDFDDE7B028002025
:10F50000B4280020A82800207DF40100AC280020A9
:10F510000146002901D10E207047024801600020F9
:10F52000FAE70000BC280020F7B506460F46002E7B
:10F5300001D13C4800E03C480446002E1FD1022087
:10F54000FFF7C2F90120FFF7BFF900210846FFF7D6
:10F55000A7F91D20FFF7B8F902200521090261185B
:10F5600088600120052109026118C860002005217A
:10F570000902611808611D20FFF7C8F91EE002208A
:10F58000FFF7A2F90120FFF79FF900210846FFF7D6
:10F5900087F91C20FFF798F902200521090261185C
:10F5A00088600120052109026118C860002005213A
:10F5B0000902611808611C20FFF7A8F90120000763
:10F5C0000521090261184862002F06D0012F06D0DC
:10F5D000022F06D0032F08D105E0002507E0022501
:10F5E00005E0042503E0062501E0002500BF00BF7B
:10F5F0000298002806D0012028430521090261183D
:10F60000486503E005200002201845650021FF2021
:10F6100009300151012005210902611808602046C6
:10F62000FEBD00000030004000400040FFB581B04A
:10F6300000270026019D1F48019D854201D11D2400
:10F6400000E01C2400BF0120A0401B49C86000BF8F
:10F6500027E00398805D052109026918C86100E070
:10F660007F1CFF2009304059002803D103200003EC
:10F670008742F5D303200003874205D12046FFF7D8
:10F6800045F9002005B0F0BD0021FF2009304151AF
:10F690000520000228188069C1B204988155701CA9
:10F6A00086B202988642D4DB2046FFF72FF901206C
:10F6B000E8E700000030004000050050FFB583B0CF
:10F6C0000446154603266948007800280BD1002D12
:10F6D00006D10698002803D102206449087002E090
:10F6E000012062490870614800780300FDF72EFF91
:10F6F00007B805203D6186A1B800FFF735FA8008FC
:10F700000290FFF731FA049948430190FFF718FA85
:10F71000471EFFF729FA474300973846029A019996
:10F7200029DF0646002E02D102205049087098E0D9
:10F73000049828DF0646002E16D1002D11D1069818
:10F7400000280AD12078042803D1072047490870EF
:10F750000AE005204549087006E004204349087086
:10F7600002E00320414908707BE0FFF7E9F9471EFA
:10F77000FFF7FAF947430297FFF7F6F90499484370
:10F780002A460190029929DF0646002E10D10698DC
:10F7900000280AD12078042803D1062033490870B4
:10F7A00006E005203149087002E004202F49087066
:10F7B00057E0FFF7C5F9471EFFF7D6F94743A80002
:10F7C0003818618840180290FFF7CEF90499484331
:10F7D000A9004018618840180190069A029929DF13
:10F7E0000646002E09D12078042803D106201F499F
:10F7F000087002E005201D49087032E0FFF7B4F9F7
:10F8000004994843A900471860888208384621694E
:10F8100029DF0646002E0BD1002D06D106980028C0
:10F8200003D107201149087002E006200F49087033
:10F8300017E0FFF799F90190FFF782F9471EFFF7EC
:10F8400093F94743009738460199FDF78FFC0290E2
:10F8500028DF0646002E02D107200449087000E088
:10F8600000BF00BF304607B0F0BD00005B2800209D
:10F8700010B504462046FFF74FFB10BD0246501A54
:10F880000002000A7047000070B504460D48006889
:10F89000002812D00B4AE169A0691268904705461A
:10F8A00000BF2E46002E06D000BF00221146304673
:10F8B000FDF7ACFE00BF00BF02E0A169E069884728
:10F8C00070BD000094280020FEB50020C0430190C8
:10F8D00010480468104807686846FEF751FA054664
:10F8E000FEF7E4FD0646002D05D001AA214600984A
:10F8F000FEF788FA01260198FEF738FE002800D0AE
:10F900000126002E02D03846FEF7C4F90020034934
:10F910000870FEBD8428002080280020992800203F
:10F9200010B51420FDF728FD10BD0000F0B502460B
:10F9300024205043324B1B68C11832480068401CD9
:10F94000002802D12F48026059E02E484B68006819
:10F95000242460432A4C246800194068834217D845
:10F960002848006824235843254B1B68C01840686A
:10F970004B68C31A2348006824246043204C246841
:10F98000001943601F48006808621E48026036E0A4
:10F990004B681C4D2C6828680DE024254543184E03
:10F9A0003668AD196D685B1B044624254543144E2B
:10F9B0003668AD19286A451C002D07D0242545431B
:10F9C0000F4E3668AD196D689D42E6D3451C002D7B
:10F9D0000CD0242545430A4E3668AD196D68EE1AE1
:10F9E00024254543064F3F68ED196E604B60086261
:10F9F00024256543024E3668AD192A6200BFF0BD6A
:10FA0000742800208028002070B502462C4C216804
:10FA1000084609E0904200D109E00146242444430D
:10FA2000284D2D686419206A441C002CF2D100BFB7
:10FA3000441C002C00D170BD814217D1204C246899
:10FA400024256C431F4D2D686419246A1C4D2C60BD
:10FA50002C462468641C002C08D101241A4DAC608B
:10FA600000241A4D2C600124194D2C702424444389
:10FA7000144D2D686419636824244443114D2D6886
:10FA80006419256A24244C430E4E3668A419256255
:10FA900024244C430B4D2D686419206A441C002C0F
:10FAA0000CD024244443074D2D6864196468E5187C
:10FAB00024244443034E3668A419656000BFBAE7A6
:10FAC0008028002074280020001001408428002095
:10FAD00099280020FFB581B005460E461746E9007B
:10FAE000104A12688818694600F0A2F80446002CF3
:10FAF00002D1042005B0F0BD012020706660FFF740
:10FB0000EDFAA060E760049820610A986061E9005E
:10FB1000044A12688818009900F0A0F8FFF700FF67
:10FB20000020E7E77C280020F8B504460E46E100F7
:10FB30000C4A12688818694600F07AF80546002DCC
:10FB400001D10420F8BD022028706E60E100054A52
:10FB500012688818009900F081F8FFF7E1FE002094
:10FB6000F0E700007C280020F8B520480068401C21
:10FB700000283AD00027FFF7B1FA04461C48016874
:10FB80002046FFF77BFE06461848056811E0242052
:10FB900068431849096844186068B04200D90BE00E
:10FBA0006068361A6068C719256A2046FFF76CFE40
:10FBB00000BF681C0028EAD100BF0F4800780F4939
:10FBC0000978884209D10D480078401CC0B20B4921
:10FBD0000870022801D100200870084800788000D1
:10FBE00007490F50FFF79CFE00BFF8BD802800209A
:10FBF00084280020742800209028002091280020CC
:10FC00008828002010B51120FDF7B6FB10BD10B5F7
:10FC1000FEF788F8012802D0032804D101E000246F
:10FC200003E0012401E0022400BF00BF204610BD14
:10FC300070B502460B465078411C9078884200D13E
:10FC400000211078884201D1002070BD19605078E1
:10FC50001826704355682C182046F6E74170704707
:10FC60007CB5064687DF0446012500BF2346002BEE
:10FC700005D000BF002211461846FDF7C7FC00BFA3
:10FC80001B48007800281DD01A4800884009401CF5
:10FC90004005010C6A461848FEF7B2FE01218902B0
:10FCA0006846FEF7F5FE044600BF2346002B05D04C
:10FCB00000BF002211461846FDF7A8FC00BF002037
:10FCC0000B4908700B4800686321490188420DD92F
:10FCD0000A480068FDF7A6FD0020FFF713FB00228D
:10FCE0000521490405480068FDF766FD7CBD00005C
:10FCF0004828002044280020342800200028002024
:10FD000070B505461748007840084000154908704E
:10FD10000846007802218843124908708520400176
:10FD20000881801E488100204860888187DF044662
:10FD30000C4886DF044600BF2346002B05D000BFD9
:10FD4000002211461846FDF761FC00BF0648006816
:10FD50001430054908600022044905480068FDF791
:10FD60002BFD70BDC0280020142800204881000011
:10FD70000428002094FD010000280020C00000009D
:10FD800068D5010054FE0100C0280020A81600001C
:10FD900078D5010000000000000000000000000015
:10FDA0000000000000000000000000000000000053
:10FDB0001F003B005A0078009700B500D400F30004
:10FDC000110130014E0100000000000000000000A1
:10FDD0000000000000000000000000000000000023
:10FDE0000024F400000000000000000000000000FB
:10FDF0000000FFFF01000000000000000000000004
:10FE000000000000000000000000000000000000F2
:10FE100000000000000000000000000000000000E2
:10FE200000000000000000000000000000000000D2
:10FE300000000000000000000000000000000000C2
:10FE400000000000000000000000000000000000B2
:04FE500000000000AE
:040000050001D0C165
:00000001FF
