:020000040001F9
:10800000F03F0020358101004F81010051810100C6
:108010000000000000000000000000000000000060
:10802000000000000000000000000000538101007B
:108030000000000000000000558101005781010090
:1080400059810100598101005981010059810100C4
:108050005981010000000000598101002D820100BA
:1080600059810100598101005981010059810100A4
:108070005981010059810100598101005981010094
:108080005981010045830100598101005981010096
:108090006D83010059810100758301005981010040
:1080A000598101005981010000000000000000001A
:1080B00000000000000000000000000000000000C0
:1080C0000348854600F0A0F800480047FD950100F0
:1080D000F03F0020401E00BF00BF00BF00BF00BF38
:1080E00000BF00BF00BF00BF00BF00BF00BFF1D195
:1080F00070470000401E00BF00BF00BF00BF00BFB0
:1081000000BF00BF00BF00BF00BF00BF00BFF1D174
:1081100070470000401E00BF00BF00BF00BF00BF8F
:1081200000BF00BF00BF00BF00BF00BF00BFF1D154
:10813000704700000321094802680A4302600848AA
:1081400002680A4302600748804707480047FEE785
:10815000FEE7FEE7FEE7FEE7FEE70000240500403D
:1081600054050040AD830100C180010030B50B46CD
:10817000014600202022012409E00D46D5409D4201
:1081800005D31D469540491B254695404019154687
:10819000521E002DF1DC30BD70B5002425460028AC
:1081A00001DA01244042002901DA01254942FFF7A2
:1081B000DDFFAC4200D04042002C00D0494270BDEF
:1081C00003460B439B0703D009E008C9121F08C0F0
:1081D000042AFAD203E00B780370401C491C521E9B
:1081E000F9D27047D2B201E00270401C491EFBD2A6
:1081F00070470022F6E710B513460A4604461946B2
:10820000FFF7F0FF204610BD064C0125064E05E0A5
:10821000E36807CC2B430C3C98471034B442F7D3A7
:10822000FFF752FF88AB0100A8AB010010B50D4865
:108230000068002814D000200A4908600A488068B5
:10824000C4B20120094948604B2109016143084635
:10825000FF21FFF7A1FF410040180549088000BF3A
:1082600010BD00000071004000750040007000402B
:1082700048280020C206D20E01219140014A116017
:108280007047000080E200E0C206D20E012191405A
:10829000014A11607047000000E100E0C206D20E02
:1082A00001219140014A11607047000000E200E0A6
:1082B00010B5002819DA1A4A03071B0F083B9B0860
:1082C0009B00D2588307DC0EFF23A3409A438B0701
:1082D0001B0E8407E40EA3401A43114B0407240F1E
:1082E000083CA408A4001A5118E00E4A03231B02FC
:1082F000D21883089B00D2588307DC0EFF23A340CB
:108300009A438B071B0E8407E40EA3401A43054BC8
:10831000032424021B198408A4001A5110BD000074
:108320001CED00E000E100E0BFF34F8F034804497B
:10833000C860BFF34F8F00BFFEE700000400FA05DE
:1083400000ED00E010B50020074908600021064854
:1083500041608160C1600020034940390860486085
:1083600002F00CFB10BD00004011014010B502F0FE
:10837000D5F910BD70B50C480068002810D00A4827
:1083800000688047044600BF2546002D06D000BF88
:1083900000221146284600F042F800BF00BF01E06D
:1083A00000F07AFF70BD00008828002010B500F0B2
:1083B000EDFF002805D0074807494860C813074962
:1083C000886100F0C7FF002802D0012004498860BE
:1083D00010BD0000DFFF07C000050040006C00403A
:1083E0000006004030B47446641E2578641CAB421D
:1083F00004D3635D5B00E31830BC18471D46F8E703
:1084000002E008C8121F08C1002AFAD1704770475D
:10841000002001E001C1121F002AFBD17047FFF7C5
:1084200083FF0000F8B5044617480078142148433C
:108430001549091D0E5C081F007814214843124994
:10844000091D40188068000110490D580E48007839
:10845000142148430C49091D40184088091F009009
:10846000097814225143084A121D89180B69111FFB
:10847000097814225143044A121D8918084608300D
:1084800022463146A847F8BDE4300020B031002034
:1084900070B503460C4619480068002801D1082031
:1084A00070BD002A01D10720FAE7002B01D1072077
:1084B000F6E700211CE024204843104D2D68285C7D
:1084C000002814D10125242048430C4E3668355429
:1084D00024204843094D2D68401944702420484306
:1084E000064D2D684019826119600020D8E7491CAB
:1084F000034800788142DEDB0420D1E760280020B9
:108500005C280020FFB581B00E4617461C46204669
:108510008107890F002901D1012100E000210029F4
:1085200002D1072005B0F0BD002C01D10720F9E7EA
:1085300001F022FD26490A98086026480670264860
:10854000046000250CE0002124206843224A1268C0
:10855000115424206843204A1268801801756D1C4C
:10856000B542F0DB24207043041903201B49087036
:108570001B480460183400250CE0E900184A126812
:108580008818002101704170877044601821794378
:108590000C196D1C032DF0DB0020C043114908604D
:1085A000002011490870114908701420FFF762FE7D
:1085B00003211420FFF77CFE1420FFF765FE0198CD
:1085C00001F0B0FC01F0A8FC094908600020A9E70F
:1085D000802800205C2800206028002064280020DB
:1085E000682800206C2800207C2800207D2800209E
:1085F00070280020FEB504460D4616461648006851
:10860000002801D10820FEBD14480078844201D220
:10861000052D01D20720F6E7242060430E490968A2
:10862000085C012801D00820EDE7242060430A49B6
:10863000096840184078012801D1284600E0002050
:10864000074602F0EEF93B462A4621460096019085
:1086500002F06AF9D7E70000602800205C280020BB
:1086600070B5044600BF042C01D1102400E0402462
:108670000120184948602002082108431649486033
:1086800000201649086001201349086000201349A2
:108690000860012012490860002501E0681CC5B28D
:1086A0000E480068002801D1FF2DF7DB0A498968D0
:1086B0004B22120151430846FF21FFF757FD4100AD
:1086C00040180849088001200549486000200249F7
:1086D000086070BD007300400075004000710040EC
:1086E000007000404828002070B5021D01881B2939
:1086F00037D1017D812933D11B49098820310123DC
:108700009B0299422CDA06210CE04C1ED31C1C5D06
:10871000154B1D881B885B1C134E3380134B5C5517
:108720004B1ED9B20029F0DC05210CE003460F33C3
:108730005C5C0D4B1D881B885B1C0B4E33800B4B08
:108740005C554B1CD9B21B29F0DB09490968074B62
:10875000054C2488195104490988091D024B1980C8
:1087600000BF00BF70BD000018280020AC2800200A
:10877000142800200007000F0A2803DA01463031D0
:10878000C8B202E001463731C8B27047F0B585B0D3
:108790000F2758480078142148435649091D4418AA
:1087A000E5682078022804D0042823D005286FD15A
:1087B0006FE0206903905048008886026088801B23
:1087C0000490039880190390A0888019451901210D
:1087D00089020498884206D20498820828460399A0
:1087E00021DF074605E0FF2201322846039921DFF9
:1087F000074676E0A06800014049401800890490CF
:10880000A0680001401840890390A068000140184A
:10881000406802900298A84205D103990498484301
:108820006188884202D0A06865280DD10120000728
:10883000006981B22846FFF799FC2F49098846183C
:10884000304620DF074622E001200007006981B2A0
:108850002846FFF78BFC064601200007006980B21E
:108860007043281A8008019001200007006980B237
:10887000711C484361884919401A800800903146AC
:108880002046009B019A01F0F7FD074600BF28E053
:1088900026E001200007006981B22846FFF766FC48
:1088A0000646A088411901200007006980B2704384
:1088B000081A80080490A088401961884218012095
:1088C0000007006980B2711C4843801A8008039039
:1088D00031462046039B049A01F0CEFD074600E096
:1088E00000BF00BF002F02D1012002498870384626
:1088F00005B0F0BDE430002058280020B031002041
:1089000010B5002406484078002807DDFFF73EFF39
:108910000446002C02D0112C00D10024204610BDAA
:10892000E43000200023142141430C4A5354142105
:10893000414389184B8064231421414389188B607B
:108940000023142141438918CB6014214143891825
:108950000B611421414389188B807047E830002057
:10896000FFB581B0064617460024204840780A2803
:1089700037D01E4800781D4949784018C4B20A2CE7
:1089800002DB20460A38C4B2142060431749091D8F
:108990000E541420604340180761142060434118AE
:1089A000029805C8CA608860142060430F4A121DEF
:1089B0008018049941801420604380180A998180AE
:1089C0000025101F8078002805D1FFF7DFFE05463F
:1089D000112D00D1002505484078401C03494870FE
:1089E00000E00425284605B0F0BD0000E43000207A
:1089F00010B5002008490880084908700849087027
:108A000048708870002403E02046FFF78BFF641C49
:108A10000A2CF9D310BD0000582800205B28002044
:108A2000E4300020FEB51E480068401C002834D009
:108A30001B480068242148431A49096840184568C2
:108A400001F06AFA0190184804682146019801F083
:108A50003FFEC61C15480078002801D101F06EFACF
:108A6000AE4201D2284600E0304604192402240A0E
:108A700020460F49086000BF01F04EFA00900199AE
:108A8000009801F025FEC71C2046019901F020FE48
:108A9000874201D901F0C0FF01E001F06DFAFEBD8F
:108AA0006C280020602800207028002084280020E6
:108AB0004015014010B514484068C105C90D002992
:108AC00020D00A46103A50B200280DDA0E4B1C3363
:108AD0000407240F083CA408A4001B598407E40ED3
:108AE000E3401B069B0F0BE0084B032424021B19D9
:108AF0008408A4001B598407E40EE3401B069B0F67
:108B0000D8B210BD0420FCE700ED00E000E100E079
:108B100010B54DA14DA001F05BFA4BA14BA001F0A7
:108B200057FA49A14BA001F053FA4CA14DA001F016
:108B30004FFA45A14EA001F04BFA50A144A001F01C
:108B400047FA002805D14DA141A001F041FA0028C3
:108B500066D03DA14BA001F03BFA002860D04C4804
:108B6000407D31285CD14A48807D352858DB484813
:108B7000007E30380A2148434549497E3039401843
:108B8000434908760846C07E30380A2148434049A8
:108B9000097F303940183E49C8760846807F303812
:108BA0000A2148433A49C97F303940183849887703
:108BB00008462030407830380A2148433449203173
:108BC000897830394018C1B231482030417000797D
:108BD00030380A2148432E4920314979303940182C
:108BE000C1B22B48203001712038007E401E400069
:108BF0002849085A2649C97E401818214843244963
:108C0000897F40183C214843214920314978401848
:108C10003C2148431E492031097940181E4908600B
:108C200009A11EA001F0D4F907A11FA001F0D0F9FD
:108C300005A121A001F0CCF923A125A001F0C8F9DC
:108C4000042000F0F3FD10BD4F4B000041540D0A0D
:108C500000000000415445310D0A000052454144D6
:108C60005900000041542B4350494E3F0D0A00006B
:108C700041542B434C54533D310D0A004453543A54
:108C80000000000041542B43434C4B3F0D0A0000B1
:108C9000AC2C00201A2800201428002041542B431B
:108CA0004C54533D300D0A0041542B434950534816
:108CB00055540D0A0000000041542B4347415454C1
:108CC0003D300D0A00000000504F57455200000093
:108CD00041542B43504F57443D310D0A00000000D2
:108CE000014614480078144A127890421DD0114869
:108CF0000078401C0F4A107010460078022801D1FD
:108D0000002010700B48007880000C4A1058086052
:108D10000B4A086812688018094A106010460068FB
:108D20000002000A1060012070470020086000BFA8
:108D3000FAE700007C2800207D280020742800200D
:108D40007028002070B5049C044E45683668B54212
:108D500002D10025024E357070BD00003C28002075
:108D600040280020F0B50346002426E0164E366861
:108D700024277E43154F3F68F01946689E4203D969
:108D80004668F61A46601DE046689B1B4668341923
:108D90000026466006750C4E35680B4F066A3E602D
:108DA0000669002E08D00E193602360A866006695A
:108DB000C66016680662156000BF03480068401C64
:108DC0000028D3D100BFF0BD6C280020602800200F
:108DD000F0B58FB0B4A1B5A001F0FAF8B2A1B3A07C
:108DE00001F0F6F8B0A1B3A001F0F2F8B3A1B5A07C
:108DF00001F0EEF8002801D10FB0F0BDAAA1B4A097
:108E000001F0E6F8A8A1B5A001F0E2F8A6A1B7A08C
:108E100001F0DEF8A4A1BFA001F0DAF8A2A1C0A081
:108E200001F0D6F8C1A1C2A001F0D2F89EA1C3A062
:108E300001F0CEF8C5A1C7A001F0CAF8002806D1FC
:108E4000C2A19BA001F0C4F8002800D1D4E796A1EC
:108E5000CAA001F0BDF8CDA1CDA001F0B9F8D0A114
:108E6000D2A001F0B5F8C9A1C9A001F0B1F8D3A111
:108E7000D4A001F0ADF8C5A1C5A001F0A9F8CFA11B
:108E8000D4A001F0A5F8C1A1C1A001F0A1F8D4A11E
:108E9000D6A001F09DF8002800D1ADE7BBA1BCA091
:108EA00001F096F8C5A1D6A001F092F8B7A1B8A03C
:108EB00001F08EF8C1A1DAA001F08AF8B3A1B4A044
:108EC00001F086F8BDA1DDA001F082F8002800D1F4
:108ED00092E775A1DBA001F07BF873A1DCA001F0A3
:108EE00077F8032605E0DD48805D05A98855701CEC
:108EF000C6B21B2EF7DB0420FFF7B2FBD849896806
:108F00004B22120151430846FF21FFF72FF9410080
:108F1000401884B23B2108A8C1732013FFF72AFC34
:108F2000014608A801742012FFF724FC014608A896
:108F300041742105080EFFF71DFC014608A8817445
:108F4000E0B2FFF717FC014608A8C1740620FFF73E
:108F500087FBC34989684B22120151430846FF2110
:108F6000FFF704F94100401884B23B2108A80175BD
:108F70002013FFF7FFFB014608A841752012FFF7F9
:108F8000F9FB014608A881752105080EFFF7F2FBE1
:108F9000014608A8C175E0B2FFF7ECFB08A9087606
:108FA0007AA17BA001F014F8AEA001F07DF80325B2
:108FB00005E005A9485D01F02FF9681CC5B2252D13
:108FC000F7DB39A1AAA001F003F837A1AAA000F0AD
:108FD000FFFF6EA16EA000F0FBFF012541E0A94854
:108FE0000088401B81B203AAA74800F037FC00208C
:108FF00002900023202203A9A44800F041FD80B282
:109000000290002710E0A149C95D0811FFF7B2FBEB
:10901000019001F001F99D49C85DFFF7ABFB01909C
:1090200001F0FAF8781C87B2202FECDB0D2001F05C
:10903000F3F80A2001F0F0F82846E917090F09189B
:1090400009110901691A0AD117A161A000F0C0FF36
:10905000002800D109E04DA14DA000F0B9FF681C27
:1090600085B2884800688542B9D300BF0EA15BA0D5
:1090700000F0AEFF002813D044A145A000F0A8FFE7
:1090800000280DD008A182A000F0A2FF002807D080
:1090900000207C49086004A128A000F099FF00E0AE
:1090A000AAE600BFA8E600004F4B000041540D0A9D
:1090B00000000000415445300D0A00005245414473
:1090C0005900000041542B4350494E3F0D0A000007
:1090D00061742B6373710D0A0000000061742B63CF
:1090E000676174743D310D0A0000000041542B4348
:1090F0004950435347503D312C22636D6E657422B5
:109100002C226775657374222C226775657374222F
:109110000D0A000061742B435354540D0A000000E3
:1091200041542B43494943520D0A00002E000000D0
:1091300041542B43494653520D0A000041542B43DE
:109140004950434C4F53453D310D0A006373746ED3
:109150006574000041542B43495053544152543DCF
:1091600022544350222C223135392E3232362E32BF
:1091700035312E3131222C32350D0A0041542B432A
:109180004950535052543D310D0A00003E0000003A
:1091900041542B43495053454E440D0A00000000F2
:1091A000636F72656D61696C0000000065686C6FCB
:1091B0002068656C6F0D0A1A0000000053454E448C
:1091C0000000000061757468206C6F67696E0D0A9D
:1091D0001A00000059324E6B59773D3D0D0A1A00B6
:1091E0007375636365737366756C000059324E6BFB
:1091F00059324E7A6447356C64413D3D0D0A1A0080
:109200004D41494C2046524F4D3A3C6C7965406384
:1092100073746E65742E636E3E0D0A1A00000000B2
:109220005243505420746F3A3C63636463406373E9
:10923000746E65742E636E3E0D0A1A0044415441EB
:109240000D0A1A0041542B435245473D320D0A0086
:1092500041542B435245473F0D0A0000AC2C0020DF
:10926000007500405375626A6563743A200000001F
:109270000D0A0D0A1A00000041542B435245473D88
:10928000300D0A004428002034280020AC2800209B
:109290000D0A2E0D0A1A0000F8B52948007800289A
:1092A00000D1F8BD27480068002801D1012000E066
:1092B0000020054624480068002801D1012000E074
:1092C0000020064600BF002D14D1684651DF044639
:1092D000052C01D101250CE0002C06D000BF002296
:1092E00011462046FFF79BF803E0164900980968ED
:1092F000884700BF002E1AD11448008800906946A4
:109300001348006860DF0446052C01D101260DE0FA
:10931000002C06D000BF002211462046FFF77FF840
:1093200004E00B48006808490968884700BF002D21
:1093300002D0002E00D000E0C5E700BF00BFB0E7BC
:1093400092280020982800209428002090280020AF
:109350008C2800200C48008CC0B2012812D10A4889
:10936000808C0007000F00280CD10748806AF0218C
:109370000840402806D10448C06A0840002801D1AE
:10938000012070470020FCE7C00F00F01948008C56
:10939000C0B201282CD11748808C0007000F00288C
:1093A00026D11448806AF0210840002806D11148CF
:1093B000C06A0840002801D1012070470D48806A2A
:1093C000F0210840102806D10A48C06A0840002849
:1093D00001D10120F1E70748806AF02108403028D8
:1093E00006D10448C06A0840002801D10120E4E702
:1093F0000020E2E7C00F00F001468807800F002838
:1094000001D1012070470020FCE70000FEB52B4889
:10941000006801902A480078009040E00098C00061
:10942000284909684418257835E0182068436168A0
:109430000F18681CC5B2A078A84200D10025387862
:10944000022802D0032823D10EE024217868484363
:109450001D4909684618307D002804D0786801F05D
:10946000FDF90020307514E00CE01449096824224D
:109470005143154A12688818002101750F4A016A84
:10948000116000BF0D480068401C0028EDD100E0CD
:1094900000BF00BF00BF6078A842C6D100BF0098DF
:1094A000411EC9B200910028B8D104480168019852
:1094B000814201D00120FEBD0020FCE76C28002085
:1094C000642800206828002060280020FEB5074698
:1094D00043480068029043480078019071E0019889
:1094E000C00041490968451863E0781C002807D08E
:1094F0003E46242070433D4909684418276A29E004
:109500002978182359436A6850182978491C29700A
:109510002978AA78914201D1002129704668242136
:109520007143324A12688C180178012902D1217DD9
:10953000002900D03DE08168A160C168E160016957
:1095400021614169E1612A490978002901D000219E
:10955000A16000BF2749A0680968401A0002000AFC
:109560002549884208D22349A068096801F0B0F86B
:10957000E1684018606011E01E48A168006801F0D1
:10958000A7F80090E1680098814204D9E16800984A
:10959000081A606001E00020606000BF0020A06049
:1095A000E06001202075801E2062304601F0E8F85E
:1095B00000BF781C002898D128786978884294D117
:1095C00000BF0198411EC9B20191002887D104480B
:1095D00001680298814201D00120FEBD0020FCE715
:1095E0006C280020642800206828002060280020C3
:1095F0008528002070280020FFFF7F001FB5012074
:109600003FDF03200521090707221202891808619C
:10961000042000F013F9142000F0D4F800221146C1
:10962000104600F05FFE5649086056A0006803909F
:1096300003AB03AA01215248006800F0D5FE0020C8
:10964000092302460821009000F08CFDFFF760FA24
:109650004D480068002804D14C4800F0B3F8FEF7EC
:1096600063FE042000F0E2F800204949C86300BF0F
:10967000002348224749082000F0F4FD054600BFBA
:109680002E46002E05D000BF002211463046FEF7C0
:10969000C6FE00BF00BF404800F0D8FD044600BF32
:1096A0002546002D05D000BF002211462846FEF7B2
:1096B000B6FE00BF394800F009FE044600BF25464B
:1096C000002D05D000BF002211462846FEF7A7FE58
:1096D00000BF00BF0020324B052203210090FEF79F
:1096E00011FF054600BF2E46002E05D000BF002208
:1096F00011463046FEF793FE00BF00BF294A012104
:109700002948FEF7C5FE0446284A00212848FEF7EE
:10971000BFFE0446274A01212748FEF7B9FE04464A
:1097200000BF2546002D05D000BF00221146284667
:10973000FEF775FE00BF0022052149041A480068A3
:10974000FEF758FF00F02AF920216846018119210F
:10975000C901418119480190194901A800F006FA90
:10976000044600BF40DF044600BF2546002D05D05B
:1097700000BF002211462846FEF751FEF2E7000026
:109780000C280020B9000000142800201027000039
:10979000C02F00405C2E0020E9860100C5A6010014
:1097A000A42E002015AB01000028002075AA01009E
:1097B00004280020C1A0010008280020458D0100D8
:1097C0003428002001B505E00098401E00900348B1
:1097D000FEF780FC00980028F6D108BDE7030000E2
:1097E00010B58A0005231B07072424021B198400D7
:1097F0001A5110BD10B58A0005231B070724240247
:109800001B1984001A5110BD0321052212070723DA
:109810001B02D2188300D150704703210522120782
:1098200007231B02D2188300D150704701218140C9
:10983000014AD160704700000005005001218140BD
:10984000014A9160704700000005005001218140ED
:10985000014A916070470000000500503CB5034686
:1098600000BF20480078002801D108203CBD00BF7F
:10987000002B01D10E20F9E7002A01D10E20F5E7D7
:109880001868642805D218680001174C2058002871
:1098900001D10720EAE75C68186801940090019CF8
:1098A00018680001104D40190089484320180190A4
:1098B000009800012C4600194089009C240164197D
:1098C00024896043009C2401641964680019019C88
:1098D000A04201D80720C9E7019C0098546010609D
:1098E0000020C3E75A280020B0310020F8B5044614
:1098F0000D4600BF27480078002801D10820F8BD98
:1099000000BF002C01D10E20F9E72068642805D2A1
:109910002068000120490858002801D10720EEE7FF
:10992000206800011C4940184089216809011A4A31
:10993000891809894843216809018918496840182C
:109940006168884201D80720D9E76068FFF754FDB5
:10995000002801D11020D2E723681B010E4FDB192C
:1099600062685B68D01A226812013B46D2181189DE
:10997000FEF7FCFB002901D00720C0E700202B46A2
:109980000246214600900420FEF7EAFF06463046D4
:10999000B5E700005A280020B031002070B5FFF76D
:1099A00027F800202E4908802E484069401C0028D6
:1099B00008D001221207126991B22A4A5069FEF7B3
:1099C000D5FB02E001200007406965380121090745
:1099D000096989B248432449086000202349088066
:1099E00000BF0DE000210201214B99500201D21865
:1099F00011810201D21891810201D2185181401CBB
:109A00006428EFD308201B49087016484069401CA1
:109A1000002808D001221207126991B2114A506938
:109A2000FEF7A4FB02E0012000074069401E01216F
:109A30000907096989B24843064601200007006901
:109A400081B23046FEF792FB054620DF0446002C2B
:109A500004D101200849887008490870204670BD6B
:109A60005028002000100010542800205828002002
:109A7000B03100205B280020E43000205A2800206C
:109A8000FFB581B00C4615461E4600BF354800782C
:109A9000002802D1082005B0F0BD00BF002C01D184
:109AA0000E20F8E70198002801D10E20F3E7206886
:109AB000642805D2206800012B490858002801D1EC
:109AC0000720E8E7206800012749401840892168FD
:109AD0000901254A8918098948432168090189181B
:109AE000496840186168884201D80720D3E7002DF3
:109AF00006D0206800011C4940180089A84201DAFC
:109B00000720C8E7A81921680901174A8918098997
:109B1000884201DD0720BEE70198FFF76DFC0028B1
:109B200004D03046FFF768FC002801D11020B2E7CE
:109B30006068FFF761FC002801D11020ABE7606886
:109B400081192A460198FEF73BFB00952068000129
:109B500005490F58002203212046019BB8470020E9
:109B600099E700005A280020B0310020F8B50446DB
:109B70000D4600BF58480078002801D10820F8BDE4
:109B800000BF002C01D10E20F9E7002D01D10E20DD
:109B9000F5E72068002801D10E20F0E7A088012118
:109BA0000907096989B2884202DCA088102801DA15
:109BB0000720E4E7E088002830D048484069401C8E
:109BC000002808D001221207126991B2434A506955
:109BD000FEF7CCFA02E0012000074069401E012197
:109BE0000907096989B24843E188A28851433C4A80
:109BF00012688918884211D3E088A188484301215E
:109C00000907096989B288420ADDA1880122120781
:109C1000126990B2FEF7C0FA002901D00720AEE722
:109C200020798007800F002801D00720A7E72D4862
:109C30000088642801D10420A1E72A480088286010
:109C4000274800686860274909880901264A891859
:109C50006868486023490988090120685050A08835
:109C600020490988090189180881E0881D49098867
:109C70000901891848810027A688E1884E4300BF62
:109C8000781C87B201200007006980B2B04205D27B
:109C900001200007006980B2361A00E0002601208A
:109CA0000007006980B20E49096840180C49086035
:109CB00001200007006980B2B042E1D9094800885C
:109CC000000109494018878106480088401C054961
:109CD0000880002053E700005A28002000100010E0
:109CE0005428002050280020B0310020F8B5044648
:109CF0000E4615461F4600BF2F480078002801D1A8
:109D00000820F8BD00BF002E01D10E20F9E7002C7D
:109D100001D10E20F5E72068642805D220680001F3
:109D200026490858002801D10720EAE720680001E9
:109D300022494018408921680901204A8918098967
:109D400048432168090189184968401861688842B8
:109D500001D80720D5E7002D06D02068000117495B
:109D600040180089A84201DA0720CAE7E8192168EB
:109D70000901124A89180989884201DD0720C0E7D4
:109D80003046FFF739FB002804D03846FFF734FB94
:109D9000002801D11020B4E76068FFF72DFB0028F0
:109DA00001D11020ADE72B46324621460220009714
:109DB000FEF7D6FDA5E700005A280020B0310020AC
:109DC000FEB5054600265048807801287ED1002047
:109DD0004D4988704D480078082811D1022D03D1D3
:109DE00000204A49087002E0002049490870FEF747
:109DF00087FD0646002E02D03046FEF713FBFEBD5F
:109E0000022D02D0032D79D174E03F48007814214F
:109E100048433D49091D44183E480088401C3D49BF
:109E200008802078022807D10846008880026188CF
:109E3000884201DB012000E0002007462078052849
:109E400005D132480078072801D1012000E0002028
:109E500002902078042805D12C480078072801D1E9
:109E6000012000E000200190207804280BD129482F
:109E7000008880026188884205DB24480078002839
:109E800001D1012000E0002000900298002807D1B5
:109E90000198002804D10098002801D1002F1FD07C
:109EA00000201A4908703046FEF7BCFA16490878B7
:109EB000FEF738FD00201749088013484078401EFF
:109EC0001149487008460078401C00E019E008700D
:109ED000084600780A2803DB084600780A3808702C
:109EE000FEF70EFD0646002E02D03046FEF79AFA27
:109EF00005E003E00D20FEF795FA00E000BF00BF8B
:109F000000BF00BF7BE70000E43000205B2800209A
:109F10005A28002058280020014840687047000057
:109F20000015014010B50446034884600321112048
:109F3000FEF7BEF910BD00000015014010B501206C
:109F400000040A4948600949403948601120FEF779
:109F500091F91120FEF798F90120054908602F209A
:109F6000FEF7D8F801200349087010BD40130140E6
:109F7000001001408428002010B5112001218140EB
:109F80000E4A116000BF012000040D4988600C4991
:109F90004039886001200B4948602F20FEF7BAF84D
:109FA0000120084988600020074908602F20FEF73B
:109FB000B1F800200549087010BD000080E100E004
:109FC0004013014000100140702800208428002028
:109FD000F3B581B0074600200090002501E0681C21
:109FE000C5B20298405D0028F9D1681EC5B20026AE
:109FF0002C46FF2101312A48FEF7FBF803E03878B0
:10A000007F1C00F009F938780028F8D12CE0032CE7
:10A0100015DD201F2249085C452810D1E01E085C90
:10A0200052280CD1A01E085C522808D1601E085C82
:10A030004F2804D10846005D522800D11BE00026BD
:10A040000AE00298805D611B8919154A515C8842BB
:10A0500000D003E0701CC6B2AE42F2DB00BFAE42DD
:10A0600000D108E0601CC4B20D4801190D4800F091
:10A07000AFF80028CBD100BFAE420DD10120009037
:10A0800000BF2046621CD4B2054A8118012000F0AE
:10A090009FF80028F5D101E0002000900098FEBD57
:10A0A000AC2C00201027000010B5044603E02078F7
:10A0B000641C00F0B1F820780028F8D110BD000031
:10A0C00038B504460420FFF7B1FB6420FFF77AFBA4
:10A0D0000420FFF7B3FB01201149C86300200923C6
:10A0E00002460821009000F03DF8FEF771FE0DA138
:10A0F0000DA0FFF76DFF0BA10FA0FFF769FF12A1E5
:10A1000013A0FFF765FF0420FFF790FB01218902F0
:10A110001348FEF76EF800200149C86338BD0000FF
:10A12000C02F00404F4B000041542B43495053482F
:10A1300055540D0A0000000041542B43474154542C
:10A140003D300D0A00000000504F574552000000FE
:10A1500041542B43504F57443D310D0A000000003D
:10A16000AC280020F8B507460C4615461E4620468A
:10A17000FFF753FB00213046FFF73CFB1048C4605B
:10A180004661069800280DD03846FFF746FB0021AF
:10A190002846FFF72FFB0A48056187600120084920
:10A1A0004031C8620748064948620420086001201F
:10A1B000054988600860002004498860F8BD0000F7
:10A1C0000025004000509D0000200040002100407C
:10A1D00070B504460D4601260AE02046641E00289C
:10A1E00004DB7D20C000FDF785FF01E0002603E0D1
:10A1F000074880680128F0D100BF002C05DB002053
:10A2000003498860034880692870304670BD0000AB
:10A2100000210040002500400549C86100BF0549F4
:10A22000C9690129FBD10021024AD16170470000B0
:10A23000002500400021004070B506460C4615463A
:10A2400029462046C046C04670BD00000146002990
:10A2500001D10E207047024801600020FAE700009B
:10A2600094280020FFB581B00C4616461F46002CEE
:10A2700002D1072005B0F0BD20468107890F0029D3
:10A2800001D1012100E00021002901D10720F1E7DF
:10A29000094804600948068009480760094901988F
:10A2A00010DF0546002D01D02846E3E701200649CE
:10A2B0000870162026DFDDE78C280020902800207B
:10A2C0008828002039A20100922800200146002998
:10A2D00001D10E207047024801600020FAE700001B
:10A2E00098280020F7B506460F46002E01D13C48BD
:10A2F00000E03C480446002E1FD10220FFF784FAFC
:10A300000120FFF781FA00210846FFF769FA1D20B6
:10A31000FFF77AFA022005210902611888600120FE
:10A32000052109026118C860002005210902611891
:10A3300008611D20FFF78AFA1EE00220FFF764FA89
:10A340000120FFF761FA00210846FFF749FA1C20B7
:10A35000FFF75AFA022005210902611888600120DE
:10A36000052109026118C860002005210902611851
:10A3700008611C20FFF76AFA012000070521090285
:10A3800061184862002F06D0012F06D0022F06D098
:10A39000032F08D105E0002507E0022505E004258C
:10A3A00003E0062501E0002500BF00BF0298002859
:10A3B00006D001202843052109026118486503E001
:10A3C00005200002201845650021FF2009300151B9
:10A3D000012005210902611808602046FEBD000029
:10A3E0000030004000400040FFB581B0002700264B
:10A3F000019D1F48019D854201D11D2400E01C24C0
:10A4000000BF0120A0401B49C86000BF27E003989F
:10A41000805D052109026918C86100E07F1CFF20EA
:10A4200009304059002803D1032000038742F5D3A7
:10A4300003200003874205D12046FFF707FA0020DA
:10A4400005B0F0BD0021FF20093041510520000278
:10A4500028188069C1B204988155701C86B2029890
:10A460008642D4DB2046FFF7F1F90120E8E700003F
:10A470000030004000050050FFB583B004460F4691
:10A48000154603268D48007800280BD1002D06D1F3
:10A490000698002803D102208849087002E00120B4
:10A4A00086490870854800780300FDF79BFF07FD8B
:10A4B00005314E84BAD7FD0081484069401C002810
:10A4C00008D001221207126991B27D4A5069FDF746
:10A4D0004DFE02E0012000074069401E01210907EE
:10A4E000096989B24843029001200007006900040D
:10A4F000820C01200007006980B27843014602986F
:10A5000021DF0646002E02D102206C490870D0E0FF
:10A51000384620DF0646002E16D1002D11D10698B0
:10A5200000280AD12078042803D107206349087045
:10A530000AE005206149087006E004205F490870C0
:10A5400002E003205D490870B3E05D484069401CAB
:10A55000002808D001221207126991B2584A5069A6
:10A56000FDF704FE02E0012000074069401E0121C2
:10A570000907096989B2484301210907029009695D
:10A5800089B2794308462A46029921DF0646002E01
:10A5900010D1069800280AD12078042803D106207B
:10A5A0004649087006E005204449087002E004208E
:10A5B000424908707DE042484069401C002808D0AC
:10A5C00001221207126991B23D4A5069FDF7CEFD92
:10A5D00002E0012000074069401E012109070969C6
:10A5E00089B24843A9004018618840180121090731
:10A5F0000290096989B27943AA008918628888188B
:10A60000069A029921DF0646002E09D120780428F7
:10A6100003D106202949087002E005202749087067
:10A6200047E001200007006980B27843AB00C01802
:10A630000290608882082169029821DF0646002E78
:10A640000BD1002D06D10698002803D107201B4905
:10A65000087002E00620194908702AE0184840698D
:10A66000401C002808D001221207126991B2144A36
:10A670005069FDF77BFD02E0012000074069401EA4
:10A6800001210907096989B24843019001200007A7
:10A69000006981B20198FDF769FD029020DF06464E
:10A6A000002E04D1072000E002E00449087000E019
:10A6B00000BF00BF304607B0F0BD00005B2800209F
:10A6C0000010001010B504462046FFF779FB10BDBE
:10A6D0000246501A0002000A7047000070B5044696
:10A6E0000D480068002812D00B4AE169A069126881
:10A6F0009047054600BF2E46002E06D000BF002220
:10A7000011463046FDF78BFE00BF00BF02E0A16995
:10A71000E069884770BD000080280020FEB5002059
:10A72000C043019010480468104807686846FEF767
:10A73000D7FA0546FEF76AFE0646002D05D001AAA7
:10A7400021460098FEF70EFB01260198FEF7BEFE9B
:10A75000002800D00126002E02D03846FEF762F90C
:10A76000002003490870FEBD702800206C280020DE
:10A770008528002010B51420FDF790FD10BD0000C5
:10A78000F0B5024624205043324B1B68C1183248B2
:10A790000068401C002802D12F48026059E02E4872
:10A7A0004B680068242460432A4C246800194068E0
:10A7B000834217D82848006824235843254B1B6838
:10A7C000C01840684B68C31A2348006824246043BB
:10A7D000204C2468001943601F48006808621E4826
:10A7E000026036E04B681C4D2C6828680DE024257B
:10A7F0004543184E3668AD196D685B1B0446242529
:10A800004543144E3668AD19286A451C002D07D003
:10A81000242545430F4E3668AD196D689D42E6D339
:10A82000451C002D0CD0242545430A4E3668AD1931
:10A830006D68EE1A24254543064F3F68ED196E609A
:10A840004B60086224256543024E3668AD192A62C2
:10A8500000BFF0BD602800206C28002070B50246C3
:10A860002C4C2168084609E0904200D109E00146DD
:10A8700024244443284D2D686419206A441C002C6C
:10A88000F2D100BF441C002C00D170BD814217D111
:10A89000204C246824256C431F4D2D686419246ABC
:10A8A0001C4D2C602C462468641C002C08D101240B
:10A8B0001A4DAC6000241A4D2C600124194D2C70E7
:10A8C00024244443144D2D686419636824244443AC
:10A8D000114D2D686419256A24244C430E4E3668A8
:10A8E000A419256224244C430B4D2D686419206A59
:10A8F000441C002C0CD024244443074D2D686419BB
:10A900006468E51824244443034E3668A41965603E
:10A9100000BFBAE76C28002060280020001001402A
:10A920007028002085280020FFB581B005460E461E
:10A930001746E900104A12688818694600F082F844
:10A940000446002C02D1042005B0F0BD0120207087
:10A950006660FFF7E1FAA060E760049820610A985A
:10A960006061E900044A12688818009900F080F8D4
:10A97000FFF700FF0020E7E768280020F8B520482F
:10A980000068401C00283AD00027FFF7C5FA0446AB
:10A990001C4801682046FFF79BFE064618480568DC
:10A9A00011E0242068431849096844186068B042DF
:10A9B00000D90BE06068361A6068C719256A20461E
:10A9C000FFF78CFE00BF681C0028EAD100BF0F48CB
:10A9D00000780F490978884209D10D480078401C59
:10A9E000C0B20B490870022801D100200870084845
:10A9F0000078800007490F50FFF7BCFE00BFF8BD8C
:10AA00006C28002070280020602800207C2800206E
:10AA10007D2800207428002010B51120FDF73EFC91
:10AA200010BD10B5FEF746F8012802D0032804D166
:10AA300001E0002403E0012401E0022400BF00BF84
:10AA4000204610BD70B502460B465078411C9078E8
:10AA5000884200D100211078884201D1002070BDC9
:10AA6000196050781826704355682C182046F6E770
:10AA7000417070477CB5064687DF044600BF254617
:10AA8000002D05D000BF002211462846FDF7C7FC67
:10AA900000BF25E01B48008820381A4908801A4862
:10AAA000008881B26A461948FEF7D8FE01988005F1
:10AAB000800D002805D1012189026846FEF716FFA6
:10AAC000044613480F4A1288811800232022684642
:10AAD000FFF70CF904460C480068401C0A4908605E
:10AAE000084800882028D5DA002006490880064852
:10AAF00000681921C901884202D90020FFF7E0FA55
:10AB00007CBD0000182800204428002034280020A4
:10AB1000AC28002070B50646174800784008400071
:10AB200015490870084600780221884312490870C8
:10AB3000852040010881801E48810020486088816E
:10AB400087DF0D4886DF044600BF2546002D05D06F
:10AB500000BF002211462846FDF761FC00BF0748F0
:10AB6000006814300549086000220549054800685E
:10AB7000FDF740FD70BD00009C2800201428002037
:10AB80004881000004280020A8AB01000028002014
:10AB90009C0000000084010044AC01009C280020BF
:10ABA00054170000108401000000000000000000A5
:10ABB0000000000000000000000000000000000095
:10ABC000000000001F003B005A0078009700B5000D
:10ABD000D400F300110130014E010000000000001C
:10ABE0000000000000000000000000000000000065
:10ABF000000000000024F40000000000000000003D
:10AC00000000000000000000000000000000000044
:10AC10000000000000000000000000000000000034
:10AC20000000000000000000000000000000000024
:10AC30000000000000000000000000000000000014
:04AC40000000000010
:04000005000180C1B5
:00000001FF
