:020000040001F9
:10D00000C03B002035D101004FD1010051D10100BA
:10D010000000000000000000000000000000000010
:10D0200000000000000000000000000053D10100DB
:10D03000000000000000000055D1010057D10100A0
:10D0400059D1010059D10100D1D4010059D10100B9
:10D0500059D101000000000075D201002DD201005D
:10D0600059D1010059D1010059D1010059D1010014
:10D0700059D1010059D1010059D1010059D1010004
:10D0800059D1010005D4010059D1010059D1010045
:10D090002DD4010035D4010061D4010059D1010023
:10D0A00059D1010059D1010000000000000000002A
:10D0B0000000000000000000000000000000000070
:10D0C0000348854600F0A0F800480047EDE901005C
:10D0D000C03B0020401E00BF00BF00BF00BF00BF1C
:10D0E00000BF00BF00BF00BF00BF00BF00BFF1D145
:10D0F00070470000401E00BF00BF00BF00BF00BF60
:10D1000000BF00BF00BF00BF00BF00BF00BFF1D124
:10D1100070470000401E00BF00BF00BF00BF00BF3F
:10D1200000BF00BF00BF00BF00BF00BF00BFF1D104
:10D13000704700000321094802680A43026008485A
:10D1400002680A4302600748804707480047FEE735
:10D15000FEE7FEE7FEE7FEE7FEE7000024050040ED
:10D160005405004099D40100C1D0010030B50B46F0
:10D17000014600202022012409E00D46D5409D42B1
:10D1800005D31D469540491B254695404019154637
:10D19000521E002DF1DC30BD70B50024254600285C
:10D1A00001DA01244042002901DA01254942FFF752
:10D1B000DDFFAC4200D04042002C00D0494270BD9F
:10D1C00003460B439B0703D009E008C9121F08C0A0
:10D1D000042AFAD203E00B780370401C491C521E4B
:10D1E000F9D27047D2B201E00270401C491EFBD256
:10D1F00070470022F6E710B513460A460446194662
:10D20000FFF7F0FF204610BD064C0125064E05E055
:10D21000E36807CC2B430C3C98471034B442F7D357
:10D22000FFF752FF600102008001020010B50D48B7
:10D230000068002814D000200A4908600A48806865
:10D24000C4B20120094948604B21090161430846E5
:10D25000FF21FFF7A1FF410040180549088000BFEA
:10D2600010BD0000007100400075004000700040DB
:10D2700050280020F0B585B03048056900203049BD
:10D28000C863002654E0142070432E4909684418EE
:10D290000120B0402C4909680840002846D00020F1
:10D2A00002900190E068C043684021680840039004
:10D2B0002046039902F090FA2048006968402168EE
:10D2C000084004900498002818D004986840009002
:10D2D000E068C04300994840216808400746394645
:10D2E000204602F079FAA0680099884338400190FE
:10D2F0006068009908403840029000BFA068A843C9
:10D3000003990840019908430190606828400399F7
:10D3100008400299084302900199029808430028A6
:10D3200003D0226901990298904700BF701CC6B2D1
:10D33000064800788642A6DB05B0F0BD0005005027
:10D3400040610040B4280020AC280020B128002013
:10D35000C206D20E01219140014A116070470000BF
:10D3600080E200E0C206D20E01219140014A116024
:10D370007047000000E100E0C206D20E012191409A
:10D38000014A11607047000000E200E010B500287B
:10D3900019DA1A4A03071B0F083B9B089B00D25857
:10D3A0008307DC0EFF23A3409A438B071B0E8407E1
:10D3B000E40EA3401A43114B0407240F083CA408B1
:10D3C000A4001A5118E00E4A03231B02D218830846
:10D3D0009B00D2588307DC0EFF23A3409A438B07A0
:10D3E0001B0E8407E40EA3401A43054B03242402BA
:10D3F0001B198408A4001A5110BD00001CED00E0A8
:10D4000000E100E010B5002007490860002106484F
:10D4100041608160C1600020034940390860486074
:10D4200002F030FD10BD00004011014010B502F0C7
:10D43000D9FB10BD10B508480078012148400649C5
:10D44000087006480068002804D0084600780349A0
:10D450000968884710BD0000542800205828002083
:10D4600070B50C480068002810D00A480068804752
:10D47000044600BF2546002D06D000BF00221146FD
:10D48000284600F0D9F800BF00BF01E001F0FCF829
:10D4900070BD0000B828002010B501F06FF9002819
:10D4A00005D0074807494860C8130749886101F05B
:10D4B00049F9002802D001200449886010BD00000D
:10D4C000DFFF07C000050040006C00400006004080
:10D4D0001CB524488068002818D0234840680421DF
:10D4E0000840002812D000201E4988601F4880692B
:10D4F000C0B21F4908800421684601701C480178A9
:10D50000684601711B490968884700BF1548C06912
:10D5100000280BD01448406880210840002805D01E
:10D5200000201049C861032001F084FC0D48406AC6
:10D53000002816D00C484068012149020840002804
:10D540000FD000200749486208488038046804600A
:10D5500002206946087001946846064909688847B0
:10D5600000BF1CBD002100400023004000250040FA
:10D570006E2800207828002030B47446641E257878
:10D58000641CAB4204D3635D5B00E31830BC1847F6
:10D590001D46F8E702E008C8121F08C1002AFAD1A8
:10D5A00070477047002001E001C1121F002AFBD123
:10D5B000704710B500F01AF810BD00000748007859
:10D5C000022802D0012006498860064800780649F2
:10D5D000C861022001490870704700007C280020C3
:10D5E000002000406C280020002500401CB50120D0
:10D5F0000549C860054908700320694608706846F7
:10D600000349096888471CBD002000407C28002091
:10D610007828002000200549087001200449C860CE
:10D620004860002003490860704700007C28002003
:10D63000002000400025004000BFBFF34F8F04488A
:10D640000449C860BFF34F8F00BF00BFFEE7000072
:10D650000400FA0500ED00E0F8B505460C46277811
:10D66000A068000105490E58608800902A46394696
:10D67000204608302369B047F8BD00007C2D00200B
:10D6800070B503460C4619480068002801D10820EF
:10D6900070BD002A01D10720FAE7002B01D1072035
:10D6A000F6E700211CE024204843104D2D68285C3B
:10D6B000002814D10125242048430C4E36683554E7
:10D6C00024204843094D2D684019447024204843C4
:10D6D000064D2D684019826119600020D8E7491C69
:10D6E000034800788142DEDB0420D1E78428002053
:10D6F00080280020FFB581B00E4617461C46204604
:10D700008107890F002901D1012100E000210029B2
:10D7100002D1072005B0F0BD002C01D10720F9E7A8
:10D7200001F04CFF26490A980860264806702648F2
:10D73000046000250CE0002124206843224A12687E
:10D74000115424206843204A1268801801756D1C0A
:10D75000B542F0DB24207043041903201B490870F4
:10D760001B480460183400250CE0E900184A1268D0
:10D770008818002101704170877044601821794336
:10D780000C196D1C032DF0DB0020C043114908600B
:10D79000002011490870114908701420FFF7D8FDC6
:10D7A00003211420FFF7F2FD1420FFF7DBFD0198A1
:10D7B00001F0DAFE01F0D2FE094908600020A9E775
:10D7C000A428002080280020842800208828002009
:10D7D0008C28002090280020A0280020A1280020CC
:10D7E00094280020FEB504460D46164616480068EB
:10D7F000002801D10820FEBD14480078844201D2DF
:10D80000052D01D20720F6E7242060430E49096860
:10D81000085C012801D00820EDE7242060430A4974
:10D82000096840184078012801D1284600E000200E
:10D83000074602F0BFFB3B462A4621460096019070
:10D8400002F0D6FAD7E700008428002080280020C4
:10D8500070B504460D480068002801D1082070BD4D
:10D860000B480078844201D30720F8E72420604366
:10D8700006490968085C012801D00820EFE702F09A
:10D8800099FB0546214602F0DDFAE8E784280020EE
:10D890008028002038B5054600BF01201D4948609A
:10D8A0002802082108431C49486000201B490860E1
:10D8B0000120194908600020009049DF01E0684616
:10D8C0004BDF00980028FAD000201449086001209E
:10D8D00013490860002401E0601CC4B20F480068CE
:10D8E000002801D1FF2CF7DB0B4989684B2212017C
:10D8F00051430846FF21FFF739FC41004018094910
:10D9000008800120064948600020034908604ADF7A
:10D9100038BD0000007300400075004000710040F9
:10D92000007000405028002070B50446261D208855
:10D9300019287FD01B287CD1607C812877D1A07CDE
:10D94000582874D1A07BC007C00F00286FD0B07AD0
:10D95000C00803286BDD00203A494870062008E023
:10D96000421EF11C895C0822121A364B9954411E42
:10D97000C8B20028F4DC042007E021460F310A5C1D
:10D98000304B011D5A54411CC8B21C28F5DB607B8A
:10D990002C4908700846C06889682B4A1268511AD9
:10D9A00040182849C860284800688860274A2848E5
:10D9B0000188284801F064FA054600BF2B46002B79
:10D9C00005D000BF002211461846FFF735FE00BF04
:10D9D000002320221B491D4801F074FC054600BFAE
:10D9E0002B46002B05D000BF002211461846FFF73A
:10D9F00023FE00BF16480088401C154908801648C1
:10DA00000068FFF725FF0022012109041248006881
:10DA1000FFF7E8FE0E4800881921C901884206DB9D
:10DA200087DF00200D49087001200D49087007E0CC
:10DA300000E004E0A079022800D101E000BF00BFAF
:10DA400000BF70BDE02800200828002048280020E2
:10DA50003A2800202C2800200428002044280020F8
:10DA60003D2800200007000F0A2803DA0146303164
:10DA7000C8B202E001463731C8B27047F0B587B08E
:10DA80000F2755480078142148435349091D44186D
:10DA9000E5682078022804D0042823D005287CD10A
:10DAA0006AE0206905904D48008886026088801BE6
:10DAB0000690059880190590A088801945190121C4
:10DAC00089020698884206D2069882082846059957
:10DAD00029DF074605E0FF2201322846059929DFA4
:10DAE00007466FE0A06800013D4940180089069094
:10DAF000A0680001401840890590A0680001401806
:10DB0000406804900498A84205D1059906984843B6
:10DB10006188884202D0A06865280DD101F064FABE
:10DB2000014603902846FFF721FB2C490988461837
:10DB3000304628DF07461EE001F056FA0146019004
:10DB40002846FFF713FB064601F04EFA7043281AE9
:10DB50008008039001F048FA711C48436188491914
:10DB6000401A8008029031462046029B039A01F039
:10DB700033FF074600BF25E001F036FA0146049066
:10DB80002846FFF7F3FA064601F02EFA7043A18803
:10DB90004919081A8008069000E012E001F024FA02
:10DBA000711C4843A188491962888918401A800865
:10DBB000059031462046059B069A01F00DFF074669
:10DBC00000E000BF00BF002F02D101200249887091
:10DBD000384607B0F0BD0000B02C002068280020B7
:10DBE0007C2D002010B500240848407800280BDD6B
:10DBF00006488078002807D1FFF740FF0446002C34
:10DC000002D0112C00D10024204610BDB02C0020E1
:10DC10000023142141430C4A5354142141438918D1
:10DC20004B8064231421414389188B600023142105
:10DC300041438918CB601421414389180B61142199
:10DC4000414389188B807047B42C0020FFB581B008
:10DC5000064617460024224840780A283CD020482F
:10DC600000781F4949784018C4B20A2C02DB2046CC
:10DC70000A38C4B2142060431949091D0E54002209
:10DC8000142060434018427014206043401807611C
:10DC9000142060434118029805C8CA6088601421A6
:10DCA00061430F4A121D891804984880142161436A
:10DCB00089180A9888800025101F8078002805D1CF
:10DCC000FFF7DCFE0546112D00D100250448407801
:10DCD000401C0349487000E00425284605B0F0BD0B
:10DCE000B02C002010B500200849088008490870B1
:10DCF0000849087048708870002403E02046FFF748
:10DD000087FF641C0A2CF9D310BD0000682800208E
:10DD10006B280020B02C0020FEB51E480068401C77
:10DD2000002834D01B480068242148431A49096858
:10DD30004018456801F012FC01901848046821461B
:10DD4000019801F029FFC61C15480078002801D170
:10DD500001F016FCAE4201D2284600E0304604191C
:10DD60002402240A20460F49086000BF01F0F6FB98
:10DD700000900199009801F00FFFC71C20460199FF
:10DD800001F00AFF874201D902F0CAF801E001F070
:10DD900015FCFEBD90280020842800209428002037
:10DDA000A82800204015014010B514484068C1055E
:10DDB000C90D002920D00A46103A50B200280DDAC9
:10DDC0000E4B1C330407240F083CA408A4001B5965
:10DDD0008407E40EE3401B069B0F0BE0084B032473
:10DDE00024021B198408A4001B598407E40EE34095
:10DDF0001B069B0FD8B210BD0420FCE700ED00E02D
:10DE000000E100E0014614480078144A127890427C
:10DE10001DD011480078401C0F4A10701046007841
:10DE2000022801D1002010700B48007880000C4AB5
:10DE3000105808600B4A086812688018094A106078
:10DE4000104600680002000A1060012070470020A0
:10DE5000086000BFFAE70000A0280020A1280020E9
:10DE6000982800209428002070B5049C044E456832
:10DE70003668B54202D10025024E357070BD0000F3
:10DE80003428002038280020F0B50346002426E07E
:10DE9000164E366824277E43154F3F68F0194668B2
:10DEA0009E4203D94668F61A46601DE046689B1BF1
:10DEB000466834190026466006750C4E35680B4FCF
:10DEC000066A3E600669002E08D00E193602360A30
:10DED00086600669C66016680662156000BF034862
:10DEE0000068401C0028D3D100BFF0BD902800205E
:10DEF00084280020F0B599B05022FE4905A8FFF70C
:10DF00005FF90424FC4800F017FF03A871DF00222A
:10DF100015E003A90131895C0811FFF7A3FD214633
:10DF2000631CDCB205AB5854D91F885CFFF79AFD1F
:10DF30002146631CDCB205AB5854501CC2B2062A01
:10DF4000E7DB40222046611CCCB205A90A54EBA1B4
:10DF5000EBA001F0BBFBE9A1E9A001F0B7FBE7A151
:10DF6000E7A001F0B3FBE5A1E7A001F0AFFBE8A15A
:10DF7000E9A001F0ABFB002809D1E0A1E9A001F084
:10DF8000A5FBDEA1EAA001F0A1FB19B0F0BDEAA15A
:10DF9000EBA001F09BFB002800D1F6E7D7A1EBA096
:10DFA00001F094FBECA1EFA001F090FB002803D15D
:10DFB000E9A1ECA001F08AFB202008E0EC490B5C11
:10DFC0002146621CD4B205AA5354411CC8B224286D
:10DFD000F4DB272008E0E6490B5C2146621CD4B242
:10DFE00005AA5354411CC8B22B28F4DBC3A1E1A0FD
:10DFF00001F06CFBC1A1E2A001F068FB0B2008E07E
:10E00000DB490B5C2146621CD4B205AA5354411C67
:10E01000C8B21528F4DB2C222046611CCCB205A91D
:10E020000A54B6A1D9A001F051FB162008E0D0494E
:10E030000B5C2146621CD4B205AA5354411CC8B2E1
:10E040001A28F4DB2C222046611CCCB205A90A5404
:10E05000D14909880813FFF705FD2146621CD4B297
:10E0600005AA5054CC4909880812FFF7FBFC214649
:10E07000621CD4B205AA5054C74909880905080E84
:10E08000FFF7F0FC2146621CD4B205AA5054C249E5
:10E090000878FFF7E7FC2146621CD4B205AA505469
:10E0A0002C222046611CCCB205A90A54BB49098820
:10E0B0000813FFF7D7FC2146621CD4B205AA5054BE
:10E0C000B64909880812FFF7CDFC2146621CD4B27C
:10E0D00005AA5054B14909880905080EFFF7C2FC8A
:10E0E0002146621CD4B205AA5054AC490878FFF707
:10E0F000B9FC2146621CD4B205AA50547FA1A8A045
:10E1000001F0E4FA002870D09948407D31286CD1A4
:10E110009748807D352868DB142008E094490B5C23
:10E120002146621CD4B205AA5354411CC8B22A2805
:10E13000F4DB8F48007E30380A2148438C49497E01
:10E14000303940188A4908760846C07E30380A219E
:10E1500048438749097F303940188549C8760846C1
:10E16000807F30380A2148438149C97F30394018BF
:10E170007F49887708462030407830380A21484364
:10E180007B492031897830394018C1B27848203035
:10E190004170007930380A21484375492031497966
:10E1A00030394018C1B27248203001712038007EE9
:10E1B000401E40007D49085A6D49C97E4018401EE6
:10E1C000182148436A49897F40183C2148436849DF
:10E1D0002031497840183C2148436549203109796C
:10E1E00040187349086001E0FFE7CEE643A171A043
:10E1F00001F06CFA71A174A001F068FA002803D153
:10E200003EA174A001F062FA3CA176A001F05EFA92
:10E210003AA179A001F05AFA7AA17BA001F056FA4E
:10E220007CA17FA001F052FA002806D179A135A087
:10E2300001F04CFA002800D1A7E630A182A001F03D
:10E2400045FA85A185A001F041FA88A18AA001F0D4
:10E250003DFA81A181A001F039FA8BA18BA001F0D8
:10E2600035FA7DA17DA001F031FA87A18BA001F0E4
:10E270002DFA79A179A001F029FA8BA18BA001F0E8
:10E2800025FA002800D180E673A174A001F01EFADF
:10E290008BA18CA001F01AFA6FA170A001F016FA00
:10E2A00087A190A001F012FA6BA16CA001F00EFA08
:10E2B00093A194A001F00AFA002800D165E666A1B6
:10E2C00066A001F003FA91A001F072FA002505E0C2
:10E2D00005A9485D01F01AFB681CC5B2482DF7DBA3
:10E2E00006A18DA001F0F2F95BA15CA001F0EEF9AE
:10E2F0008AE1000010010200204E00004F4B000098
:10E3000041540D0A00000000415445310D0A00003F
:10E31000434C54533A20310061742B434C54533FC7
:10E320000D0A000061742B434C54533D310D0A001B
:10E33000415426570D0A000052454144590000003F
:10E3400041542B4350494E3F0D0A000041542B438A
:10E350005245473D320D0A002B435245473A203281
:10E360002C31000041542B435245473F0D0A000019
:10E370000029002041542B435245473D300D0A00EF
:10E3800061742B6373710D0A0000000061742B63CC
:10E3900062630D0A00000000462800203A28002091
:10E3A00041542B43434C4B3F0D0A000012280020E0
:10E3B00008280020415445300D0A000043474154CD
:10E3C000543A20310000000061742B63676174745B
:10E3D0003F0D0A0061742B63676174743D310D0A4F
:10E3E0000000000061742B435354543D22434D4EB2
:10E3F0004554220D0A00000041542B434949435221
:10E400000D0A00002E00000041542B434946535290
:10E410000D0A0000434F4E4E454354204F4B000021
:10E4200041542B43495053544152543D225443507C
:10E43000222C223135392E3232362E3235312E31E0
:10E4400031222C32350D0A0041542B434950535090
:10E4500052543D310D0A00003E00000041542B4350
:10E46000495053454E440D0A00000000636F726529
:10E470006D61696C0000000065686C6F2068656CF8
:10E480006F0D0A1A000000003333340061757468A0
:10E49000206C6F67696E0D0A1A00000059324E6BCE
:10E4A00059773D3D0D0A1A003233350059324E6B13
:10E4B00059324E7A6447356C64413D3D0D0A1A006D
:10E4C000323530004D41494C2046524F4D3A3C6C5C
:10E4D0007965406373746E65742E636E3E0D0A1A1F
:10E4E000000000005243505420746F3A3C6C796530
:10E4F000406373746E65742E636E3E0D0A1A0000DD
:10E5000033353400444154410D0A1A005375626A90
:10E510006563743A200000000D0A0D0A1A0000001D
:10E520004C480088401E81B201AA4B4800F0A8FC6C
:10E53000002500BF4949012001F0C4F90028F9D1A4
:10E540000023202201A9464800F0A4FD85B200BFA7
:10E550002B46002B05D000BF002211461846FFF7BE
:10E560006BF800BF002610E03D49895D0811FFF7F8
:10E5700079FA074601F0CAF93949885DFFF772FA5E
:10E58000074601F0C3F9701CC6B2202EECDB3149FE
:10E590000988481EC117090F091809110901411AF4
:10E5A0002DD12C490988481EC117C90E09184911D7
:10E5B0004901411A10D10121890201A800F0A8FCEB
:10E5C00085B200BF2B46002B05D000BF00221146AC
:10E5D0001846FFF731F800BF22A1234801F076F872
:10E5E00022A12148483801F071F8002807D11FA165
:10E5F0001D48483801F06AF8002800D1C5E41548E4
:10E600000088401E1349088012480088002887DCD3
:10E6100014A1154801F05AF814A11348483801F024
:10E6200055F8002807D111A10F48483801F04EF8DD
:10E63000002800D1A9E40C491C310DA001F046F8D6
:10E64000002804D007A10CA001F040F800E09CE4F1
:10E6500000BF9AE43A2800202C280020002900203E
:10E66000E02800204F4B0000A4E401003E00000021
:10E670000D0A2E0D0A1A000041542B434950434CF9
:10E680004F53453D310D0A00F8B529480078002860
:10E6900000D1F8BD27480068002801D1012000E022
:10E6A0000020054624480068002801D1012000E030
:10E6B0000020064600BF002D14D1684651DF0446F5
:10E6C000052C01D101250CE0002C06D000BF002252
:10E6D00011462046FEF7B0FF03E01649009809688E
:10E6E000884700BF002E1AD1144800880090694660
:10E6F0001348006861DF0446052C01D101260DE0B6
:10E70000002C06D000BF002211462046FEF794FFE1
:10E7100004E00B48006808490968884700BF002DDD
:10E7200002D0002E00D000E0C5E700BF00BFB0E778
:10E73000BC280020CC280020C8280020C4280020A5
:10E74000C02800200C48008CC0B2012812D10A4811
:10E75000808C0007000F00280CD10748806AF02148
:10E760000840402806D10448C06A0840002801D16A
:10E77000012070470020FCE7C00F00F01948008C12
:10E78000C0B201282CD11748808C0007000F002848
:10E7900026D11448806AF0210840002806D111488B
:10E7A000C06A0840002801D1012070470D48806AE6
:10E7B000F0210840102806D10A48C06A0840002805
:10E7C00001D10120F1E70748806AF0210840302894
:10E7D00006D10448C06A0840002801D10120E4E7BE
:10E7E0000020E2E7C00F00F001468807800F0028F4
:10E7F00001D1012070470020FCE70000FEB52B4846
:10E80000006801902A480078009040E00098C0001D
:10E81000284909684418257835E01820684361685C
:10E820000F18681CC5B2A078A84200D1002538781E
:10E83000022802D0032823D10EE02421786848431F
:10E840001D4909684618307D002804D0786801F019
:10E8500069FA0020307514E00CE01449096824229C
:10E860005143154A12688818002101750F4A016A40
:10E87000116000BF0D480068401C0028EDD100E089
:10E8800000BF00BF00BF6078A842C6D100BF00989B
:10E89000411EC9B200910028B8D10448016801980E
:10E8A000814201D00120FEBD0020FCE7902800201D
:10E8B000882800208C28002084280020FEB50746E8
:10E8C00043480068029043480078019071E0019845
:10E8D000C00041490968451863E0781C002807D04A
:10E8E0003E46242070433D4909684418276A29E0C0
:10E8F0002978182359436A6850182978491C2970C7
:10E900002978AA78914201D10021297046682421F2
:10E910007143324A12688C180178012902D1217D95
:10E92000002900D03DE08168A160C168E160016913
:10E9300021614169E1612A490978002901D000215A
:10E94000A16000BF2749A0680968401A0002000AB8
:10E950002549884208D22349A068096801F01CF9BA
:10E96000E1684018606011E01E48A168006801F08D
:10E9700013F90090E1680098814204D9E168009899
:10E98000081A606001E00020606000BF0020A06005
:10E99000E06001202075801E2062304601F054F9AD
:10E9A00000BF781C002898D128786978884294D1D3
:10E9B00000BF0198411EC9B20191002887D10448C7
:10E9C00001680298814201D00120FEBD0020FCE7D1
:10E9D00090280020882800208C28002084280020EF
:10E9E000A928002094280020FFFF7F0088B0022083
:10E9F00000F010FE06A871DF582069464876812194
:10EA000006A8817006A9002070DF044600BF2346D7
:10EA1000002B05D000BF002211461846FEF70CFE61
:10EA200000BF01F083FA00F0E5FA202168468182F8
:10EA30001921C901C18296480490964904A800F0A2
:10EA40009FFB044600BF2346002B05D000BF0022D9
:10EA500011461846FEF7F0FD00BF6846C08A8E4991
:10EA6000088034E08C480088401E81B202AA8948A0
:10EA700000F006FA044600BF2346002B05D000BF75
:10EA8000002211461846FEF7D7FD00BF00232022C2
:10EA900002A9824800F0FEFA044600BF2346002B7C
:10EAA00005D000BF002211461846FEF7C5FD00BF85
:10EAB0007A48016840680023DB43594058400143CD
:10EAC00000D008E074480088401E734908807248EE
:10EAD00000880028C6DC00BF0320052109070722A3
:10EAE00012028918886400220121C9036C48006859
:10EAF000FEF778FE044600BF2346002B05D000BF7A
:10EB0000002211461846FEF797FD00BF0120654917
:10EB100008703BE0122000F031F9634800F00CF976
:10EB2000122000F033F901206049C8632020FEF76D
:10EB3000B1FE5F4989684B22120151430846FF210B
:10EB4000FEF714FB410040185A4908800846008827
:10EB50005949884214DD0020082302461021009004
:10EB600000F07AFEFFF7C6F954A155A000F0AEFD03
:10EB700052A157A000F0AAFD59A15BA000F0A6FD8C
:10EB8000122000F0FBF800204849C8635A4800688A
:10EB9000092149058842BDD33F4800880028B9D1E2
:10EBA0004049087000BF3F480078002862D05348B1
:10EBB0000078002803D087DF00205049087000202B
:10EBC0004F490860122000F0D9F8642000F0B4F832
:10EBD000122000F0DBF801203449C8632020FEF742
:10EBE00059FE334989684B22120151430846FF21DF
:10EBF000FEF7BCFA410040182E49088008460088FC
:10EC00002D4988422EDD0020082302461021009065
:10EC100000F022FEFFF76EF91F480088002815D08B
:10EC200026A138A000F052FD00280FD036A137A051
:10EC300000F04CFD002809D038A139A000F046FDB5
:10EC4000002803D01DA138A000F040FD1BA11CA08E
:10EC500000F03CFD19A11EA000F038FD20A122A06B
:10EC600000F034FD122000F089F800200F49C8633D
:10EC70000C49087048DF044600BF2346002B05D02E
:10EC800000BF002211461846FEF7D6FC8BE70000B5
:10EC900069DE01002C2800203A280020E02800200E
:10ECA000002800203D28002010270000C02F004031
:10ECB0000075004046280020AC0D00004F4B0000BE
:10ECC00041542B434950534855540D0A000000004D
:10ECD00041542B43474154543D300D0A000000007D
:10ECE000504F57455200000041542B43504F57445A
:10ECF0003D310D0A000000000828002044280020B3
:10ED00000C2800200D0A1A003E00000041542B433D
:10ED1000495053454E440D0A000000003235300082
:10ED20000D0A2E0D0A1A000041542B434950434C42
:10ED30004F53453D310D0A0001B505E00098401ED6
:10ED400000900348FEF7D6F900980028F6D108BDD8
:10ED5000E703000010B58A0005231B0707242402DF
:10ED60001B1984001A5110BD032105221207072325
:10ED70001B02D2188300D15070470000012181404E
:10ED8000014AD16070470000000500500121814018
:10ED9000014A9160704700000005005010B5084816
:10EDA0000078012802D0022807D102E0FEF732FCE9
:10EDB00004E003200249087000E000BF00BF10BD5E
:10EDC0007C2800200B480078002802D003280DD1B1
:10EDD00008E0042008490860012008490860054946
:10EDE000087004E002200349087000E000BF00BF83
:10EDF000704700007C2800200025004000200040D3
:10EE000010B509480078012807D0022804D003284B
:10EE100006D1FEF7FFFB04E000BFFEF7CAFB00E0EF
:10EE200000BF00BF10BD00007C28002010B5FEF719
:10EE3000F1FB10BD10B504462300FEF79DFB050451
:10EE4000070D0A101300FFF7A9FF0CE0FFF7BAFF48
:10EE500009E0FFF7D5FF06E000F008F803E0FFF750
:10EE6000E5FF00E000BF00BF10BD000010B5034883
:10EE70000078012801D1FEF7A1FB10BD7C280020FD
:10EE80003CB5034600BF20480078002801D1082087
:10EE90003CBD00BF002B01D10E20F9E7002A01D1B3
:10EEA0000E20F5E71868642805D218680001174C91
:10EEB0002058002801D10720EAE75C68186801940F
:10EEC0000090019C18680001104D401900894843CA
:10EED00020180190009800012C4600194089009CE0
:10EEE0002401641924896043009C24016419646826
:10EEF0000019019CA04201D80720C9E7019C009895
:10EF0000546010600020C3E76A2800207C2D002098
:10EF1000F8B504460D4600BF27480078002801D107
:10EF20000820F8BD00BF002C01D10E20F9E72068B1
:10EF3000642805D22068000120490858002801D122
:10EF40000720EEE7206800011C494018408921682D
:10EF500009011A4A89180989484321680901891851
:10EF6000496840186168884201D80720D9E760687D
:10EF7000FFF73AFC002801D11020D2E723681B01DB
:10EF80000E4FDB1962685B68D01A226812013B469B
:10EF9000D2181189FEF7EAF8002901D00720C0E74E
:10EFA00000202B460246214600900420FEF74EFE2C
:10EFB00006463046B5E700006A2800207C2D002078
:10EFC00070B508484469601C002807D000F00CF8B0
:10EFD000054629462046FEF7C9F870BD0120000706
:10EFE0004069FAE70010001001200007006980B2B4
:10EFF00070470000F8B5FEF775FE00201E49088036
:10F00000FFF7DEFF0546653DFFF7EEFF45431B4872
:10F01000056000201A49088000BF0DE000210201B0
:10F02000184B99500201D21811810201D218918116
:10F030000201D2185181401C6428EFD308201249E4
:10F040000870FFF7D1FF0090FFF7BAFF471EFFF7E8
:10F05000CBFF47433E4630460099FEF787F805460A
:10F0600028DF0446002C04D1012008498870084993
:10F0700008702046F8BD00006028002064280020A9
:10F08000682800207C2D00206B280020B02C002058
:10F090006A280020FFB581B00C4615461E4600BF09
:10F0A00035480078002802D1082005B0F0BD00BF27
:10F0B000002C01D10E20F8E70198002801D10E2084
:10F0C000F3E72068642805D2206800012B4908581E
:10F0D000002801D10720E8E72068000127494018EF
:10F0E000408921680901254A89180989484321680E
:10F0F00009018918496840186168884201D80720C9
:10F10000D3E7002D06D0206800011C494018008973
:10F11000A84201DA0720C8E7A81921680901174A9F
:10F1200089180989884201DD0720BEE70198FFF7A9
:10F130005BFB002804D03046FFF756FB002801D1C6
:10F140001020B2E76068FFF74FFB002801D11020C4
:10F15000ABE7606881192A460198FEF731F80095FF
:10F160002068000105490F58002203212046019B19
:10F17000B847002099E700006A2800207C2D002075
:10F18000F8B504460D4600BF4A480078002801D172
:10F190000820F8BD00BF002C01D10E20F9E7002D9A
:10F1A00001D10E20F5E72068002801D10E20F0E7FC
:10F1B000FFF71AFFA188884202DBA088102801DA35
:10F1C0000720E6E7E08800281CD0FFF7F9FE471E7D
:10F1D000FFF70AFF4743E088A1884843364909689A
:10F1E000401887420ED3FFF7FFFEE188A288514303
:10F1F000884209DAFFF7F8FE0746A188FDF7CCFF41
:10F20000002901D00720C4E720798007800F00285B
:10F2100001D00720BDE729480088642801D10420D7
:10F22000B7E72648008828602348006868602349BB
:10F2300009880901224A8918686848601F490988B5
:10F24000090120685050A0881C49098809018918C3
:10F250000881E08819490988090189184881002036
:10F260000090A688E1884E4300BF0098401C80B201
:10F270000090FFF7B9FEB04203D2FFF7B5FE361A91
:10F2800000E00026FFF7B0FE0B49096840180A4964
:10F290000860002EE9D1094909880901084A89183E
:10F2A0000098888105480088401C04490880002097
:10F2B0006FE700006A2800206428002060280020F2
:10F2C0007C2D0020F8B504460E4615461F4600BFAB
:10F2D0002F480078002801D10820F8BD00BF002E7B
:10F2E00001D10E20F9E7002C01D10E20F5E72068AE
:10F2F000642805D22068000126490858002801D159
:10F300000720EAE720680001224940184089216867
:10F310000901204A89180989484321680901891887
:10F32000496840186168884201D80720D5E7002D58
:10F3300006D020680001174940180089A84201DA68
:10F340000720CAE7E81921680901124A89180989C2
:10F35000884201DD0720C0E73046FFF745FA002864
:10F3600004D03846FFF740FA002801D11020B4E756
:10F370006068FFF739FA002801D11020ADE72B466D
:10F380003246214602200097FEF760FCA5E7000008
:10F390006A2800207C2D0020F0B585B006460025A7
:10F3A0006A48807801287DD10020684988706848C3
:10F3B0000078082819D1022E03D100206449087072
:10F3C00002E0002063490870FEF70CFC0546002DA2
:10F3D00009D05E480078142250435C4A121D8118FF
:10F3E0002846FEF739F905B0F0BD022E02D0032EF3
:10F3F0007ED183E055480078142148435349091DC4
:10F40000441855480088401C534908802078022839
:10F4100007D10846008880026188884201DB01200C
:10F4200000E0002003902078052805D148480078A6
:10F43000072801D1012000E0002002902078042854
:10F4400005D143480078072801D1012000E00020C1
:10F450000190207804280BD13F4800888002618801
:10F46000884205DB3A480078002801D1012000E0FD
:10F47000002000900298002808D10198002805D1AA
:10F480000098002802D10398002825D02F4807783B
:10F4900000202F490870304908802C484078401ED1
:10F4A0002A4900E050E0487008460078401C087087
:10F4B000084600780A2803DB084600780A380870F6
:10F4C00014207843214A121D81182846FEF7C4F8FB
:10F4D0003846FEF79DFB00BFFEF784FB0546002D76
:10F4E0000BD01A48007814225043184A121D00E02D
:10F4F00027E081182846FEF7AFF823E0134800788C
:10F50000142148431149091D44186078401CC0B2B9
:10F510006070032809D1081F0078142250430A465E
:10F5200081180D20FEF798F80AE0FEF7A7FA0546C5
:10F53000002D05D0112D03D021462846FEF78CF86A
:10F5400000E000BF00BF00BF00BF4CE7B02C0020B0
:10F550006B2800206A2800206828002001484068A5
:10F56000704700000015014010B504460348846050
:10F5700003211120FDF70AFF10BD00000015014016
:10F5800010B5012000040A49486009494039486023
:10F590001120FDF7DDFE1120FDF7E4FE01200549F5
:10F5A00008602F20FDF7B6FD01200349087010BD4B
:10F5B0004013014000100140A828002010B5112080
:10F5C000012181400E4A116000BF012000040D4955
:10F5D00088600C494039886001200B4948602F2021
:10F5E000FDF798FD01200849886000200749086060
:10F5F0002F20FDF78FFD00200549087010BD000089
:10F6000080E100E0401301400010014094280020F8
:10F61000A8280020F8B5054611DF044600BF2346A0
:10F62000002B05D000BF002211461846FEF704F853
:10F6300000BF00BF002348222149082000F08CF9B8
:10F64000064600BF3346002B05D000BF00221146FE
:10F650001846FDF7F1FF00BF00BF00200090002119
:10F6600068464170057060DF044600BF2346002BEA
:10F6700005D000BF002211461846FDF7DDFF00BF90
:10F68000104800F05DF9044600BF2346002B05D06A
:10F6900000BF002211461846FDF7CEFF00BF0A4802
:10F6A00000F08EF9044600BF2346002B05D000BFB2
:10F6B000002211461846FDF7BFFF00BFF8BD00004D
:10F6C000002A002029D901008DFB0100F3B581B08B
:10F6D000074600200090002501E0681CC5B2029892
:10F6E000405D0028F9D100262C4600BF2E49052098
:10F6F00000F0E8F80028F9D1FF2101312A48FDF790
:10F7000078FD03E038787F1C00F000F93878002895
:10F71000F8D12CE0032C15DD201F2349085C452877
:10F7200010D1E01E085C52280CD1A01E085C5228A3
:10F7300008D1601E085C4F2804D10846005D52289D
:10F7400000D11BE000260AE00298805D611B891948
:10F75000154A515C884200D003E0701CC6B2AE422C
:10F76000F2DB00BFAE4200D108E0601CC4B20E481C
:10F7700001190E4800F0A6F80028CBD100BFAE4218
:10F780000DD10120009000BF2046621CD4B2064A71
:10F790008118012000F096F80028F5D101E0002042
:10F7A00000900098FEBD00000029002010270000F6
:10F7B00010B504460AE000BF0649052000F082F8B3
:10F7C0000028F9D12078641C00F0A0F820780028E7
:10F7D000F1D110BD00290020F0B502460C460020F2
:10F7E00037E001238340194623460B40002B2FD0DE
:10F7F000D5680D40002D05D101235B04D5680D436C
:10F80000D56004E003231B04D5688D43D56005252E
:10F810002D0707263602AD198600AD59032636049A
:10F82000B5430526360707273F02F6198700F5512D
:10F8300005252D0707263602AD198600AD591D4353
:10F840000526360707273F02F6198700F55100BF46
:10F85000401C2028C5D3F0BDF8B507460C46154618
:10F860001E462046FFF780FA00213046FFF772FA65
:10F870001048C4604661069800280DD03846FFF74E
:10F8800073FA00212846FFF765FA0A480561876088
:10F89000012008494031C8620748064948620420EF
:10F8A00008600120054988600860002004498860DC
:10F8B000F8BD00000025004000509D0000200040E1
:10F8C0000021004070B504460D4601260AE020469E
:10F8D000641E002804DB7D20C000FDF7FBFB01E077
:10F8E000002603E0074880680128F0D100BF002C03
:10F8F00005DB002003498860034880692870304692
:10F9000070BD000000210040002500400549C8618D
:10F9100000BF0549C9690129FBD10021024AD16113
:10F9200070470000002500400021004070B50646E9
:10F930000C46154629462046C046C04670BD00000C
:10F940000146002901D10E207047024801600020C5
:10F95000FAE70000C8280020FFB581B00C46164623
:10F960001F46002C02D1072005B0F0BD20468107BC
:10F97000890F002901D1012100E00021002901D1D6
:10F980000720F1E709480460094806800948076034
:10F990000949019810DF0546002D01D02846E3E70C
:10F9A00001200649087016202EDFDDE7C028002060
:10F9B000C4280020B82800202DF90100BC28002010
:10F9C0000146002901D10E20704702480160002045
:10F9D000FAE70000CC280020FFB583B004461546A6
:10F9E00003266948007800280BD1002D06D106981F
:10F9F000002803D102206449087002E00120624916
:10FA00000870614800780300FDF7B6FD07B80520CF
:10FA10003D6186A1B800FFF7E7FA80080290FFF782
:10FA2000E3FA049948430190FFF7CAFA471EFFF72B
:10FA3000DBFA474300973846029A019929DF0646C8
:10FA4000002E02D102205049087098E0049828DF67
:10FA50000646002E16D1002D11D1069800280AD195
:10FA60002078042803D10720474908700AE00520C0
:10FA70004549087006E004204349087002E003206D
:10FA8000414908707BE0FFF79BFA471EFFF7ACFA8D
:10FA900047430297FFF7A8FA049948432A46019082
:10FAA000029929DF0646002E10D1069800280AD1B7
:10FAB0002078042803D106203349087006E0052089
:10FAC0003149087002E004202F49087057E0FFF721
:10FAD00077FA471EFFF788FA4743A800381861886D
:10FAE00040180290FFF780FA04994843A900401893
:10FAF000618840180190069A029929DF0646002E77
:10FB000009D12078042803D106201F49087002E09B
:10FB100005201D49087032E0FFF766FA0499484352
:10FB2000A9004718608882083846216929DF0646FF
:10FB3000002E0BD1002D06D10698002803D10720F6
:10FB40001149087002E006200F49087017E0FFF71E
:10FB50004BFA0190FFF734FA471EFFF745FA474387
:10FB6000009738460199FDF701FB029028DF064611
:10FB7000002E02D107200449087000E000BF00BF3A
:10FB8000304607B0F0BD00006B28002010B50446D9
:10FB90002046FFF701FC10BD0246501A0002000A81
:10FBA0007047000070B504460D480068002812D068
:10FBB0000B4AE169A06912689047054600BF2E46CE
:10FBC000002E06D000BF002211463046FDF734FD5E
:10FBD00000BF00BF02E0A169E069884770BD000076
:10FBE000A4280020FEB50020C043019010480468FE
:10FBF000104807686846FEF705F90546FEF7FEFD62
:10FC00000646002D05D001AA21460098FEF73CF9D2
:10FC100001260198FEF752FE002800D00126002E92
:10FC200002D03846FEF778F8002003490870FEBD80
:10FC30009428002090280020A928002010B5142026
:10FC4000FDF79AFB10BD0000F0B50246242050439A
:10FC5000324B1B68C11832480068401C002802D192
:10FC60002F48026059E02E484B6800682424604306
:10FC70002A4C246800194068834217D82848006835
:10FC800024235843254B1B68C01840684B68C31A8F
:10FC90002348006824246043204C246800194360F2
:10FCA0001F48006808621E48026036E04B681C4D21
:10FCB0002C6828680DE024254543184E3668AD1998
:10FCC0006D685B1B044624254543144E3668AD1908
:10FCD000286A451C002D07D0242545430F4E366861
:10FCE000AD196D689D42E6D3451C002D0CD024252E
:10FCF00045430A4E3668AD196D68EE1A2425454312
:10FD0000064F3F68ED196E604B600862242565431D
:10FD1000024E3668AD192A6200BFF0BD842800206B
:10FD20009028002070B502462C4C2168084609E056
:10FD3000904200D109E0014624244443284D2D6817
:10FD40006419206A441C002CF2D100BF441C002C12
:10FD500000D170BD814217D1204C246824256C430A
:10FD60001F4D2D686419246A1C4D2C602C46246894
:10FD7000641C002C08D101241A4DAC6000241A4DDB
:10FD80002C600124194D2C7024244443144D2D68FB
:10FD90006419636824244443114D2D686419256A4D
:10FDA00024244C430E4E3668A419256224244C4367
:10FDB0000B4D2D686419206A441C002C0CD024249F
:10FDC0004443074D2D6864196468E51824244443AE
:10FDD000034E3668A419656000BFBAE7902800207A
:10FDE000842800200010014094280020A928002029
:10FDF000FFB581B005460E461746E900104A126865
:10FE00008818694600F0E7F80446002C02D1042067
:10FE100005B0F0BD012020706660FFF79FFBA06079
:10FE2000E760049820610A986061E900044A12685A
:10FE30008818009900F0E5F8FFF700FF0020E7E7D9
:10FE40008C280020F8B504460E46E1000C4A1268E2
:10FE50008818694600F0BFF80546002D01D104203E
:10FE6000F8BD022028706E60E100054A126888180B
:10FE7000009900F0C6F8FFF7E1FE0020F0E700006F
:10FE80008C280020F8B520480068401C00283AD093
:10FE90000027FFF763FB04461C4801682046FFF774
:10FEA0007BFE06461848056811E02420684318497F
:10FEB000096844186068B04200D90BE06068361ADF
:10FEC0006068C719256A2046FFF76CFE00BF681CF2
:10FED0000028EAD100BF0F4800780F49097888420E
:10FEE00009D10D480078401CC0B20B4908700228A7
:10FEF00001D10020087008480078800007490F50A1
:10FF0000FFF79CFE00BFF8BD902800209428002039
:10FF100084280020A0280020A12800209828002064
:10FF200010B51120FDF728FA10BD000038B500BF4C
:10FF300000201B4B052204210090FDF7DBFB05464A
:10FF400000BF2B46002B05D000BF002211461846EB
:10FF5000FDF772FB00BF00BF124A01211248FDF7F6
:10FF60008FFB044600BF2346002B05D000BF0022B4
:10FF700011461846FDF760FB00BF0C4A00210C48F3
:10FF8000FDF77EFB044600BF2346002B05D000BFD3
:10FF9000002211461846FDF74FFB00BF38BD000098
:10FFA000482A002019000200002800200900020051
:10FFB0000428002010B5FDF7F7FE012802D0032821
:10FFC00004D101E0002403E0012401E0022400BF89
:10FFD00000BF204610BD70B502460B465078411C4C
:10FFE0009078884200D100211078884201D1002009
:10FFF00070BD196050781826704355682C1820463B
:020000040002F8
:10000000F6E741707047000087DF00200149087063
:10001000704700004428002070B505463448006849
:10002000401C3349086033480068401C314908606F
:1000300008460068E1210901884202D301202E49C7
:1000400008702D480078002800D070BD2B4800882B
:100050001921C90188423CDA0F2125480068FDF7C3
:1000600085F8002941D12648007800283DD187DF56
:1000700004462448007840084000401C214908708C
:1000800008460078022188431E490870062008812E
:1000900005204881002048608881084686DF0446A4
:1000A00000BF2346002B05D000BF00221146184692
:1000B000FDF7C2FA00BF012011490870124800681C
:1000C000FDF7C6FB002211490F480068FDF78AFBC7
:1000D0000BE0084800684B21C900884205D901207F
:1000E0000549087000200349086000BFADE7000023
:1000F000082800200C2800203D2800203A28002055
:1001000044280020D028002004280020CD8C0000A6
:100110004454553A000000000000000000000000B8
:1001200000000000000000000000000000000000CF
:1001300000000000000000000000000000000000BF
:1001400000000000000000000000000000000000AF
:10015000000000000000000000000000000000009F
:100160008001020000280020D000000094D501008A
:1001700050020200D0280020F0120000A4D5010097
:10018000000000000000000000000000000000006F
:1001900000006D018C01A901C801E60105022302DE
:1001A000D400F300110130014E01000000000000F6
:1001B000000000000000000000000000000000003F
:1001C000000000000000000000000000000000002F
:1001D0000000000000000000000000000024F40007
:1001E0000000000000000000000000000000FFFF11
:1001F00001000000000000000000000000000000FE
:1002000000000000000000000000000000000000EE
:1002100000000000000000000000000000000000DE
:1002200000000000000000000000000000000000CE
:1002300000000000000000000000000000000000BE
:1002400000000000000000000000000000000000AE
:040000050001D0C165
:00000001FF
