:020000040001F9
:10D00000903F0020F5D001000FD1010011D10100A7
:10D010000000000000000000000000000000000010
:10D0200000000000000000000000000013D101001B
:10D03000000000000000000015D1010017D1010020
:10D0400019D1010019D1010041D4010019D1010009
:10D0500019D101000000000011D20100C9D1010066
:10D0600019D1010019D1010019D1010019D1010014
:10D0700019D1010019D1010019D1010019D1010004
:10D0800019D10100A1D3010019D1010019D101006A
:10D09000C9D3010019D10100D1D3010019D1010078
:10D0A00019D1010019D101000000000000000000AA
:10D0B0000000000000000000000000000000000070
:10D0C0000348854600F06EF80048004785E10100FE
:10D0D000903F0020401E00BF00BF00BF00BF00BF48
:10D0E00000BF00BF00BF00BF00BF00BF00BFF1D145
:10D0F000704700000321094802680A43026008489B
:10D1000002680A4302600748804707480047FEE775
:10D11000FEE7FEE7FEE7FEE7FEE70000240500402D
:10D120005405004009D40100C1D0010030B50B46C0
:10D13000014600202022012409E00D46D5409D42F1
:10D1400005D31D469540491B254695404019154677
:10D15000521E002DF1DC30BD70B50024254600289C
:10D1600001DA01244042002901DA01254942FFF792
:10D17000DDFFAC4200D04042002C00D0494270BDDF
:10D18000D2B201E00270401C491EFBD2704700225F
:10D19000F6E710B513460A4604461946FFF7F0FFB6
:10D1A000204610BD064C0125064E05E0E36807CC7D
:10D1B0002B430C3C98471034B442F7D3FFF784FF5D
:10D1C000F8F3010018F4010010B50D4800680028BC
:10D1D00014D000200A4908600A488068C4B20120BF
:10D1E000094948604B21090161430846FF21FFF7C7
:10D1F000B3FF410040180549088000BF10BD000082
:10D200000071004000750040007000404828002078
:10D21000F0B585B03048056900203049C863002664
:10D2200054E0142070432E49096844180120B0408E
:10D230002C4909680840002846D00020029001903F
:10D24000E068C04368402168084003902046039985
:10D2500001F09EFC20480069684021680840049065
:10D260000498002818D0049868400090E068C043F3
:10D27000009948402168084007463946204601F099
:10D2800087FCA06800998843384001906068009945
:10D2900008403840029000BFA068A84303990840A6
:10D2A0000199084301906068284003990840029959
:10D2B00008430290019902980843002803D022698C
:10D2C00001990298904700BF701CC6B206480078CA
:10D2D0008642A6DB05B0F0BD00050050406100406D
:10D2E000A42800209C280020A1280020C206D20EDD
:10D2F00001219140014A11607047000080E200E086
:10D30000C206D20E01219140014A1160704700000F
:10D3100000E100E0C206D20E01219140014A1160F5
:10D320007047000000E200E010B5002819DA1A4A40
:10D3300003071B0F083B9B089B00D2588307DC0E9A
:10D34000FF23A3409A438B071B0E8407E40EA340E0
:10D350001A43114B0407240F083CA408A4001A51D7
:10D3600018E00E4A03231B02D21883089B00D258F0
:10D370008307DC0EFF23A3409A438B071B0E840711
:10D38000E40EA3401A43054B032424021B1984080E
:10D39000A4001A5110BD00001CED00E000E100E007
:10D3A00010B50020074908600021064841608160EF
:10D3B000C1600020034940390860486001F0FAFE6E
:10D3C00010BD00004011014010B501F0C3FD10BDBB
:10D3D00070B50C480068002810D00A4800688047E3
:10D3E000044600BF2546002D06D000BF002211468E
:10D3F000284600F0D9F800BF00BF01E000F010FDA2
:10D4000070BD0000A828002010B500F083FD0028A2
:10D4100005D0074807494860C8130749886100F0EC
:10D420005DFD002802D001200449886010BD000085
:10D43000DFFF07C000050040006C00400006004010
:10D440001CB524488068002818D02348406804216F
:10D450000840002812D000201E4988601F488069BB
:10D46000C0B21F4908800421684601701C48017839
:10D47000684601711B490968884700BF1548C069A3
:10D4800000280BD01448406880210840002805D0AF
:10D4900000201049C861032000F088FF0D48406A51
:10D4A000002816D00C484068012149020840002895
:10D4B0000FD000200749486208488038046804609B
:10D4C0000220694608700194684606490968884741
:10D4D00000BF1CBD0021004000230040002500408B
:10D4E0005E2800206828002030B47446641E257829
:10D4F000641CAB4204D3635D5B00E31830BC184787
:10D500001D46F8E702E008C8121F08C1002AFAD138
:10D5100070477047002001E001C1121F002AFBD1B3
:10D52000704710B500F01AF810BD000007480078E9
:10D53000022802D001200649886006480078064982
:10D54000C861022001490870704700006C28002063
:10D55000002000405C280020002500401CB5012070
:10D560000549C86005490870032069460870684687
:10D570000349096888471CBD002000406C28002032
:10D580006828002000200549087001200449C8606F
:10D590004860002003490860704700006C280020A4
:10D5A000002000400025004000BFBFF34F8F04481B
:10D5B0000449C860BFF34F8F00BF00BFFEE7000003
:10D5C0000400FA0500ED00E0F8B505460C462778A2
:10D5D000A068000105490E58608800902A46394627
:10D5E000204608302369B047F8BD00004C310020C8
:10D5F00070B503460C4619480068002801D1082080
:10D6000070BD002A01D10720FAE7002B01D10720C5
:10D61000F6E700211CE024204843104D2D68285CCB
:10D62000002814D10125242048430C4E3668355477
:10D6300024204843094D2D68401944702420484354
:10D64000064D2D684019826119600020D8E7491CF9
:10D65000034800788142DEDB0420D1E774280020F3
:10D6600070280020FFB581B00E4617461C462046A4
:10D670008107890F002901D1012100E00021002943
:10D6800002D1072005B0F0BD002C01D10720F9E739
:10D6900001F0DEF926490A980860264806702648F7
:10D6A000046000250CE0002124206843224A12680F
:10D6B000115424206843204A1268801801756D1C9B
:10D6C000B542F0DB24207043041903201B49087085
:10D6D0001B480460183400250CE0E900184A126861
:10D6E00088180021017041708770446018217943C7
:10D6F0000C196D1C032DF0DB0020C043114908609C
:10D70000002011490870114908701420FFF7EEFD40
:10D7100003211420FFF708FE1420FFF7F1FD019804
:10D7200001F06CF901F064F9094908600020A9E7EB
:10D7300094280020702800207428002078280020D9
:10D740007C2800208028002090280020912800209C
:10D7500084280020FEB504460D461646164800688B
:10D76000002801D10820FEBD14480078844201D26F
:10D77000052D01D20720F6E7242060430E490968F1
:10D78000085C012801D00820EDE7242060430A4905
:10D79000096840184078012801D1284600E000209F
:10D7A000074601F089FD3B462A4621460096019036
:10D7B00001F0D6FCD7E70000742800207028002074
:10D7C00070B5044600BF01201849486020020821B6
:10D7D0000843174948600020164908600120144991
:10D7E00008600020134908600120134908600025E3
:10D7F00001E0681CC5B20F480068002801D1FF2D68
:10D80000F7DB0B4989684B22120151430846FF217F
:10D81000FFF78CFC410040180849088001200649A8
:10D82000486000200249086070BD0000007300409D
:10D830000075004000710040007000404828002042
:10D84000FEB50446261D2088192871D01B2870D1EA
:10D85000607C81286ED1A07C5828FBD1A07BC007BA
:10D86000C00F002866D0B07AC008032862DD062009
:10D8700008E0421EF11C895C0822121A474B995499
:10D88000411EC8B20028F4DC042007E021460F3115
:10D890000A5C424B011D5A54411CC8B2B17AC908F6
:10D8A0008142F3DC607B3D490870002705E03B497D
:10D8B000C85D01F0E3F9781CC7B2202FF7DB3848C8
:10D8C00001880088401C364B18806A46354800F0B5
:10D8D00093FD054600BF2B46002B05D000BF00225C
:10D8E00011461846FFF760FE00BF002320222B4997
:10D8F000684600F031FF054600BF2B46002B05D0DF
:10D9000000BF002211461846FFF74EFE00BF00F090
:10D9100027FE0746C017C00EC019401164214843B6
:10D920001F490988884206D1002001F0BDF829E08E
:10D930002AE030E027E000F013FE0746C017C00ED3
:10D94000C019411116480088FFF706FC002919D1BB
:10D950006A4613480188134800F04EFD054600F062
:10D96000FFFD07463946684600F08EFD054600BFBC
:10D970002B46002B05D000BF002211461846FFF7AA
:10D9800013FE00BF00BF07E0A079022802D10020EB
:10D9900001F08AF800E000BF00BFFEBDD0280020E3
:10D9A0003E28002030280020F0B587B00F275548CA
:10D9B0000078142148435349091D4418E56820782C
:10D9C000022804D0042823D005287CD16AE02069ED
:10D9D00005904D48008886026088801B0690059857
:10D9E00080190590A088801945190121890206989F
:10D9F000884206D2069882082846059929DF0746FC
:10DA000005E0FF2201322846059929DF07466FE02D
:10DA1000A06800013D49401800890690A0680001F7
:10DA2000401840890590A0680001401840680490A3
:10DA30000498A84205D10599069848436188884210
:10DA400002D0A06865280DD100F08FFD014603903B
:10DA50002846FFF76BFB2C4909884618304628DF1B
:10DA600007461EE000F081FD014601902846FFF7C1
:10DA70005DFB064600F079FD7043281A800803908C
:10DA800000F073FD711C484361884919401A8008F1
:10DA9000029031462046029B039A01F055F9074651
:10DAA00000BF25E000F061FD014604902846FFF725
:10DAB0003DFB064600F059FD7043A1884919081A3C
:10DAC0008008069000E012E000F04FFD711C484312
:10DAD000A188491962888918401A80080590314642
:10DAE0002046059B069A01F02FF9074600E000BF8B
:10DAF00000BF002F02D1012002498870384607B0CC
:10DB0000F0BD000080300020582800204C3100205B
:10DB100010B500240848407800280BDD06488078BE
:10DB2000002807D1FFF740FF0446002C02D0112C3B
:10DB300000D10024204610BD803000200023142195
:10DB400041430C4A53541421414389184B806423A8
:10DB50001421414389188B60002314214143891803
:10DB6000CB601421414389180B611421414389186A
:10DB70008B80704784300020FFB581B00646174681
:10DB80000024224840780A283CD0204800781F49C9
:10DB900049784018C4B20A2C02DB20460A38C4B2C5
:10DBA000142060431949091D0E54002214206043BB
:10DBB00040184270142060434018076114206043ED
:10DBC0004118029805C8CA608860142161430F4A51
:10DBD000121D8918049848801421614389180A98F5
:10DBE00088800025101F8078002805D1FFF7DCFE13
:10DBF0000546112D00D1002504484078401C0349FA
:10DC0000487000E00425284605B0F0BD80300020B3
:10DC100010B50020084908800849087008490870B4
:10DC200048708870002403E02046FFF787FF641CDB
:10DC30000A2CF9D310BD0000582800205B280020D2
:10DC400080300020FEB51E480068401C002834D0FB
:10DC50001B480068242148431A4909684018456850
:10DC600000F0C6FE0190184804682146019801F0B2
:10DC70004BF9C61C15480078002801D100F0CAFEF7
:10DC8000AE4201D2284600E0304604192402240A9C
:10DC900020460F49086000BF00F0AAFE00900199DD
:10DCA000009801F031F9C71C2046019901F02CF9C8
:10DCB000874201D901F0CCFA01E000F0C9FEFEBDB7
:10DCC0008028002074280020842800209828002024
:10DCD0004015014010B514484068C105C90D002920
:10DCE00020D00A46103A50B200280DDA0E4B1C33F1
:10DCF0000407240F083CA408A4001B598407E40E61
:10DD0000E3401B069B0F0BE0084B032424021B1966
:10DD10008408A4001B598407E40EE3401B069B0FF4
:10DD2000D8B210BD0420FCE700ED00E000E100E007
:10DD3000014614480078144A127890421DD01148C8
:10DD40000078401C0F4A107010460078022801D15C
:10DD5000002010700B48007880000C4A10580860B2
:10DD60000B4A086812688018094A1060104600685B
:10DD70000002000A1060012070470020086000BF08
:10DD8000FAE7000090280020912800208828002031
:10DD90008428002070B5049C044E45683668B5425E
:10DDA00002D10025024E357070BD000038280020D9
:10DDB0003C280020F0B50346002426E0164E3668C5
:10DDC00024277E43154F3F68F01946689E4203D9C9
:10DDD0004668F61A46601DE046689B1B4668341983
:10DDE0000026466006750C4E35680B4F066A3E608D
:10DDF0000669002E08D00E193602360A86600669BA
:10DE0000C66016680662156000BF03480068401CC3
:10DE10000028D3D100BFF0BD802800207428002046
:10DE2000F8B529480078002800D1F8BD27480068D7
:10DE3000002801D1012000E00020054624480068A8
:10DE4000002801D1012000E00020064600BF002D7F
:10DE500014D1684651DF0446052C01D101250CE0A0
:10DE6000002C06D000BF002211462046FFF79CFB85
:10DE700003E0164900980968884700BF002E1AD1B0
:10DE800014480088009069461348006861DF044622
:10DE9000052C01D101260DE0002C06D000BF002288
:10DEA00011462046FFF780FB04E00B480068084954
:10DEB0000968884700BF002D02D0002E00D000E086
:10DEC000C5E700BF00BFB0E7AC280020BC28002099
:10DED000B8280020B4280020B02800200C48008C6E
:10DEE000C0B2012812D10A48808C0007000F002818
:10DEF0000CD10748806AF0210840402806D1044828
:10DF0000C06A0840002801D1012070470020FCE7CA
:10DF1000C00F00F01948008CC0B201282CD117485E
:10DF2000808C0007000F002826D11448806AF02159
:10DF30000840002806D11148C06A0840002801D1D5
:10DF4000012070470D48806AF0210840102806D152
:10DF50000A48C06A0840002801D10120F1E70748BB
:10DF6000806AF0210840302806D10448C06A084081
:10DF7000002801D10120E4E70020E2E7C00F00F013
:10DF800001468807800F002801D10120704700203A
:10DF9000FCE70000FEB52B48006801902A48007895
:10DFA000009040E00098C00028490968441825788E
:10DFB00035E01820684361680F18681CC5B2A07866
:10DFC000A84200D100253878022802D0032823D1A6
:10DFD0000EE02421786848431D4909684618307DC1
:10DFE000002804D0786801F055F80020307514E05E
:10DFF0000CE01449096824225143154A1268881814
:10E00000002101750F4A016A116000BF0D480068C8
:10E01000401C0028EDD100E000BF00BF00BF6078C9
:10E02000A842C6D100BF0098411EC9B20091002885
:10E03000B8D1044801680198814201D00120FEBD99
:10E040000020FCE780280020782800207C28002081
:10E0500074280020FEB507464348006802904348F4
:10E060000078019071E00198C000414909684518A5
:10E0700063E0781C002807D03E46242070433D49C9
:10E0800009684418276A29E02978182359436A68DF
:10E0900050182978491C29702978AA78914201D111
:10E0A00000212970466824217143324A12688C1875
:10E0B0000178012902D1217D002900D03DE081684D
:10E0C000A160C168E160016921614169E1612A499A
:10E0D0000978002901D00021A16000BF2749A0686C
:10E0E0000968401A0002000A2549884208D22349DB
:10E0F000A068096800F008FFE1684018606011E05E
:10E100001E48A168006800F0FFFE0090E1680098DA
:10E11000814204D9E1680098081A606001E000209B
:10E12000606000BF0020A060E06001202075801EBC
:10E130002062304600F040FF00BF781C002898D1D4
:10E1400028786978884294D100BF0198411EC9B2ED
:10E150000191002887D1044801680298814201D0CA
:10E160000120FEBD0020FCE7802800207828002048
:10E170007C28002074280020992800208428002072
:10E18000FFFF7F0086B0022000F0A6FC04A871DF2C
:10E19000582069464874812104A8817004A9002090
:10E1A00070DF044600BF2346002B05D000BF0022CD
:10E1B00011461846FFF7F8F900BF01F04FF800F0DC
:10E1C000D9F920216846818100F0CAF90546C017B7
:10E1D000C00E401940116421484381B26846C18194
:10E1E00038480290384902A800F014FA044600BFEB
:10E1F0002346002B05D000BF002211461846FFF72A
:10E20000D3F900BF00F0ACF9054629462E4800F0CE
:10E210003BF9044600BF2346002B05D000BF002277
:10E2200011461846FFF7C0F900BF03200521090772
:10E230000722120289188864052109078918886550
:10E24000162000F05FF800200B2302460A21009000
:10E2500000F0DEFC00201D49088000220121C904D5
:10E260001B480068FFF776FA044600BF2346002BE0
:10E2700005D000BF002211461846FFF795F900BFF0
:10E2800000BF1448007800280ED000201249086012
:10E29000104908700D49088000F062F905462946CA
:10E2A000094800F0F1F8044648DF044600BF234661
:10E2B000002B05D000BF002211461846FFF774F965
:10E2C000DFE7000095DD0100302800203E28002017
:10E2D00000280020412800201028002010B58A00C6
:10E2E00005231B07072424021B1984001A5110BDA3
:10E2F00003210522120707231B02D2188300D150E5
:10E300007047000001218140014AD1607047000040
:10E310000005005010B508480078012802D00228F6
:10E3200007D102E0FFF72EF904E00320024908704C
:10E3300000E000BF00BF10BD6C2800200B48007833
:10E34000002802D003280DD108E004200849086005
:10E350000120084908600549087004E002200349CB
:10E36000087000E000BF00BF704700006C2800206C
:10E37000002500400020004010B509480078012821
:10E3800007D0022804D0032806D1FFF7FBF804E0E9
:10E3900000BFFFF7C6F800E000BF00BF10BD0000DF
:10E3A0006C28002010B5FFF7EDF810BD10B504463D
:10E3B0002300FFF799F80504070D0A101300FFF773
:10E3C000A9FF0CE0FFF7BAFF09E0FFF7D5FF06E071
:10E3D00000F008F803E0FFF7E5FF00E000BF00BF32
:10E3E00010BD000010B503480078012801D1FFF7E7
:10E3F0009DF810BD6C2800203CB5034600BF2048A6
:10E400000078002801D108203CBD00BF002B01D1BD
:10E410000E20F9E7002A01D10E20F5E718686428DC
:10E4200005D218680001174C2058002801D1072098
:10E43000EAE75C68186801940090019C1868000184
:10E44000104D4019008948432018019000980001A0
:10E450002C4600194089009C2401641924896043DA
:10E46000009C2401641964680019019CA04201D831
:10E470000720C9E7019C0098546010600020C3E7A2
:10E480005A2800204C310020F8B504460D4600BF44
:10E4900027480078002801D10820F8BD00BF002CD3
:10E4A00001D10E20F9E72068642805D22068000118
:10E4B00020490858002801D10720EEE72068000114
:10E4C0001C4940184089216809011A4A891809899C
:10E4D00048432168090189184968401861688842E1
:10E4E00001D80720D9E76068FFF74AFD002801D16D
:10E4F0001020D2E723681B010E4FDB1962685B68AE
:10E50000D01A226812013B46D2181189FEF70EFE7E
:10E51000002901D00720C0E700202B4602462146F3
:10E5200000900420FFF728FB06463046B5E70000C0
:10E530005A2800204C31002070B508484469601CFE
:10E54000002807D000F011F8054629462046FEF7BE
:10E55000EDFD70BD012000074069FAE700100010D2
:10E5600001200007006980B27047012000070069A0
:10E5700080B27047F8B5FFF74BFB00201E490880BA
:10E58000FFF7DAFF0546653DFFF7EFFF45431B4800
:10E59000056000201A49088000BF0DE0002102013B
:10E5A000184B99500201D21811810201D2189181A1
:10E5B0000201D2185181401C6428EFD3082012496F
:10E5C0000870FFF7D2FF0090FFF7B6FF471EFFF776
:10E5D000CCFF47433E4630460099FEF7A7FD05466F
:10E5E00028DF0446002C04D101200849887008491E
:10E5F00008702046F8BD0000502800205428002054
:10E60000582800204C3100205B280020803000205A
:10E610005A280020F8B504460D4600BF4A48007845
:10E62000002801D10820F8BD00BF002C01D10E2028
:10E63000F9E7002D01D10E20F5E72068002801D16F
:10E640000E20F0E7FFF791FFA188884202DBA08847
:10E65000102801DA0720E6E7E08800281CD0FFF741
:10E660006BFF471EFFF781FF4743E088A1884843BF
:10E6700036490968401887420ED3FFF776FFE188D4
:10E68000A2885143884209DAFFF76FFF0746A18845
:10E69000FEF762FD002901D00720C4E7207980073A
:10E6A000800F002801D00720BDE729480088642892
:10E6B00001D10420B7E72648008828602348006875
:10E6C0006860234909880901224A891868684860F6
:10E6D0001F490988090120685050A0881C490988F1
:10E6E000090189180881E0881949098809018918F0
:10E6F000488100200090A688E1884E4300BF009822
:10E70000401C80B20090FFF730FFB04203D2FFF709
:10E710002CFF361A00E00026FFF727FF0B49096897
:10E7200040180A490860002EE9D109490988090101
:10E73000084A89180098888105480088401C0449C7
:10E74000088000206FE700005A280020542800208D
:10E75000502800204C310020F8B504460E461546DE
:10E760001F4600BF2F480078002801D10820F8BDBF
:10E7700000BF002E01D10E20F9E7002C01D10E20A0
:10E78000F5E72068642805D220680001264908586A
:10E79000002801D10720EAE720680001224940183B
:10E7A000408921680901204A89180989484321685C
:10E7B00009018918496840186168884201D8072012
:10E7C000D5E7002D06D020680001174940180089C0
:10E7D000A84201DA0720CAE7E81921680901124AAC
:10E7E00089180989884201DD0720C0E73046FFF714
:10E7F000C7FB002804D03846FFF7C2FB002801D130
:10E800001020B4E76068FFF7BBFB002801D110209F
:10E81000ADE72B463246214602200097FFF7ACF9C0
:10E82000A5E700005A2800204C310020F0B585B043
:10E83000064600256A48807801287DD10020684975
:10E84000887068480078082819D1022E03D100206A
:10E850006449087002E0002063490870FFF758F926
:10E860000546002D09D05E480078142250435C4ACA
:10E87000121D81182846FEF7A7FE05B0F0BD022E36
:10E8800002D0032E7ED183E05548007814214843FE
:10E890005349091D441855480088401C53490880B5
:10E8A0002078022807D108460088800261888842C3
:10E8B00001DB012000E0002003902078052805D12D
:10E8C00048480078072801D1012000E0002002908C
:10E8D0002078042805D143480078072801D1012079
:10E8E00000E000200190207804280BD13F480088E8
:10E8F00080026188884205DB3A480078002801D10F
:10E90000012000E0002000900298002808D1019822
:10E91000002805D10098002802D10398002825D0AE
:10E920002F48077800202F490870304908802C486C
:10E930004078401E2A4900E050E0487008460078C0
:10E94000401C0870084600780A2803DB0846007857
:10E950000A38087014207843214A121D811828466D
:10E96000FEF732FE3846FFF7E9F800BFFFF7D0F8B0
:10E970000546002D0BD01A48007814225043184A3F
:10E98000121D00E027E081182846FEF71DFE23E057
:10E9900013480078142148431149091D4418607830
:10E9A000401CC0B26070032809D1081F00781422EF
:10E9B00050430A4681180D20FEF706FE0AE0FEF7D6
:10E9C000F3FF0546002D05D0112D03D02146284622
:10E9D000FEF7FAFD00E000BF00BF00BF00BF4CE73C
:10E9E000803000205B2800205A2800205828002072
:10E9F00001484068704700000015014010B504460A
:10EA00000348846003211120FEF78EFC10BD000036
:10EA10000015014010B5012000040A494860094969
:10EA2000403948601120FEF761FC1120FEF768FCB8
:10EA30000120054908602F20FEF74CFB0120034907
:10EA4000087010BD401301400010014098280020BC
:10EA500010B51120012181400E4A116000BF012034
:10EA600000040D4988600C494039886001200B4939
:10EA700048602F20FEF72EFB012008498860002007
:10EA8000074908602F20FEF725FB00200549087084
:10EA900010BD000080E100E0401301400010014083
:10EAA000842800209828002070B5054687DF04469A
:10EAB00006480068E1214901884206D904480088D7
:10EAC000322802DD01200349087070BD10280020A3
:10EAD0003E28002041280020F8B5054611DF0446F5
:10EAE00000BF2346002B05D000BF00221146184668
:10EAF000FEF75AFD00BF00BF00234822214908202D
:10EB000000F0E2F8064600BF3346002B05D000BFF8
:10EB1000002211461846FEF747FD00BF00BF002047
:10EB20000090002168464170057060DF044600BF18
:10EB30002346002B05D000BF002211461846FEF7E1
:10EB400033FD00BF104800F0B3F8044600BF234671
:10EB5000002B05D000BF002211461846FEF724FD09
:10EB600000BF0A4800F0E4F8044600BF2346002B2B
:10EB700005D000BF002211461846FEF715FD00BF64
:10EB8000F8BD0000D02D002041D80100FDEE0100AD
:10EB9000F0B502460C46002037E0012383401946B9
:10EBA00023460B40002B2FD0D5680D40002D05D1FA
:10EBB00001235B04D5680D43D56004E003231B04E7
:10EBC000D5688D43D56005252D0707263602AD197A
:10EBD0008600AD5903263604B543052636070727B8
:10EBE0003F02F6198700F55105252D070726360245
:10EBF000AD198600AD591D430526360707273F028C
:10EC0000F6198700F55100BF401C2028C5D3F0BD80
:10EC1000F8B507460C4615461E462046FFF768FB2A
:10EC200000213046FFF75AFB1048C4604661069841
:10EC300000280DD03846FFF75BFB00212846FFF780
:10EC40004DFB0A4805618760012008494031C862D0
:10EC50000748064948620420086001200549886089
:10EC60000860002004498860F8BD000000250040CD
:10EC700000509D0000200040002100400549C8616F
:10EC800000BF0549C9690129FBD10021024AD161B0
:10EC900070470000002500400021004070B5064686
:10ECA0000C46154629462046C046C04670BD0000A9
:10ECB0000146002901D10E20704702480160002062
:10ECC000FAE70000B8280020FFB581B00C461646D0
:10ECD0001F46002C02D1072005B0F0BD2046810759
:10ECE000890F002901D1012100E00021002901D173
:10ECF0000720F1E7094804600948068009480760D1
:10ED00000949019810DF0546002D01D02846E3E7A8
:10ED100001200649087016202EDFDDE7B02800200C
:10ED2000B4280020A82800209DEC0100AC28002079
:10ED30000146002901D10E207047024801600020E1
:10ED4000FAE70000BC280020FFB583B00446154652
:10ED500003266948007800280BD1002D06D10698BB
:10ED6000002803D102206449087002E001206249B2
:10ED70000870614800780300FEF7B6FB07B805206D
:10ED80003D6186A1B800FFF7F0FB80080290FFF715
:10ED9000ECFB049948430190FFF7CEFB471EFFF7B9
:10EDA000E4FB474300973846029A019929DF06465B
:10EDB000002E02D102205049087098E0049828DF04
:10EDC0000646002E16D1002D11D1069800280AD132
:10EDD0002078042803D10720474908700AE005205D
:10EDE0004549087006E004204349087002E003200A
:10EDF000414908707BE0FFF79FFB471EFFF7B5FB1B
:10EE000047430297FFF7B1FB049948432A46019014
:10EE1000029929DF0646002E10D1069800280AD153
:10EE20002078042803D106203349087006E0052025
:10EE30003149087002E004202F49087057E0FFF7BD
:10EE40007BFB471EFFF791FB4743A80038186188FA
:10EE500040180290FFF789FB04994843A900401825
:10EE6000618840180190069A029929DF0646002E13
:10EE700009D12078042803D106201F49087002E038
:10EE800005201D49087032E0FFF76FFB04994843E5
:10EE9000A9004718608882083846216929DF06469C
:10EEA000002E0BD1002D06D10698002803D1072093
:10EEB0001149087002E006200F49087017E0FFF7BB
:10EEC00054FB0190FFF738FB471EFFF74EFB47430B
:10EED000009738460199FEF729F9029028DF064687
:10EEE000002E02D107200449087000E000BF00BFD7
:10EEF000304607B0F0BD00005B28002010B5044686
:10EF00002046FFF793FC10BD0246501A0002000A8B
:10EF10007047000070B504460D480068002812D004
:10EF20000B4AE169A06912689047054600BF2E466A
:10EF3000002E06D000BF002211463046FEF734FBFB
:10EF400000BF00BF02E0A169E069884770BD000012
:10EF500094280020FEB50020C043019010480468AA
:10EF6000104807686846FEF7E3FE0546FFF712F80B
:10EF70000646002D05D001AA21460098FEF71AFF8B
:10EF800001260198FFF766F8002800D00126002E20
:10EF900002D03846FEF756FE002003490870FEBD39
:10EFA00084280020802800209928002010B51420F3
:10EFB000FEF7B0F910BD0000F0B502462420504322
:10EFC000324B1B68C11832480068401C002802D12F
:10EFD0002F48026059E02E484B68006824246043A3
:10EFE0002A4C246800194068834217D828480068D2
:10EFF00024235843254B1B68C01840684B68C31A2C
:10F000002348006824246043204C2468001943608E
:10F010001F48006808621E48026036E04B681C4DBD
:10F020002C6828680DE024254543184E3668AD1934
:10F030006D685B1B044624254543144E3668AD19A4
:10F04000286A451C002D07D0242545430F4E3668FD
:10F05000AD196D689D42E6D3451C002D0CD02425CA
:10F0600045430A4E3668AD196D68EE1A24254543AE
:10F07000064F3F68ED196E604B60086224256543BA
:10F08000024E3668AD192A6200BFF0BD7428002018
:10F090008028002070B502462C4C2168084609E003
:10F0A000904200D109E0014624244443284D2D68B4
:10F0B0006419206A441C002CF2D100BF441C002CAF
:10F0C00000D170BD814217D1204C246824256C43A7
:10F0D0001F4D2D686419246A1C4D2C602C46246831
:10F0E000641C002C08D101241A4DAC6000241A4D78
:10F0F0002C600124194D2C7024244443144D2D6898
:10F100006419636824244443114D2D686419256AE9
:10F1100024244C430E4E3668A419256224244C4303
:10F120000B4D2D686419206A441C002C0CD024243B
:10F130004443074D2D6864196468E518242444434A
:10F14000034E3668A419656000BFBAE78028002026
:10F1500074280020001001408428002099280020F5
:10F16000FFB581B005460E461746E900104A126801
:10F170008818694600F0B1F80446002C02D104203A
:10F1800005B0F0BD012020706660FFF731FCA06083
:10F19000E760049820610A986061E900044A1268F7
:10F1A0008818009900F0AFF8FFF700FF0020E7E7AC
:10F1B0007C280020F8B520480068401C00283AD080
:10F1C0000027FFF715FC04461C4801682046FFF79E
:10F1D0009BFE06461848056811E02420684318493C
:10F1E000096844186068B04200D90BE06068361ABC
:10F1F0006068C719256A2046FFF78CFE00BF681CAF
:10F200000028EAD100BF0F4800780F4909788842EA
:10F2100009D10D480078401CC0B20B490870022883
:10F2200001D10020087008480078800007490F507D
:10F23000FFF7BCFE00BFF8BD802800208428002016
:10F240007428002090280020912800208828002081
:10F2500010B51120FEF75EF810BD000038B500BFF4
:10F260000020124B052204210090FEF7FBF9054611
:10F2700000BF2B46002B05D000BF002211461846C8
:10F28000FEF792F900BF00BF094A01210948FEF7C5
:10F29000AFF9044600BF2346002B05D000BF002273
:10F2A00011461846FEF780F900BF38BD182E002021
:10F2B0000DF301000028002010B5FEF70BFD01281A
:10F2C00002D0032804D101E0002403E0012401E07E
:10F2D000022400BF00BF204610BD70B502460B4699
:10F2E0005078411C9078884200D1002110788842E3
:10F2F00001D1002070BD1960507818267043556800
:10F300002C182046F6E7417070470000F8B5074614
:10F3100031480068103030490860304800681030CB
:10F320002E4908602E480078002800D0F8BD012141
:10F3300089022C48FDF72BFF00202B490880202054
:10F34000FEF73EFA294989684B22120151430846CB
:10F35000FF21FDF7EBFE4100401886B2FFF700F9F0
:10F360000546C017C00E401940116421484320498A
:10F370000988884224DD1F48007840084000401C6E
:10F380001C49087008460078022188431949087012
:10F3900014200881122048810020486002208881C2
:10F3A00087DF0446134886DF044600BF2346002B50
:10F3B00005D000BF002211461846FEF7F5F808E018
:10F3C00006480068E1210901884202D90120044968
:10F3D000087000BFAAE700000C28002010280020B9
:10F3E00041280020D028002014280020007500406B
:10F3F0003E280020C028002018F40100002800202A
:10F40000C000000004D50100D8F40100C02800208D
:10F41000D016000014D5010000000000000000001C
:10F4200000000000000000000000000000000000DC
:10F430001F003B005A0078009700B500D400F3008D
:10F44000110130014E01000000000000000000002A
:10F4500000000000000000000000000000000000AC
:10F46000000000000024F400000000000000000084
:10F47000000000000000FFFF01000000000000008D
:10F48000000000000000000000000000000000007C
:10F49000000000000000000000000000000000006C
:10F4A000000000000000000000000000000000005C
:10F4B000000000000000000000000000000000004C
:10F4C000000000000000000000000000000000003C
:08F4D000000000000000000034
:040000050001D0C165
:00000001FF
