:020000040001F9
:10D00000603F002035D101004FD1010051D1010016
:10D010000000000000000000000000000000000010
:10D0200000000000000000000000000053D10100DB
:10D03000000000000000000055D1010057D10100A0
:10D0400059D1010059D10100C1D4010059D10100C9
:10D0500059D101000000000075D201002DD201005D
:10D0600059D1010059D1010059D1010059D1010014
:10D0700059D1010059D1010059D1010059D1010004
:10D0800059D1010021D4010059D1010059D1010029
:10D0900049D4010059D1010051D4010059D10100F6
:10D0A00059D1010059D1010000000000000000002A
:10D0B0000000000000000000000000000000000070
:10D0C0000348854600F0A0F80048004729E8010021
:10D0D000603F0020401E00BF00BF00BF00BF00BF78
:10D0E00000BF00BF00BF00BF00BF00BF00BFF1D145
:10D0F00070470000401E00BF00BF00BF00BF00BF60
:10D1000000BF00BF00BF00BF00BF00BF00BFF1D124
:10D1100070470000401E00BF00BF00BF00BF00BF3F
:10D1200000BF00BF00BF00BF00BF00BF00BFF1D104
:10D13000704700000321094802680A43026008485A
:10D1400002680A4302600748804707480047FEE735
:10D15000FEE7FEE7FEE7FEE7FEE7000024050040ED
:10D160005405004089D40100C1D0010030B50B4600
:10D17000014600202022012409E00D46D5409D42B1
:10D1800005D31D469540491B254695404019154637
:10D19000521E002DF1DC30BD70B50024254600285C
:10D1A00001DA01244042002901DA01254942FFF752
:10D1B000DDFFAC4200D04042002C00D0494270BD9F
:10D1C00003460B439B0703D009E008C9121F08C0A0
:10D1D000042AFAD203E00B780370401C491C521E4B
:10D1E000F9D27047D2B201E00270401C491EFBD256
:10D1F00070470022F6E710B513460A460446194662
:10D20000FFF7F0FF204610BD064C0125064E05E055
:10D21000E36807CC2B430C3C98471034B442F7D357
:10D22000FFF752FF30FF010050FF010010B50D481D
:10D230000068002814D000200A4908600A48806865
:10D24000C4B20120094948604B21090161430846E5
:10D25000FF21FFF7A1FF410040180549088000BFEA
:10D2600010BD0000007100400075004000700040DB
:10D2700042280020F0B585B03048056900203049CB
:10D28000C863002654E0142070432E4909684418EE
:10D290000120B0402C4909680840002846D00020F1
:10D2A00002900190E068C043684021680840039004
:10D2B0002046039902F0C9F82048006968402168B7
:10D2C000084004900498002818D004986840009002
:10D2D000E068C04300994840216808400746394645
:10D2E000204602F0B2F8A0680099884338400190C7
:10D2F0006068009908403840029000BFA068A843C9
:10D3000003990840019908430190606828400399F7
:10D3100008400299084302900199029808430028A6
:10D3200003D0226901990298904700BF701CC6B2D1
:10D33000064800788642A6DB05B0F0BD0005005027
:10D34000406100409C28002094280020992800205B
:10D35000C206D20E01219140014A116070470000BF
:10D3600080E200E0C206D20E01219140014A116024
:10D370007047000000E100E0C206D20E012191409A
:10D38000014A11607047000000E200E010B500287B
:10D3900019DA1A4A03071B0F083B9B089B00D25857
:10D3A0008307DC0EFF23A3409A438B071B0E8407E1
:10D3B000E40EA3401A43114B0407240F083CA408B1
:10D3C000A4001A5118E00E4A03231B02D218830846
:10D3D0009B00D2588307DC0EFF23A3409A438B07A0
:10D3E0001B0E8407E40EA3401A43054B03242402BA
:10D3F0001B198408A4001A5110BD00001CED00E0A8
:10D4000000E100E0BFF34F8F03480449C860BFF359
:10D410004F8F00BFFEE700000400FA0500ED00E0BA
:10D4200010B500200749086000210648416081606E
:10D43000C1600020034940390860486002F058FC90
:10D4400010BD00004011014010B502F021FB10BDDD
:10D4500070B50C480068002810D00A480068804762
:10D46000044600BF2546002D06D000BF002211460D
:10D47000284600F0D9F800BF00BF01E001F022F813
:10D4800070BD0000A028002010B501F095F800281C
:10D4900005D0074807494860C8130749886101F06B
:10D4A0006FF8002802D001200449886010BD0000F8
:10D4B000DFFF07C000050040006C00400006004090
:10D4C0001CB524488068002818D0234840680421EF
:10D4D0000840002812D000201E4988601F4880693B
:10D4E000C0B21F4908800421684601701C480178B9
:10D4F000684601711B490968884700BF1548C06923
:10D5000000280BD01448406880210840002805D02E
:10D5100000201049C861032001F0D4FA0D48406A88
:10D52000002816D00C484068012149020840002814
:10D530000FD000200749486208488038046804601A
:10D5400002206946087001946846064909688847C0
:10D5500000BF1CBD0021004000230040002500400A
:10D56000562800206028002030B47446641E2578B8
:10D57000641CAB4204D3635D5B00E31830BC184706
:10D580001D46F8E702E008C8121F08C1002AFAD1B8
:10D5900070477047002001E001C1121F002AFBD133
:10D5A000704710B500F01AF810BD00000748007869
:10D5B000022802D001200649886006480078064902
:10D5C000C8610220014908707047000064280020EB
:10D5D0000020004054280020002500401CB50120F8
:10D5E0000549C86005490870032069460870684607
:10D5F0000349096888471CBD0020004064280020BA
:10D600006028002000200549087001200449C860F6
:10D61000486000200349086070470000642800202B
:10D620000020004000250040FFF7ECFEF8B505465D
:10D630000C462778A068000105490E5860880090C4
:10D640002A463946204608302369B047F8BD000015
:10D650001C31002070B503460C46194800680028AC
:10D6600001D1082070BD002A01D10720FAE7002B64
:10D6700001D10720F6E700211CE024204843104D8B
:10D680002D68285C002814D10125242048430C4E25
:10D690003668355424204843094D2D68401944709C
:10D6A00024204843064D2D684019826119600020EE
:10D6B000D8E7491C034800788142DEDB0420D1E72B
:10D6C0006C28002068280020FFB581B00E46174660
:10D6D0001C4620468107890F002901D1012100E065
:10D6E0000021002902D1072005B0F0BD002C01D196
:10D6F0000720F9E701F0AAFD26490A9808602648A4
:10D7000006702648046000250CE0002124206843B0
:10D71000224A1268115424206843204A1268801853
:10D7200001756D1CB542F0DB242070430419032001
:10D730001B4908701B480460183400250CE0E90000
:10D74000184A12688818002101704170877044607F
:10D75000182179430C196D1C032DF0DB0020C04308
:10D7600011490860002011490870114908701420FF
:10D77000FFF7EEFD03211420FFF708FE1420FFF74A
:10D78000F1FD019801F038FD01F030FD0949086014
:10D790000020A9E78C280020682800206C280020A1
:10D7A0007028002074280020782800208828002075
:10D7B000892800207C280020FEB504460D46164628
:10D7C00016480068002801D10820FEBD14480078E2
:10D7D000844201D2052D01D20720F6E724206043C0
:10D7E0000E490968085C012801D00820EDE72420D3
:10D7F00060430A49096840184078012801D1284649
:10D8000000E00020074602F0C6FA3B462A462146C1
:10D810000096019002F042FAD7E700006C28002041
:10D820006828002070B5044600BF042C01D11024E4
:10D8300000E04024012018494860200208210843E4
:10D840001649486000201649086001201349086005
:10D85000002013490860012012490860002501E0FA
:10D86000681CC5B20E480068002801D1FF2DF7DB07
:10D870000A4989684B22120151430846FF21FFF7EC
:10D8800075FC41004018084908800120054948609E
:10D8900000200249086070BD007300400075004020
:10D8A000007100400070004042280020FEB5044690
:10D8B000261D20881B2861D1207D81285DD131481B
:10D8C0000088203001218902884256DA06200CE0C7
:10D8D000421EF11C8A5C2B490B880988491C294F80
:10D8E00039802949CA54411EC8B20028F0DC0520FD
:10D8F0000CE021460F310A5C22490B880988491C3B
:10D90000204F39802049CA54411CC8B21B28F0DB83
:10D910001E4800681C491B4A128888501948008814
:10D92000001D184908801A48008881B26A461948C3
:10D9300001F0EEF801988005800D002802D1012049
:10D9400015490870002320220F49684601F002FBA8
:10D95000054600BF2F46002F05D000BF002211460C
:10D960003846FFF761FE00BF09480068401C0849BF
:10D97000086000200349088000BF00E000BF00BF2E
:10D98000FEBD000010280020C82800200C28002020
:10D990003C2800202C280020402800200007000FF1
:10D9A0000A2803DA01463031C8B202E001463731B5
:10D9B000C8B27047F0B587B00F27554800781421DA
:10D9C00048435349091D4418E5682078022804D0CB
:10D9D000042823D005287CD16AE0206905904D48B1
:10D9E000008886026088801B069005988019059043
:10D9F000A08880194519012189020698884206D21B
:10DA0000069882082846059929DF074605E0FF2287
:10DA100001322846059929DF07466FE0A06800011A
:10DA20003D49401800890690A068000140184089CF
:10DA30000590A06800014018406804900498A8422E
:10DA400005D10599069848436188884202D0A068AC
:10DA500065280DD101F010F9014603902846FFF723
:10DA600085FB2C4909884618304628DF07461EE00A
:10DA700001F002F9014601902846FFF777FB0646C0
:10DA800001F0FAF87043281A8008039001F0F4F8C6
:10DA9000711C484361884919401A80080290314638
:10DAA0002046029B039A01F0EDFE074600BF25E0E9
:10DAB00001F0E2F8014604902846FFF757FB0646BE
:10DAC00001F0DAF87043A1884919081A8008069015
:10DAD00000E012E001F0D0F8711C4843A188491918
:10DAE00062888918401A8008059031462046059BB7
:10DAF000069A01F0C7FE074600E000BF00BF002FF6
:10DB000002D1012002498870384607B0F0BD0000FC
:10DB100050300020502800201C31002010B5002477
:10DB20000848407800280BDD06488078002807D197
:10DB3000FFF740FF0446002C02D0112C00D1002436
:10DB4000204610BD503000200023142141430C4AD0
:10DB500053541421414389184B80642314214143B9
:10DB600089188B600023142141438918CB6014214C
:10DB7000414389180B611421414389188B807047F8
:10DB800054300020FFB581B00646174600242248D5
:10DB900040780A283CD0204800781F49497840182E
:10DBA000C4B20A2C02DB20460A38C4B214206043F7
:10DBB0001949091D0E540022142060434018427078
:10DBC00014206043401807611420604341180298F4
:10DBD00005C8CA608860142161430F4A121D891864
:10DBE000049848801421614389180A988880002588
:10DBF000101F8078002805D1FFF7DCFE0546112DA7
:10DC000000D1002504484078401C0349487000E0DA
:10DC10000425284605B0F0BD5030002010B5002086
:10DC200008490880084908700849087048708870D9
:10DC3000002403E02046FFF787FF641C0A2CF9D379
:10DC400010BD000050280020532800205030002034
:10DC5000FEB51E480068401C002834D01B480068F0
:10DC6000242148431A4909684018456801F0BEFA62
:10DC70000190184804682146019801F0E3FEC61C93
:10DC800015480078002801D101F0C2FAAE4201D255
:10DC9000284600E0304604192402240A20460F4991
:10DCA000086000BF01F0A2FA00900199009801F00D
:10DCB000C9FEC71C2046019901F0C4FE874201D964
:10DCC00002F064F801E001F0C1FAFEBD78280020FE
:10DCD0006C2800207C28002090280020401501405E
:10DCE00010B514484068C105C90D002920D00A4666
:10DCF000103A50B200280DDA0E4B1C330407240FE3
:10DD0000083CA408A4001B598407E40EE3401B064A
:10DD10009B0F0BE0084B032424021B198408A4006A
:10DD20001B598407E40EE3401B069B0FD8B210BDBD
:10DD30000420FCE700ED00E000E100E010B54DA19B
:10DD40004DA001F00BFB4BA14BA001F007FB49A13B
:10DD50004BA001F003FB4CA14DA001F0FFFA45A13F
:10DD60004EA001F0FBFA50A144A001F0F7FA002800
:10DD700005D14DA141A001F0F1FA002866D03DA1E6
:10DD80004BA001F0EBFA002860D04C48407D3128D0
:10DD90005CD14A48807D352858DB4848007E3038C1
:10DDA0000A2148434549497E30394018434908769D
:10DDB0000846C07E30380A2148434049097F30393F
:10DDC00040183E49C8760846807F30380A214843CB
:10DDD0003A49C97F30394018384988770846203099
:10DDE000407830380A214843344920318978303925
:10DDF0004018C1B2314820304170007930380A21D2
:10DE000048432E492031497930394018C1B22B4856
:10DE1000203001712038007E401E40002849085AF9
:10DE20002649C97E4018182148432449897F401853
:10DE30003C21484321492031497840183C2148433E
:10DE40001E492031097940181E49086009A11EA009
:10DE500001F084FA07A11FA001F080FA05A121A01A
:10DE600001F07CFA23A125A001F078FA042000F04B
:10DE7000C5FD10BD4F4B000041540D0A00000000CD
:10DE8000415445310D0A00005245414459000000FB
:10DE900041542B4350494E3F0D0A000041542B433F
:10DEA0004C54533D310D0A004453543A00000000D5
:10DEB00041542B43434C4B3F0D0A0000C82C00201B
:10DEC000122800200C28002041542B434C54533D71
:10DED000300D0A0041542B434950534855540D0A04
:10DEE0000000000041542B43474154543D300D0A7B
:10DEF00000000000504F57455200000041542B4392
:10DF0000504F57443D310D0A0000000001461448AF
:10DF10000078144A127890421DD011480078401CB5
:10DF20000F4A107010460078022801D100201070AE
:10DF30000B48007880000C4A105808600B4A0868AB
:10DF400012688018094A1060104600680002000A32
:10DF50001060012070470020086000BFFAE7000051
:10DF60008828002089280020802800207C28002084
:10DF700070B5049C044E45683668B54202D1002550
:10DF8000024E357070BD0000342800203828002073
:10DF9000F0B50346002426E0164E366824277E435B
:10DFA000154F3F68F01946689E4203D94668F61A35
:10DFB00046601DE046689B1B466834190026466093
:10DFC00006750C4E35680B4F066A3E600669002EDA
:10DFD00008D00E193602360A86600669C6601668D1
:10DFE0000662156000BF03480068401C0028D3D1BA
:10DFF00000BFF0BD782800206C280020F0B58FB05D
:10E00000B4A1B5A001F0AAF9B2A1B3A001F0A6F99C
:10E01000B0A1B3A001F0A2F9B3A1B5A001F09EF99F
:10E02000002801D10FB0F0BDAAA1B4A001F096F96B
:10E03000A8A1B5A001F092F9A6A1B7A001F08EF9B0
:10E04000A4A1BFA001F08AF9A2A1C0A001F086F9A5
:10E05000C1A1C2A001F082F99EA1C3A001F07EF986
:10E06000C5A1C7A001F07AF9002806D1C2A19BA0E2
:10E0700001F074F9002800D1D4E796A1CAA001F0FC
:10E080006DF9CDA1CDA001F069F9D0A1D2A001F028
:10E0900065F9C9A1C9A001F061F9D3A1D4A001F02B
:10E0A0005DF9C5A1C5A001F059F9CFA1D4A001F037
:10E0B00055F9C1A1C1A001F051F9D4A1D6A001F038
:10E0C0004DF9002800D1ADE7BBA1BCA001F046F995
:10E0D000C5A1D6A001F042F9B7A1B8A001F03EF960
:10E0E000C1A1DAA001F03AF9B3A1B4A001F036F968
:10E0F000BDA1DDA001F032F9002800D192E775A1A1
:10E10000DBA001F02BF973A1DCA001F027F90326B5
:10E1100005E0DD48805D05A98855701CC6B21B2E40
:10E12000F7DB0420FFF77EFBD84989684B221201F8
:10E1300051430846FF21FFF719F84100401884B207
:10E140003B2108A8C1732013FFF728FC014608A84B
:10E1500001742012FFF722FC014608A84174210532
:10E16000080EFFF71BFC014608A88174E0B2FFF718
:10E1700015FC014608A8C1740620FFF753FBC349EC
:10E1800089684B22120151430846FF21FEF7EEFF3A
:10E190004100401884B23B2108A801752013FFF705
:10E1A000FDFB014608A841752012FFF7F7FB014669
:10E1B00008A881752105080EFFF7F0FB014608A8A5
:10E1C000C175E0B2FFF7EAFB08A908767AA17BA047
:10E1D00001F0C4F8AEA001F02DF9032505E005A972
:10E1E000485D01F01FFA681CC5B2252DF7DB39A187
:10E1F000AAA001F0B3F837A1AAA001F0AFF86EA170
:10E200006EA001F0ABF8012541E0A9480088401B51
:10E2100081B203AAA74800F07BFC002002900023F3
:10E22000202203A9A44800F07DFD80B202900027BF
:10E2300010E0A149C95D0811FFF7B0FB019001F0A2
:10E24000F1F99D49C85DFFF7A9FB019001F0EAF9DA
:10E25000781C87B2202FECDB0D2001F0E3F90A20B7
:10E2600001F0E0F92846E917090F09180911090119
:10E27000691A0AD117A161A001F070F8002800D135
:10E2800009E04DA14DA001F069F8681C85B28848ED
:10E2900000688542B9D300BF0EA15BA001F05EF813
:10E2A000002813D044A145A001F058F800280DD053
:10E2B00008A182A001F052F8002807D000207C4974
:10E2C000086004A128A001F049F800E0AAE600BF18
:10E2D000A8E600004F4B000041540D0A000000006A
:10E2E000415445300D0A0000524541445900000098
:10E2F00041542B4350494E3F0D0A000061742B637B
:10E3000073710D0A0000000061742B6367617474FF
:10E310003D310D0A0000000041542B434950435346
:10E3200047503D312C22636D6E6574222C22677537
:10E33000657374222C226775657374220D0A0000C0
:10E3400061742B435354540D0A00000041542B4375
:10E35000494943520D0A00002E00000041542B434E
:10E36000494653520D0A000041542B434950434C37
:10E370004F53453D310D0A006373746E65740000A0
:10E3800041542B43495053544152543D225443501D
:10E39000222C223135392E3232362E3235312E3181
:10E3A00031222C32350D0A0041542B434950535031
:10E3B00052543D310D0A00003E00000041542B43F1
:10E3C000495053454E440D0A00000000636F7265CA
:10E3D0006D61696C0000000065686C6F2068656C99
:10E3E0006F0D0A1A0000000053454E440000000063
:10E3F00061757468206C6F67696E0D0A1A00000001
:10E4000059324E6B59773D3D0D0A1A00737563639F
:10E4100065737366756C000059324E6B59324E7AD3
:10E420006447356C64413D3D0D0A1A004D41494C2D
:10E430002046524F4D3A3C6C7965406373746E656B
:10E44000742E636E3E0D0A1A0000000052435054B1
:10E4500020746F3A3C63636463406373746E6574E5
:10E460002E636E3E0D0A1A00444154410D0A1A00F3
:10E4700041542B435245473D320D0A0041542B4332
:10E480005245473F0D0A0000C82C0020007500408F
:10E490005375626A6563743A200000000D0A0D0A24
:10E4A0001A00000041542B435245473D300D0A00ED
:10E4B0003C2800202C280020C82800200D0A2E0D02
:10E4C0000A1A0000F8B529480078002800D1F8BDE4
:10E4D00027480068002801D1012000E000200546FF
:10E4E00024480068002801D1012000E000200646F1
:10E4F00000BF002D14D1684651DF0446052C01D120
:10E5000001250CE0002C06D000BF00221146204659
:10E51000FFF78AF803E0164900980968884700BFAA
:10E52000002E1AD1144800880090694613480068EC
:10E5300061DF0446052C01D101260DE0002C06D038
:10E5400000BF002211462046FFF76EF804E00B489A
:10E55000006808490968884700BF002D02D0002ED6
:10E5600000D000E0C5E700BF00BFB0E7A42800204E
:10E57000B4280020B0280020AC280020A8280020C3
:10E580000C48008CC0B2012812D10A48808C0007C8
:10E59000000F00280CD10748806AF021084040286D
:10E5A00006D10448C06A0840002801D10120704704
:10E5B0000020FCE7C00F00F01948008CC0B2012811
:10E5C0002CD11748808C0007000F002826D1144852
:10E5D000806AF0210840002806D11148C06A08402E
:10E5E000002801D1012070470D48806AF0210840C1
:10E5F000102806D10A48C06A0840002801D101202D
:10E60000F1E70748806AF0210840302806D1044825
:10E61000C06A0840002801D10120E4E70020E2E7B9
:10E62000C00F00F001468807800F002801D10120AB
:10E6300070470020FCE70000FEB52B480068019001
:10E640002A480078009040E00098C00028490968F6
:10E650004418257835E01820684361680F18681C55
:10E66000C5B2A078A84200D100253878022802D08F
:10E67000032823D10EE02421786848431D49096806
:10E680004618307D002804D0786801F0A1FA0020F7
:10E69000307514E00CE01449096824225143154AEE
:10E6A00012688818002101750F4A016A116000BFC5
:10E6B0000D480068401C0028EDD100E000BF00BFFD
:10E6C00000BF6078A842C6D100BF0098411EC9B201
:10E6D00000910028B8D1044801680198814201D016
:10E6E0000120FEBD0020FCE77828002070280020D3
:10E6F000742800206C280020FEB5074643480068B7
:10E70000029043480078019071E00198C0004149AF
:10E710000968451863E0781C002807D03E4624208D
:10E7200070433D4909684418276A29E0297818236D
:10E7300059436A6850182978491C29702978AA78A1
:10E74000914201D100212970466824217143324A47
:10E7500012688C180178012902D1217D002900D08E
:10E760003DE08168A160C168E160016921614169A2
:10E77000E1612A490978002901D00021A16000BF88
:10E780002749A0680968401A0002000A2549884202
:10E7900008D22349A068096801F054F9E1684018DB
:10E7A000606011E01E48A168006801F04BF900901C
:10E7B000E1680098814204D9E1680098081A606015
:10E7C00001E00020606000BF0020A060E060012048
:10E7D0002075801E2062304601F08CF900BF781C45
:10E7E000002898D128786978884294D100BF019890
:10E7F000411EC9B20191002887D1044801680298DE
:10E80000814201D00120FEBD0020FCE778280020D5
:10E8100070280020742800206C28002091280020F7
:10E820007C280020FFFF7F001FB5012047DF032069
:10E83000052109070722120289180861042000F047
:10E84000E5F8142000F0A6F800221146104600F06A
:10E850004FFF4449086044A00068039003AB03AA3B
:10E8600001214048006800F0C5FF0020092302464E
:10E870000821009000F07CFEFFF760FA3B4800683A
:10E88000002804D13A4800F085F8FEF7BBFD0420CB
:10E8900000F0B4F800203749C863022000F002FD00
:10E8A00000F0F0F92021684601811921C901418158
:10E8B00031480190314901A800F0AAFA044601212B
:10E8C00089022E4800F06CF9044600BF2546002D51
:10E8D00005D000BF002211462846FEF7A5FE00BF66
:10E8E00000BF0020264B052203210090FEF7ECFE1E
:10E8F000054600BF2E46002E05D000BF002211465F
:10E900003046FEF791FE00BF00BF1E4A01211E489F
:10E91000FEF7A0FE04461D4A00211D48FEF79AFEA0
:10E92000044600220521490417480068FEF744FF09
:10E93000044600BF2546002D05D000BF0022114629
:10E940002846FEF771FE00BF00BF48DF044600BF47
:10E950002546002D05D000BF002211462846FEF7AF
:10E9600063FEF2E708280020B90000000C28002010
:10E9700010270000C02F004071DF01002C2800206C
:10E98000102E002065FE010000280020E9FD010096
:10E990000428002001B505E00098401E00900348BF
:10E9A000FEF798FB00980028F6D108BDE7030000A9
:10E9B00010B58A0005231B07072424021B198400B5
:10E9C0001A5110BD10B58A0005231B070724240225
:10E9D0001B1984001A5110BD0321052212070723B9
:10E9E0001B02D2188300D150704703210522120761
:10E9F00007231B02D2188300D150704701218140A8
:10EA0000014AD1607047000000050050012181409B
:10EA1000014A9160704700000005005001218140CB
:10EA2000014A9160704700000005005010B5084889
:10EA30000078012802D0022807D102E0FEF7E2FDAB
:10EA400004E003200249087000E000BF00BF10BDD1
:10EA5000642800200B480078002802D003280DD13C
:10EA600008E00420084908600120084908600549B9
:10EA7000087004E002200349087000E000BF00BFF6
:10EA8000704700006428002000250040002000405E
:10EA900010B509480078012807D0022804D00328BF
:10EAA00006D1FEF7AFFD04E000BFFEF77AFD00E0FF
:10EAB00000BF00BF10BD00006428002010B5FEF7A5
:10EAC000A1FD10BD10B504462300FEF74DFD050461
:10EAD000070D0A101300FFF7A9FF0CE0FFF7BAFFBC
:10EAE00009E0FFF7D5FF06E000F008F803E0FFF7C4
:10EAF000E5FF00E000BF00BF10BD000010B50348F7
:10EB00000078012801D1FEF751FD10BD64280020D6
:10EB10003CB5034600BF20480078002801D10820FA
:10EB20003CBD00BF002B01D10E20F9E7002A01D126
:10EB30000E20F5E71868642805D218680001174C04
:10EB40002058002801D10720EAE75C681868019482
:10EB50000090019C18680001104D4019008948433D
:10EB600020180190009800012C4600194089009C53
:10EB70002401641924896043009C24016419646899
:10EB80000019019CA04201D80720C9E7019C009808
:10EB9000546010600020C3E7522800201C31002080
:10EBA000F8B504460D4600BF27480078002801D17B
:10EBB0000820F8BD00BF002C01D10E20F9E7206825
:10EBC000642805D22068000120490858002801D196
:10EBD0000720EEE7206800011C49401840892168A1
:10EBE00009011A4A891809894843216809018918C5
:10EBF000496840186168884201D80720D9E76068F1
:10EC0000FFF710FD002801D11020D2E723681B0177
:10EC10000E4FDB1962685B68D01A226812013B460E
:10EC2000D2181189FEF7A2FA002901D00720C0E707
:10EC300000202B460246214600900420FEF7A2FF4A
:10EC400006463046B5E70000522800201C3100205F
:10EC500070B508484469601C002807D000F00CF823
:10EC6000054629462046FEF781FA70BD01200007BF
:10EC70004069FAE70010001001200007006980B227
:10EC800070470000F8B5FEF7C9FF00201E49088054
:10EC9000FFF7DEFF0546653DFFF7EEFF45431B48E6
:10ECA000056000201A49088000BF0DE00021020124
:10ECB000184B99500201D21811810201D21891818A
:10ECC0000201D2185181401C6428EFD30820124958
:10ECD0000870FFF7D1FF0090FFF7BAFF471EFFF75C
:10ECE000CBFF47433E4630460099FEF73FFA0546C4
:10ECF00028DF0446002C04D1012008498870084907
:10ED000008702046F8BD0000482800204C2800204C
:10ED1000502800201C3100205328002050300020B3
:10ED200052280020FFB581B00C4615461E4600BF94
:10ED300035480078002802D1082005B0F0BD00BF9A
:10ED4000002C01D10E20F8E70198002801D10E20F7
:10ED5000F3E72068642805D2206800012B49085891
:10ED6000002801D10720E8E7206800012749401862
:10ED7000408921680901254A891809894843216881
:10ED800009018918496840186168884201D807203C
:10ED9000D3E7002D06D0206800011C4940180089E7
:10EDA000A84201DA0720C8E7A81921680901174A13
:10EDB00089180989884201DD0720BEE70198FFF71D
:10EDC00031FC002804D03046FFF72CFC002801D18C
:10EDD0001020B2E76068FFF725FC002801D1102061
:10EDE000ABE7606881192A460198FEF7E9F90095BA
:10EDF0002068000105490F58002203212046019B8D
:10EE0000B847002099E70000522800201C3100205C
:10EE1000F8B504460D4600BF4A480078002801D1E5
:10EE20000820F8BD00BF002C01D10E20F9E7002D0D
:10EE300001D10E20F5E72068002801D10E20F0E76F
:10EE4000FFF71AFFA188884202DBA088102801DAA8
:10EE50000720E6E7E08800281CD0FFF7F9FE471EF0
:10EE6000FFF70AFF4743E088A1884843364909680D
:10EE7000401887420ED3FFF7FFFEE188A288514376
:10EE8000884209DAFFF7F8FE0746A188FEF784F901
:10EE9000002901D00720C4E720798007800F0028CF
:10EEA00001D00720BDE729480088642801D104204B
:10EEB000B7E726480088286023480068686023492F
:10EEC00009880901224A8918686848601F49098829
:10EED000090120685050A0881C4909880901891837
:10EEE0000881E088194909880901891848810020AA
:10EEF0000090A688E1884E4300BF0098401C80B275
:10EF00000090FFF7B9FEB04203D2FFF7B5FE361A04
:10EF100000E00026FFF7B0FE0B49096840180A49D7
:10EF20000860002EE9D1094909880901084A8918B1
:10EF30000098888105480088401C0449088000200A
:10EF40006FE70000522800204C28002048280020AD
:10EF50001C310020F8B504460E4615461F4600BF7A
:10EF60002F480078002801D10820F8BD00BF002EEE
:10EF700001D10E20F9E7002C01D10E20F5E7206821
:10EF8000642805D22068000126490858002801D1CC
:10EF90000720EAE7206800012249401840892168DB
:10EFA0000901204A891809894843216809018918FB
:10EFB000496840186168884201D80720D5E7002DCC
:10EFC00006D020680001174940180089A84201DADC
:10EFD0000720CAE7E81921680901124A8918098936
:10EFE000884201DD0720C0E73046FFF71BFB002801
:10EFF00004D03846FFF716FB002801D11020B4E7F3
:10F000006068FFF70FFB002801D11020ADE72B4609
:10F010003246214602200097FEF7B4FDA5E7000026
:10F02000522800201C310020F0B585B0064600258E
:10F030006A48807801287DD1002068498870684836
:10F040000078082819D1022E03D1002064490870E5
:10F0500002E0002063490870FEF760FD0546002DC0
:10F0600009D05E480078142250435C4A121D811872
:10F070002846FEF7DBFA05B0F0BD022E02D0032EC3
:10F080007ED183E055480078142148435349091D37
:10F09000441855480088401C5349088020780228AD
:10F0A00007D10846008880026188884201DB012080
:10F0B00000E0002003902078052805D1484800781A
:10F0C000072801D1012000E00020029020780428C8
:10F0D00005D143480078072801D1012000E0002035
:10F0E0000190207804280BD13F4800888002618875
:10F0F000884205DB3A480078002801D1012000E071
:10F10000002000900298002808D10198002805D11D
:10F110000098002802D10398002825D02F480778AE
:10F1200000202F490870304908802C484078401E44
:10F130002A4900E050E0487008460078401C0870FA
:10F14000084600780A2803DB084600780A38087069
:10F1500014207843214A121D81182846FEF766FACA
:10F160003846FEF7F1FC00BFFEF7D8FC0546002D3F
:10F170000BD01A48007814225043184A121D00E0A0
:10F1800027E081182846FEF751FA23E0134800785B
:10F19000142148431149091D44186078401CC0B22D
:10F1A0006070032809D1081F0078142250430A46D2
:10F1B00081180D20FEF73AFA0AE0FEF7FBFB054640
:10F1C000002D05D0112D03D021462846FEF72EFA3A
:10F1D00000E000BF00BF00BF00BF4CE75030002080
:10F1E0005328002052280020502800200148406861
:10F1F000704700000015014010B5044603488460C4
:10F2000003211120FEF7C2F810BD000000150140D7
:10F2100010B5012000040A49486009494039486096
:10F220001120FEF795F81120FEF79CF80120054902
:10F2300008602F20FDF76EFF01200349087010BD04
:10F2400040130140001001409028002010B511200B
:10F25000012181400E4A116000BF012000040D49C8
:10F2600088600C494039886001200B4948602F2094
:10F27000FDF750FF01200849886000200749086019
:10F280002F20FDF747FF00200549087010BD000042
:10F2900080E100E040130140001001407C28002084
:10F2A00090280020F8B5054611DF044600BF264629
:10F2B000002E05D000BF002211463046FEF7B4F9FB
:10F2C00000BF00BF002348222149082000F0D0F9E8
:10F2D000064600BF3746002F05D000BF002211466A
:10F2E0003846FEF7A1F900BF00BF002000900021C2
:10F2F00068464170057060DF044600BF2646002E58
:10F3000005D000BF002211463046FEF78DF900BF40
:10F31000104800F0A1F9044600BF2646002E05D093
:10F3200000BF002211463046FEF77EF900BF0A48B2
:10F3300000F0D2F9044600BF2646002E05D000BFDB
:10F34000002211463046FEF76FF900BFF8BD0000FD
:10F35000C82D0020ADD8010039FA0100F3B581B005
:10F36000074600200090002501E0681CC5B2029805
:10F37000405D0028F9D1681EC5B200262C46FF2149
:10F3800001312A48FDF735FF03E038787F1C00F093
:10F3900049F938780028F8D12CE0032C15DD201F1E
:10F3A0002249085C452810D1E01E085C52280CD187
:10F3B000A01E085C522808D1601E085C4F2804D1AA
:10F3C0000846005D522800D11BE000260AE00298A2
:10F3D000805D611B8919154A515C884200D003E0A9
:10F3E000701CC6B2AE42F2DB00BFAE4200D108E0F4
:10F3F000601CC4B20D4801190D4800F0EFF8002858
:10F40000CBD100BFAE420DD10120009000BF2046FD
:10F41000621CD4B2054A8118012000F0DFF80028F0
:10F42000F5D101E0002000900098FEBDC82C00201E
:10F430001027000010B5044603E02078641C00F09B
:10F44000F1F820780028F8D110BDF0B502460C463E
:10F45000002037E001238340194623460B40002B50
:10F460002FD0D5680D40002D05D101235B04D56850
:10F470000D43D56004E003231B04D5688D43D5609C
:10F4800005252D0707263602AD198600AD5903263E
:10F490003604B5430526360707273F02F6198700CD
:10F4A000F55105252D0707263602AD198600AD5901
:10F4B0001D430526360707273F02F6198700F55139
:10F4C00000BF401C2028C5D3F0BD000038B504465D
:10F4D0000420FFF793FA6420FFF75CFA0420FFF79B
:10F4E00095FA01201149C86300200923024608212A
:10F4F000009000F03DF8FEF781FD0DA10DA0FFF793
:10F500002DFF0BA10FA0FFF729FF12A113A0FFF7FA
:10F5100025FF0420FFF772FA012189021348FDF745
:10F5200068FE00200149C86338BD0000C02F0040BC
:10F530004F4B000041542B434950534855540D0A3A
:10F540000000000041542B43474154543D300D0A04
:10F5500000000000504F57455200000041542B431B
:10F56000504F57443D310D0A00000000C8280020CC
:10F57000F8B507460C4615461E462046FFF735FAF5
:10F5800000213046FFF71EFA1048C4604661069815
:10F5900000280DD03846FFF728FA00212846FFF74B
:10F5A00011FA0A4805618760012008494031C862A4
:10F5B0000748064948620420086001200549886020
:10F5C0000860002004498860F8BD00000025004064
:10F5D00000509D00002000400021004070B504460E
:10F5E0000D4601260AE02046641E002804DB7D202B
:10F5F000C000FDF77FFD01E0002603E007488068BA
:10F600000128F0D100BF002C05DB002003498860F1
:10F61000034880692870304670BD0000002100401A
:10F62000002500400549C86100BF0549C969012995
:10F63000FBD10021024AD161704700000025004043
:10F640000021004070B506460C4615462946204666
:10F65000C046C04670BD00000146002901D10E2001
:10F660007047024801600020FAE70000B02800203F
:10F67000FFB581B00C4616461F46002C02D107206C
:10F6800005B0F0BD20468107890F002901D1012175
:10F6900000E00021002901D10720F1E709480460BA
:10F6A00009480680094807600949019810DF0546A6
:10F6B000002D01D02846E3E70120064908701620F6
:10F6C0002EDFDDE7A8280020AC280020A02800209D
:10F6D00045F60100A42800200146002901D10E2092
:10F6E0007047024801600020FAE70000B4280020BB
:10F6F000F7B506460F46002E01D13C4800E03C48D5
:10F700000446002E1FD10220FFF766F90120FFF703
:10F7100063F900210846FFF74BF91D20FFF75CF95C
:10F7200002200521090261188860012005210902D3
:10F730006118C860002005210902611808611D20B8
:10F74000FFF76CF91EE00220FFF746F90120FFF7F2
:10F7500043F900210846FFF72BF91C20FFF73CF97D
:10F760000220052109026118886001200521090293
:10F770006118C860002005210902611808611C2079
:10F78000FFF74CF9012000070521090261184862C2
:10F79000002F06D0012F06D0022F06D0032F08D14C
:10F7A00005E0002507E0022505E0042503E0062525
:10F7B00001E0002500BF00BF0298002806D001200C
:10F7C0002843052109026118486503E0052000026D
:10F7D000201845650021FF20093001510120052135
:10F7E0000902611808602046FEBD0000003000409C
:10F7F00000400040FFB581B000270026019D1F4852
:10F80000019D854201D11D2400E01C2400BF012080
:10F81000A0401B49C86000BF27E00398805D052118
:10F8200009026918C86100E07F1CFF2009304059B7
:10F83000002803D1032000038742F5D303200003EF
:10F84000874205D12046FFF7E9F8002005B0F0BD5A
:10F850000021FF200930415105200002281880694D
:10F86000C1B204988155701C86B202988642D4DBDE
:10F870002046FFF7D3F80120E8E700000030004001
:10F8800000050050FFB583B00446154603266948BD
:10F89000007800280BD1002D06D10698002803D14E
:10F8A00002206449087002E0012062490870614842
:10F8B00000780300FDF758FE07B805203D6186A1DA
:10F8C000B800FFF7D9F980080290FFF7D5F904993D
:10F8D00048430190FFF7BCF9471EFFF7CDF94743B6
:10F8E00000973846029A019929DF0646002E02D178
:10F8F00002205049087098E0049828DF0646002E40
:10F9000016D1002D11D1069800280AD1207804289C
:10F9100003D10720474908700AE0052045490870CF
:10F9200006E004204349087002E0032041490870C2
:10F930007BE0FFF78DF9471EFFF79EF947430297DB
:10F94000FFF79AF9049948432A460190029929DF62
:10F950000646002E10D1069800280AD120780428E7
:10F9600003D106203349087006E0052031490870AC
:10F9700002E004202F49087057E0FFF769F9471E9D
:10F98000FFF77AF94743A8003818618840180290B9
:10F99000FFF772F904994843A9004018618840189C
:10F9A0000190069A029929DF0646002E09D1207897
:10F9B000042803D106201F49087002E005201D49D4
:10F9C000087032E0FFF758F904994843A900471836
:10F9D000608882083846216929DF0646002E0BD14F
:10F9E000002D06D10698002803D107201149087080
:10F9F00002E006200F49087017E0FFF73DF901907B
:10FA0000FFF726F9471EFFF737F9474300973846B7
:10FA10000199FDF7ABFB029028DF0646002E02D1CC
:10FA200007200449087000E000BF00BF304607B05F
:10FA3000F0BD00005328002010B504462046FFF713
:10FA4000F3FA10BD0246501A0002000A7047000087
:10FA500070B504460D480068002812D00B4AE169D1
:10FA6000A06912689047054600BF2E46002E06D0BA
:10FA700000BF002211463046FDF7D6FD00BF00BF93
:10FA800002E0A169E069884770BD00008C28002071
:10FA9000FEB50020C0430190104804681048076874
:10FAA0006846FEF733FA0546FEF7C6FD0646002D0A
:10FAB00005D001AA21460098FEF76AFA01260198AE
:10FAC000FEF71AFE002800D00126002E02D038468C
:10FAD000FEF7BEF8002003490870FEBD7C28002018
:10FAE000782800209128002010B51420FDF744FC50
:10FAF00010BD0000F0B5024624205043324B1B6875
:10FB0000C11832480068401C002802D12F4802600A
:10FB100059E02E484B680068242460432A4C24682E
:10FB200000194068834217D82848006824235843A6
:10FB3000254B1B68C01840684B68C31A23480068EF
:10FB400024246043204C2468001943601F48006847
:10FB500008621E48026036E04B681C4D2C6828681D
:10FB60000DE024254543184E3668AD196D685B1BC2
:10FB7000044624254543144E3668AD19286A451CB1
:10FB8000002D07D0242545430F4E3668AD196D680A
:10FB90009D42E6D3451C002D0CD0242545430A4E3A
:10FBA0003668AD196D68EE1A24254543064F3F6847
:10FBB000ED196E604B60086224256543024E36687D
:10FBC000AD192A6200BFF0BD6C2800207828002003
:10FBD00070B502462C4C2168084609E0904200D1DD
:10FBE00009E0014624244443284D2D686419206A05
:10FBF000441C002CF2D100BF441C002C00D170BD6D
:10FC0000814217D1204C246824256C431F4D2D6858
:10FC10006419246A1C4D2C602C462468641C002C3A
:10FC200008D101241A4DAC6000241A4D2C60012427
:10FC3000194D2C7024244443144D2D6864196368B5
:10FC400024244443114D2D686419256A24244C430F
:10FC50000E4E3668A419256224244C430B4D2D68A2
:10FC60006419206A441C002C0CD024244443074D02
:10FC70002D6864196468E51824244443034E3668EB
:10FC8000A419656000BFBAE7782800206C2800201E
:10FC9000001001407C28002091280020FFB581B091
:10FCA00005460E461746E900104A1268881869464C
:10FCB00000F082F80446002C02D1042005B0F0BD0B
:10FCC000012020706660FFF791FAA060E760049859
:10FCD00020610A986061E900044A12688818009956
:10FCE00000F080F8FFF700FF0020E7E7742800200D
:10FCF000F8B520480068401C00283AD00027FFF7DC
:10FD000075FA04461C4801682046FFF79BFE06462C
:10FD10001848056811E02420684318490968441808
:10FD20006068B04200D90BE06068361A6068C71995
:10FD3000256A2046FFF78CFE00BF681C0028EAD128
:10FD400000BF0F4800780F490978884209D10D4853
:10FD50000078401CC0B20B490870022801D1002075
:10FD6000087008480078800007490F50FFF7BCFE74
:10FD700000BFF8BD782800207C2800206C280020D7
:10FD800088280020892800208028002010B5112014
:10FD9000FDF7F2FA10BD10B5FDF7A2FF012802D061
:10FDA000032804D101E0002403E0012401E002243F
:10FDB00000BF00BF204610BD70B502460B4650780C
:10FDC000411C9078884200D100211078884201D1EE
:10FDD000002070BD196050781826704355682C18A3
:10FDE0002046F6E7417070477CB506460120194968
:10FDF000087087DF04461848007800281DD017488F
:10FE000000884009401C4005010C6A461448FEF772
:10FE10007FFE012189026846FEF7C2FE044600BF4C
:10FE20002546002D05D000BF002211462846FDF7CB
:10FE3000FBFB00BF00200849087008480068192132
:10FE40008901884202D90020FFF740FB00200149C8
:10FE500008707CBD41280020402800203C2800205C
:10FE60002C280020F8B50746294800681430284996
:10FE7000086028480078002800D0F8BD0620FDF76B
:10FE8000D1FC254989684B22120151430846FF21C4
:10FE9000FDF76CF9410045184B20C00028181F4998
:10FEA000884233D91E48006863214901884203D93A
:10FEB0000020FFF799FFE0E71A480078400840006B
:10FEC00018490870084600780221884315490870CF
:10FED000852040010881801E48810020486088817B
:10FEE00087DF04460F4886DF044600BF2646002E03
:10FEF00005D000BF002211463046FDF795FB00BF3C
:10FF00000022094909480068FDF756FC00BFB4E724
:10FF10000C2800204128002000750040740E0000CD
:10FF20003C280020B8280020488100000428002038
:10FF300050FF010000280020B800000084D5010017
:10FF400008000200B8280020A816000094D501007F
:10FF500000000000000000000000000000000000A1
:10FF6000000000001F003B005A0078009700B50019
:10FF7000D400F300110130014E0100000000000028
:10FF80000000000000000000000000000000000071
:10FF9000000000000024F400000000000000000049
:10FFA000000000000000FFFF010000000000000052
:10FFB0000000000000000000000000000000000041
:10FFC0000000000000000000000000000000000031
:10FFD0000000000000000000000000000000000021
:10FFE0000000000000000000000000000000000011
:10FFF0000000000000000000000000000000000001
:020000040002F8
:080000000000000000000000F8
:040000050001D0C165
:00000001FF
