:020000040001F9
:10800000303B0020358101004F810100518101008A
:108010000000000000000000000000000000000060
:10802000000000000000000000000000538101007B
:108030000000000000000000558101005781010090
:1080400059810100598101005981010059810100C4
:1080500059810100000000005182010009820100E5
:1080600059810100598101005981010059810100A4
:108070005981010059810100598101005981010094
:10808000598101000D8401005981010059810100CD
:10809000358401003D840100E5840100598101001F
:1080A000598101005981010000000000000000001A
:1080B00000000000000000000000000000000000C0
:1080C0000348854600F08EF80048004709920100F9
:1080D000303B0020401E00BF00BF00BF00BF00BFFC
:1080E00000BF00BF00BF00BF00BF00BF00BFF1D195
:1080F00070470000401E00BF00BF00BF00BF00BFB0
:1081000000BF00BF00BF00BF00BF00BF00BFF1D174
:1081100070470000401E00BF00BF00BF00BF00BF8F
:1081200000BF00BF00BF00BF00BF00BF00BFF1D154
:10813000704700000321094802680A4302600848AA
:1081400002680A4302600748804707480047FEE785
:10815000FEE7FEE7FEE7FEE7FEE70000240500403D
:10816000540500401D850100C180010030B50B465B
:10817000014600202022012409E00D46D5409D4201
:1081800005D31D469540491B254695404019154687
:10819000521E002DF1DC30BD70B5002425460028AC
:1081A00001DA01244042002901DA01254942FFF7A2
:1081B000DDFFAC4200D04042002C00D0494270BDEF
:1081C000D2B201E00270401C491EFBD2704700226F
:1081D000F6E710B513460A4604461946FFF7F0FFC6
:1081E000204610BD064C0125064E05E0E36807CC8D
:1081F0002B430C3C98471034B442F7D3FFF764FF8D
:108200006CA001008CA0010010B50D48006800288A
:1082100014D000200A4908600A488068C4B20120CE
:10822000094948604B21090161430846FF21FFF7D6
:10823000B3FF410040180549088000BF10BD000091
:108240000071004000750040007000402E280020A2
:1082500070B5002400253B480068012810D13A4839
:108260004068C007C00F00280AD0002035490860C8
:10827000012436480068002802D034490868804745
:1082800030484068012810D12F484068022108403A
:1082900000280AD000212B48416001242B48406867
:1082A000002802D02949486880472648806801286C
:1082B00010D1254840680421084000280AD0002138
:1082C00020488160012421488068002802D01F498D
:1082D000886880471B48C068012810D11A48406848
:1082E0000821084000280AD000211648C160012456
:1082F0001648C068002802D01449C8688047114851
:108300004030C06B01280AD10F484068C00FC00739
:10831000002804D000200B494031C86301250C48D7
:108320000068002804D0002C02D00948006880476B
:10833000002D06D0152001218140064A116000BFA2
:1083400000BF70BD00610040006300401C3300208E
:108350006C28002000E200E0C206D20E012191400C
:10836000014A11607047000080E200E0C206D20EB0
:1083700001219140014A11607047000000E100E0D6
:10838000C206D20E01219140014A116070470000DF
:1083900000E200E010B5002819DA1A4A03071B0FA3
:1083A000083B9B089B00D2588307DC0EFF23A340A9
:1083B0009A438B071B0E8407E40EA3401A43114B0C
:1083C0000407240F083CA408A4001A5118E00E4A20
:1083D00003231B02D21883089B00D2588307DC0EAC
:1083E000FF23A3409A438B071B0E8407E40EA34090
:1083F0001A43054B032424021B198408A4001A51B4
:1084000010BD00001CED00E000E100E010B5002010
:10841000074908600021064841608160C160002072
:10842000034940390860486001F0C2FC10BD0000FB
:108430004011014010B501F08BFB10BDF0B585B0C7
:108440002448056900263FE014207043224909684A
:1084500044180120B040214909680840002831D063
:10846000E068C04368402168084007463946204616
:1084700001F07DF9174800696840039003980028CF
:108480000ED003980543E068C04368402168084067
:1084900000902046009901F06AF90098074300BF58
:1084A000A068A84338400190606828403840029096
:1084B000019902980843002803D022690199029883
:1084C000904700BF701CC6B2054800788642BBDBEF
:1084D00005B0F0BD0005005068280020602800208D
:1084E0006528002070B50C480068002810D00A48A4
:1084F00000688047044600BF2546002D06D000BF17
:1085000000221146284600F035F800BF00BF01E008
:1085100000F0D2FC70BD00007028002010B500F003
:1085200045FD002805D0074807494860C81307499A
:10853000886100F01FFD002802D0012004498860F6
:1085400010BD0000DFFF07C000050040006C0040C8
:108550000006004002E008C8121F08C1002AFAD134
:1085600070477047002001E001C1121F002AFBD1B3
:108570007047000000BFBFF34F8F04480449C86034
:10858000BFF34F8F00BF00BFFEE700000400FA05F5
:1085900000ED00E070B503460C461948006800285D
:1085A00001D1082070BD002A01D10720FAE7002B75
:1085B00001D10720F6E700211CE024204843104D9C
:1085C0002D68285C002814D10125242048430C4E36
:1085D0003668355424204843094D2D6840194470AD
:1085E00024204843064D2D684019826119600020FF
:1085F000D8E7491C034800788142DEDB0420D1E73C
:108600003828002034280020FFB581B00E461746D8
:108610001C4620468107890F002901D1012100E075
:108620000021002902D1072005B0F0BD002C01D1A6
:108630000720F9E700F0F8FF26490A980860264865
:1086400006702648046000250CE0002124206843C1
:10865000224A1268115424206843204A1268801864
:1086600001756D1CB542F0DB242070430419032012
:108670001B4908701B480460183400250CE0E90011
:10868000184A126888180021017041708770446090
:10869000182179430C196D1C032DF0DB0020C04319
:1086A0001149086000201149087011490870142010
:1086B000FFF752FE03211420FFF76CFE1420FFF792
:1086C00055FE019800F086FF00F07EFF0949086022
:1086D0000020A9E75828002034280020382800204E
:1086E0003C28002040280020442800205428002056
:1086F0005528002048280020FEB504460D461646A1
:1087000016480068002801D10820FEBD14480078F2
:10871000844201D2052D01D20720F6E724206043D0
:108720000E490968085C012801D00820EDE72420E3
:1087300060430A49096840184078012801D1284659
:1087400000E00020074601F086FB3B462A46214612
:108750000096019001F002FBD7E7000038280020C6
:108760003428002070B5044600BF042C01D1102429
:1087700000E04024012018494860200208210843F5
:108780001649486000201649086001201349086016
:10879000002013490860012012490860002501E00B
:1087A000681CC5B20E480068002801D1FF2DF7DB18
:1087B0000A4989684B22120151430846FF21FFF7FD
:1087C000D5FC41004018084908800120054948604F
:1087D00000200249086070BD007300400075004031
:1087E00000710040007000402E28002070B5021D6E
:1087F00001881B2932D1017D81292ED106210CE06F
:108800004C1ED31C1C5D164B1D881B885B1C144E14
:108810003380144B5C554B1ED9B20029F0DC00218B
:108820000CE003460F335C5C0D4B1D881B885B1C02
:108830000B4E33800B4B5C554B1CD9B21F29F0DB20
:1088400009490B680749064C248809197D39CB670B
:1088500003490988C91C024B198000BF00BF70BDC5
:108860001428002094280020102800200007000F62
:10887000002805DB092803DC01463031C8B208E0D6
:108880000A2805DB0F2803DC01463731C8B200E0B7
:10889000FF207047FEB51E480068401C002834D0F9
:1088A0001B480068242148431A4909684018456854
:1088B00000F08AFE0190184804682146019801F0F2
:1088C00022F9C61C15480078002801D100F08EFE60
:1088D000AE4201D2284600E0304604192402240AA0
:1088E00020460F49086000BF00F06EFE009001991D
:1088F000009801F008F9C71C2046019901F003F91E
:10890000874201D901F0A2FA01E000F08DFEFEBD20
:108910004428002038280020482800205C28002017
:108920004015014010B514484068C105C90D002923
:1089300020D00A46103A50B200280DDA0E4B1C33F4
:108940000407240F083CA408A4001B598407E40E64
:10895000E3401B069B0F0BE0084B032424021B196A
:108960008408A4001B598407E40EE3401B069B0FF8
:10897000D8B210BD0420FCE700ED00E000E100E00B
:10898000014614480078144A127890421DD01148CC
:108990000078401C0F4A107010460078022801D160
:1089A000002010700B48007880000C4A10580860B6
:1089B0000B4A086812688018094A1060104600685F
:1089C0000002000A1060012070470020086000BF0C
:1089D000FAE7000054280020552800204C280020E9
:1089E00048280020F0B50346002426E0164E3668DD
:1089F00024277E43154F3F68F01946689E4203D9ED
:108A00004668F61A46601DE046689B1B46683419A6
:108A10000026466006750C4E35680B4F066A3E60B0
:108A20000669002E08D00E193602360A86600669DD
:108A3000C66016680662156000BF03480068401CE7
:108A40000028D3D100BFF0BD4428002038280020E2
:108A5000F0B58BB09EA19FA000F012FE9CA19DA03E
:108A600000F00EFE9AA19DA000F00AFE9DA19FA01D
:108A700000F006FE002801D10BB0F0BD94A19EA02D
:108A800000F0FEFD92A19FA000F0FAFD90A1A1A030
:108A900000F0F6FD8EA1A9A000F0F2FD8CA1AAA025
:108AA00000F0EEFDABA1ACA000F0EAFD88A1ADA006
:108AB00000F0E6FDAFA1B1A000F0E2FD002806D174
:108AC000ACA185A000F0DCFD002800D1D4E780A196
:108AD000B4A000F0D5FDB7A1B7A000F0D1FDBAA1B8
:108AE000BCA000F0CDFDB3A1B3A000F0C9FDBDA1B5
:108AF000BEA000F0C5FDAFA1AFA000F0C1FDB9A1BF
:108B0000BEA000F0BDFDABA1ABA000F0B9FDBEA1C1
:108B1000C0A000F0B5FD002800D1ADE7A5A1A6A03A
:108B200000F0AEFDAFA1C0A000F0AAFDA1A1A2A0DF
:108B300000F0A6FDABA1C4A000F0A2FD9DA19EA0E7
:108B400000F09EFDA7A1C7A000F09AFD002800D16B
:108B500092E75FA1C5A000F093FD5DA1C6A000F063
:108B60008FFD032505E0C748405D01A94855681CF5
:108B7000C5B21B2DF7DB0420FFF7F4FDC24989685D
:108B80004B22120151430846FF21FFF7EFFA410043
:108B9000401884B23B216846C1772013FFF766FE78
:108BA000014608A801702012FFF760FE014608A8E0
:108BB00041702105080EFFF759FE014608A8817093
:108BC000E0B2FFF753FE014608A8C1700620FFF788
:108BD000C9FDAD4989684B22120151430846FF2166
:108BE000FFF7C4FA4100401884B23B2108A8017184
:108BF0002013FFF73BFE014608A841712012FFF742
:108C000035FE014608A881712105080EFFF72EFEEA
:108C1000014608A8C171E0B2FFF728FE08A9087252
:108C200064A165A000F02CFD98A000F095FD03263E
:108C300005E001A9885D00F035FE701CC6B2252E46
:108C4000F7DB23A194A000F01BFD21A194A000F06C
:108C500017FD58A158A000F013FD042621E0934908
:108C6000895D0811FFF702FE074600F01BFE8F49E1
:108C7000885DFFF7FBFD074600F014FE701C86B20E
:108C8000301F2821FFF788FA00290AD110A15DA022
:108C900000F0F6FC002800D1EEE646A146A000F068
:108CA000EFFC012080028642D9DB09A155A000F02B
:108CB000E7FC40A140A000F0E3FC05A17CA000F08F
:108CC000DFFC03A127A000F0DBFC00BFD4E600001E
:108CD0004F4B000041540D0A000000004154453044
:108CE0000D0A0000524541445900000041542B43F5
:108CF00050494E3F0D0A000061742B6373710D0AD9
:108D00000000000061742B63676174743D310D0ACB
:108D10000000000041542B434950435347503D311C
:108D20002C22636D6E6574222C2267756573742224
:108D30002C226775657374220D0A000061742B4341
:108D40005354540D0A00000041542B4349494352E7
:108D50000D0A00002E00000041542B434946535297
:108D60000D0A000041542B434950434C4F53453D9D
:108D7000310D0A006373746E6574000041542B4317
:108D8000495053544152543D22544350222C2231D5
:108D900035392E3232362E3235312E3131222C32C7
:108DA000350D0A0041542B434950535052543D3124
:108DB0000D0A00003E00000041542B43495053452A
:108DC0004E440D0A00000000636F72656D61696CAE
:108DD0000000000065686C6F2068656C6F0D0A1AF2
:108DE0000000000053454E440000000061757468A7
:108DF000206C6F67696E0D0A1A00000059324E6BC5
:108E000059773D3D0D0A1A00737563636573736688
:108E1000756C000059324E6B59324E7A6447356C8E
:108E200064413D3D0D0A1A004D41494C2046524FC8
:108E30004D3A3C6C7965406373746E65742E636E55
:108E40003E0D0A1A000000005243505420746F3A3D
:108E50003C63636463406373746E65742E636E3E3B
:108E60000D0A1A00444154410D0A1A0041542B4383
:108E70005245473D320D0A0041542B435245473F6E
:108E80000D0A0000942C0020007500405375626AA2
:108E90006563743A200000000D0A0D0A1A000000F4
:108EA00041542B435245473D300D0A009428002081
:108EB0000D0A2E0D0A1A0000F8B52948007800287E
:108EC00000D1F8BD27480068002801D1012000E04A
:108ED0000020054624480068002801D1012000E058
:108EE0000020064600BF002D14D1684651DF04461D
:108EF000052C01D101250CE0002C06D000BF00227A
:108F000011462046FFF736FB03E016490098096832
:108F1000884700BF002E1AD1144800880090694687
:108F20001348006860DF0446052C01D101260DE0DE
:108F3000002C06D000BF002211462046FFF71AFB86
:108F400004E00B48006808490968884700BF002D05
:108F500002D0002E00D000E0C5E700BF00BFB0E7A0
:108F60007A280020802800207C28002078280020F3
:108F7000742800200C48008CC0B2012812D10A4885
:108F8000808C0007000F00280CD10748806AF02170
:108F90000840402806D10448C06A0840002801D192
:108FA000012070470020FCE7C00F00F01948008C3A
:108FB000C0B201282CD11748808C0007000F002870
:108FC00026D11448806AF0210840002806D11148B3
:108FD000C06A0840002801D1012070470D48806A0E
:108FE000F0210840102806D10A48C06A084000282D
:108FF00001D10120F1E70748806AF02108403028BC
:1090000006D10448C06A0840002801D10120E4E7E5
:109010000020E2E7C00F00F0FEB52B480068019089
:109020002A480078009040E00098C000284909686C
:109030004418257835E01820684361680F18681CCB
:10904000C5B2A078A84200D100253878022802D005
:10905000032823D10EE02421786848431D4909687C
:109060004618307D002804D0786800F011FE0020FA
:10907000307514E00CE01449096824225143154A64
:1090800012688818002101750F4A016A116000BF3B
:109090000D480068401C0028EDD100E000BF00BF73
:1090A00000BF6078A842C6D100BF0098411EC9B277
:1090B00000910028B8D1044801680198814201D08C
:1090C0000120FEBD0020FCE7442800203C280020B1
:1090D0004028002038280020FEB507464348006895
:1090E000029043480078019071E00198C000414926
:1090F0000968451863E0781C002807D03E46242004
:1091000070433D4909684418276A29E029781823E3
:1091100059436A6850182978491C29702978AA7817
:10912000914201D100212970466824217143324ABD
:1091300012688C180178012902D1217D002900D004
:109140003DE08168A160C168E16001692161416918
:10915000E1612A490978002901D00021A16000BFFE
:109160002749A0680968401A0002000A2549884278
:1091700008D22349A068096800F0C5FCE1684018DE
:10918000606011E01E48A168006800F0BCFC00901F
:10919000E1680098814204D9E1680098081A60608B
:1091A00001E00020606000BF0020A060E0600120BE
:1091B0002075801E2062304600F0FCFC00BF781C49
:1091C000002898D128786978884294D100BF019806
:1091D000411EC9B20191002887D104480168029854
:1091E000814201D00120FEBD0020FCE74428002080
:1091F0003C28002040280020382800205D2800203E
:1092000048280020FFFF7F0008B50320052109073B
:109210000722120289180861042000F0C5F9002015
:10922000092302460821009000F0E2FA90A191A0E3
:1092300000F026FA8EA18FA000F022FA8CA18FA058
:1092400000F01EFA8FA191A000F01AFA88A192A056
:1092500000F016FA93A188A000F012FA002805D1B8
:1092600090A185A000F00CFA002866D080A18FA004
:1092700000F006FA002860D08F48407D31285CD18C
:109280008D48807D352858DB8B48007E30380A2198
:1092900048438949497E303940188749087608464D
:1092A000C07E30380A2148438349097F303940184D
:1092B0008149C8760846807F30380A2148437E4974
:1092C000C97F303940187C4988770846203040787B
:1092D00030380A214843784920318978303940189C
:1092E000C1B2754820304170007930380A214843B6
:1092F00071492031497930394018C1B26E48203067
:1093000001712038007E401E40006C49085A6A49AD
:10931000C97E4018182148436749897F40183C217D
:10932000484365492031497840183C214843624907
:10933000203109794018624908604DA161A000F010
:109340009FF94BA162A000F09BF949A164A000F035
:1093500097F967A168A000F093F9042000F01CF9C8
:10936000142000F0E5F800221146104600F000FB42
:1093700065490860B920654908704F4B0A460121CC
:109380006148006800F076FB00BF00234822604976
:10939000082000F0ADFA054600BF2B46002B05D093
:1093A00000BF002211461846FFF7E4F800BF00BFD7
:1093B000584800F091FA044600BF2346002B05D020
:1093C00000BF002211461846FFF7D4F800BF5248EC
:1093D00000F0C2FA044600BF2346002B05D000BFB0
:1093E000002211461846FFF7C5F800BF00BF002055
:1093F0004A4B052203210090FFF706F9054600BFFE
:109400002B46002B05D000BF002211461846FFF75F
:10941000B1F800BF00BF424A01214248FFF7BAF845
:109420000446414A00214148FFF7B4F8044600BF12
:109430002346002B05D000BF002211461846FFF737
:1094400099F800BF00220521490436480068FFF75B
:1094500053F900BF40DF044600BF2346002B05D070
:1094600000BF002211461846FFF784F8F2E700001B
:109470004F4B000041540D0A00000000415445319B
:109480000D0A0000524541445900000041542B434D
:1094900050494E3F0D0A000041542B434C54533D5C
:1094A000310D0A004453543A0000000041542B434C
:1094B000434C4B3F0D0A0000942C0020162800203E
:1094C0001028002041542B434C54533D300D0A00CA
:1094D00041542B434950534855540D0A0000000095
:1094E00041542B43474154543D300D0A00000000C5
:1094F000504F57455200000041542B43504F5744A2
:109500003D310D0A000000000828002094280020AA
:1095100094300020ED870100059B0100DC30002025
:10952000FD9F010000280020A99E010004280020C2
:1095300001B505E00098401E00900348FEF7CAFD03
:1095400000980028F6D108BDE703000010B58A0096
:1095500005231B07072424021B1984001A5110BD80
:1095600010B58A0005231B07072424021B19840059
:109570001A5110BD03210522120707231B02D2181E
:109580008300D150704703210522120707231B02D5
:10959000D2188300D150704701218140014AD16027
:1095A000704700000005005001218140014A916090
:1095B000704700000005005001218140014A916080
:1095C00070470000000500500148406870470000E7
:1095D0000015014010B504460348846003211120A2
:1095E000FEF7D8FE10BD00000015014010B50120A7
:1095F00000040A4948600949403948601120FEF7D3
:10960000ABFE1120FEF7B2FE0120054908602F20B5
:10961000FEF780FD01200349087010BD4013014092
:10962000001001405C28002010B51120012181406C
:109630000E4A116000BF012000040D4988600C49EA
:109640004039886001200B4948602F20FEF762FDF9
:109650000120084988600020074908602F20FEF794
:1096600059FD00200549087010BD000080E100E0B0
:109670004013014000100140482800205C280020D1
:10968000F3B581B0074600200090002501E0681C7A
:10969000C5B20298405D0028F9D1681EC5B2002607
:1096A0002C46FF2101312A48FEF791FD03E038786E
:1096B0007F1C00F0F7F838780028F8D12CE0032C54
:1096C00015DD201F2249085C452810D1E01E085CEA
:1096D00052280CD1A01E085C522808D1601E085CDC
:1096E0004F2804D10846005D522800D11BE0002617
:1096F0000AE00298805D611B8919154A515C884215
:1097000000D003E0701CC6B2AE42F2DB00BFAE4236
:1097100000D108E0601CC4B20D4801190D4800F0EA
:109720009DF80028CBD100BFAE420DD101200090A2
:1097300000BF2046621CD4B2054A8118012000F007
:109740008DF80028F5D101E0002000900098FEBDC2
:10975000942C00201027000010B5044603E0207868
:10976000641C00F09FF820780028F8D110BDF0B5F7
:1097700002460C46002037E0012383401946234669
:109780000B40002B2FD0D5680D40002D05D10123B3
:109790005B04D5680D43D56004E003231B04D56842
:1097A0008D43D56005252D0707263602AD198600A5
:1097B000AD5903263604B5430526360707273F0271
:1097C000F6198700F55105252D0707263602AD1934
:1097D0008600AD591D430526360707273F02F619B7
:1097E0008700F55100BF401C2028C5D3F0BD000004
:1097F000F8B507460C4615461E462046FFF7C3FE41
:1098000000213046FFF7ACFE1048C4604661069860
:1098100000280DD03846FFF7B6FE00212846FFF796
:109820009FFE0A4805618760012008494031C862EF
:1098300007480649486204200860012005498860FD
:109840000860002004498860F8BD00000025004041
:1098500000509D00002000400021004070B50446EB
:109860000D4601260AE02046641E002804DB7D2008
:10987000C000FEF73FFC01E0002603E007488068D7
:109880000128F0D100BF002C05DB002003498860CF
:10989000034880692870304670BD000000210040F8
:1098A000002500400549C86100BF0549C969012973
:1098B000FBD10021024AD161704700000025004021
:1098C0000021004070B506460C4615462946204644
:1098D000C046C04670BD00000146002901D10E20DF
:1098E0007047024801600020FAE700007C28002051
:1098F000FFB581B00C4616461F46002C02D107204A
:1099000005B0F0BD20468107890F002901D1012152
:1099100000E00021002901D10720F1E70948046097
:1099200009480680094807600949019810DF054683
:10993000002D01D02846E3E70120064908701620D3
:1099400026DFDDE77428002078280020702800201A
:10995000C59801007A2800200146002901D10E2077
:109960007047024801600020FAE7000080280020CC
:10997000F7B506460F46002E01D13C4800E03C48B2
:109980000446002E1FD10220FFF7F4FD0120FFF74F
:10999000F1FD00210846FFF7D9FD1D20FFF7EAFD84
:1099A00002200521090261188860012005210902B1
:1099B0006118C860002005210902611808611D2096
:1099C000FFF7FAFD1EE00220FFF7D4FD0120FFF7AC
:1099D000D1FD00210846FFF7B9FD1C20FFF7CAFDA5
:1099E0000220052109026118886001200521090271
:1099F0006118C860002005210902611808611C2057
:109A0000FFF7DAFD0120000705210902611848620D
:109A1000002F06D0012F06D0022F06D0032F08D129
:109A200005E0002507E0022505E0042503E0062502
:109A300001E0002500BF00BF0298002806D00120E9
:109A40002843052109026118486503E0052000024A
:109A5000201845650021FF20093001510120052112
:109A60000902611808602046FEBD00000030004079
:109A700000400040FFB581B000270026019D1F482F
:109A8000019D854201D11D2400E01C2400BF01205E
:109A9000A0401B49C86000BF27E00398805D0521F6
:109AA00009026918C86100E07F1CFF200930405995
:109AB000002803D1032000038742F5D303200003CD
:109AC000874205D12046FFF777FD002005B0F0BDA5
:109AD0000021FF200930415105200002281880692B
:109AE000C1B204988155701C86B202988642D4DBBC
:109AF0002046FFF761FD0120E8E70000003000404C
:109B00000005005070470246501A0002000A7047D4
:109B100070B504460D480068002812D00B4AE16970
:109B2000A06912689047054600BF2E46002E06D059
:109B300000BF002211463046FEF71CFD00BF00BFEB
:109B400002E0A169E069884770BD00005828002044
:109B5000FEB50020C0430190104804681048076813
:109B60006846FEF70DFF0546FFF756FA0646002D3C
:109B700005D001AA21460098FEF734FF012601987E
:109B8000FFF7AAFA002800D00126002E02D038469E
:109B9000FEF780FE002003490870FEBD4828002023
:109BA000442800205D28002010B51420FEF7E8FBB3
:109BB00010BD0000F0B5024624205043324B1B6814
:109BC000C11832480068401C002802D12F480260AA
:109BD00059E02E484B680068242460432A4C2468CE
:109BE00000194068834217D8284800682423584346
:109BF000254B1B68C01840684B68C31A234800688F
:109C000024246043204C2468001943601F480068E6
:109C100008621E48026036E04B681C4D2C682868BC
:109C20000DE024254543184E3668AD196D685B1B61
:109C3000044624254543144E3668AD19286A451C50
:109C4000002D07D0242545430F4E3668AD196D68A9
:109C50009D42E6D3451C002D0CD0242545430A4ED9
:109C60003668AD196D68EE1A24254543064F3F68E6
:109C7000ED196E604B60086224256543024E36681C
:109C8000AD192A6200BFF0BD38280020442800200A
:109C900070B502462C4C2168084609E0904200D17C
:109CA00009E0014624244443284D2D686419206AA4
:109CB000441C002CF2D100BF441C002C00D170BD0C
:109CC000814217D1204C246824256C431F4D2D68F8
:109CD0006419246A1C4D2C602C462468641C002CDA
:109CE00008D101241A4DAC6000241A4D2C600124C7
:109CF000194D2C7024244443144D2D686419636855
:109D000024244443114D2D686419256A24244C43AE
:109D10000E4E3668A419256224244C430B4D2D6841
:109D20006419206A441C002C0CD024244443074DA1
:109D30002D6864196468E51824244443034E36688A
:109D4000A419656000BFBAE7442800203828002025
:109D500000100140482800205D280020FFB581B098
:109D600005460E461746E900104A126888186946EB
:109D700000F082F80446002C02D1042005B0F0BDAA
:109D8000012020706660FFF71FFCA060E760049868
:109D900020610A986061E900044A126888180099F5
:109DA00000F080F8FFF700FF0020E7E740280020E0
:109DB000F8B520480068401C00283AD00027FFF77B
:109DC00003FC04461C4801682046FFF79CFE06463B
:109DD0001848056811E024206843184909684418A8
:109DE0006068B04200D90BE06068361A6068C71935
:109DF000256A2046FFF78CFE00BF681C0028EAD1C8
:109E000000BF0F4800780F490978884209D10D48F2
:109E10000078401CC0B20B490870022801D1002014
:109E2000087008480078800007490F50FFF7BCFE13
:109E300000BFF8BD44280020482800203828002012
:109E400054280020552800204C28002010B511204F
:109E5000FEF796FA10BD10B5FEF764FD012802D09A
:109E6000032804D101E0002403E0012401E00224DE
:109E700000BF00BF204610BD70B502460B465078AB
:109E8000411C9078884200D100211078884201D18D
:109E9000002070BD196050781826704355682C1842
:109EA0002046F6E74170704738B5054687DF04461F
:109EB00000BF2346002B05D000BF002211461846E4
:109EC000FEF758FB00BFAB2037490870374B0A46F6
:109ED000012137480068FFF7CDFD0120FFF728FB7F
:109EE000822031490870334800888004000E487091
:109EF000304800788006000E88700020C8702B4B18
:109F00000A46FF2101312A480068FFF7B3FD1420FB
:109F1000FFF70EFBB92024490870244B0A460121A3
:109F200023480068FFF7A6FD22480088401C21490D
:109F30000880214800881B214901884233DD042024
:109F40001D490880FFF728FB6420FFF7F1FA042081
:109F5000FFF72AFB01201949C863002009230246A4
:109F600008210090FFF744FCFEF772FD14A115A034
:109F7000FFF786FB12A117A0FFF782FB19A11BA018
:109F8000FFF77EFB0420FFF70FFB6420FFF7D0FAFA
:109F90000420FFF701FB012189020348FEF717F9AE
:109FA00000200649C86338BD94280020942C002066
:109FB000082800200C28002014280020C02F004072
:109FC0004F4B000041542B434950534855540D0A00
:109FD0000000000041542B43474154543D300D0ACA
:109FE00000000000504F57455200000041542B43E1
:109FF000504F57443D310D0A0000000070B5054632
:10A000001648007840084000144908700846007857
:10A010000221884311490870852040010881801E73
:10A020004881002048608881084686DF044600BFDA
:10A030002346002B05D000BF002211461846FEF72C
:10A0400099FA00BF064800681430054908600022EC
:10A05000044905480068FEF74FFB70BD84280020C6
:10A060001028002048810000042800208CA0010056
:10A0700000280020840000005485010010A1010088
:10A0800084280020AC12000064850100000000005C
:10A0900000000000000000000000000000000000C0
:10A0A000040000001F003B005A0078009700B50034
:10A0B000D400F300110130014E0100000024F4002F
:10A0C0000000000000000000000000000000000090
:10A0D0000000000000000000000000000000000080
:10A0E0000000000000000000000000000000000070
:10A0F0000000000000000000000000000000000060
:10A10000000000000000000000000000000000004F
:04000005000180C1B5
:00000001FF
